{"contracts/BetFactoryCOFI.sol":{"BetFactoryCOFI":{"abi":[{"inputs":[{"internalType":"address","name":"_usdcToken","type":"address"}],"stateMutability":"nonpayable","type":"constructor"},{"inputs":[{"internalType":"address","name":"owner","type":"address"}],"name":"OwnableInvalidOwner","type":"error"},{"inputs":[{"internalType":"address","name":"account","type":"address"}],"name":"OwnableUnauthorizedAccount","type":"error"},{"anonymous":false,"inputs":[{"indexed":true,"internalType":"address","name":"betAddress","type":"address"},{"indexed":true,"internalType":"address","name":"creator","type":"address"},{"indexed":false,"internalType":"string","name":"title","type":"string"},{"indexed":false,"internalType":"uint256","name":"endDate","type":"uint256"}],"name":"BetCreated","type":"event"},{"anonymous":false,"inputs":[{"indexed":true,"internalType":"address","name":"betAddress","type":"address"},{"indexed":true,"internalType":"address","name":"bettor","type":"address"},{"indexed":false,"internalType":"bool","name":"onSideA","type":"bool"},{"indexed":false,"internalType":"uint256","name":"amount","type":"uint256"}],"name":"BetPlaced","type":"event"},{"anonymous":false,"inputs":[{"indexed":true,"internalType":"address","name":"betContract","type":"address"},{"indexed":false,"internalType":"uint8","name":"oldStatus","type":"uint8"},{"indexed":false,"internalType":"uint8","name":"newStatus","type":"uint8"}],"name":"BetStatusChanged","type":"event"},{"anonymous":false,"inputs":[{"indexed":true,"internalType":"address","name":"oldReceiver","type":"address"},{"indexed":true,"internalType":"address","name":"newReceiver","type":"address"}],"name":"BridgeReceiverUpdated","type":"event"},{"anonymous":false,"inputs":[{"indexed":true,"internalType":"address","name":"creator","type":"address"},{"indexed":false,"internalType":"bool","name":"approved","type":"bool"}],"name":"CreatorApprovalUpdated","type":"event"},{"anonymous":false,"inputs":[{"indexed":true,"internalType":"address","name":"betContract","type":"address"},{"indexed":false,"internalType":"uint32","name":"sourceChainId","type":"uint32"}],"name":"OracleResolutionReceived","type":"event"},{"anonymous":false,"inputs":[{"indexed":true,"internalType":"address","name":"previousOwner","type":"address"},{"indexed":true,"internalType":"address","name":"newOwner","type":"address"}],"name":"OwnershipTransferred","type":"event"},{"anonymous":false,"inputs":[{"indexed":true,"internalType":"address","name":"betContract","type":"address"},{"indexed":true,"internalType":"address","name":"creator","type":"address"},{"indexed":false,"internalType":"uint8","name":"resolutionType","type":"uint8"},{"indexed":false,"internalType":"string","name":"title","type":"string"},{"indexed":false,"internalType":"string","name":"sideAName","type":"string"},{"indexed":false,"internalType":"string","name":"sideBName","type":"string"},{"indexed":false,"internalType":"bytes","name":"resolutionData","type":"bytes"},{"indexed":false,"internalType":"uint256","name":"timestamp","type":"uint256"}],"name":"ResolutionRequested","type":"event"},{"inputs":[{"internalType":"uint256","name":"","type":"uint256"}],"name":"activeBets","outputs":[{"internalType":"address","name":"","type":"address"}],"stateMutability":"view","type":"function"},{"inputs":[{"internalType":"uint256","name":"","type":"uint256"}],"name":"allBets","outputs":[{"internalType":"address","name":"","type":"address"}],"stateMutability":"view","type":"function"},{"inputs":[{"internalType":"address","name":"","type":"address"}],"name":"approvedCreators","outputs":[{"internalType":"bool","name":"","type":"bool"}],"stateMutability":"view","type":"function"},{"inputs":[],"name":"bridgeReceiver","outputs":[{"internalType":"address","name":"","type":"address"}],"stateMutability":"view","type":"function"},{"inputs":[{"internalType":"address","name":"_creator","type":"address"}],"name":"canCreateBet","outputs":[{"internalType":"bool","name":"","type":"bool"}],"stateMutability":"view","type":"function"},{"inputs":[{"internalType":"string","name":"title","type":"string"},{"internalType":"string","name":"resolutionCriteria","type":"string"},{"internalType":"string","name":"sideAName","type":"string"},{"internalType":"string","name":"sideBName","type":"string"},{"internalType":"uint256","name":"endDate","type":"uint256"},{"internalType":"uint8","name":"resolutionType","type":"uint8"},{"internalType":"bytes","name":"resolutionData","type":"bytes"}],"name":"createBet","outputs":[{"internalType":"address","name":"","type":"address"}],"stateMutability":"nonpayable","type":"function"},{"inputs":[{"internalType":"address","name":"","type":"address"}],"name":"deployedBets","outputs":[{"internalType":"bool","name":"","type":"bool"}],"stateMutability":"view","type":"function"},{"inputs":[{"internalType":"uint8","name":"_resolutionType","type":"uint8"}],"name":"forwardResolutionRequest","outputs":[],"stateMutability":"nonpayable","type":"function"},{"inputs":[],"name":"getActiveBets","outputs":[{"internalType":"address[]","name":"","type":"address[]"}],"stateMutability":"view","type":"function"},{"inputs":[],"name":"getActiveBetsCount","outputs":[{"internalType":"uint256","name":"","type":"uint256"}],"stateMutability":"view","type":"function"},{"inputs":[],"name":"getAllBets","outputs":[{"internalType":"address[]","name":"","type":"address[]"}],"stateMutability":"view","type":"function"},{"inputs":[],"name":"getBetCount","outputs":[{"internalType":"uint256","name":"","type":"uint256"}],"stateMutability":"view","type":"function"},{"inputs":[{"internalType":"uint8","name":"status","type":"uint8"}],"name":"getBetsByStatus","outputs":[{"internalType":"address[]","name":"","type":"address[]"}],"stateMutability":"view","type":"function"},{"inputs":[],"name":"getResolvedBets","outputs":[{"internalType":"address[]","name":"","type":"address[]"}],"stateMutability":"view","type":"function"},{"inputs":[],"name":"getResolvingBets","outputs":[{"internalType":"address[]","name":"","type":"address[]"}],"stateMutability":"view","type":"function"},{"inputs":[],"name":"getUndeterminedBets","outputs":[{"internalType":"address[]","name":"","type":"address[]"}],"stateMutability":"view","type":"function"},{"inputs":[{"internalType":"address","name":"b","type":"address"}],"name":"isLegitBet","outputs":[{"internalType":"bool","name":"","type":"bool"}],"stateMutability":"view","type":"function"},{"inputs":[{"internalType":"uint8","name":"_oldStatus","type":"uint8"},{"internalType":"uint8","name":"_newStatus","type":"uint8"}],"name":"notifyStatusChange","outputs":[],"stateMutability":"nonpayable","type":"function"},{"inputs":[],"name":"owner","outputs":[{"internalType":"address","name":"","type":"address"}],"stateMutability":"view","type":"function"},{"inputs":[{"internalType":"address","name":"betAddress","type":"address"},{"internalType":"bool","name":"onSideA","type":"bool"},{"internalType":"uint256","name":"amount","type":"uint256"}],"name":"placeBet","outputs":[],"stateMutability":"nonpayable","type":"function"},{"inputs":[{"internalType":"uint32","name":"_sourceChainId","type":"uint32"},{"internalType":"address","name":"","type":"address"},{"internalType":"bytes","name":"_message","type":"bytes"}],"name":"processBridgeMessage","outputs":[],"stateMutability":"nonpayable","type":"function"},{"inputs":[],"name":"renounceOwnership","outputs":[],"stateMutability":"nonpayable","type":"function"},{"inputs":[{"internalType":"uint256","name":"","type":"uint256"}],"name":"resolvedBets","outputs":[{"internalType":"address","name":"","type":"address"}],"stateMutability":"view","type":"function"},{"inputs":[{"internalType":"uint256","name":"","type":"uint256"}],"name":"resolvingBets","outputs":[{"internalType":"address","name":"","type":"address"}],"stateMutability":"view","type":"function"},{"inputs":[{"internalType":"address","name":"_bridgeReceiver","type":"address"}],"name":"setBridgeReceiver","outputs":[],"stateMutability":"nonpayable","type":"function"},{"inputs":[{"internalType":"address","name":"_creator","type":"address"},{"internalType":"bool","name":"_approved","type":"bool"}],"name":"setCreatorApproval","outputs":[],"stateMutability":"nonpayable","type":"function"},{"inputs":[{"internalType":"address","name":"newOwner","type":"address"}],"name":"transferOwnership","outputs":[],"stateMutability":"nonpayable","type":"function"},{"inputs":[{"internalType":"uint256","name":"","type":"uint256"}],"name":"undeterminedBets","outputs":[{"internalType":"address","name":"","type":"address"}],"stateMutability":"view","type":"function"},{"inputs":[],"name":"usdcToken","outputs":[{"internalType":"address","name":"","type":"address"}],"stateMutability":"view","type":"function"}],"evm":{"bytecode":{"linkReferences":{},"object":"60a03461012157601f62004b4a38819003918201601f19168301916001600160401b038311848410176101265780849260209460405283398101031261012157516001600160a01b03808216808303610121573315610108576000543360018060a01b0319821617600055604051923391167f8be0079c531659141344cd1fd0a4f28419497f9722a3daafe3b4186f6b6457e0600080a3156100c65750608052604051614a0d90816200013d823960805181818161037f01528181610f9701526116c50152f35b62461bcd60e51b815260206004820152601460248201527f496e76616c6964205553444320616464726573730000000000000000000000006044820152606490fd5b604051631e4fbdf760e01b815260006004820152602490fd5b600080fd5b634e487b7160e01b600052604160045260246000fdfe608060408181526004803610156200001657600080fd5b600092833560e01c9081630a208972146200177e57508063107d67c214620016f457806311eac85514620016ae5780631644af8814620016555780631d8e2047146200145d5780632c136c341462000ed85780633591ca4114620014045780635523246714620013c45780636532e2c3146200133a578063700eae7314620012b0578063715018a61462001252578063749598eb146200121d578063766486371462000f1a57806376aa5f0e1462000ed85780638da5cb5b1462000eae578063976ac9b81462000ba5578063a489d26714620009c7578063a6c8260f146200098d578063ada730201462000913578063af768ee314620008c7578063b93dab0b14620008a6578063d044e81f14620007e8578063db01ea8c146200078b578063df7ebae314620006ee578063e0ced0e11462000691578063ea0d5bb5146200060c578063ed53afa314620005e7578063f2b3742114620002155763f2fde38b146200018057600080fd5b346200021157602036600319011262000211576200019d6200182c565b90620001a862001c85565b6001600160a01b03918216928315620001fb575050600054826001600160601b0360a01b821617600055167f8be0079c531659141344cd1fd0a4f28419497f9722a3daafe3b4186f6b6457e0600080a380f35b51631e4fbdf760e01b8152908101849052602490fd5b8280fd5b509034620002115760e0366003190112620002115767ffffffffffffffff8235818111620005df576200024c9036908501620018be565b93602480358381116200021157620002689036908701620018be565b92604435818111620005e357620002839036908801620018be565b93606435828111620005df576200029e9036908901620018be565b916084359560a4359360ff8516809503620005da5760c435838111620005d657620002cd9036908c01620018be565b91620002d9336200194d565b15620005945760028611620005525760038610156200054057895194612cb7808701958611878710176200052e57926200035e620003bf95938f8e6200036d95620003416200034f938d9c9a8d62001d019039610140338c528060208d01528b019062001a23565b91898303908a015262001a23565b90868203606088015262001a23565b90848203608086015262001a23565b918960a082015260018060a01b0396877f00000000000000000000000000000000000000000000000000000000000000001660c08301523060e083015261010082015261012081840391015262001a23565b039084f0801562000524571694600254600160401b908181101562000510576001810180600255811015620004fc57908693929160026000527f405787fa12a823e0f2b7631cc41b3ba8828b3321ca811111fa75cd3aa3bb5ace01946001600160601b0360a01b9589878254161790558881526003602052848120600160ff1982541617905560055494859160096020522055831015620004e9576001830180600555831015620004d65750506020958592837fa0e09974d118264cff0d028384e1669025a2ae53f51a900a53b37ed8f632b69b936005600052600080516020620049b88339815191520191825416179055620004c58551918683528683019062001a23565b93878201528033940390a351908152f35b603290634e487b7160e01b600052526000fd5b604190634e487b7160e01b600052526000fd5b83603284634e487b7160e01b600052526000fd5b83604184634e487b7160e01b600052526000fd5b85513d85823e3d90fd5b634e487b7160e01b8a5260418d52888afd5b634e487b7160e01b885260218b528688fd5b895162461bcd60e51b81526020818d01526017818901527f496e76616c6964207265736f6c7574696f6e20747970650000000000000000006044820152606490fd5b895162461bcd60e51b81526020818d0152601d818901527f4e6f7420617574686f72697a656420746f2063726561746520626574730000006044820152606490fd5b8780fd5b600080fd5b8480fd5b8380fd5b50503462000608578160031936011262000608576020906005549051908152f35b5080fd5b509034620002115780600319360112620002115760207f022f105edb13003ae9b7abdabb9ea0c23acc72407ec6854987dee707d52c3ab2916200064e6200182c565b906200065962001843565b916200066462001c85565b6001600160a01b0316808752948352808620805460ff191692151560ff811693909317905551908152a280f35b503462000211576020366003190112620002115735600254811015620002115760026000527f405787fa12a823e0f2b7631cc41b3ba8828b3321ca811111fa75cd3aa3bb5ace015490516001600160a01b03909116815260209150f35b8284346200078857806003193601126200078857508051600680548083526000918252602080840194927ff652222313e28459528d920b65115c16c04f3efc82aaedc97be59f3f377c0d3f92915b828210620007675762000763868662000758828b03836200187e565b5191829182620017a5565b0390f35b83546001600160a01b0316875295860195600193840193909101906200073c565b80fd5b503462000211576020366003190112620002115735600654811015620002115760066000527ff652222313e28459528d920b65115c16c04f3efc82aaedc97be59f3f377c0d3f015490516001600160a01b03909116815260209150f35b5034620002115760203660031901126200021157620008066200182c565b906200081162001c85565b6001600160a01b0391821692831562000863575050600154826001600160601b0360a01b821617600155167fa8803d9e6a41a59e9581926a91f2dfbebeb38d9dec8366511c6d5906f4df91fd8380a380f35b906020606492519162461bcd60e51b8352820152601760248201527f496e76616c6964206272696467652072656365697665720000000000000000006044820152fd5b50503462000608578160031936011262000608576020906002549051908152f35b50346200021157602036600319011262000211573560055481101562000211576005600052600080516020620049b8833981519152015490516001600160a01b03909116815260209150f35b828434620007885780600319360112620007885750805160058054808352600091825260208084019492600080516020620049b883398151915292915b8282106200096c5762000763868662000758828b03836200187e565b83546001600160a01b03168752958601956001938401939091019062000950565b5050346200060857602036600319011262000608576200076390620009bb620009b56200181b565b62001a4a565b905191829182620017a5565b50903462000211576060366003190112620002115781359063ffffffff8216809203620005e3576001600160a01b0392602490813585811603620005da5767ffffffffffffffff604435818111620005d65736602382011215620005d6578083013582811162000b64578101908482019136831162000ba1578860015416330362000b6857818791031262000b64578481013597881680980362000b6457604481013592831162000b645762000a8092018401620018be565b858752600360205260ff84882054161562000b2b5790869291863b15620005e357839162000ac7602092875195869485946321701a1560e01b865285015283019062001a23565b038183895af1801562000b215762000b09575b50507ff48e5601fdd68324e52189ade6b4c91601505aed58bceb325b802d82ddc5ba889160209151908152a280f35b62000b149062001853565b620005e357833862000ada565b83513d84823e3d90fd5b506014606492602085519362461bcd60e51b855284015282015273155b9adb9bdddb8818995d0818dbdb9d1c9858dd60621b6044820152fd5b8880fd5b865162461bcd60e51b81526020818701526014818801527327b7363c90313934b233b2903932b1b2b4bb32b960611b6044820152606490fd5b8980fd5b5034620002115760209081600319360112620005e35762000bc56200181b565b923385526003835262000bde60ff82872054166200190b565b80516302d05d3f60e01b81529280848481335afa93841562000ea457869462000e5a575b50815163129e754360e21b815286818581335afa90811562000e5057879162000e32575b508251638eb1a4ad60e01b81529187838681335afa92831562000e2857889362000e08575b50835163a355f89760e01b81529688888781335afa97881562000dd557899862000ddf575b5088855180976307ff419760e41b825281335afa95861562000dd557899662000d2f575b50847f7ed76a1d21ec00e23d69cc38e2a66af666a11ca0497abfcc47f427d98abdf9ab969462000ce762000d049560c060ff9c9662000cf59662000d139b519e8f911690528d015260c08c019062001a23565b918a8303908b015262001a23565b90878203606089015262001a23565b90858203608087015262001a23565b4260a08501526001600160a01b0390921692339281900390a380f35b929495509296903d808a853e62000d4781856200187e565b830192818185031262000ba15780519067ffffffffffffffff821162000dd157019583601f8801121562000ba15760ff9862000ce762000d139760c08562000dbe62000d04998d62000cf5997f7ed76a1d21ec00e23d69cc38e2a66af666a11ca0497abfcc47f427d98abdf9ab9f519101620019a6565b9b50969c50509550509491509462000c94565b8a80fd5b85513d8b823e3d90fd5b62000e009198503d808b833e62000df781836200187e565b810190620019e4565b963862000c70565b62000e209193503d808a833e62000df781836200187e565b913862000c4b565b84513d8a823e3d90fd5b62000e4991503d8089833e62000df781836200187e565b3862000c26565b83513d89823e3d90fd5b9080945081813d831162000e9c575b62000e7581836200187e565b8101031262000e9857516001600160a01b038116810362000e9857923862000c02565b8580fd5b503d62000e69565b82513d88823e3d90fd5b5050346200060857816003193601126200060857905490516001600160a01b039091168152602090f35b50503462000608576020366003190112620006085760209160ff9082906001600160a01b0362000f076200182c565b1681526003855220541690519015158152f35b503462000211576060366003190112620002115762000f386200182c565b62000f4262001843565b9260443560018060a01b03809316938487526020936003855260ff848920541615620011da578215620011975784889160648651809481936323b872dd60e01b835233888401528b60248401528860448401527f0000000000000000000000000000000000000000000000000000000000000000165af190811562000e285788916200115a575b50156200112057869086156200106f57853b156200060857835163845e45f960e01b81523391810191825260208201849052908290829081906040010381838a5af1801562001065576200104d575b50507fd59b563bb2b80ce65f5745a10c201715e77c2155cd1409a912757188d66454d0925b825195151586528501523393a380f35b620010589062001853565b62000e9857853862001018565b84513d84823e3d90fd5b9085949293943b1562000788578451637beed23960e11b815233928101928352602083018590529182908190604001038183895af180156200111657620010dc575b50907fd59b563bb2b80ce65f5745a10c201715e77c2155cd1409a912757188d66454d092916200103d565b956200110c7fd59b563bb2b80ce65f5745a10c201715e77c2155cd1409a912757188d66454d09493929762001853565b95909192620010b1565b84513d89823e3d90fd5b825162461bcd60e51b815290810184905260146024820152731554d110c81d1c985b9cd9995c8819985a5b195960621b6044820152606490fd5b90508481813d83116200118f575b6200117481836200187e565b81010312620005d657518015158103620005d6573862000fc9565b503d62001168565b835162461bcd60e51b8152808301869052601d60248201527f416d6f756e74206d7573742062652067726561746572207468616e20300000006044820152606490fd5b835162461bcd60e51b8152808301869052601960248201527f426574206e6f742066726f6d207468697320666163746f7279000000000000006044820152606490fd5b50503462000608576020366003190112620006085760209062001249620012436200182c565b6200194d565b90519015158152f35b833462000788578060031936011262000788576200126f62001c85565b80546001600160a01b03198116825581906001600160a01b03167f8be0079c531659141344cd1fd0a4f28419497f9722a3daafe3b4186f6b6457e08280a380f35b82843462000788578060031936011262000788578151918291600254808552602080950194600283527f405787fa12a823e0f2b7631cc41b3ba8828b3321ca811111fa75cd3aa3bb5ace92905b828210620013195762000763868662000758828b03836200187e565b83546001600160a01b031687529586019560019384019390910190620012fd565b82843462000788578060031936011262000788578151918291600754808552602080950194600783527fa66cc928b5edb82af9bd49922954155ab7b0942694bea4ce44661d9a8736c68892905b828210620013a35762000763868662000758828b03836200187e565b83546001600160a01b03168752958601956001938401939091019062001387565b503462000211576020366003190112620002115760209260ff918391906001600160a01b03620013f36200182c565b168252855220541690519015158152f35b503462000211576020366003190112620002115735600854811015620002115760086020935260018060a01b03907ff3f7a9fe364faab93b216da50a3214154f22a0a2b415b23a84c8169e8b636ee30154169051908152f35b5091903462000608578060031936011262000608576200147c6200181b565b9060249182359060ff8216809203620005df5760ff903386526003602052620014aa8285882054166200190b565b169285841015620015c057620014c08462001cb2565b338652600960205283862054815460001991908281019081116200164357808203620015e3575b505081548015620015d1570190620015008282620017ec565b81549060018060a01b039060031b1b191690555585821015620015c057620015288262001cb2565b9081549633875260096020528785882055600160401b881015620015af57505062001581866200159f9260017f3b1e15094802f233de40fa53d8147da5af571de7d66c88e22778d05f8430291e979899018155620017ec565b81546001600160a01b0360039290921b91821b19163390911b179055565b815193845260208401523392a280f35b634e487b7160e01b87526041905285fd5b634e487b7160e01b85526021865284fd5b634e487b7160e01b8852603189528388fd5b620015ef9084620017ec565b905460039190911b1c6001600160a01b03166200163081620016128487620017ec565b90919060018060a01b038084549260031b9316831b921b1916179055565b88526009602052858820553880620014e7565b634e487b7160e01b895260118a528489fd5b503462000211576020366003190112620002115735600754811015620002115760076020935260018060a01b03907fa66cc928b5edb82af9bd49922954155ab7b0942694bea4ce44661d9a8736c6880154169051908152f35b5050346200060857816003193601126200060857517f00000000000000000000000000000000000000000000000000000000000000006001600160a01b03168152602090f35b82843462000788578060031936011262000788578151918291600854808552602080950194600883527ff3f7a9fe364faab93b216da50a3214154f22a0a2b415b23a84c8169e8b636ee392905b8282106200175d5762000763868662000758828b03836200187e565b83546001600160a01b03168752958601956001938401939091019062001741565b84903462000608578160031936011262000608576001546001600160a01b03168152602090f35b602090602060408183019282815285518094520193019160005b828110620017ce575050505090565b83516001600160a01b031685529381019392810192600101620017bf565b8054821015620018055760005260206000200190600090565b634e487b7160e01b600052603260045260246000fd5b6004359060ff82168203620005da57565b600435906001600160a01b0382168203620005da57565b602435908115158203620005da57565b67ffffffffffffffff81116200186857604052565b634e487b7160e01b600052604160045260246000fd5b90601f8019910116810190811067ffffffffffffffff8211176200186857604052565b67ffffffffffffffff81116200186857601f01601f191660200190565b81601f82011215620005da57803590620018d882620018a1565b92620018e860405194856200187e565b82845260208383010111620005da57816000926020809301838601378301015290565b156200191357565b60405162461bcd60e51b8152602060048201526012602482015271139bdd08184819195c1b1bde59590818995d60721b6044820152606490fd5b6000546001600160a01b03918216911681149081156200196b575090565b9050600052600460205260ff6040600020541690565b60005b838110620019955750506000910152565b818101518382015260200162001984565b90929192620019b581620018a1565b91620019c560405193846200187e565b829482845282820111620005da576020620019e293019062001981565b565b602081830312620005da5780519067ffffffffffffffff8211620005da57019080601f83011215620005da57815162001a2092602001620019a6565b90565b9060209162001a3e8151809281855285808601910162001981565b601f01601f1916010190565b60ff16801562001c1c5760019081811462001b9f576002811462001b225760031462001aa65760405162461bcd60e51b815260206004820152600e60248201526d496e76616c69642073746174757360901b6044820152606490fd5b604051809182916008549182825260208092019260086000527ff3f7a9fe364faab93b216da50a3214154f22a0a2b415b23a84c8169e8b636ee3926000905b82821062001b005750505050509062001a209103826200187e565b84546001600160a01b0316865287965094850194938301939083019062001ae5565b50604051809182916007549182825260208092019260076000527fa66cc928b5edb82af9bd49922954155ab7b0942694bea4ce44661d9a8736c688926000905b82821062001b7d5750505050509062001a209103826200187e565b84546001600160a01b0316865287965094850194938301939083019062001b62565b50604051809182916006549182825260208092019260066000527ff652222313e28459528d920b65115c16c04f3efc82aaedc97be59f3f377c0d3f926000905b82821062001bfa5750505050509062001a209103826200187e565b84546001600160a01b0316865287965094850194938301939083019062001bdf565b5060405180816005548083526020809301906005600052600080516020620049b8833981519152936000905b82821062001c615750505062001a20925003826200187e565b85546001600160a01b03168452600195860195879550938101939091019062001c48565b6000546001600160a01b0316330362001c9a57565b60405163118cdaa760e01b8152336004820152602490fd5b600481101562001cea57801562001ce4576001811462001cde5760021462001cd957600890565b600790565b50600690565b50600590565b634e487b7160e01b600052602160045260246000fdfe6101406040523462000a255762002cb7803803806200001e8162000a2a565b9283398101906101408183031262000a25576200003b8162000a50565b60208201519091906001600160401b03811162000a2557836200006091830162000ac6565b60408201519093906001600160401b03811162000a2557816200008591840162000ac6565b60608301519093906001600160401b03811162000a255782620000aa91850162000ac6565b60808401516001600160401b03811162000a255783620000cc91860162000ac6565b9060a0850151620000e060c0870162000a50565b92620000ef60e0880162000a50565b92610100988989015197600389101562000a25576101208a810151909a6001600160401b03821162000a2557019080601f8301121562000a25578151620001399260200162000a65565b60017f9b779b17422d0df92223018b32b4d1fa46e071723d6817e2486d003becc55f00559a6001600160a01b0397868916801562000a0c57600080546001600160a01b03198116831782556040519291908c16907f8be0079c531659141344cd1fd0a4f28419497f9722a3daafe3b4186f6b6457e09080a389821615620009ca57508888161562000985578151156200094057835115620008fb57845115620008b6576080528051906001600160401b0382116200055457620001fe60015462000ae6565b601f811162000874575b50602090601f8311600114620007f7576200023d9291600091836200049d575b50508160011b916000199060031b1c19161790565b6001555b8051906001600160401b03821162000554576200026060025462000ae6565b601f8111620007b5575b50602090601f831160011462000738576200029e9291600091836200049d5750508160011b916000199060031b1c19161790565b6002555b8051906001600160401b0382116200055457620002c160035462000ae6565b601f8111620006e5575b50602090601f83116001146200065757620002ff9291600091836200049d5750508160011b916000199060031b1c19161790565b6003555b8051906001600160401b03821162000554576200032260045462000ae6565b601f8111620005f8575b50602090601f83116001146200056a57620003609291600091836200049d5750508160011b916000199060031b1c19161790565b6004555b4260a05260c05260e052168352815282516001600160401b038111620005545760059062000393825462000ae6565b601f811162000514575b50602094601f8211600114620004a957620003d49293949582916000926200049d5750508160011b916000199060031b1c19161790565b90555b62ff000019600654166006556040519061213a928362000b3d843960805183818161099301528181610d420152818161146a0152611c4d015260a051838181610dbb0152611c16015260c05183818161023701528181610493015281816107e401528181610de10152611493015260e05183818161020b0152818161044c015281816107b801528181610a02015281816114ef015281816116dc0152818161187201526118c90152518281816101ac01526110ad015251818181610306015261155e0152f35b01519050388062000228565b601f198216958360005260206000209160005b888110620004fb57508360019596979810620004e1575b505050811b019055620003d7565b015160001960f88460031b161c19169055388080620004d3565b91926020600181928685015181550194019201620004bc565b6200054290836000526020600020601f8401851c8101916020851062000549575b601f01851c019062000b23565b386200039d565b909150819062000535565b634e487b7160e01b600052604160045260246000fd5b6004600090815292917f8a35acfbc15ff81a39ae7d344fd709f28e8600b4aa8c65c6b64bfe7fe36bd19b915b601f1984168510620005dc576001945083601f19811610620005c2575b505050811b0160045562000364565b015160001960f88460031b161c19169055388080620005b3565b8181015183556020948501946001909301929091019062000596565b600460005262000645907f8a35acfbc15ff81a39ae7d344fd709f28e8600b4aa8c65c6b64bfe7fe36bd19b601f850160051c810191602086106200064c575b601f0160051c019062000b23565b386200032c565b909150819062000637565b6003600090815292917fc2575a0e9e593c00f959f8c92f12db2869c3395a3b0502d05e2516446f71f85b915b601f1984168510620006c9576001945083601f19811610620006af575b505050811b0160035562000303565b015160001960f88460031b161c19169055388080620006a0565b8181015183556020948501946001909301929091019062000683565b600360005262000731907fc2575a0e9e593c00f959f8c92f12db2869c3395a3b0502d05e2516446f71f85b601f850160051c810191602086106200064c57601f0160051c019062000b23565b38620002cb565b60026000908152929160008051602062002c77833981519152915b601f198416851062000799576001945083601f198116106200077f575b505050811b01600255620002a2565b015160001960f88460031b161c1916905538808062000770565b8181015183556020948501946001909301929091019062000753565b6002600052620007f09060008051602062002c77833981519152601f850160051c810191602086106200064c57601f0160051c019062000b23565b386200026a565b60016000908152929160008051602062002c97833981519152915b601f198416851062000858576001945083601f198116106200083e575b505050811b0160015562000241565b015160001960f88460031b161c191690553880806200082f565b8181015183556020948501946001909301929091019062000812565b6001600052620008af9060008051602062002c97833981519152601f850160051c810191602086106200064c57601f0160051c019062000b23565b3862000208565b60405162461bcd60e51b815260206004820152601b60248201527f536964652042206e616d652063616e6e6f7420626520656d70747900000000006044820152606490fd5b60405162461bcd60e51b815260206004820152601b60248201527f536964652041206e616d652063616e6e6f7420626520656d70747900000000006044820152606490fd5b60405162461bcd60e51b815260206004820152601560248201527f5469746c652063616e6e6f7420626520656d70747900000000000000000000006044820152606490fd5b60405162461bcd60e51b815260206004820152601560248201527f496e76616c696420746f6b656e206164647265737300000000000000000000006044820152606490fd5b62461bcd60e51b815260206004820152601760248201527f496e76616c69642063726561746f7220616464726573730000000000000000006044820152606490fd5b604051631e4fbdf760e01b815260006004820152602490fd5b600080fd5b6040519190601f01601f191682016001600160401b038111838210176200055457604052565b51906001600160a01b038216820362000a2557565b9192916001600160401b038211620005545760209062000a8e601f8401601f1916830162000a2a565b948386528382011162000a255760005b83811062000ab457505050602060009184010152565b81810151868201840152820162000a9e565b9080601f8301121562000a2557815162000ae39260200162000a65565b90565b90600182811c9216801562000b18575b602083101462000b0257565b634e487b7160e01b600052602260045260246000fd5b91607f169162000af6565b81811062000b2f575050565b6000815560010162000b2356fe608080604052600436101561001357600080fd5b600090813560e01c90816302d05d3f14611c395750806305b3441014611bfe578063200d2ed214611bcf57806321701a15146116885780632810e1d61461144e5780632d56657d146114085780633caef3811461131d5780633d5d526a146112ff5780634a79d50c146112e35780634e71d92d14610fcf578063519a1d8414610f9f5780635a9b0b8914610c53578063715018a614610bf957806372834e5b14610bdb57806373b2e80e14610b9c5780637b6d79f1146109775780637ff41970146108a7578063831ad6db14610889578063845e45f91461078b57806385a26fe614610765578063881e4cca1461072c5780638da5cb5b146107055780638eb1a4ad14610657578063958f03b714610639578063a355f8971461058b578063bb978c5b146104b6578063c24a0f8b1461047b578063c45a015514610436578063dbb3f53714610413578063e2529773146103da578063f2fde38b1461034a578063f7ad7920146102f0578063f7dda472146101de5763fc0c546a1461019757600080fd5b346101db57806003193601126101db576040517f00000000000000000000000000000000000000000000000000000000000000006001600160a01b03168152602090f35b80fd5b50346101db5760403660031901126101db576101f8611c80565b602435906001600160a01b0390610232337f0000000000000000000000000000000000000000000000000000000000000000841614611ff1565b61025d7f00000000000000000000000000000000000000000000000000000000000000004210612035565b60ff60065460101c1660048110156102dc579160209161029e7f8b1b269ed471a640fd80b1f65b929a812a4c36183f7807568b77b08925bdee4d9415611ed3565b6102a9851515612075565b1692838552600b8252604085206102c1828254611f59565b90556102cf81600954611f59565b600955604051908152a280f35b634e487b7160e01b85526021600452602485fd5b50346101db57806003193601126101db576040517f0000000000000000000000000000000000000000000000000000000000000000600381101561033657602092508152f35b634e487b7160e01b83526021600452602483fd5b50346101db5760203660031901126101db57610364611c80565b61036c6120b8565b6001600160a01b039081169081156103c157600054826bffffffffffffffffffffffff60a01b821617600055167f8be0079c531659141344cd1fd0a4f28419497f9722a3daafe3b4186f6b6457e0600080a380f35b604051631e4fbdf760e01b815260048101849052602490fd5b50346101db5760203660031901126101db576020906040906001600160a01b03610402611c80565b168152600a83522054604051908152f35b50346101db57806003193601126101db57602060ff600654166040519015158152f35b50346101db57806003193601126101db576040517f00000000000000000000000000000000000000000000000000000000000000006001600160a01b03168152602090f35b50346101db57806003193601126101db5760206040517f00000000000000000000000000000000000000000000000000000000000000008152f35b50346101db57806003193601126101db57604051600e546000826104d983611c9b565b918282526020936001908560018216918260001461056b575050600114610520575b5061050892500383611cff565b61051c604051928284938452830190611e86565b0390f35b849150600e6000526000805160206120e5833981519152906000915b8583106105535750506105089350820101856104fb565b8054838901850152879450869390920191810161053c565b60ff19168582015261050895151560051b85010192508791506104fb9050565b50346101db57806003193601126101db576040516004546000826105ae83611c9b565b918282526020936001908560018216918260001461056b5750506001146105dc575061050892500383611cff565b84915060046000527f8a35acfbc15ff81a39ae7d344fd709f28e8600b4aa8c65c6b64bfe7fe36bd19b906000915b8583106106215750506105089350820101856104fb565b8054838901850152879450869390920191810161060a565b50346101db57806003193601126101db576020600954604051908152f35b50346101db57806003193601126101db5760405160035460008261067a83611c9b565b918282526020936001908560018216918260001461056b5750506001146106a8575061050892500383611cff565b84915060036000527fc2575a0e9e593c00f959f8c92f12db2869c3395a3b0502d05e2516446f71f85b906000915b8583106106ed5750506105089350820101856104fb565b805483890185015287945086939092019181016106d6565b50346101db57806003193601126101db57546040516001600160a01b039091168152602090f35b50346101db5760203660031901126101db576020906040906001600160a01b03610754611c80565b168152600b83522054604051908152f35b50346101db57806003193601126101db57602060ff60065460081c166040519015158152f35b50346101db5760403660031901126101db576107a5611c80565b602435906001600160a01b03906107df337f0000000000000000000000000000000000000000000000000000000000000000841614611ff1565b61080a7f00000000000000000000000000000000000000000000000000000000000000004210612035565b60ff60065460101c1660048110156102dc579160209161084b7f9bbb607f9fd45dbd95a8e54a66a3b0b2ed37477c49c5d10415dc5cfb84261ecd9415611ed3565b610856851515612075565b1692838552600a82526040852061086e828254611f59565b905561087c81600854611f59565b600855604051908152a280f35b50346101db57806003193601126101db576020600754604051908152f35b50346101db57806003193601126101db57604051908082600554916108cb83611c9b565b92838352602094600191866001821691826000146109555750506001146108fb575b505061050892500383611cff565b90859250600582527f036b6384b5eca791c62761152d0c79bb0604c104a5fb6f4eb0703f3154bb3db05b85831061093d575050610508935082010138806108ed565b80548389018501528794508693909201918101610925565b925093505061050894915060ff191682840152151560051b82010138806108ed565b50346101db57806003193601126101db576001600160a01b03907f000000000000000000000000000000000000000000000000000000000000000082163303610b57576006549160ff8360101c169260048410156103365760018403610b125760075462093a808101809111610afe574210610ac3576203000160ff9162ff00ff19161791826006557f0000000000000000000000000000000000000000000000000000000000000000169160101c16926004841015610336578293823b15610abe57604051631d8e204760e01b815260ff9283166004820152911660248201529082908290604490829084905af18015610ab357610a9f575b507f110eefe47fb2df2a2f3149d618851e6ab16e70a4e6f3872b7c260bd48eec14fe6020604051428152a180f35b610aa890611cd5565b6101db578038610a71565b6040513d84823e3d90fd5b505050fd5b60405162461bcd60e51b8152602060048201526013602482015272151a5b595bdd5d081b9bdd081c995858da1959606a1b6044820152606490fd5b634e487b7160e01b84526011600452602484fd5b60405162461bcd60e51b815260206004820152601f60248201527f43616e206f6e6c792063616e63656c207768696c65207265736f6c76696e67006044820152606490fd5b60405162461bcd60e51b815260206004820152601760248201527f4f6e6c792063726561746f722063616e2063616e63656c0000000000000000006044820152606490fd5b50346101db5760203660031901126101db5760209060ff906040906001600160a01b03610bc7611c80565b168152600c84522054166040519015158152f35b50346101db57806003193601126101db576020600854604051908152f35b50346101db57806003193601126101db57610c126120b8565b600080546001600160a01b0319811682556001600160a01b03167f8be0079c531659141344cd1fd0a4f28419497f9722a3daafe3b4186f6b6457e08280a380f35b50346101db57806003193601126101db5760065460085460095490600d5492610c7a611d21565b93610c83611de7565b936040519360009560035495610c9887611c9b565b808252816020996001998b8b82169182600014610f82575050600114610f24575b610cc592500382611cff565b6040519160008360045491610cd983611c9b565b928383528c8c82169182600014610f07575050600114610ea9575b610d0092500384611cff565b6040518098600090600e5490610d1582611c9b565b918285528d8282169182600014610e8d575050600114610e42575b505003610d3d9089611cff565b6040517f00000000000000000000000000000000000000000000000000000000000000006001600160a01b031681526101a09981018a9052998a99610d8591908b0190611e86565b89810360408b0152610d9691611e86565b88810360608a0152610da791611e86565b8781036080890152610db891611e86565b937f000000000000000000000000000000000000000000000000000000000000000060a08801527f000000000000000000000000000000000000000000000000000000000000000060c088015260ff8116151560e088015260081c60ff16151561010087015261012086015261014085015261016084015282810361018084015261051c91611e86565b908c9250600e6000526000805160206120e5833981519152916000925b828410610e73575050508201018c80610d30565b84929582958583549201015201910190928c928c94610e5f565b925093505060ff191682840152151560051b8201018c80610d30565b50506004600052838a7f8a35acfbc15ff81a39ae7d344fd709f28e8600b4aa8c65c6b64bfe7fe36bd19b8b6000915b858310610eee575050610d009350820101610cf4565b80919294505483858a0101520191018b908b8793610ed8565b60ff191684820152610d0094151560051b8401019150610cf49050565b5050600360005281897fc2575a0e9e593c00f959f8c92f12db2869c3395a3b0502d05e2516446f71f85b8a6000915b858310610f69575050610cc59350820101610cb9565b8091929450548385880101520191018a908a8593610f53565b60ff191684820152610cc594151560051b8401019150610cb99050565b50346101db57806003193601126101db5761051c610fbb611de7565b604051918291602083526020830190611e86565b50346101db57806003193601126101db577f9b779b17422d0df92223018b32b4d1fa46e071723d6817e2486d003becc55f009060028254146112d157600282556006549160ff83161561129557338252602092600c845260ff60408420541661125e5760ff8160101c16600481101561124a576003036111995750338252600a83526110686040832054600b8552604084205490611f59565b611073811515611fb2565b33808452600c85526040808520805460ff191660011790555163a9059cbb60e01b81526004810191909152602481018290528481604481877f00000000000000000000000000000000000000000000000000000000000000006001600160a01b03165af190811561118e578491611154575b501561111d577f1a31e733a172afcf46074b3106c17f0c298e226442682a03c1e99ce256139ec2600193946040519283523392a25580f35b60405162461bcd60e51b815260048101859052600f60248201526e151c985b9cd9995c8819985a5b1959608a1b6044820152606490fd5b90508481813d8311611187575b61116b8183611cff565b810103126111835751801515810361118357386110e5565b8380fd5b503d611161565b6040513d86823e3d90fd5b60081c60ff16156111ff57600854806111c95750338252600b835260408220546111c4811515611fb2565b611073565b6111c490338452600a85526111f96040852054916111e8831515611f66565b6111f460095484611f10565b611f39565b90611f59565b6009548061121f5750338252600a835260408220546111c4811515611fb2565b6111c490338452600b85526111f960408520549161123e831515611f66565b6111f460085484611f10565b634e487b7160e01b84526021600452602484fd5b60405162461bcd60e51b815260048101859052600f60248201526e105b1c9958591e4818db185a5b5959608a1b6044820152606490fd5b60405162461bcd60e51b815260206004820152601460248201527310995d081b9bdd081c995cdbdb1d9959081e595d60621b6044820152606490fd5b604051633ee5aeb560e01b8152600490fd5b50346101db57806003193601126101db5761051c610fbb611d21565b50346101db57806003193601126101db576020600d54604051908152f35b50346101db5760203660031901126101db5760409061133a611c80565b6001600160a01b03168152600a602090815282822054600b9091528282205482918290801515806113fd575b6113c8575b50811515806113bd575b611388575b505082519182526020820152f35b6008546113ae93509081156113b557506113a56111f99183611f10565b60095490611f39565b388061137a565b905090611f59565b506009541515611375565b6009549194506113ee9180156113f5576113e56111f99183611f10565b60085490611f39565b923861136b565b508490611f59565b506008541515611366565b50346101db5760203660031901126101db576040906001600160a01b0361142d611c80565b168152600a602052818082205491600b602052205482519182526020820152f35b50346101db57806003193601126101db576001600160a01b03907f000000000000000000000000000000000000000000000000000000000000000082163303611643577f000000000000000000000000000000000000000000000000000000000000000042106115fe5760065460ff8160101c16906004821015610336576201000060ff916114dd8415611ed3565b62ff00001916179384600655426007557f0000000000000000000000000000000000000000000000000000000000000000169360101c1690600482101561033657833b156115fa57604051631d8e204760e01b815260ff918216600482015291166024820152818160448183875af18015610ab3579082916115e6575b50507f00000000000000000000000000000000000000000000000000000000000000009160038310156115d2578192813b156115ce5760ff602484928360405195869485936312ed593760e31b85521660048401525af18015610ab3576115be5750f35b6115c790611cd5565b6101db5780f35b5050fd5b634e487b7160e01b82526021600452602482fd5b6115ef90611cd5565b6101db57803861155a565b8280fd5b60405162461bcd60e51b815260206004820152601e60248201527f43616e6e6f74207265736f6c7665206265666f726520656e64206461746500006044820152606490fd5b60405162461bcd60e51b815260206004820152601860248201527f4f6e6c792063726561746f722063616e207265736f6c766500000000000000006044820152606490fd5b50346101db5760203660031901126101db5760043567ffffffffffffffff8082116115fa57366023830112156115fa57816004013581811161118357820160248101368111611b86576001600160a01b03917f000000000000000000000000000000000000000000000000000000000000000083163303611b8a578460e0910312611b8657602484013593828516809503611b825761172960448201611ec6565b9461173660648301611ec6565b9060e4830135868111611b7e57830184604382011215611b7e576024810135878111611b6a57908991604051966117776020601f19601f8501160189611cff565b818852604482840101116115fa578060446020930183890137860101523003611b2c5760065494600460ff8760101c161015611b1857600160ff8760101c1603611ad35760ff19861660011760065560c4830135600d558351908111611abf576117e2600e54611c9b565b601f8111611a58575b50806020601f82116001146119e75789916119dc575b508160011b916000199060031b1c191617600e555b156119685750506203000062ff00001960065416176006557f110eefe47fb2df2a2f3149d618851e6ab16e70a4e6f3872b7c260bd48eec14fe6020604051428152a15b60ff60065460101c169060048210156102dc57908185927f0000000000000000000000000000000000000000000000000000000000000000163b156115fa57604051631d8e204760e01b815260ff60109590951c85166004820152919093166024820152918290604490829084907f0000000000000000000000000000000000000000000000000000000000000000165af1801561195d57611927575b5060207fad24b3d82d5622fb9874775664b448323c0cd92415340fd16bb0dcdd9223d919916040519015158152a180f35b7fad24b3d82d5622fb9874775664b448323c0cd92415340fd16bb0dcdd9223d9199192611955602092611cd5565b9291506118f6565b6040513d85823e3d90fd5b7f901ef2b1d58e0424d4371c33a6d269cadf61c7f9c58f6f5347a6a157476ba581916119d4861515916202000060065461ff008560081b169062ffff001916171760065560c4604051948594855242602086015201356040840152608060608401526080830190611e86565b0390a1611859565b905084015138611801565b9150600e89526000805160206120e583398151915289925b601f1983168410611a40576001935082601f19811610611a27575b5050811b01600e55611816565b86015160001960f88460031b161c191690553880611a1a565b868101518255602093840193600190920191016119ff565b600e8952601f820160051c6000805160206120e58339815191520160208310611aaa575b601f820160051c6000805160206120e5833981519152018110611a9f57506117eb565b898155600101611a7c565b506000805160206120e5833981519152611a7c565b634e487b7160e01b88526041600452602488fd5b60405162461bcd60e51b815260206004820152601760248201527f4e6f74206177616974696e67207265736f6c7574696f6e0000000000000000006044820152606490fd5b634e487b7160e01b88526021600452602488fd5b60405162461bcd60e51b815260206004820152601660248201527514995cdc1bdb9cd948199bdc881ddc9bdb99c818995d60521b6044820152606490fd5b634e487b7160e01b8a52604160045260248afd5b8880fd5b8580fd5b8480fd5b60405162461bcd60e51b815260206004820152601960248201527f4f6e6c7920666163746f72792063616e206469737061746368000000000000006044820152606490fd5b50346101db57806003193601126101db5760ff60065460101c1660405190600481101561033657602092508152f35b50346101db57806003193601126101db5760206040517f00000000000000000000000000000000000000000000000000000000000000008152f35b905034611c7c5781600319360112611c7c577f00000000000000000000000000000000000000000000000000000000000000006001600160a01b03168152602090f35b5080fd5b600435906001600160a01b0382168203611c9657565b600080fd5b90600182811c92168015611ccb575b6020831014611cb557565b634e487b7160e01b600052602260045260246000fd5b91607f1691611caa565b67ffffffffffffffff8111611ce957604052565b634e487b7160e01b600052604160045260246000fd5b90601f8019910116810190811067ffffffffffffffff821117611ce957604052565b60405190600082600191600154611d3781611c9b565b8084529360209160018116908115611dc35750600114611d62575b5050611d6092500383611cff565b565b91509260016000527fb10e2d527612073b26eecdfd717e6a320cf44b4afac2b0732d9fcbe2b7fa0cf6936000925b828410611dab5750611d609450505081016020013880611d52565b85548885018301529485019487945092810192611d90565b91505060209250611d6094915060ff191682840152151560051b8201013880611d52565b6040519060008260025491611dfb83611c9b565b80835292602090600190818116908115611dc35750600114611e25575050611d6092500383611cff565b91509260026000527f405787fa12a823e0f2b7631cc41b3ba8828b3321ca811111fa75cd3aa3bb5ace936000925b828410611e6e5750611d609450505081016020013880611d52565b85548885018301529485019487945092810192611e53565b919082519283825260005b848110611eb2575050826000602080949584010152601f8019910116010190565b602081830181015184830182015201611e91565b35908115158203611c9657565b15611eda57565b60405162461bcd60e51b815260206004820152600e60248201526d426574206e6f742061637469766560901b6044820152606490fd5b81810292918115918404141715611f2357565b634e487b7160e01b600052601160045260246000fd5b8115611f43570490565b634e487b7160e01b600052601260045260246000fd5b91908201809211611f2357565b15611f6d57565b60405162461bcd60e51b815260206004820152601760248201527f4e6f2077696e6e696e672062657420746f20636c61696d0000000000000000006044820152606490fd5b15611fb957565b60405162461bcd60e51b815260206004820152601060248201526f139bc818995d081d1bc81c99599d5b9960821b6044820152606490fd5b15611ff857565b60405162461bcd60e51b815260206004820152601560248201527413db9b1e48199858dd1bdc9e4818d85b8818d85b1b605a1b6044820152606490fd5b1561203c57565b60405162461bcd60e51b815260206004820152601160248201527010995d1d1a5b99c81a185cc8195b991959607a1b6044820152606490fd5b1561207c57565b60405162461bcd60e51b815260206004820152601460248201527304d75737420626574206d6f7265207468616e20360641b6044820152606490fd5b6000546001600160a01b031633036120cc57565b60405163118cdaa760e01b8152336004820152602490fdfebb7b4a454dc3493923482f07822329ed19e8244eff582cc204f8554c3620c3fda2646970667358221220d4363c1aa7c1c3599f02259b6258b79425bc12aed4734b22c455d0b3da905f2c64736f6c63430008160033405787fa12a823e0f2b7631cc41b3ba8828b3321ca811111fa75cd3aa3bb5aceb10e2d527612073b26eecdfd717e6a320cf44b4afac2b0732d9fcbe2b7fa0cf6036b6384b5eca791c62761152d0c79bb0604c104a5fb6f4eb0703f3154bb3db0a2646970667358221220d34b83f5eee78753908472e0b88450c7ea6946d4b0729f8c3f78d94cea9d308164736f6c63430008160033","opcodes":"PUSH1 0xA0 CALLVALUE PUSH2 0x121 JUMPI PUSH1 0x1F PUSH3 0x4B4A CODESIZE DUP2 SWAP1 SUB SWAP2 DUP3 ADD PUSH1 0x1F NOT AND DUP4 ADD SWAP2 PUSH1 0x1 PUSH1 0x1 PUSH1 0x40 SHL SUB DUP4 GT DUP5 DUP5 LT OR PUSH2 0x126 JUMPI DUP1 DUP5 SWAP3 PUSH1 0x20 SWAP5 PUSH1 0x40 MSTORE DUP4 CODECOPY DUP2 ADD SUB SLT PUSH2 0x121 JUMPI MLOAD PUSH1 0x1 PUSH1 0x1 PUSH1 0xA0 SHL SUB DUP1 DUP3 AND DUP1 DUP4 SUB PUSH2 0x121 JUMPI CALLER ISZERO PUSH2 0x108 JUMPI PUSH1 0x0 SLOAD CALLER PUSH1 0x1 DUP1 PUSH1 0xA0 SHL SUB NOT DUP3 AND OR PUSH1 0x0 SSTORE PUSH1 0x40 MLOAD SWAP3 CALLER SWAP2 AND PUSH32 0x8BE0079C531659141344CD1FD0A4F28419497F9722A3DAAFE3B4186F6B6457E0 PUSH1 0x0 DUP1 LOG3 ISZERO PUSH2 0xC6 JUMPI POP PUSH1 0x80 MSTORE PUSH1 0x40 MLOAD PUSH2 0x4A0D SWAP1 DUP2 PUSH3 0x13D DUP3 CODECOPY PUSH1 0x80 MLOAD DUP2 DUP2 DUP2 PUSH2 0x37F ADD MSTORE DUP2 DUP2 PUSH2 0xF97 ADD MSTORE PUSH2 0x16C5 ADD MSTORE RETURN JUMPDEST PUSH3 0x461BCD PUSH1 0xE5 SHL DUP2 MSTORE PUSH1 0x20 PUSH1 0x4 DUP3 ADD MSTORE PUSH1 0x14 PUSH1 0x24 DUP3 ADD MSTORE PUSH32 0x496E76616C696420555344432061646472657373000000000000000000000000 PUSH1 0x44 DUP3 ADD MSTORE PUSH1 0x64 SWAP1 REVERT JUMPDEST PUSH1 0x40 MLOAD PUSH4 0x1E4FBDF7 PUSH1 0xE0 SHL DUP2 MSTORE PUSH1 0x0 PUSH1 0x4 DUP3 ADD MSTORE PUSH1 0x24 SWAP1 REVERT JUMPDEST PUSH1 0x0 DUP1 REVERT JUMPDEST PUSH4 0x4E487B71 PUSH1 0xE0 SHL PUSH1 0x0 MSTORE PUSH1 0x41 PUSH1 0x4 MSTORE PUSH1 0x24 PUSH1 0x0 REVERT INVALID PUSH1 0x80 PUSH1 0x40 DUP2 DUP2 MSTORE PUSH1 0x4 DUP1 CALLDATASIZE LT ISZERO PUSH3 0x16 JUMPI PUSH1 0x0 DUP1 REVERT JUMPDEST PUSH1 0x0 SWAP3 DUP4 CALLDATALOAD PUSH1 0xE0 SHR SWAP1 DUP2 PUSH4 0xA208972 EQ PUSH3 0x177E JUMPI POP DUP1 PUSH4 0x107D67C2 EQ PUSH3 0x16F4 JUMPI DUP1 PUSH4 0x11EAC855 EQ PUSH3 0x16AE JUMPI DUP1 PUSH4 0x1644AF88 EQ PUSH3 0x1655 JUMPI DUP1 PUSH4 0x1D8E2047 EQ PUSH3 0x145D JUMPI DUP1 PUSH4 0x2C136C34 EQ PUSH3 0xED8 JUMPI DUP1 PUSH4 0x3591CA41 EQ PUSH3 0x1404 JUMPI DUP1 PUSH4 0x55232467 EQ PUSH3 0x13C4 JUMPI DUP1 PUSH4 0x6532E2C3 EQ PUSH3 0x133A JUMPI DUP1 PUSH4 0x700EAE73 EQ PUSH3 0x12B0 JUMPI DUP1 PUSH4 0x715018A6 EQ PUSH3 0x1252 JUMPI DUP1 PUSH4 0x749598EB EQ PUSH3 0x121D JUMPI DUP1 PUSH4 0x76648637 EQ PUSH3 0xF1A JUMPI DUP1 PUSH4 0x76AA5F0E EQ PUSH3 0xED8 JUMPI DUP1 PUSH4 0x8DA5CB5B EQ PUSH3 0xEAE JUMPI DUP1 PUSH4 0x976AC9B8 EQ PUSH3 0xBA5 JUMPI DUP1 PUSH4 0xA489D267 EQ PUSH3 0x9C7 JUMPI DUP1 PUSH4 0xA6C8260F EQ PUSH3 0x98D JUMPI DUP1 PUSH4 0xADA73020 EQ PUSH3 0x913 JUMPI DUP1 PUSH4 0xAF768EE3 EQ PUSH3 0x8C7 JUMPI DUP1 PUSH4 0xB93DAB0B EQ PUSH3 0x8A6 JUMPI DUP1 PUSH4 0xD044E81F EQ PUSH3 0x7E8 JUMPI DUP1 PUSH4 0xDB01EA8C EQ PUSH3 0x78B JUMPI DUP1 PUSH4 0xDF7EBAE3 EQ PUSH3 0x6EE JUMPI DUP1 PUSH4 0xE0CED0E1 EQ PUSH3 0x691 JUMPI DUP1 PUSH4 0xEA0D5BB5 EQ PUSH3 0x60C JUMPI DUP1 PUSH4 0xED53AFA3 EQ PUSH3 0x5E7 JUMPI DUP1 PUSH4 0xF2B37421 EQ PUSH3 0x215 JUMPI PUSH4 0xF2FDE38B EQ PUSH3 0x180 JUMPI PUSH1 0x0 DUP1 REVERT JUMPDEST CALLVALUE PUSH3 0x211 JUMPI PUSH1 0x20 CALLDATASIZE PUSH1 0x3 NOT ADD SLT PUSH3 0x211 JUMPI PUSH3 0x19D PUSH3 0x182C JUMP JUMPDEST SWAP1 PUSH3 0x1A8 PUSH3 0x1C85 JUMP JUMPDEST PUSH1 0x1 PUSH1 0x1 PUSH1 0xA0 SHL SUB SWAP2 DUP3 AND SWAP3 DUP4 ISZERO PUSH3 0x1FB JUMPI POP POP PUSH1 0x0 SLOAD DUP3 PUSH1 0x1 PUSH1 0x1 PUSH1 0x60 SHL SUB PUSH1 0xA0 SHL DUP3 AND OR PUSH1 0x0 SSTORE AND PUSH32 0x8BE0079C531659141344CD1FD0A4F28419497F9722A3DAAFE3B4186F6B6457E0 PUSH1 0x0 DUP1 LOG3 DUP1 RETURN JUMPDEST MLOAD PUSH4 0x1E4FBDF7 PUSH1 0xE0 SHL DUP2 MSTORE SWAP1 DUP2 ADD DUP5 SWAP1 MSTORE PUSH1 0x24 SWAP1 REVERT JUMPDEST DUP3 DUP1 REVERT JUMPDEST POP SWAP1 CALLVALUE PUSH3 0x211 JUMPI PUSH1 0xE0 CALLDATASIZE PUSH1 0x3 NOT ADD SLT PUSH3 0x211 JUMPI PUSH8 0xFFFFFFFFFFFFFFFF DUP3 CALLDATALOAD DUP2 DUP2 GT PUSH3 0x5DF JUMPI PUSH3 0x24C SWAP1 CALLDATASIZE SWAP1 DUP6 ADD PUSH3 0x18BE JUMP JUMPDEST SWAP4 PUSH1 0x24 DUP1 CALLDATALOAD DUP4 DUP2 GT PUSH3 0x211 JUMPI PUSH3 0x268 SWAP1 CALLDATASIZE SWAP1 DUP8 ADD PUSH3 0x18BE JUMP JUMPDEST SWAP3 PUSH1 0x44 CALLDATALOAD DUP2 DUP2 GT PUSH3 0x5E3 JUMPI PUSH3 0x283 SWAP1 CALLDATASIZE SWAP1 DUP9 ADD PUSH3 0x18BE JUMP JUMPDEST SWAP4 PUSH1 0x64 CALLDATALOAD DUP3 DUP2 GT PUSH3 0x5DF JUMPI PUSH3 0x29E SWAP1 CALLDATASIZE SWAP1 DUP10 ADD PUSH3 0x18BE JUMP JUMPDEST SWAP2 PUSH1 0x84 CALLDATALOAD SWAP6 PUSH1 0xA4 CALLDATALOAD SWAP4 PUSH1 0xFF DUP6 AND DUP1 SWAP6 SUB PUSH3 0x5DA JUMPI PUSH1 0xC4 CALLDATALOAD DUP4 DUP2 GT PUSH3 0x5D6 JUMPI PUSH3 0x2CD SWAP1 CALLDATASIZE SWAP1 DUP13 ADD PUSH3 0x18BE JUMP JUMPDEST SWAP2 PUSH3 0x2D9 CALLER PUSH3 0x194D JUMP JUMPDEST ISZERO PUSH3 0x594 JUMPI PUSH1 0x2 DUP7 GT PUSH3 0x552 JUMPI PUSH1 0x3 DUP7 LT ISZERO PUSH3 0x540 JUMPI DUP10 MLOAD SWAP5 PUSH2 0x2CB7 DUP1 DUP8 ADD SWAP6 DUP7 GT DUP8 DUP8 LT OR PUSH3 0x52E JUMPI SWAP3 PUSH3 0x35E PUSH3 0x3BF SWAP6 SWAP4 DUP16 DUP15 PUSH3 0x36D SWAP6 PUSH3 0x341 PUSH3 0x34F SWAP4 DUP14 SWAP13 SWAP11 DUP14 PUSH3 0x1D01 SWAP1 CODECOPY PUSH2 0x140 CALLER DUP13 MSTORE DUP1 PUSH1 0x20 DUP14 ADD MSTORE DUP12 ADD SWAP1 PUSH3 0x1A23 JUMP JUMPDEST SWAP2 DUP10 DUP4 SUB SWAP1 DUP11 ADD MSTORE PUSH3 0x1A23 JUMP JUMPDEST SWAP1 DUP7 DUP3 SUB PUSH1 0x60 DUP9 ADD MSTORE PUSH3 0x1A23 JUMP JUMPDEST SWAP1 DUP5 DUP3 SUB PUSH1 0x80 DUP7 ADD MSTORE PUSH3 0x1A23 JUMP JUMPDEST SWAP2 DUP10 PUSH1 0xA0 DUP3 ADD MSTORE PUSH1 0x1 DUP1 PUSH1 0xA0 SHL SUB SWAP7 DUP8 PUSH32 0x0 AND PUSH1 0xC0 DUP4 ADD MSTORE ADDRESS PUSH1 0xE0 DUP4 ADD MSTORE PUSH2 0x100 DUP3 ADD MSTORE PUSH2 0x120 DUP2 DUP5 SUB SWAP2 ADD MSTORE PUSH3 0x1A23 JUMP JUMPDEST SUB SWAP1 DUP5 CREATE DUP1 ISZERO PUSH3 0x524 JUMPI AND SWAP5 PUSH1 0x2 SLOAD PUSH1 0x1 PUSH1 0x40 SHL SWAP1 DUP2 DUP2 LT ISZERO PUSH3 0x510 JUMPI PUSH1 0x1 DUP2 ADD DUP1 PUSH1 0x2 SSTORE DUP2 LT ISZERO PUSH3 0x4FC JUMPI SWAP1 DUP7 SWAP4 SWAP3 SWAP2 PUSH1 0x2 PUSH1 0x0 MSTORE PUSH32 0x405787FA12A823E0F2B7631CC41B3BA8828B3321CA811111FA75CD3AA3BB5ACE ADD SWAP5 PUSH1 0x1 PUSH1 0x1 PUSH1 0x60 SHL SUB PUSH1 0xA0 SHL SWAP6 DUP10 DUP8 DUP3 SLOAD AND OR SWAP1 SSTORE DUP9 DUP2 MSTORE PUSH1 0x3 PUSH1 0x20 MSTORE DUP5 DUP2 KECCAK256 PUSH1 0x1 PUSH1 0xFF NOT DUP3 SLOAD AND OR SWAP1 SSTORE PUSH1 0x5 SLOAD SWAP5 DUP6 SWAP2 PUSH1 0x9 PUSH1 0x20 MSTORE KECCAK256 SSTORE DUP4 LT ISZERO PUSH3 0x4E9 JUMPI PUSH1 0x1 DUP4 ADD DUP1 PUSH1 0x5 SSTORE DUP4 LT ISZERO PUSH3 0x4D6 JUMPI POP POP PUSH1 0x20 SWAP6 DUP6 SWAP3 DUP4 PUSH32 0xA0E09974D118264CFF0D028384E1669025A2AE53F51A900A53B37ED8F632B69B SWAP4 PUSH1 0x5 PUSH1 0x0 MSTORE PUSH1 0x0 DUP1 MLOAD PUSH1 0x20 PUSH3 0x49B8 DUP4 CODECOPY DUP2 MLOAD SWAP2 MSTORE ADD SWAP2 DUP3 SLOAD AND OR SWAP1 SSTORE PUSH3 0x4C5 DUP6 MLOAD SWAP2 DUP7 DUP4 MSTORE DUP7 DUP4 ADD SWAP1 PUSH3 0x1A23 JUMP JUMPDEST SWAP4 DUP8 DUP3 ADD MSTORE DUP1 CALLER SWAP5 SUB SWAP1 LOG3 MLOAD SWAP1 DUP2 MSTORE RETURN JUMPDEST PUSH1 0x32 SWAP1 PUSH4 0x4E487B71 PUSH1 0xE0 SHL PUSH1 0x0 MSTORE MSTORE PUSH1 0x0 REVERT JUMPDEST PUSH1 0x41 SWAP1 PUSH4 0x4E487B71 PUSH1 0xE0 SHL PUSH1 0x0 MSTORE MSTORE PUSH1 0x0 REVERT JUMPDEST DUP4 PUSH1 0x32 DUP5 PUSH4 0x4E487B71 PUSH1 0xE0 SHL PUSH1 0x0 MSTORE MSTORE PUSH1 0x0 REVERT JUMPDEST DUP4 PUSH1 0x41 DUP5 PUSH4 0x4E487B71 PUSH1 0xE0 SHL PUSH1 0x0 MSTORE MSTORE PUSH1 0x0 REVERT JUMPDEST DUP6 MLOAD RETURNDATASIZE DUP6 DUP3 RETURNDATACOPY RETURNDATASIZE SWAP1 REVERT JUMPDEST PUSH4 0x4E487B71 PUSH1 0xE0 SHL DUP11 MSTORE PUSH1 0x41 DUP14 MSTORE DUP9 DUP11 REVERT JUMPDEST PUSH4 0x4E487B71 PUSH1 0xE0 SHL DUP9 MSTORE PUSH1 0x21 DUP12 MSTORE DUP7 DUP9 REVERT JUMPDEST DUP10 MLOAD PUSH3 0x461BCD PUSH1 0xE5 SHL DUP2 MSTORE PUSH1 0x20 DUP2 DUP14 ADD MSTORE PUSH1 0x17 DUP2 DUP10 ADD MSTORE PUSH32 0x496E76616C6964207265736F6C7574696F6E2074797065000000000000000000 PUSH1 0x44 DUP3 ADD MSTORE PUSH1 0x64 SWAP1 REVERT JUMPDEST DUP10 MLOAD PUSH3 0x461BCD PUSH1 0xE5 SHL DUP2 MSTORE PUSH1 0x20 DUP2 DUP14 ADD MSTORE PUSH1 0x1D DUP2 DUP10 ADD MSTORE PUSH32 0x4E6F7420617574686F72697A656420746F206372656174652062657473000000 PUSH1 0x44 DUP3 ADD MSTORE PUSH1 0x64 SWAP1 REVERT JUMPDEST DUP8 DUP1 REVERT JUMPDEST PUSH1 0x0 DUP1 REVERT JUMPDEST DUP5 DUP1 REVERT JUMPDEST DUP4 DUP1 REVERT JUMPDEST POP POP CALLVALUE PUSH3 0x608 JUMPI DUP2 PUSH1 0x3 NOT CALLDATASIZE ADD SLT PUSH3 0x608 JUMPI PUSH1 0x20 SWAP1 PUSH1 0x5 SLOAD SWAP1 MLOAD SWAP1 DUP2 MSTORE RETURN JUMPDEST POP DUP1 REVERT JUMPDEST POP SWAP1 CALLVALUE PUSH3 0x211 JUMPI DUP1 PUSH1 0x3 NOT CALLDATASIZE ADD SLT PUSH3 0x211 JUMPI PUSH1 0x20 PUSH32 0x22F105EDB13003AE9B7ABDABB9EA0C23ACC72407EC6854987DEE707D52C3AB2 SWAP2 PUSH3 0x64E PUSH3 0x182C JUMP JUMPDEST SWAP1 PUSH3 0x659 PUSH3 0x1843 JUMP JUMPDEST SWAP2 PUSH3 0x664 PUSH3 0x1C85 JUMP JUMPDEST PUSH1 0x1 PUSH1 0x1 PUSH1 0xA0 SHL SUB AND DUP1 DUP8 MSTORE SWAP5 DUP4 MSTORE DUP1 DUP7 KECCAK256 DUP1 SLOAD PUSH1 0xFF NOT AND SWAP3 ISZERO ISZERO PUSH1 0xFF DUP2 AND SWAP4 SWAP1 SWAP4 OR SWAP1 SSTORE MLOAD SWAP1 DUP2 MSTORE LOG2 DUP1 RETURN JUMPDEST POP CALLVALUE PUSH3 0x211 JUMPI PUSH1 0x20 CALLDATASIZE PUSH1 0x3 NOT ADD SLT PUSH3 0x211 JUMPI CALLDATALOAD PUSH1 0x2 SLOAD DUP2 LT ISZERO PUSH3 0x211 JUMPI PUSH1 0x2 PUSH1 0x0 MSTORE PUSH32 0x405787FA12A823E0F2B7631CC41B3BA8828B3321CA811111FA75CD3AA3BB5ACE ADD SLOAD SWAP1 MLOAD PUSH1 0x1 PUSH1 0x1 PUSH1 0xA0 SHL SUB SWAP1 SWAP2 AND DUP2 MSTORE PUSH1 0x20 SWAP2 POP RETURN JUMPDEST DUP3 DUP5 CALLVALUE PUSH3 0x788 JUMPI DUP1 PUSH1 0x3 NOT CALLDATASIZE ADD SLT PUSH3 0x788 JUMPI POP DUP1 MLOAD PUSH1 0x6 DUP1 SLOAD DUP1 DUP4 MSTORE PUSH1 0x0 SWAP2 DUP3 MSTORE PUSH1 0x20 DUP1 DUP5 ADD SWAP5 SWAP3 PUSH32 0xF652222313E28459528D920B65115C16C04F3EFC82AAEDC97BE59F3F377C0D3F SWAP3 SWAP2 JUMPDEST DUP3 DUP3 LT PUSH3 0x767 JUMPI PUSH3 0x763 DUP7 DUP7 PUSH3 0x758 DUP3 DUP12 SUB DUP4 PUSH3 0x187E JUMP JUMPDEST MLOAD SWAP2 DUP3 SWAP2 DUP3 PUSH3 0x17A5 JUMP JUMPDEST SUB SWAP1 RETURN JUMPDEST DUP4 SLOAD PUSH1 0x1 PUSH1 0x1 PUSH1 0xA0 SHL SUB AND DUP8 MSTORE SWAP6 DUP7 ADD SWAP6 PUSH1 0x1 SWAP4 DUP5 ADD SWAP4 SWAP1 SWAP2 ADD SWAP1 PUSH3 0x73C JUMP JUMPDEST DUP1 REVERT JUMPDEST POP CALLVALUE PUSH3 0x211 JUMPI PUSH1 0x20 CALLDATASIZE PUSH1 0x3 NOT ADD SLT PUSH3 0x211 JUMPI CALLDATALOAD PUSH1 0x6 SLOAD DUP2 LT ISZERO PUSH3 0x211 JUMPI PUSH1 0x6 PUSH1 0x0 MSTORE PUSH32 0xF652222313E28459528D920B65115C16C04F3EFC82AAEDC97BE59F3F377C0D3F ADD SLOAD SWAP1 MLOAD PUSH1 0x1 PUSH1 0x1 PUSH1 0xA0 SHL SUB SWAP1 SWAP2 AND DUP2 MSTORE PUSH1 0x20 SWAP2 POP RETURN JUMPDEST POP CALLVALUE PUSH3 0x211 JUMPI PUSH1 0x20 CALLDATASIZE PUSH1 0x3 NOT ADD SLT PUSH3 0x211 JUMPI PUSH3 0x806 PUSH3 0x182C JUMP JUMPDEST SWAP1 PUSH3 0x811 PUSH3 0x1C85 JUMP JUMPDEST PUSH1 0x1 PUSH1 0x1 PUSH1 0xA0 SHL SUB SWAP2 DUP3 AND SWAP3 DUP4 ISZERO PUSH3 0x863 JUMPI POP POP PUSH1 0x1 SLOAD DUP3 PUSH1 0x1 PUSH1 0x1 PUSH1 0x60 SHL SUB PUSH1 0xA0 SHL DUP3 AND OR PUSH1 0x1 SSTORE AND PUSH32 0xA8803D9E6A41A59E9581926A91F2DFBEBEB38D9DEC8366511C6D5906F4DF91FD DUP4 DUP1 LOG3 DUP1 RETURN JUMPDEST SWAP1 PUSH1 0x20 PUSH1 0x64 SWAP3 MLOAD SWAP2 PUSH3 0x461BCD PUSH1 0xE5 SHL DUP4 MSTORE DUP3 ADD MSTORE PUSH1 0x17 PUSH1 0x24 DUP3 ADD MSTORE PUSH32 0x496E76616C696420627269646765207265636569766572000000000000000000 PUSH1 0x44 DUP3 ADD MSTORE REVERT JUMPDEST POP POP CALLVALUE PUSH3 0x608 JUMPI DUP2 PUSH1 0x3 NOT CALLDATASIZE ADD SLT PUSH3 0x608 JUMPI PUSH1 0x20 SWAP1 PUSH1 0x2 SLOAD SWAP1 MLOAD SWAP1 DUP2 MSTORE RETURN JUMPDEST POP CALLVALUE PUSH3 0x211 JUMPI PUSH1 0x20 CALLDATASIZE PUSH1 0x3 NOT ADD SLT PUSH3 0x211 JUMPI CALLDATALOAD PUSH1 0x5 SLOAD DUP2 LT ISZERO PUSH3 0x211 JUMPI PUSH1 0x5 PUSH1 0x0 MSTORE PUSH1 0x0 DUP1 MLOAD PUSH1 0x20 PUSH3 0x49B8 DUP4 CODECOPY DUP2 MLOAD SWAP2 MSTORE ADD SLOAD SWAP1 MLOAD PUSH1 0x1 PUSH1 0x1 PUSH1 0xA0 SHL SUB SWAP1 SWAP2 AND DUP2 MSTORE PUSH1 0x20 SWAP2 POP RETURN JUMPDEST DUP3 DUP5 CALLVALUE PUSH3 0x788 JUMPI DUP1 PUSH1 0x3 NOT CALLDATASIZE ADD SLT PUSH3 0x788 JUMPI POP DUP1 MLOAD PUSH1 0x5 DUP1 SLOAD DUP1 DUP4 MSTORE PUSH1 0x0 SWAP2 DUP3 MSTORE PUSH1 0x20 DUP1 DUP5 ADD SWAP5 SWAP3 PUSH1 0x0 DUP1 MLOAD PUSH1 0x20 PUSH3 0x49B8 DUP4 CODECOPY DUP2 MLOAD SWAP2 MSTORE SWAP3 SWAP2 JUMPDEST DUP3 DUP3 LT PUSH3 0x96C JUMPI PUSH3 0x763 DUP7 DUP7 PUSH3 0x758 DUP3 DUP12 SUB DUP4 PUSH3 0x187E JUMP JUMPDEST DUP4 SLOAD PUSH1 0x1 PUSH1 0x1 PUSH1 0xA0 SHL SUB AND DUP8 MSTORE SWAP6 DUP7 ADD SWAP6 PUSH1 0x1 SWAP4 DUP5 ADD SWAP4 SWAP1 SWAP2 ADD SWAP1 PUSH3 0x950 JUMP JUMPDEST POP POP CALLVALUE PUSH3 0x608 JUMPI PUSH1 0x20 CALLDATASIZE PUSH1 0x3 NOT ADD SLT PUSH3 0x608 JUMPI PUSH3 0x763 SWAP1 PUSH3 0x9BB PUSH3 0x9B5 PUSH3 0x181B JUMP JUMPDEST PUSH3 0x1A4A JUMP JUMPDEST SWAP1 MLOAD SWAP2 DUP3 SWAP2 DUP3 PUSH3 0x17A5 JUMP JUMPDEST POP SWAP1 CALLVALUE PUSH3 0x211 JUMPI PUSH1 0x60 CALLDATASIZE PUSH1 0x3 NOT ADD SLT PUSH3 0x211 JUMPI DUP2 CALLDATALOAD SWAP1 PUSH4 0xFFFFFFFF DUP3 AND DUP1 SWAP3 SUB PUSH3 0x5E3 JUMPI PUSH1 0x1 PUSH1 0x1 PUSH1 0xA0 SHL SUB SWAP3 PUSH1 0x24 SWAP1 DUP2 CALLDATALOAD DUP6 DUP2 AND SUB PUSH3 0x5DA JUMPI PUSH8 0xFFFFFFFFFFFFFFFF PUSH1 0x44 CALLDATALOAD DUP2 DUP2 GT PUSH3 0x5D6 JUMPI CALLDATASIZE PUSH1 0x23 DUP3 ADD SLT ISZERO PUSH3 0x5D6 JUMPI DUP1 DUP4 ADD CALLDATALOAD DUP3 DUP2 GT PUSH3 0xB64 JUMPI DUP2 ADD SWAP1 DUP5 DUP3 ADD SWAP2 CALLDATASIZE DUP4 GT PUSH3 0xBA1 JUMPI DUP9 PUSH1 0x1 SLOAD AND CALLER SUB PUSH3 0xB68 JUMPI DUP2 DUP8 SWAP2 SUB SLT PUSH3 0xB64 JUMPI DUP5 DUP2 ADD CALLDATALOAD SWAP8 DUP9 AND DUP1 SWAP9 SUB PUSH3 0xB64 JUMPI PUSH1 0x44 DUP2 ADD CALLDATALOAD SWAP3 DUP4 GT PUSH3 0xB64 JUMPI PUSH3 0xA80 SWAP3 ADD DUP5 ADD PUSH3 0x18BE JUMP JUMPDEST DUP6 DUP8 MSTORE PUSH1 0x3 PUSH1 0x20 MSTORE PUSH1 0xFF DUP5 DUP9 KECCAK256 SLOAD AND ISZERO PUSH3 0xB2B JUMPI SWAP1 DUP7 SWAP3 SWAP2 DUP7 EXTCODESIZE ISZERO PUSH3 0x5E3 JUMPI DUP4 SWAP2 PUSH3 0xAC7 PUSH1 0x20 SWAP3 DUP8 MLOAD SWAP6 DUP7 SWAP5 DUP6 SWAP5 PUSH4 0x21701A15 PUSH1 0xE0 SHL DUP7 MSTORE DUP6 ADD MSTORE DUP4 ADD SWAP1 PUSH3 0x1A23 JUMP JUMPDEST SUB DUP2 DUP4 DUP10 GAS CALL DUP1 ISZERO PUSH3 0xB21 JUMPI PUSH3 0xB09 JUMPI JUMPDEST POP POP PUSH32 0xF48E5601FDD68324E52189ADE6B4C91601505AED58BCEB325B802D82DDC5BA88 SWAP2 PUSH1 0x20 SWAP2 MLOAD SWAP1 DUP2 MSTORE LOG2 DUP1 RETURN JUMPDEST PUSH3 0xB14 SWAP1 PUSH3 0x1853 JUMP JUMPDEST PUSH3 0x5E3 JUMPI DUP4 CODESIZE PUSH3 0xADA JUMP JUMPDEST DUP4 MLOAD RETURNDATASIZE DUP5 DUP3 RETURNDATACOPY RETURNDATASIZE SWAP1 REVERT JUMPDEST POP PUSH1 0x14 PUSH1 0x64 SWAP3 PUSH1 0x20 DUP6 MLOAD SWAP4 PUSH3 0x461BCD PUSH1 0xE5 SHL DUP6 MSTORE DUP5 ADD MSTORE DUP3 ADD MSTORE PUSH20 0x155B9ADB9BDDDB8818995D0818DBDB9D1C9858DD PUSH1 0x62 SHL PUSH1 0x44 DUP3 ADD MSTORE REVERT JUMPDEST DUP9 DUP1 REVERT JUMPDEST DUP7 MLOAD PUSH3 0x461BCD PUSH1 0xE5 SHL DUP2 MSTORE PUSH1 0x20 DUP2 DUP8 ADD MSTORE PUSH1 0x14 DUP2 DUP9 ADD MSTORE PUSH20 0x27B7363C90313934B233B2903932B1B2B4BB32B9 PUSH1 0x61 SHL PUSH1 0x44 DUP3 ADD MSTORE PUSH1 0x64 SWAP1 REVERT JUMPDEST DUP10 DUP1 REVERT JUMPDEST POP CALLVALUE PUSH3 0x211 JUMPI PUSH1 0x20 SWAP1 DUP2 PUSH1 0x3 NOT CALLDATASIZE ADD SLT PUSH3 0x5E3 JUMPI PUSH3 0xBC5 PUSH3 0x181B JUMP JUMPDEST SWAP3 CALLER DUP6 MSTORE PUSH1 0x3 DUP4 MSTORE PUSH3 0xBDE PUSH1 0xFF DUP3 DUP8 KECCAK256 SLOAD AND PUSH3 0x190B JUMP JUMPDEST DUP1 MLOAD PUSH4 0x2D05D3F PUSH1 0xE0 SHL DUP2 MSTORE SWAP3 DUP1 DUP5 DUP5 DUP2 CALLER GAS STATICCALL SWAP4 DUP5 ISZERO PUSH3 0xEA4 JUMPI DUP7 SWAP5 PUSH3 0xE5A JUMPI JUMPDEST POP DUP2 MLOAD PUSH4 0x129E7543 PUSH1 0xE2 SHL DUP2 MSTORE DUP7 DUP2 DUP6 DUP2 CALLER GAS STATICCALL SWAP1 DUP2 ISZERO PUSH3 0xE50 JUMPI DUP8 SWAP2 PUSH3 0xE32 JUMPI JUMPDEST POP DUP3 MLOAD PUSH4 0x8EB1A4AD PUSH1 0xE0 SHL DUP2 MSTORE SWAP2 DUP8 DUP4 DUP7 DUP2 CALLER GAS STATICCALL SWAP3 DUP4 ISZERO PUSH3 0xE28 JUMPI DUP9 SWAP4 PUSH3 0xE08 JUMPI JUMPDEST POP DUP4 MLOAD PUSH4 0xA355F897 PUSH1 0xE0 SHL DUP2 MSTORE SWAP7 DUP9 DUP9 DUP8 DUP2 CALLER GAS STATICCALL SWAP8 DUP9 ISZERO PUSH3 0xDD5 JUMPI DUP10 SWAP9 PUSH3 0xDDF JUMPI JUMPDEST POP DUP9 DUP6 MLOAD DUP1 SWAP8 PUSH4 0x7FF4197 PUSH1 0xE4 SHL DUP3 MSTORE DUP2 CALLER GAS STATICCALL SWAP6 DUP7 ISZERO PUSH3 0xDD5 JUMPI DUP10 SWAP7 PUSH3 0xD2F JUMPI JUMPDEST POP DUP5 PUSH32 0x7ED76A1D21EC00E23D69CC38E2A66AF666A11CA0497ABFCC47F427D98ABDF9AB SWAP7 SWAP5 PUSH3 0xCE7 PUSH3 0xD04 SWAP6 PUSH1 0xC0 PUSH1 0xFF SWAP13 SWAP7 PUSH3 0xCF5 SWAP7 PUSH3 0xD13 SWAP12 MLOAD SWAP15 DUP16 SWAP2 AND SWAP1 MSTORE DUP14 ADD MSTORE PUSH1 0xC0 DUP13 ADD SWAP1 PUSH3 0x1A23 JUMP JUMPDEST SWAP2 DUP11 DUP4 SUB SWAP1 DUP12 ADD MSTORE PUSH3 0x1A23 JUMP JUMPDEST SWAP1 DUP8 DUP3 SUB PUSH1 0x60 DUP10 ADD MSTORE PUSH3 0x1A23 JUMP JUMPDEST SWAP1 DUP6 DUP3 SUB PUSH1 0x80 DUP8 ADD MSTORE PUSH3 0x1A23 JUMP JUMPDEST TIMESTAMP PUSH1 0xA0 DUP6 ADD MSTORE PUSH1 0x1 PUSH1 0x1 PUSH1 0xA0 SHL SUB SWAP1 SWAP3 AND SWAP3 CALLER SWAP3 DUP2 SWAP1 SUB SWAP1 LOG3 DUP1 RETURN JUMPDEST SWAP3 SWAP5 SWAP6 POP SWAP3 SWAP7 SWAP1 RETURNDATASIZE DUP1 DUP11 DUP6 RETURNDATACOPY PUSH3 0xD47 DUP2 DUP6 PUSH3 0x187E JUMP JUMPDEST DUP4 ADD SWAP3 DUP2 DUP2 DUP6 SUB SLT PUSH3 0xBA1 JUMPI DUP1 MLOAD SWAP1 PUSH8 0xFFFFFFFFFFFFFFFF DUP3 GT PUSH3 0xDD1 JUMPI ADD SWAP6 DUP4 PUSH1 0x1F DUP9 ADD SLT ISZERO PUSH3 0xBA1 JUMPI PUSH1 0xFF SWAP9 PUSH3 0xCE7 PUSH3 0xD13 SWAP8 PUSH1 0xC0 DUP6 PUSH3 0xDBE PUSH3 0xD04 SWAP10 DUP14 PUSH3 0xCF5 SWAP10 PUSH32 0x7ED76A1D21EC00E23D69CC38E2A66AF666A11CA0497ABFCC47F427D98ABDF9AB SWAP16 MLOAD SWAP2 ADD PUSH3 0x19A6 JUMP JUMPDEST SWAP12 POP SWAP7 SWAP13 POP POP SWAP6 POP POP SWAP5 SWAP2 POP SWAP5 PUSH3 0xC94 JUMP JUMPDEST DUP11 DUP1 REVERT JUMPDEST DUP6 MLOAD RETURNDATASIZE DUP12 DUP3 RETURNDATACOPY RETURNDATASIZE SWAP1 REVERT JUMPDEST PUSH3 0xE00 SWAP2 SWAP9 POP RETURNDATASIZE DUP1 DUP12 DUP4 RETURNDATACOPY PUSH3 0xDF7 DUP2 DUP4 PUSH3 0x187E JUMP JUMPDEST DUP2 ADD SWAP1 PUSH3 0x19E4 JUMP JUMPDEST SWAP7 CODESIZE PUSH3 0xC70 JUMP JUMPDEST PUSH3 0xE20 SWAP2 SWAP4 POP RETURNDATASIZE DUP1 DUP11 DUP4 RETURNDATACOPY PUSH3 0xDF7 DUP2 DUP4 PUSH3 0x187E JUMP JUMPDEST SWAP2 CODESIZE PUSH3 0xC4B JUMP JUMPDEST DUP5 MLOAD RETURNDATASIZE DUP11 DUP3 RETURNDATACOPY RETURNDATASIZE SWAP1 REVERT JUMPDEST PUSH3 0xE49 SWAP2 POP RETURNDATASIZE DUP1 DUP10 DUP4 RETURNDATACOPY PUSH3 0xDF7 DUP2 DUP4 PUSH3 0x187E JUMP JUMPDEST CODESIZE PUSH3 0xC26 JUMP JUMPDEST DUP4 MLOAD RETURNDATASIZE DUP10 DUP3 RETURNDATACOPY RETURNDATASIZE SWAP1 REVERT JUMPDEST SWAP1 DUP1 SWAP5 POP DUP2 DUP2 RETURNDATASIZE DUP4 GT PUSH3 0xE9C JUMPI JUMPDEST PUSH3 0xE75 DUP2 DUP4 PUSH3 0x187E JUMP JUMPDEST DUP2 ADD SUB SLT PUSH3 0xE98 JUMPI MLOAD PUSH1 0x1 PUSH1 0x1 PUSH1 0xA0 SHL SUB DUP2 AND DUP2 SUB PUSH3 0xE98 JUMPI SWAP3 CODESIZE PUSH3 0xC02 JUMP JUMPDEST DUP6 DUP1 REVERT JUMPDEST POP RETURNDATASIZE PUSH3 0xE69 JUMP JUMPDEST DUP3 MLOAD RETURNDATASIZE DUP9 DUP3 RETURNDATACOPY RETURNDATASIZE SWAP1 REVERT JUMPDEST POP POP CALLVALUE PUSH3 0x608 JUMPI DUP2 PUSH1 0x3 NOT CALLDATASIZE ADD SLT PUSH3 0x608 JUMPI SWAP1 SLOAD SWAP1 MLOAD PUSH1 0x1 PUSH1 0x1 PUSH1 0xA0 SHL SUB SWAP1 SWAP2 AND DUP2 MSTORE PUSH1 0x20 SWAP1 RETURN JUMPDEST POP POP CALLVALUE PUSH3 0x608 JUMPI PUSH1 0x20 CALLDATASIZE PUSH1 0x3 NOT ADD SLT PUSH3 0x608 JUMPI PUSH1 0x20 SWAP2 PUSH1 0xFF SWAP1 DUP3 SWAP1 PUSH1 0x1 PUSH1 0x1 PUSH1 0xA0 SHL SUB PUSH3 0xF07 PUSH3 0x182C JUMP JUMPDEST AND DUP2 MSTORE PUSH1 0x3 DUP6 MSTORE KECCAK256 SLOAD AND SWAP1 MLOAD SWAP1 ISZERO ISZERO DUP2 MSTORE RETURN JUMPDEST POP CALLVALUE PUSH3 0x211 JUMPI PUSH1 0x60 CALLDATASIZE PUSH1 0x3 NOT ADD SLT PUSH3 0x211 JUMPI PUSH3 0xF38 PUSH3 0x182C JUMP JUMPDEST PUSH3 0xF42 PUSH3 0x1843 JUMP JUMPDEST SWAP3 PUSH1 0x44 CALLDATALOAD PUSH1 0x1 DUP1 PUSH1 0xA0 SHL SUB DUP1 SWAP4 AND SWAP4 DUP5 DUP8 MSTORE PUSH1 0x20 SWAP4 PUSH1 0x3 DUP6 MSTORE PUSH1 0xFF DUP5 DUP10 KECCAK256 SLOAD AND ISZERO PUSH3 0x11DA JUMPI DUP3 ISZERO PUSH3 0x1197 JUMPI DUP5 DUP9 SWAP2 PUSH1 0x64 DUP7 MLOAD DUP1 SWAP5 DUP2 SWAP4 PUSH4 0x23B872DD PUSH1 0xE0 SHL DUP4 MSTORE CALLER DUP9 DUP5 ADD MSTORE DUP12 PUSH1 0x24 DUP5 ADD MSTORE DUP9 PUSH1 0x44 DUP5 ADD MSTORE PUSH32 0x0 AND GAS CALL SWAP1 DUP2 ISZERO PUSH3 0xE28 JUMPI DUP9 SWAP2 PUSH3 0x115A JUMPI JUMPDEST POP ISZERO PUSH3 0x1120 JUMPI DUP7 SWAP1 DUP7 ISZERO PUSH3 0x106F JUMPI DUP6 EXTCODESIZE ISZERO PUSH3 0x608 JUMPI DUP4 MLOAD PUSH4 0x845E45F9 PUSH1 0xE0 SHL DUP2 MSTORE CALLER SWAP2 DUP2 ADD SWAP2 DUP3 MSTORE PUSH1 0x20 DUP3 ADD DUP5 SWAP1 MSTORE SWAP1 DUP3 SWAP1 DUP3 SWAP1 DUP2 SWAP1 PUSH1 0x40 ADD SUB DUP2 DUP4 DUP11 GAS CALL DUP1 ISZERO PUSH3 0x1065 JUMPI PUSH3 0x104D JUMPI JUMPDEST POP POP PUSH32 0xD59B563BB2B80CE65F5745A10C201715E77C2155CD1409A912757188D66454D0 SWAP3 JUMPDEST DUP3 MLOAD SWAP6 ISZERO ISZERO DUP7 MSTORE DUP6 ADD MSTORE CALLER SWAP4 LOG3 DUP1 RETURN JUMPDEST PUSH3 0x1058 SWAP1 PUSH3 0x1853 JUMP JUMPDEST PUSH3 0xE98 JUMPI DUP6 CODESIZE PUSH3 0x1018 JUMP JUMPDEST DUP5 MLOAD RETURNDATASIZE DUP5 DUP3 RETURNDATACOPY RETURNDATASIZE SWAP1 REVERT JUMPDEST SWAP1 DUP6 SWAP5 SWAP3 SWAP4 SWAP5 EXTCODESIZE ISZERO PUSH3 0x788 JUMPI DUP5 MLOAD PUSH4 0x7BEED239 PUSH1 0xE1 SHL DUP2 MSTORE CALLER SWAP3 DUP2 ADD SWAP3 DUP4 MSTORE PUSH1 0x20 DUP4 ADD DUP6 SWAP1 MSTORE SWAP2 DUP3 SWAP1 DUP2 SWAP1 PUSH1 0x40 ADD SUB DUP2 DUP4 DUP10 GAS CALL DUP1 ISZERO PUSH3 0x1116 JUMPI PUSH3 0x10DC JUMPI JUMPDEST POP SWAP1 PUSH32 0xD59B563BB2B80CE65F5745A10C201715E77C2155CD1409A912757188D66454D0 SWAP3 SWAP2 PUSH3 0x103D JUMP JUMPDEST SWAP6 PUSH3 0x110C PUSH32 0xD59B563BB2B80CE65F5745A10C201715E77C2155CD1409A912757188D66454D0 SWAP5 SWAP4 SWAP3 SWAP8 PUSH3 0x1853 JUMP JUMPDEST SWAP6 SWAP1 SWAP2 SWAP3 PUSH3 0x10B1 JUMP JUMPDEST DUP5 MLOAD RETURNDATASIZE DUP10 DUP3 RETURNDATACOPY RETURNDATASIZE SWAP1 REVERT JUMPDEST DUP3 MLOAD PUSH3 0x461BCD PUSH1 0xE5 SHL DUP2 MSTORE SWAP1 DUP2 ADD DUP5 SWAP1 MSTORE PUSH1 0x14 PUSH1 0x24 DUP3 ADD MSTORE PUSH20 0x1554D110C81D1C985B9CD9995C8819985A5B1959 PUSH1 0x62 SHL PUSH1 0x44 DUP3 ADD MSTORE PUSH1 0x64 SWAP1 REVERT JUMPDEST SWAP1 POP DUP5 DUP2 DUP2 RETURNDATASIZE DUP4 GT PUSH3 0x118F JUMPI JUMPDEST PUSH3 0x1174 DUP2 DUP4 PUSH3 0x187E JUMP JUMPDEST DUP2 ADD SUB SLT PUSH3 0x5D6 JUMPI MLOAD DUP1 ISZERO ISZERO DUP2 SUB PUSH3 0x5D6 JUMPI CODESIZE PUSH3 0xFC9 JUMP JUMPDEST POP RETURNDATASIZE PUSH3 0x1168 JUMP JUMPDEST DUP4 MLOAD PUSH3 0x461BCD PUSH1 0xE5 SHL DUP2 MSTORE DUP1 DUP4 ADD DUP7 SWAP1 MSTORE PUSH1 0x1D PUSH1 0x24 DUP3 ADD MSTORE PUSH32 0x416D6F756E74206D7573742062652067726561746572207468616E2030000000 PUSH1 0x44 DUP3 ADD MSTORE PUSH1 0x64 SWAP1 REVERT JUMPDEST DUP4 MLOAD PUSH3 0x461BCD PUSH1 0xE5 SHL DUP2 MSTORE DUP1 DUP4 ADD DUP7 SWAP1 MSTORE PUSH1 0x19 PUSH1 0x24 DUP3 ADD MSTORE PUSH32 0x426574206E6F742066726F6D207468697320666163746F727900000000000000 PUSH1 0x44 DUP3 ADD MSTORE PUSH1 0x64 SWAP1 REVERT JUMPDEST POP POP CALLVALUE PUSH3 0x608 JUMPI PUSH1 0x20 CALLDATASIZE PUSH1 0x3 NOT ADD SLT PUSH3 0x608 JUMPI PUSH1 0x20 SWAP1 PUSH3 0x1249 PUSH3 0x1243 PUSH3 0x182C JUMP JUMPDEST PUSH3 0x194D JUMP JUMPDEST SWAP1 MLOAD SWAP1 ISZERO ISZERO DUP2 MSTORE RETURN JUMPDEST DUP4 CALLVALUE PUSH3 0x788 JUMPI DUP1 PUSH1 0x3 NOT CALLDATASIZE ADD SLT PUSH3 0x788 JUMPI PUSH3 0x126F PUSH3 0x1C85 JUMP JUMPDEST DUP1 SLOAD PUSH1 0x1 PUSH1 0x1 PUSH1 0xA0 SHL SUB NOT DUP2 AND DUP3 SSTORE DUP2 SWAP1 PUSH1 0x1 PUSH1 0x1 PUSH1 0xA0 SHL SUB AND PUSH32 0x8BE0079C531659141344CD1FD0A4F28419497F9722A3DAAFE3B4186F6B6457E0 DUP3 DUP1 LOG3 DUP1 RETURN JUMPDEST DUP3 DUP5 CALLVALUE PUSH3 0x788 JUMPI DUP1 PUSH1 0x3 NOT CALLDATASIZE ADD SLT PUSH3 0x788 JUMPI DUP2 MLOAD SWAP2 DUP3 SWAP2 PUSH1 0x2 SLOAD DUP1 DUP6 MSTORE PUSH1 0x20 DUP1 SWAP6 ADD SWAP5 PUSH1 0x2 DUP4 MSTORE PUSH32 0x405787FA12A823E0F2B7631CC41B3BA8828B3321CA811111FA75CD3AA3BB5ACE SWAP3 SWAP1 JUMPDEST DUP3 DUP3 LT PUSH3 0x1319 JUMPI PUSH3 0x763 DUP7 DUP7 PUSH3 0x758 DUP3 DUP12 SUB DUP4 PUSH3 0x187E JUMP JUMPDEST DUP4 SLOAD PUSH1 0x1 PUSH1 0x1 PUSH1 0xA0 SHL SUB AND DUP8 MSTORE SWAP6 DUP7 ADD SWAP6 PUSH1 0x1 SWAP4 DUP5 ADD SWAP4 SWAP1 SWAP2 ADD SWAP1 PUSH3 0x12FD JUMP JUMPDEST DUP3 DUP5 CALLVALUE PUSH3 0x788 JUMPI DUP1 PUSH1 0x3 NOT CALLDATASIZE ADD SLT PUSH3 0x788 JUMPI DUP2 MLOAD SWAP2 DUP3 SWAP2 PUSH1 0x7 SLOAD DUP1 DUP6 MSTORE PUSH1 0x20 DUP1 SWAP6 ADD SWAP5 PUSH1 0x7 DUP4 MSTORE PUSH32 0xA66CC928B5EDB82AF9BD49922954155AB7B0942694BEA4CE44661D9A8736C688 SWAP3 SWAP1 JUMPDEST DUP3 DUP3 LT PUSH3 0x13A3 JUMPI PUSH3 0x763 DUP7 DUP7 PUSH3 0x758 DUP3 DUP12 SUB DUP4 PUSH3 0x187E JUMP JUMPDEST DUP4 SLOAD PUSH1 0x1 PUSH1 0x1 PUSH1 0xA0 SHL SUB AND DUP8 MSTORE SWAP6 DUP7 ADD SWAP6 PUSH1 0x1 SWAP4 DUP5 ADD SWAP4 SWAP1 SWAP2 ADD SWAP1 PUSH3 0x1387 JUMP JUMPDEST POP CALLVALUE PUSH3 0x211 JUMPI PUSH1 0x20 CALLDATASIZE PUSH1 0x3 NOT ADD SLT PUSH3 0x211 JUMPI PUSH1 0x20 SWAP3 PUSH1 0xFF SWAP2 DUP4 SWAP2 SWAP1 PUSH1 0x1 PUSH1 0x1 PUSH1 0xA0 SHL SUB PUSH3 0x13F3 PUSH3 0x182C JUMP JUMPDEST AND DUP3 MSTORE DUP6 MSTORE KECCAK256 SLOAD AND SWAP1 MLOAD SWAP1 ISZERO ISZERO DUP2 MSTORE RETURN JUMPDEST POP CALLVALUE PUSH3 0x211 JUMPI PUSH1 0x20 CALLDATASIZE PUSH1 0x3 NOT ADD SLT PUSH3 0x211 JUMPI CALLDATALOAD PUSH1 0x8 SLOAD DUP2 LT ISZERO PUSH3 0x211 JUMPI PUSH1 0x8 PUSH1 0x20 SWAP4 MSTORE PUSH1 0x1 DUP1 PUSH1 0xA0 SHL SUB SWAP1 PUSH32 0xF3F7A9FE364FAAB93B216DA50A3214154F22A0A2B415B23A84C8169E8B636EE3 ADD SLOAD AND SWAP1 MLOAD SWAP1 DUP2 MSTORE RETURN JUMPDEST POP SWAP2 SWAP1 CALLVALUE PUSH3 0x608 JUMPI DUP1 PUSH1 0x3 NOT CALLDATASIZE ADD SLT PUSH3 0x608 JUMPI PUSH3 0x147C PUSH3 0x181B JUMP JUMPDEST SWAP1 PUSH1 0x24 SWAP2 DUP3 CALLDATALOAD SWAP1 PUSH1 0xFF DUP3 AND DUP1 SWAP3 SUB PUSH3 0x5DF JUMPI PUSH1 0xFF SWAP1 CALLER DUP7 MSTORE PUSH1 0x3 PUSH1 0x20 MSTORE PUSH3 0x14AA DUP3 DUP6 DUP9 KECCAK256 SLOAD AND PUSH3 0x190B JUMP JUMPDEST AND SWAP3 DUP6 DUP5 LT ISZERO PUSH3 0x15C0 JUMPI PUSH3 0x14C0 DUP5 PUSH3 0x1CB2 JUMP JUMPDEST CALLER DUP7 MSTORE PUSH1 0x9 PUSH1 0x20 MSTORE DUP4 DUP7 KECCAK256 SLOAD DUP2 SLOAD PUSH1 0x0 NOT SWAP2 SWAP1 DUP3 DUP2 ADD SWAP1 DUP2 GT PUSH3 0x1643 JUMPI DUP1 DUP3 SUB PUSH3 0x15E3 JUMPI JUMPDEST POP POP DUP2 SLOAD DUP1 ISZERO PUSH3 0x15D1 JUMPI ADD SWAP1 PUSH3 0x1500 DUP3 DUP3 PUSH3 0x17EC JUMP JUMPDEST DUP2 SLOAD SWAP1 PUSH1 0x1 DUP1 PUSH1 0xA0 SHL SUB SWAP1 PUSH1 0x3 SHL SHL NOT AND SWAP1 SSTORE SSTORE DUP6 DUP3 LT ISZERO PUSH3 0x15C0 JUMPI PUSH3 0x1528 DUP3 PUSH3 0x1CB2 JUMP JUMPDEST SWAP1 DUP2 SLOAD SWAP7 CALLER DUP8 MSTORE PUSH1 0x9 PUSH1 0x20 MSTORE DUP8 DUP6 DUP9 KECCAK256 SSTORE PUSH1 0x1 PUSH1 0x40 SHL DUP9 LT ISZERO PUSH3 0x15AF JUMPI POP POP PUSH3 0x1581 DUP7 PUSH3 0x159F SWAP3 PUSH1 0x1 PUSH32 0x3B1E15094802F233DE40FA53D8147DA5AF571DE7D66C88E22778D05F8430291E SWAP8 SWAP9 SWAP10 ADD DUP2 SSTORE PUSH3 0x17EC JUMP JUMPDEST DUP2 SLOAD PUSH1 0x1 PUSH1 0x1 PUSH1 0xA0 SHL SUB PUSH1 0x3 SWAP3 SWAP1 SWAP3 SHL SWAP2 DUP3 SHL NOT AND CALLER SWAP1 SWAP2 SHL OR SWAP1 SSTORE JUMP JUMPDEST DUP2 MLOAD SWAP4 DUP5 MSTORE PUSH1 0x20 DUP5 ADD MSTORE CALLER SWAP3 LOG2 DUP1 RETURN JUMPDEST PUSH4 0x4E487B71 PUSH1 0xE0 SHL DUP8 MSTORE PUSH1 0x41 SWAP1 MSTORE DUP6 REVERT JUMPDEST PUSH4 0x4E487B71 PUSH1 0xE0 SHL DUP6 MSTORE PUSH1 0x21 DUP7 MSTORE DUP5 REVERT JUMPDEST PUSH4 0x4E487B71 PUSH1 0xE0 SHL DUP9 MSTORE PUSH1 0x31 DUP10 MSTORE DUP4 DUP9 REVERT JUMPDEST PUSH3 0x15EF SWAP1 DUP5 PUSH3 0x17EC JUMP JUMPDEST SWAP1 SLOAD PUSH1 0x3 SWAP2 SWAP1 SWAP2 SHL SHR PUSH1 0x1 PUSH1 0x1 PUSH1 0xA0 SHL SUB AND PUSH3 0x1630 DUP2 PUSH3 0x1612 DUP5 DUP8 PUSH3 0x17EC JUMP JUMPDEST SWAP1 SWAP2 SWAP1 PUSH1 0x1 DUP1 PUSH1 0xA0 SHL SUB DUP1 DUP5 SLOAD SWAP3 PUSH1 0x3 SHL SWAP4 AND DUP4 SHL SWAP3 SHL NOT AND OR SWAP1 SSTORE JUMP JUMPDEST DUP9 MSTORE PUSH1 0x9 PUSH1 0x20 MSTORE DUP6 DUP9 KECCAK256 SSTORE CODESIZE DUP1 PUSH3 0x14E7 JUMP JUMPDEST PUSH4 0x4E487B71 PUSH1 0xE0 SHL DUP10 MSTORE PUSH1 0x11 DUP11 MSTORE DUP5 DUP10 REVERT JUMPDEST POP CALLVALUE PUSH3 0x211 JUMPI PUSH1 0x20 CALLDATASIZE PUSH1 0x3 NOT ADD SLT PUSH3 0x211 JUMPI CALLDATALOAD PUSH1 0x7 SLOAD DUP2 LT ISZERO PUSH3 0x211 JUMPI PUSH1 0x7 PUSH1 0x20 SWAP4 MSTORE PUSH1 0x1 DUP1 PUSH1 0xA0 SHL SUB SWAP1 PUSH32 0xA66CC928B5EDB82AF9BD49922954155AB7B0942694BEA4CE44661D9A8736C688 ADD SLOAD AND SWAP1 MLOAD SWAP1 DUP2 MSTORE RETURN JUMPDEST POP POP CALLVALUE PUSH3 0x608 JUMPI DUP2 PUSH1 0x3 NOT CALLDATASIZE ADD SLT PUSH3 0x608 JUMPI MLOAD PUSH32 0x0 PUSH1 0x1 PUSH1 0x1 PUSH1 0xA0 SHL SUB AND DUP2 MSTORE PUSH1 0x20 SWAP1 RETURN JUMPDEST DUP3 DUP5 CALLVALUE PUSH3 0x788 JUMPI DUP1 PUSH1 0x3 NOT CALLDATASIZE ADD SLT PUSH3 0x788 JUMPI DUP2 MLOAD SWAP2 DUP3 SWAP2 PUSH1 0x8 SLOAD DUP1 DUP6 MSTORE PUSH1 0x20 DUP1 SWAP6 ADD SWAP5 PUSH1 0x8 DUP4 MSTORE PUSH32 0xF3F7A9FE364FAAB93B216DA50A3214154F22A0A2B415B23A84C8169E8B636EE3 SWAP3 SWAP1 JUMPDEST DUP3 DUP3 LT PUSH3 0x175D JUMPI PUSH3 0x763 DUP7 DUP7 PUSH3 0x758 DUP3 DUP12 SUB DUP4 PUSH3 0x187E JUMP JUMPDEST DUP4 SLOAD PUSH1 0x1 PUSH1 0x1 PUSH1 0xA0 SHL SUB AND DUP8 MSTORE SWAP6 DUP7 ADD SWAP6 PUSH1 0x1 SWAP4 DUP5 ADD SWAP4 SWAP1 SWAP2 ADD SWAP1 PUSH3 0x1741 JUMP JUMPDEST DUP5 SWAP1 CALLVALUE PUSH3 0x608 JUMPI DUP2 PUSH1 0x3 NOT CALLDATASIZE ADD SLT PUSH3 0x608 JUMPI PUSH1 0x1 SLOAD PUSH1 0x1 PUSH1 0x1 PUSH1 0xA0 SHL SUB AND DUP2 MSTORE PUSH1 0x20 SWAP1 RETURN JUMPDEST PUSH1 0x20 SWAP1 PUSH1 0x20 PUSH1 0x40 DUP2 DUP4 ADD SWAP3 DUP3 DUP2 MSTORE DUP6 MLOAD DUP1 SWAP5 MSTORE ADD SWAP4 ADD SWAP2 PUSH1 0x0 JUMPDEST DUP3 DUP2 LT PUSH3 0x17CE JUMPI POP POP POP POP SWAP1 JUMP JUMPDEST DUP4 MLOAD PUSH1 0x1 PUSH1 0x1 PUSH1 0xA0 SHL SUB AND DUP6 MSTORE SWAP4 DUP2 ADD SWAP4 SWAP3 DUP2 ADD SWAP3 PUSH1 0x1 ADD PUSH3 0x17BF JUMP JUMPDEST DUP1 SLOAD DUP3 LT ISZERO PUSH3 0x1805 JUMPI PUSH1 0x0 MSTORE PUSH1 0x20 PUSH1 0x0 KECCAK256 ADD SWAP1 PUSH1 0x0 SWAP1 JUMP JUMPDEST PUSH4 0x4E487B71 PUSH1 0xE0 SHL PUSH1 0x0 MSTORE PUSH1 0x32 PUSH1 0x4 MSTORE PUSH1 0x24 PUSH1 0x0 REVERT JUMPDEST PUSH1 0x4 CALLDATALOAD SWAP1 PUSH1 0xFF DUP3 AND DUP3 SUB PUSH3 0x5DA JUMPI JUMP JUMPDEST PUSH1 0x4 CALLDATALOAD SWAP1 PUSH1 0x1 PUSH1 0x1 PUSH1 0xA0 SHL SUB DUP3 AND DUP3 SUB PUSH3 0x5DA JUMPI JUMP JUMPDEST PUSH1 0x24 CALLDATALOAD SWAP1 DUP2 ISZERO ISZERO DUP3 SUB PUSH3 0x5DA JUMPI JUMP JUMPDEST PUSH8 0xFFFFFFFFFFFFFFFF DUP2 GT PUSH3 0x1868 JUMPI PUSH1 0x40 MSTORE JUMP JUMPDEST PUSH4 0x4E487B71 PUSH1 0xE0 SHL PUSH1 0x0 MSTORE PUSH1 0x41 PUSH1 0x4 MSTORE PUSH1 0x24 PUSH1 0x0 REVERT JUMPDEST SWAP1 PUSH1 0x1F DUP1 NOT SWAP2 ADD AND DUP2 ADD SWAP1 DUP2 LT PUSH8 0xFFFFFFFFFFFFFFFF DUP3 GT OR PUSH3 0x1868 JUMPI PUSH1 0x40 MSTORE JUMP JUMPDEST PUSH8 0xFFFFFFFFFFFFFFFF DUP2 GT PUSH3 0x1868 JUMPI PUSH1 0x1F ADD PUSH1 0x1F NOT AND PUSH1 0x20 ADD SWAP1 JUMP JUMPDEST DUP2 PUSH1 0x1F DUP3 ADD SLT ISZERO PUSH3 0x5DA JUMPI DUP1 CALLDATALOAD SWAP1 PUSH3 0x18D8 DUP3 PUSH3 0x18A1 JUMP JUMPDEST SWAP3 PUSH3 0x18E8 PUSH1 0x40 MLOAD SWAP5 DUP6 PUSH3 0x187E JUMP JUMPDEST DUP3 DUP5 MSTORE PUSH1 0x20 DUP4 DUP4 ADD ADD GT PUSH3 0x5DA JUMPI DUP2 PUSH1 0x0 SWAP3 PUSH1 0x20 DUP1 SWAP4 ADD DUP4 DUP7 ADD CALLDATACOPY DUP4 ADD ADD MSTORE SWAP1 JUMP JUMPDEST ISZERO PUSH3 0x1913 JUMPI JUMP JUMPDEST PUSH1 0x40 MLOAD PUSH3 0x461BCD PUSH1 0xE5 SHL DUP2 MSTORE PUSH1 0x20 PUSH1 0x4 DUP3 ADD MSTORE PUSH1 0x12 PUSH1 0x24 DUP3 ADD MSTORE PUSH18 0x139BDD08184819195C1B1BDE59590818995D PUSH1 0x72 SHL PUSH1 0x44 DUP3 ADD MSTORE PUSH1 0x64 SWAP1 REVERT JUMPDEST PUSH1 0x0 SLOAD PUSH1 0x1 PUSH1 0x1 PUSH1 0xA0 SHL SUB SWAP2 DUP3 AND SWAP2 AND DUP2 EQ SWAP1 DUP2 ISZERO PUSH3 0x196B JUMPI POP SWAP1 JUMP JUMPDEST SWAP1 POP PUSH1 0x0 MSTORE PUSH1 0x4 PUSH1 0x20 MSTORE PUSH1 0xFF PUSH1 0x40 PUSH1 0x0 KECCAK256 SLOAD AND SWAP1 JUMP JUMPDEST PUSH1 0x0 JUMPDEST DUP4 DUP2 LT PUSH3 0x1995 JUMPI POP POP PUSH1 0x0 SWAP2 ADD MSTORE JUMP JUMPDEST DUP2 DUP2 ADD MLOAD DUP4 DUP3 ADD MSTORE PUSH1 0x20 ADD PUSH3 0x1984 JUMP JUMPDEST SWAP1 SWAP3 SWAP2 SWAP3 PUSH3 0x19B5 DUP2 PUSH3 0x18A1 JUMP JUMPDEST SWAP2 PUSH3 0x19C5 PUSH1 0x40 MLOAD SWAP4 DUP5 PUSH3 0x187E JUMP JUMPDEST DUP3 SWAP5 DUP3 DUP5 MSTORE DUP3 DUP3 ADD GT PUSH3 0x5DA JUMPI PUSH1 0x20 PUSH3 0x19E2 SWAP4 ADD SWAP1 PUSH3 0x1981 JUMP JUMPDEST JUMP JUMPDEST PUSH1 0x20 DUP2 DUP4 SUB SLT PUSH3 0x5DA JUMPI DUP1 MLOAD SWAP1 PUSH8 0xFFFFFFFFFFFFFFFF DUP3 GT PUSH3 0x5DA JUMPI ADD SWAP1 DUP1 PUSH1 0x1F DUP4 ADD SLT ISZERO PUSH3 0x5DA JUMPI DUP2 MLOAD PUSH3 0x1A20 SWAP3 PUSH1 0x20 ADD PUSH3 0x19A6 JUMP JUMPDEST SWAP1 JUMP JUMPDEST SWAP1 PUSH1 0x20 SWAP2 PUSH3 0x1A3E DUP2 MLOAD DUP1 SWAP3 DUP2 DUP6 MSTORE DUP6 DUP1 DUP7 ADD SWAP2 ADD PUSH3 0x1981 JUMP JUMPDEST PUSH1 0x1F ADD PUSH1 0x1F NOT AND ADD ADD SWAP1 JUMP JUMPDEST PUSH1 0xFF AND DUP1 ISZERO PUSH3 0x1C1C JUMPI PUSH1 0x1 SWAP1 DUP2 DUP2 EQ PUSH3 0x1B9F JUMPI PUSH1 0x2 DUP2 EQ PUSH3 0x1B22 JUMPI PUSH1 0x3 EQ PUSH3 0x1AA6 JUMPI PUSH1 0x40 MLOAD PUSH3 0x461BCD PUSH1 0xE5 SHL DUP2 MSTORE PUSH1 0x20 PUSH1 0x4 DUP3 ADD MSTORE PUSH1 0xE PUSH1 0x24 DUP3 ADD MSTORE PUSH14 0x496E76616C696420737461747573 PUSH1 0x90 SHL PUSH1 0x44 DUP3 ADD MSTORE PUSH1 0x64 SWAP1 REVERT JUMPDEST PUSH1 0x40 MLOAD DUP1 SWAP2 DUP3 SWAP2 PUSH1 0x8 SLOAD SWAP2 DUP3 DUP3 MSTORE PUSH1 0x20 DUP1 SWAP3 ADD SWAP3 PUSH1 0x8 PUSH1 0x0 MSTORE PUSH32 0xF3F7A9FE364FAAB93B216DA50A3214154F22A0A2B415B23A84C8169E8B636EE3 SWAP3 PUSH1 0x0 SWAP1 JUMPDEST DUP3 DUP3 LT PUSH3 0x1B00 JUMPI POP POP POP POP POP SWAP1 PUSH3 0x1A20 SWAP2 SUB DUP3 PUSH3 0x187E JUMP JUMPDEST DUP5 SLOAD PUSH1 0x1 PUSH1 0x1 PUSH1 0xA0 SHL SUB AND DUP7 MSTORE DUP8 SWAP7 POP SWAP5 DUP6 ADD SWAP5 SWAP4 DUP4 ADD SWAP4 SWAP1 DUP4 ADD SWAP1 PUSH3 0x1AE5 JUMP JUMPDEST POP PUSH1 0x40 MLOAD DUP1 SWAP2 DUP3 SWAP2 PUSH1 0x7 SLOAD SWAP2 DUP3 DUP3 MSTORE PUSH1 0x20 DUP1 SWAP3 ADD SWAP3 PUSH1 0x7 PUSH1 0x0 MSTORE PUSH32 0xA66CC928B5EDB82AF9BD49922954155AB7B0942694BEA4CE44661D9A8736C688 SWAP3 PUSH1 0x0 SWAP1 JUMPDEST DUP3 DUP3 LT PUSH3 0x1B7D JUMPI POP POP POP POP POP SWAP1 PUSH3 0x1A20 SWAP2 SUB DUP3 PUSH3 0x187E JUMP JUMPDEST DUP5 SLOAD PUSH1 0x1 PUSH1 0x1 PUSH1 0xA0 SHL SUB AND DUP7 MSTORE DUP8 SWAP7 POP SWAP5 DUP6 ADD SWAP5 SWAP4 DUP4 ADD SWAP4 SWAP1 DUP4 ADD SWAP1 PUSH3 0x1B62 JUMP JUMPDEST POP PUSH1 0x40 MLOAD DUP1 SWAP2 DUP3 SWAP2 PUSH1 0x6 SLOAD SWAP2 DUP3 DUP3 MSTORE PUSH1 0x20 DUP1 SWAP3 ADD SWAP3 PUSH1 0x6 PUSH1 0x0 MSTORE PUSH32 0xF652222313E28459528D920B65115C16C04F3EFC82AAEDC97BE59F3F377C0D3F SWAP3 PUSH1 0x0 SWAP1 JUMPDEST DUP3 DUP3 LT PUSH3 0x1BFA JUMPI POP POP POP POP POP SWAP1 PUSH3 0x1A20 SWAP2 SUB DUP3 PUSH3 0x187E JUMP JUMPDEST DUP5 SLOAD PUSH1 0x1 PUSH1 0x1 PUSH1 0xA0 SHL SUB AND DUP7 MSTORE DUP8 SWAP7 POP SWAP5 DUP6 ADD SWAP5 SWAP4 DUP4 ADD SWAP4 SWAP1 DUP4 ADD SWAP1 PUSH3 0x1BDF JUMP JUMPDEST POP PUSH1 0x40 MLOAD DUP1 DUP2 PUSH1 0x5 SLOAD DUP1 DUP4 MSTORE PUSH1 0x20 DUP1 SWAP4 ADD SWAP1 PUSH1 0x5 PUSH1 0x0 MSTORE PUSH1 0x0 DUP1 MLOAD PUSH1 0x20 PUSH3 0x49B8 DUP4 CODECOPY DUP2 MLOAD SWAP2 MSTORE SWAP4 PUSH1 0x0 SWAP1 JUMPDEST DUP3 DUP3 LT PUSH3 0x1C61 JUMPI POP POP POP PUSH3 0x1A20 SWAP3 POP SUB DUP3 PUSH3 0x187E JUMP JUMPDEST DUP6 SLOAD PUSH1 0x1 PUSH1 0x1 PUSH1 0xA0 SHL SUB AND DUP5 MSTORE PUSH1 0x1 SWAP6 DUP7 ADD SWAP6 DUP8 SWAP6 POP SWAP4 DUP2 ADD SWAP4 SWAP1 SWAP2 ADD SWAP1 PUSH3 0x1C48 JUMP JUMPDEST PUSH1 0x0 SLOAD PUSH1 0x1 PUSH1 0x1 PUSH1 0xA0 SHL SUB AND CALLER SUB PUSH3 0x1C9A JUMPI JUMP JUMPDEST PUSH1 0x40 MLOAD PUSH4 0x118CDAA7 PUSH1 0xE0 SHL DUP2 MSTORE CALLER PUSH1 0x4 DUP3 ADD MSTORE PUSH1 0x24 SWAP1 REVERT JUMPDEST PUSH1 0x4 DUP2 LT ISZERO PUSH3 0x1CEA JUMPI DUP1 ISZERO PUSH3 0x1CE4 JUMPI PUSH1 0x1 DUP2 EQ PUSH3 0x1CDE JUMPI PUSH1 0x2 EQ PUSH3 0x1CD9 JUMPI PUSH1 0x8 SWAP1 JUMP JUMPDEST PUSH1 0x7 SWAP1 JUMP JUMPDEST POP PUSH1 0x6 SWAP1 JUMP JUMPDEST POP PUSH1 0x5 SWAP1 JUMP JUMPDEST PUSH4 0x4E487B71 PUSH1 0xE0 SHL PUSH1 0x0 MSTORE PUSH1 0x21 PUSH1 0x4 MSTORE PUSH1 0x24 PUSH1 0x0 REVERT INVALID PUSH2 0x140 PUSH1 0x40 MSTORE CALLVALUE PUSH3 0xA25 JUMPI PUSH3 0x2CB7 DUP1 CODESIZE SUB DUP1 PUSH3 0x1E DUP2 PUSH3 0xA2A JUMP JUMPDEST SWAP3 DUP4 CODECOPY DUP2 ADD SWAP1 PUSH2 0x140 DUP2 DUP4 SUB SLT PUSH3 0xA25 JUMPI PUSH3 0x3B DUP2 PUSH3 0xA50 JUMP JUMPDEST PUSH1 0x20 DUP3 ADD MLOAD SWAP1 SWAP2 SWAP1 PUSH1 0x1 PUSH1 0x1 PUSH1 0x40 SHL SUB DUP2 GT PUSH3 0xA25 JUMPI DUP4 PUSH3 0x60 SWAP2 DUP4 ADD PUSH3 0xAC6 JUMP JUMPDEST PUSH1 0x40 DUP3 ADD MLOAD SWAP1 SWAP4 SWAP1 PUSH1 0x1 PUSH1 0x1 PUSH1 0x40 SHL SUB DUP2 GT PUSH3 0xA25 JUMPI DUP2 PUSH3 0x85 SWAP2 DUP5 ADD PUSH3 0xAC6 JUMP JUMPDEST PUSH1 0x60 DUP4 ADD MLOAD SWAP1 SWAP4 SWAP1 PUSH1 0x1 PUSH1 0x1 PUSH1 0x40 SHL SUB DUP2 GT PUSH3 0xA25 JUMPI DUP3 PUSH3 0xAA SWAP2 DUP6 ADD PUSH3 0xAC6 JUMP JUMPDEST PUSH1 0x80 DUP5 ADD MLOAD PUSH1 0x1 PUSH1 0x1 PUSH1 0x40 SHL SUB DUP2 GT PUSH3 0xA25 JUMPI DUP4 PUSH3 0xCC SWAP2 DUP7 ADD PUSH3 0xAC6 JUMP JUMPDEST SWAP1 PUSH1 0xA0 DUP6 ADD MLOAD PUSH3 0xE0 PUSH1 0xC0 DUP8 ADD PUSH3 0xA50 JUMP JUMPDEST SWAP3 PUSH3 0xEF PUSH1 0xE0 DUP9 ADD PUSH3 0xA50 JUMP JUMPDEST SWAP3 PUSH2 0x100 SWAP9 DUP10 DUP10 ADD MLOAD SWAP8 PUSH1 0x3 DUP10 LT ISZERO PUSH3 0xA25 JUMPI PUSH2 0x120 DUP11 DUP2 ADD MLOAD SWAP1 SWAP11 PUSH1 0x1 PUSH1 0x1 PUSH1 0x40 SHL SUB DUP3 GT PUSH3 0xA25 JUMPI ADD SWAP1 DUP1 PUSH1 0x1F DUP4 ADD SLT ISZERO PUSH3 0xA25 JUMPI DUP2 MLOAD PUSH3 0x139 SWAP3 PUSH1 0x20 ADD PUSH3 0xA65 JUMP JUMPDEST PUSH1 0x1 PUSH32 0x9B779B17422D0DF92223018B32B4D1FA46E071723D6817E2486D003BECC55F00 SSTORE SWAP11 PUSH1 0x1 PUSH1 0x1 PUSH1 0xA0 SHL SUB SWAP8 DUP7 DUP10 AND DUP1 ISZERO PUSH3 0xA0C JUMPI PUSH1 0x0 DUP1 SLOAD PUSH1 0x1 PUSH1 0x1 PUSH1 0xA0 SHL SUB NOT DUP2 AND DUP4 OR DUP3 SSTORE PUSH1 0x40 MLOAD SWAP3 SWAP2 SWAP1 DUP13 AND SWAP1 PUSH32 0x8BE0079C531659141344CD1FD0A4F28419497F9722A3DAAFE3B4186F6B6457E0 SWAP1 DUP1 LOG3 DUP10 DUP3 AND ISZERO PUSH3 0x9CA JUMPI POP DUP9 DUP9 AND ISZERO PUSH3 0x985 JUMPI DUP2 MLOAD ISZERO PUSH3 0x940 JUMPI DUP4 MLOAD ISZERO PUSH3 0x8FB JUMPI DUP5 MLOAD ISZERO PUSH3 0x8B6 JUMPI PUSH1 0x80 MSTORE DUP1 MLOAD SWAP1 PUSH1 0x1 PUSH1 0x1 PUSH1 0x40 SHL SUB DUP3 GT PUSH3 0x554 JUMPI PUSH3 0x1FE PUSH1 0x1 SLOAD PUSH3 0xAE6 JUMP JUMPDEST PUSH1 0x1F DUP2 GT PUSH3 0x874 JUMPI JUMPDEST POP PUSH1 0x20 SWAP1 PUSH1 0x1F DUP4 GT PUSH1 0x1 EQ PUSH3 0x7F7 JUMPI PUSH3 0x23D SWAP3 SWAP2 PUSH1 0x0 SWAP2 DUP4 PUSH3 0x49D JUMPI JUMPDEST POP POP DUP2 PUSH1 0x1 SHL SWAP2 PUSH1 0x0 NOT SWAP1 PUSH1 0x3 SHL SHR NOT AND OR SWAP1 JUMP JUMPDEST PUSH1 0x1 SSTORE JUMPDEST DUP1 MLOAD SWAP1 PUSH1 0x1 PUSH1 0x1 PUSH1 0x40 SHL SUB DUP3 GT PUSH3 0x554 JUMPI PUSH3 0x260 PUSH1 0x2 SLOAD PUSH3 0xAE6 JUMP JUMPDEST PUSH1 0x1F DUP2 GT PUSH3 0x7B5 JUMPI JUMPDEST POP PUSH1 0x20 SWAP1 PUSH1 0x1F DUP4 GT PUSH1 0x1 EQ PUSH3 0x738 JUMPI PUSH3 0x29E SWAP3 SWAP2 PUSH1 0x0 SWAP2 DUP4 PUSH3 0x49D JUMPI POP POP DUP2 PUSH1 0x1 SHL SWAP2 PUSH1 0x0 NOT SWAP1 PUSH1 0x3 SHL SHR NOT AND OR SWAP1 JUMP JUMPDEST PUSH1 0x2 SSTORE JUMPDEST DUP1 MLOAD SWAP1 PUSH1 0x1 PUSH1 0x1 PUSH1 0x40 SHL SUB DUP3 GT PUSH3 0x554 JUMPI PUSH3 0x2C1 PUSH1 0x3 SLOAD PUSH3 0xAE6 JUMP JUMPDEST PUSH1 0x1F DUP2 GT PUSH3 0x6E5 JUMPI JUMPDEST POP PUSH1 0x20 SWAP1 PUSH1 0x1F DUP4 GT PUSH1 0x1 EQ PUSH3 0x657 JUMPI PUSH3 0x2FF SWAP3 SWAP2 PUSH1 0x0 SWAP2 DUP4 PUSH3 0x49D JUMPI POP POP DUP2 PUSH1 0x1 SHL SWAP2 PUSH1 0x0 NOT SWAP1 PUSH1 0x3 SHL SHR NOT AND OR SWAP1 JUMP JUMPDEST PUSH1 0x3 SSTORE JUMPDEST DUP1 MLOAD SWAP1 PUSH1 0x1 PUSH1 0x1 PUSH1 0x40 SHL SUB DUP3 GT PUSH3 0x554 JUMPI PUSH3 0x322 PUSH1 0x4 SLOAD PUSH3 0xAE6 JUMP JUMPDEST PUSH1 0x1F DUP2 GT PUSH3 0x5F8 JUMPI JUMPDEST POP PUSH1 0x20 SWAP1 PUSH1 0x1F DUP4 GT PUSH1 0x1 EQ PUSH3 0x56A JUMPI PUSH3 0x360 SWAP3 SWAP2 PUSH1 0x0 SWAP2 DUP4 PUSH3 0x49D JUMPI POP POP DUP2 PUSH1 0x1 SHL SWAP2 PUSH1 0x0 NOT SWAP1 PUSH1 0x3 SHL SHR NOT AND OR SWAP1 JUMP JUMPDEST PUSH1 0x4 SSTORE JUMPDEST TIMESTAMP PUSH1 0xA0 MSTORE PUSH1 0xC0 MSTORE PUSH1 0xE0 MSTORE AND DUP4 MSTORE DUP2 MSTORE DUP3 MLOAD PUSH1 0x1 PUSH1 0x1 PUSH1 0x40 SHL SUB DUP2 GT PUSH3 0x554 JUMPI PUSH1 0x5 SWAP1 PUSH3 0x393 DUP3 SLOAD PUSH3 0xAE6 JUMP JUMPDEST PUSH1 0x1F DUP2 GT PUSH3 0x514 JUMPI JUMPDEST POP PUSH1 0x20 SWAP5 PUSH1 0x1F DUP3 GT PUSH1 0x1 EQ PUSH3 0x4A9 JUMPI PUSH3 0x3D4 SWAP3 SWAP4 SWAP5 SWAP6 DUP3 SWAP2 PUSH1 0x0 SWAP3 PUSH3 0x49D JUMPI POP POP DUP2 PUSH1 0x1 SHL SWAP2 PUSH1 0x0 NOT SWAP1 PUSH1 0x3 SHL SHR NOT AND OR SWAP1 JUMP JUMPDEST SWAP1 SSTORE JUMPDEST PUSH3 0xFF0000 NOT PUSH1 0x6 SLOAD AND PUSH1 0x6 SSTORE PUSH1 0x40 MLOAD SWAP1 PUSH2 0x213A SWAP3 DUP4 PUSH3 0xB3D DUP5 CODECOPY PUSH1 0x80 MLOAD DUP4 DUP2 DUP2 PUSH2 0x993 ADD MSTORE DUP2 DUP2 PUSH2 0xD42 ADD MSTORE DUP2 DUP2 PUSH2 0x146A ADD MSTORE PUSH2 0x1C4D ADD MSTORE PUSH1 0xA0 MLOAD DUP4 DUP2 DUP2 PUSH2 0xDBB ADD MSTORE PUSH2 0x1C16 ADD MSTORE PUSH1 0xC0 MLOAD DUP4 DUP2 DUP2 PUSH2 0x237 ADD MSTORE DUP2 DUP2 PUSH2 0x493 ADD MSTORE DUP2 DUP2 PUSH2 0x7E4 ADD MSTORE DUP2 DUP2 PUSH2 0xDE1 ADD MSTORE PUSH2 0x1493 ADD MSTORE PUSH1 0xE0 MLOAD DUP4 DUP2 DUP2 PUSH2 0x20B ADD MSTORE DUP2 DUP2 PUSH2 0x44C ADD MSTORE DUP2 DUP2 PUSH2 0x7B8 ADD MSTORE DUP2 DUP2 PUSH2 0xA02 ADD MSTORE DUP2 DUP2 PUSH2 0x14EF ADD MSTORE DUP2 DUP2 PUSH2 0x16DC ADD MSTORE DUP2 DUP2 PUSH2 0x1872 ADD MSTORE PUSH2 0x18C9 ADD MSTORE MLOAD DUP3 DUP2 DUP2 PUSH2 0x1AC ADD MSTORE PUSH2 0x10AD ADD MSTORE MLOAD DUP2 DUP2 DUP2 PUSH2 0x306 ADD MSTORE PUSH2 0x155E ADD MSTORE RETURN JUMPDEST ADD MLOAD SWAP1 POP CODESIZE DUP1 PUSH3 0x228 JUMP JUMPDEST PUSH1 0x1F NOT DUP3 AND SWAP6 DUP4 PUSH1 0x0 MSTORE PUSH1 0x20 PUSH1 0x0 KECCAK256 SWAP2 PUSH1 0x0 JUMPDEST DUP9 DUP2 LT PUSH3 0x4FB JUMPI POP DUP4 PUSH1 0x1 SWAP6 SWAP7 SWAP8 SWAP9 LT PUSH3 0x4E1 JUMPI JUMPDEST POP POP POP DUP2 SHL ADD SWAP1 SSTORE PUSH3 0x3D7 JUMP JUMPDEST ADD MLOAD PUSH1 0x0 NOT PUSH1 0xF8 DUP5 PUSH1 0x3 SHL AND SHR NOT AND SWAP1 SSTORE CODESIZE DUP1 DUP1 PUSH3 0x4D3 JUMP JUMPDEST SWAP2 SWAP3 PUSH1 0x20 PUSH1 0x1 DUP2 SWAP3 DUP7 DUP6 ADD MLOAD DUP2 SSTORE ADD SWAP5 ADD SWAP3 ADD PUSH3 0x4BC JUMP JUMPDEST PUSH3 0x542 SWAP1 DUP4 PUSH1 0x0 MSTORE PUSH1 0x20 PUSH1 0x0 KECCAK256 PUSH1 0x1F DUP5 ADD DUP6 SHR DUP2 ADD SWAP2 PUSH1 0x20 DUP6 LT PUSH3 0x549 JUMPI JUMPDEST PUSH1 0x1F ADD DUP6 SHR ADD SWAP1 PUSH3 0xB23 JUMP JUMPDEST CODESIZE PUSH3 0x39D JUMP JUMPDEST SWAP1 SWAP2 POP DUP2 SWAP1 PUSH3 0x535 JUMP JUMPDEST PUSH4 0x4E487B71 PUSH1 0xE0 SHL PUSH1 0x0 MSTORE PUSH1 0x41 PUSH1 0x4 MSTORE PUSH1 0x24 PUSH1 0x0 REVERT JUMPDEST PUSH1 0x4 PUSH1 0x0 SWAP1 DUP2 MSTORE SWAP3 SWAP2 PUSH32 0x8A35ACFBC15FF81A39AE7D344FD709F28E8600B4AA8C65C6B64BFE7FE36BD19B SWAP2 JUMPDEST PUSH1 0x1F NOT DUP5 AND DUP6 LT PUSH3 0x5DC JUMPI PUSH1 0x1 SWAP5 POP DUP4 PUSH1 0x1F NOT DUP2 AND LT PUSH3 0x5C2 JUMPI JUMPDEST POP POP POP DUP2 SHL ADD PUSH1 0x4 SSTORE PUSH3 0x364 JUMP JUMPDEST ADD MLOAD PUSH1 0x0 NOT PUSH1 0xF8 DUP5 PUSH1 0x3 SHL AND SHR NOT AND SWAP1 SSTORE CODESIZE DUP1 DUP1 PUSH3 0x5B3 JUMP JUMPDEST DUP2 DUP2 ADD MLOAD DUP4 SSTORE PUSH1 0x20 SWAP5 DUP6 ADD SWAP5 PUSH1 0x1 SWAP1 SWAP4 ADD SWAP3 SWAP1 SWAP2 ADD SWAP1 PUSH3 0x596 JUMP JUMPDEST PUSH1 0x4 PUSH1 0x0 MSTORE PUSH3 0x645 SWAP1 PUSH32 0x8A35ACFBC15FF81A39AE7D344FD709F28E8600B4AA8C65C6B64BFE7FE36BD19B PUSH1 0x1F DUP6 ADD PUSH1 0x5 SHR DUP2 ADD SWAP2 PUSH1 0x20 DUP7 LT PUSH3 0x64C JUMPI JUMPDEST PUSH1 0x1F ADD PUSH1 0x5 SHR ADD SWAP1 PUSH3 0xB23 JUMP JUMPDEST CODESIZE PUSH3 0x32C JUMP JUMPDEST SWAP1 SWAP2 POP DUP2 SWAP1 PUSH3 0x637 JUMP JUMPDEST PUSH1 0x3 PUSH1 0x0 SWAP1 DUP2 MSTORE SWAP3 SWAP2 PUSH32 0xC2575A0E9E593C00F959F8C92F12DB2869C3395A3B0502D05E2516446F71F85B SWAP2 JUMPDEST PUSH1 0x1F NOT DUP5 AND DUP6 LT PUSH3 0x6C9 JUMPI PUSH1 0x1 SWAP5 POP DUP4 PUSH1 0x1F NOT DUP2 AND LT PUSH3 0x6AF JUMPI JUMPDEST POP POP POP DUP2 SHL ADD PUSH1 0x3 SSTORE PUSH3 0x303 JUMP JUMPDEST ADD MLOAD PUSH1 0x0 NOT PUSH1 0xF8 DUP5 PUSH1 0x3 SHL AND SHR NOT AND SWAP1 SSTORE CODESIZE DUP1 DUP1 PUSH3 0x6A0 JUMP JUMPDEST DUP2 DUP2 ADD MLOAD DUP4 SSTORE PUSH1 0x20 SWAP5 DUP6 ADD SWAP5 PUSH1 0x1 SWAP1 SWAP4 ADD SWAP3 SWAP1 SWAP2 ADD SWAP1 PUSH3 0x683 JUMP JUMPDEST PUSH1 0x3 PUSH1 0x0 MSTORE PUSH3 0x731 SWAP1 PUSH32 0xC2575A0E9E593C00F959F8C92F12DB2869C3395A3B0502D05E2516446F71F85B PUSH1 0x1F DUP6 ADD PUSH1 0x5 SHR DUP2 ADD SWAP2 PUSH1 0x20 DUP7 LT PUSH3 0x64C JUMPI PUSH1 0x1F ADD PUSH1 0x5 SHR ADD SWAP1 PUSH3 0xB23 JUMP JUMPDEST CODESIZE PUSH3 0x2CB JUMP JUMPDEST PUSH1 0x2 PUSH1 0x0 SWAP1 DUP2 MSTORE SWAP3 SWAP2 PUSH1 0x0 DUP1 MLOAD PUSH1 0x20 PUSH3 0x2C77 DUP4 CODECOPY DUP2 MLOAD SWAP2 MSTORE SWAP2 JUMPDEST PUSH1 0x1F NOT DUP5 AND DUP6 LT PUSH3 0x799 JUMPI PUSH1 0x1 SWAP5 POP DUP4 PUSH1 0x1F NOT DUP2 AND LT PUSH3 0x77F JUMPI JUMPDEST POP POP POP DUP2 SHL ADD PUSH1 0x2 SSTORE PUSH3 0x2A2 JUMP JUMPDEST ADD MLOAD PUSH1 0x0 NOT PUSH1 0xF8 DUP5 PUSH1 0x3 SHL AND SHR NOT AND SWAP1 SSTORE CODESIZE DUP1 DUP1 PUSH3 0x770 JUMP JUMPDEST DUP2 DUP2 ADD MLOAD DUP4 SSTORE PUSH1 0x20 SWAP5 DUP6 ADD SWAP5 PUSH1 0x1 SWAP1 SWAP4 ADD SWAP3 SWAP1 SWAP2 ADD SWAP1 PUSH3 0x753 JUMP JUMPDEST PUSH1 0x2 PUSH1 0x0 MSTORE PUSH3 0x7F0 SWAP1 PUSH1 0x0 DUP1 MLOAD PUSH1 0x20 PUSH3 0x2C77 DUP4 CODECOPY DUP2 MLOAD SWAP2 MSTORE PUSH1 0x1F DUP6 ADD PUSH1 0x5 SHR DUP2 ADD SWAP2 PUSH1 0x20 DUP7 LT PUSH3 0x64C JUMPI PUSH1 0x1F ADD PUSH1 0x5 SHR ADD SWAP1 PUSH3 0xB23 JUMP JUMPDEST CODESIZE PUSH3 0x26A JUMP JUMPDEST PUSH1 0x1 PUSH1 0x0 SWAP1 DUP2 MSTORE SWAP3 SWAP2 PUSH1 0x0 DUP1 MLOAD PUSH1 0x20 PUSH3 0x2C97 DUP4 CODECOPY DUP2 MLOAD SWAP2 MSTORE SWAP2 JUMPDEST PUSH1 0x1F NOT DUP5 AND DUP6 LT PUSH3 0x858 JUMPI PUSH1 0x1 SWAP5 POP DUP4 PUSH1 0x1F NOT DUP2 AND LT PUSH3 0x83E JUMPI JUMPDEST POP POP POP DUP2 SHL ADD PUSH1 0x1 SSTORE PUSH3 0x241 JUMP JUMPDEST ADD MLOAD PUSH1 0x0 NOT PUSH1 0xF8 DUP5 PUSH1 0x3 SHL AND SHR NOT AND SWAP1 SSTORE CODESIZE DUP1 DUP1 PUSH3 0x82F JUMP JUMPDEST DUP2 DUP2 ADD MLOAD DUP4 SSTORE PUSH1 0x20 SWAP5 DUP6 ADD SWAP5 PUSH1 0x1 SWAP1 SWAP4 ADD SWAP3 SWAP1 SWAP2 ADD SWAP1 PUSH3 0x812 JUMP JUMPDEST PUSH1 0x1 PUSH1 0x0 MSTORE PUSH3 0x8AF SWAP1 PUSH1 0x0 DUP1 MLOAD PUSH1 0x20 PUSH3 0x2C97 DUP4 CODECOPY DUP2 MLOAD SWAP2 MSTORE PUSH1 0x1F DUP6 ADD PUSH1 0x5 SHR DUP2 ADD SWAP2 PUSH1 0x20 DUP7 LT PUSH3 0x64C JUMPI PUSH1 0x1F ADD PUSH1 0x5 SHR ADD SWAP1 PUSH3 0xB23 JUMP JUMPDEST CODESIZE PUSH3 0x208 JUMP JUMPDEST PUSH1 0x40 MLOAD PUSH3 0x461BCD PUSH1 0xE5 SHL DUP2 MSTORE PUSH1 0x20 PUSH1 0x4 DUP3 ADD MSTORE PUSH1 0x1B PUSH1 0x24 DUP3 ADD MSTORE PUSH32 0x536964652042206E616D652063616E6E6F7420626520656D7074790000000000 PUSH1 0x44 DUP3 ADD MSTORE PUSH1 0x64 SWAP1 REVERT JUMPDEST PUSH1 0x40 MLOAD PUSH3 0x461BCD PUSH1 0xE5 SHL DUP2 MSTORE PUSH1 0x20 PUSH1 0x4 DUP3 ADD MSTORE PUSH1 0x1B PUSH1 0x24 DUP3 ADD MSTORE PUSH32 0x536964652041206E616D652063616E6E6F7420626520656D7074790000000000 PUSH1 0x44 DUP3 ADD MSTORE PUSH1 0x64 SWAP1 REVERT JUMPDEST PUSH1 0x40 MLOAD PUSH3 0x461BCD PUSH1 0xE5 SHL DUP2 MSTORE PUSH1 0x20 PUSH1 0x4 DUP3 ADD MSTORE PUSH1 0x15 PUSH1 0x24 DUP3 ADD MSTORE PUSH32 0x5469746C652063616E6E6F7420626520656D7074790000000000000000000000 PUSH1 0x44 DUP3 ADD MSTORE PUSH1 0x64 SWAP1 REVERT JUMPDEST PUSH1 0x40 MLOAD PUSH3 0x461BCD PUSH1 0xE5 SHL DUP2 MSTORE PUSH1 0x20 PUSH1 0x4 DUP3 ADD MSTORE PUSH1 0x15 PUSH1 0x24 DUP3 ADD MSTORE PUSH32 0x496E76616C696420746F6B656E20616464726573730000000000000000000000 PUSH1 0x44 DUP3 ADD MSTORE PUSH1 0x64 SWAP1 REVERT JUMPDEST PUSH3 0x461BCD PUSH1 0xE5 SHL DUP2 MSTORE PUSH1 0x20 PUSH1 0x4 DUP3 ADD MSTORE PUSH1 0x17 PUSH1 0x24 DUP3 ADD MSTORE PUSH32 0x496E76616C69642063726561746F722061646472657373000000000000000000 PUSH1 0x44 DUP3 ADD MSTORE PUSH1 0x64 SWAP1 REVERT JUMPDEST PUSH1 0x40 MLOAD PUSH4 0x1E4FBDF7 PUSH1 0xE0 SHL DUP2 MSTORE PUSH1 0x0 PUSH1 0x4 DUP3 ADD MSTORE PUSH1 0x24 SWAP1 REVERT JUMPDEST PUSH1 0x0 DUP1 REVERT JUMPDEST PUSH1 0x40 MLOAD SWAP2 SWAP1 PUSH1 0x1F ADD PUSH1 0x1F NOT AND DUP3 ADD PUSH1 0x1 PUSH1 0x1 PUSH1 0x40 SHL SUB DUP2 GT DUP4 DUP3 LT OR PUSH3 0x554 JUMPI PUSH1 0x40 MSTORE JUMP JUMPDEST MLOAD SWAP1 PUSH1 0x1 PUSH1 0x1 PUSH1 0xA0 SHL SUB DUP3 AND DUP3 SUB PUSH3 0xA25 JUMPI JUMP JUMPDEST SWAP2 SWAP3 SWAP2 PUSH1 0x1 PUSH1 0x1 PUSH1 0x40 SHL SUB DUP3 GT PUSH3 0x554 JUMPI PUSH1 0x20 SWAP1 PUSH3 0xA8E PUSH1 0x1F DUP5 ADD PUSH1 0x1F NOT AND DUP4 ADD PUSH3 0xA2A JUMP JUMPDEST SWAP5 DUP4 DUP7 MSTORE DUP4 DUP3 ADD GT PUSH3 0xA25 JUMPI PUSH1 0x0 JUMPDEST DUP4 DUP2 LT PUSH3 0xAB4 JUMPI POP POP POP PUSH1 0x20 PUSH1 0x0 SWAP2 DUP5 ADD ADD MSTORE JUMP JUMPDEST DUP2 DUP2 ADD MLOAD DUP7 DUP3 ADD DUP5 ADD MSTORE DUP3 ADD PUSH3 0xA9E JUMP JUMPDEST SWAP1 DUP1 PUSH1 0x1F DUP4 ADD SLT ISZERO PUSH3 0xA25 JUMPI DUP2 MLOAD PUSH3 0xAE3 SWAP3 PUSH1 0x20 ADD PUSH3 0xA65 JUMP JUMPDEST SWAP1 JUMP JUMPDEST SWAP1 PUSH1 0x1 DUP3 DUP2 SHR SWAP3 AND DUP1 ISZERO PUSH3 0xB18 JUMPI JUMPDEST PUSH1 0x20 DUP4 LT EQ PUSH3 0xB02 JUMPI JUMP JUMPDEST PUSH4 0x4E487B71 PUSH1 0xE0 SHL PUSH1 0x0 MSTORE PUSH1 0x22 PUSH1 0x4 MSTORE PUSH1 0x24 PUSH1 0x0 REVERT JUMPDEST SWAP2 PUSH1 0x7F AND SWAP2 PUSH3 0xAF6 JUMP JUMPDEST DUP2 DUP2 LT PUSH3 0xB2F JUMPI POP POP JUMP JUMPDEST PUSH1 0x0 DUP2 SSTORE PUSH1 0x1 ADD PUSH3 0xB23 JUMP INVALID PUSH1 0x80 DUP1 PUSH1 0x40 MSTORE PUSH1 0x4 CALLDATASIZE LT ISZERO PUSH2 0x13 JUMPI PUSH1 0x0 DUP1 REVERT JUMPDEST PUSH1 0x0 SWAP1 DUP2 CALLDATALOAD PUSH1 0xE0 SHR SWAP1 DUP2 PUSH4 0x2D05D3F EQ PUSH2 0x1C39 JUMPI POP DUP1 PUSH4 0x5B34410 EQ PUSH2 0x1BFE JUMPI DUP1 PUSH4 0x200D2ED2 EQ PUSH2 0x1BCF JUMPI DUP1 PUSH4 0x21701A15 EQ PUSH2 0x1688 JUMPI DUP1 PUSH4 0x2810E1D6 EQ PUSH2 0x144E JUMPI DUP1 PUSH4 0x2D56657D EQ PUSH2 0x1408 JUMPI DUP1 PUSH4 0x3CAEF381 EQ PUSH2 0x131D JUMPI DUP1 PUSH4 0x3D5D526A EQ PUSH2 0x12FF JUMPI DUP1 PUSH4 0x4A79D50C EQ PUSH2 0x12E3 JUMPI DUP1 PUSH4 0x4E71D92D EQ PUSH2 0xFCF JUMPI DUP1 PUSH4 0x519A1D84 EQ PUSH2 0xF9F JUMPI DUP1 PUSH4 0x5A9B0B89 EQ PUSH2 0xC53 JUMPI DUP1 PUSH4 0x715018A6 EQ PUSH2 0xBF9 JUMPI DUP1 PUSH4 0x72834E5B EQ PUSH2 0xBDB JUMPI DUP1 PUSH4 0x73B2E80E EQ PUSH2 0xB9C JUMPI DUP1 PUSH4 0x7B6D79F1 EQ PUSH2 0x977 JUMPI DUP1 PUSH4 0x7FF41970 EQ PUSH2 0x8A7 JUMPI DUP1 PUSH4 0x831AD6DB EQ PUSH2 0x889 JUMPI DUP1 PUSH4 0x845E45F9 EQ PUSH2 0x78B JUMPI DUP1 PUSH4 0x85A26FE6 EQ PUSH2 0x765 JUMPI DUP1 PUSH4 0x881E4CCA EQ PUSH2 0x72C JUMPI DUP1 PUSH4 0x8DA5CB5B EQ PUSH2 0x705 JUMPI DUP1 PUSH4 0x8EB1A4AD EQ PUSH2 0x657 JUMPI DUP1 PUSH4 0x958F03B7 EQ PUSH2 0x639 JUMPI DUP1 PUSH4 0xA355F897 EQ PUSH2 0x58B JUMPI DUP1 PUSH4 0xBB978C5B EQ PUSH2 0x4B6 JUMPI DUP1 PUSH4 0xC24A0F8B EQ PUSH2 0x47B JUMPI DUP1 PUSH4 0xC45A0155 EQ PUSH2 0x436 JUMPI DUP1 PUSH4 0xDBB3F537 EQ PUSH2 0x413 JUMPI DUP1 PUSH4 0xE2529773 EQ PUSH2 0x3DA JUMPI DUP1 PUSH4 0xF2FDE38B EQ PUSH2 0x34A JUMPI DUP1 PUSH4 0xF7AD7920 EQ PUSH2 0x2F0 JUMPI DUP1 PUSH4 0xF7DDA472 EQ PUSH2 0x1DE JUMPI PUSH4 0xFC0C546A EQ PUSH2 0x197 JUMPI PUSH1 0x0 DUP1 REVERT JUMPDEST CALLVALUE PUSH2 0x1DB JUMPI DUP1 PUSH1 0x3 NOT CALLDATASIZE ADD SLT PUSH2 0x1DB JUMPI PUSH1 0x40 MLOAD PUSH32 0x0 PUSH1 0x1 PUSH1 0x1 PUSH1 0xA0 SHL SUB AND DUP2 MSTORE PUSH1 0x20 SWAP1 RETURN JUMPDEST DUP1 REVERT JUMPDEST POP CALLVALUE PUSH2 0x1DB JUMPI PUSH1 0x40 CALLDATASIZE PUSH1 0x3 NOT ADD SLT PUSH2 0x1DB JUMPI PUSH2 0x1F8 PUSH2 0x1C80 JUMP JUMPDEST PUSH1 0x24 CALLDATALOAD SWAP1 PUSH1 0x1 PUSH1 0x1 PUSH1 0xA0 SHL SUB SWAP1 PUSH2 0x232 CALLER PUSH32 0x0 DUP5 AND EQ PUSH2 0x1FF1 JUMP JUMPDEST PUSH2 0x25D PUSH32 0x0 TIMESTAMP LT PUSH2 0x2035 JUMP JUMPDEST PUSH1 0xFF PUSH1 0x6 SLOAD PUSH1 0x10 SHR AND PUSH1 0x4 DUP2 LT ISZERO PUSH2 0x2DC JUMPI SWAP2 PUSH1 0x20 SWAP2 PUSH2 0x29E PUSH32 0x8B1B269ED471A640FD80B1F65B929A812A4C36183F7807568B77B08925BDEE4D SWAP5 ISZERO PUSH2 0x1ED3 JUMP JUMPDEST PUSH2 0x2A9 DUP6 ISZERO ISZERO PUSH2 0x2075 JUMP JUMPDEST AND SWAP3 DUP4 DUP6 MSTORE PUSH1 0xB DUP3 MSTORE PUSH1 0x40 DUP6 KECCAK256 PUSH2 0x2C1 DUP3 DUP3 SLOAD PUSH2 0x1F59 JUMP JUMPDEST SWAP1 SSTORE PUSH2 0x2CF DUP2 PUSH1 0x9 SLOAD PUSH2 0x1F59 JUMP JUMPDEST PUSH1 0x9 SSTORE PUSH1 0x40 MLOAD SWAP1 DUP2 MSTORE LOG2 DUP1 RETURN JUMPDEST PUSH4 0x4E487B71 PUSH1 0xE0 SHL DUP6 MSTORE PUSH1 0x21 PUSH1 0x4 MSTORE PUSH1 0x24 DUP6 REVERT JUMPDEST POP CALLVALUE PUSH2 0x1DB JUMPI DUP1 PUSH1 0x3 NOT CALLDATASIZE ADD SLT PUSH2 0x1DB JUMPI PUSH1 0x40 MLOAD PUSH32 0x0 PUSH1 0x3 DUP2 LT ISZERO PUSH2 0x336 JUMPI PUSH1 0x20 SWAP3 POP DUP2 MSTORE RETURN JUMPDEST PUSH4 0x4E487B71 PUSH1 0xE0 SHL DUP4 MSTORE PUSH1 0x21 PUSH1 0x4 MSTORE PUSH1 0x24 DUP4 REVERT JUMPDEST POP CALLVALUE PUSH2 0x1DB JUMPI PUSH1 0x20 CALLDATASIZE PUSH1 0x3 NOT ADD SLT PUSH2 0x1DB JUMPI PUSH2 0x364 PUSH2 0x1C80 JUMP JUMPDEST PUSH2 0x36C PUSH2 0x20B8 JUMP JUMPDEST PUSH1 0x1 PUSH1 0x1 PUSH1 0xA0 SHL SUB SWAP1 DUP2 AND SWAP1 DUP2 ISZERO PUSH2 0x3C1 JUMPI PUSH1 0x0 SLOAD DUP3 PUSH12 0xFFFFFFFFFFFFFFFFFFFFFFFF PUSH1 0xA0 SHL DUP3 AND OR PUSH1 0x0 SSTORE AND PUSH32 0x8BE0079C531659141344CD1FD0A4F28419497F9722A3DAAFE3B4186F6B6457E0 PUSH1 0x0 DUP1 LOG3 DUP1 RETURN JUMPDEST PUSH1 0x40 MLOAD PUSH4 0x1E4FBDF7 PUSH1 0xE0 SHL DUP2 MSTORE PUSH1 0x4 DUP2 ADD DUP5 SWAP1 MSTORE PUSH1 0x24 SWAP1 REVERT JUMPDEST POP CALLVALUE PUSH2 0x1DB JUMPI PUSH1 0x20 CALLDATASIZE PUSH1 0x3 NOT ADD SLT PUSH2 0x1DB JUMPI PUSH1 0x20 SWAP1 PUSH1 0x40 SWAP1 PUSH1 0x1 PUSH1 0x1 PUSH1 0xA0 SHL SUB PUSH2 0x402 PUSH2 0x1C80 JUMP JUMPDEST AND DUP2 MSTORE PUSH1 0xA DUP4 MSTORE KECCAK256 SLOAD PUSH1 0x40 MLOAD SWAP1 DUP2 MSTORE RETURN JUMPDEST POP CALLVALUE PUSH2 0x1DB JUMPI DUP1 PUSH1 0x3 NOT CALLDATASIZE ADD SLT PUSH2 0x1DB JUMPI PUSH1 0x20 PUSH1 0xFF PUSH1 0x6 SLOAD AND PUSH1 0x40 MLOAD SWAP1 ISZERO ISZERO DUP2 MSTORE RETURN JUMPDEST POP CALLVALUE PUSH2 0x1DB JUMPI DUP1 PUSH1 0x3 NOT CALLDATASIZE ADD SLT PUSH2 0x1DB JUMPI PUSH1 0x40 MLOAD PUSH32 0x0 PUSH1 0x1 PUSH1 0x1 PUSH1 0xA0 SHL SUB AND DUP2 MSTORE PUSH1 0x20 SWAP1 RETURN JUMPDEST POP CALLVALUE PUSH2 0x1DB JUMPI DUP1 PUSH1 0x3 NOT CALLDATASIZE ADD SLT PUSH2 0x1DB JUMPI PUSH1 0x20 PUSH1 0x40 MLOAD PUSH32 0x0 DUP2 MSTORE RETURN JUMPDEST POP CALLVALUE PUSH2 0x1DB JUMPI DUP1 PUSH1 0x3 NOT CALLDATASIZE ADD SLT PUSH2 0x1DB JUMPI PUSH1 0x40 MLOAD PUSH1 0xE SLOAD PUSH1 0x0 DUP3 PUSH2 0x4D9 DUP4 PUSH2 0x1C9B JUMP JUMPDEST SWAP2 DUP3 DUP3 MSTORE PUSH1 0x20 SWAP4 PUSH1 0x1 SWAP1 DUP6 PUSH1 0x1 DUP3 AND SWAP2 DUP3 PUSH1 0x0 EQ PUSH2 0x56B JUMPI POP POP PUSH1 0x1 EQ PUSH2 0x520 JUMPI JUMPDEST POP PUSH2 0x508 SWAP3 POP SUB DUP4 PUSH2 0x1CFF JUMP JUMPDEST PUSH2 0x51C PUSH1 0x40 MLOAD SWAP3 DUP3 DUP5 SWAP4 DUP5 MSTORE DUP4 ADD SWAP1 PUSH2 0x1E86 JUMP JUMPDEST SUB SWAP1 RETURN JUMPDEST DUP5 SWAP2 POP PUSH1 0xE PUSH1 0x0 MSTORE PUSH1 0x0 DUP1 MLOAD PUSH1 0x20 PUSH2 0x20E5 DUP4 CODECOPY DUP2 MLOAD SWAP2 MSTORE SWAP1 PUSH1 0x0 SWAP2 JUMPDEST DUP6 DUP4 LT PUSH2 0x553 JUMPI POP POP PUSH2 0x508 SWAP4 POP DUP3 ADD ADD DUP6 PUSH2 0x4FB JUMP JUMPDEST DUP1 SLOAD DUP4 DUP10 ADD DUP6 ADD MSTORE DUP8 SWAP5 POP DUP7 SWAP4 SWAP1 SWAP3 ADD SWAP2 DUP2 ADD PUSH2 0x53C JUMP JUMPDEST PUSH1 0xFF NOT AND DUP6 DUP3 ADD MSTORE PUSH2 0x508 SWAP6 ISZERO ISZERO PUSH1 0x5 SHL DUP6 ADD ADD SWAP3 POP DUP8 SWAP2 POP PUSH2 0x4FB SWAP1 POP JUMP JUMPDEST POP CALLVALUE PUSH2 0x1DB JUMPI DUP1 PUSH1 0x3 NOT CALLDATASIZE ADD SLT PUSH2 0x1DB JUMPI PUSH1 0x40 MLOAD PUSH1 0x4 SLOAD PUSH1 0x0 DUP3 PUSH2 0x5AE DUP4 PUSH2 0x1C9B JUMP JUMPDEST SWAP2 DUP3 DUP3 MSTORE PUSH1 0x20 SWAP4 PUSH1 0x1 SWAP1 DUP6 PUSH1 0x1 DUP3 AND SWAP2 DUP3 PUSH1 0x0 EQ PUSH2 0x56B JUMPI POP POP PUSH1 0x1 EQ PUSH2 0x5DC JUMPI POP PUSH2 0x508 SWAP3 POP SUB DUP4 PUSH2 0x1CFF JUMP JUMPDEST DUP5 SWAP2 POP PUSH1 0x4 PUSH1 0x0 MSTORE PUSH32 0x8A35ACFBC15FF81A39AE7D344FD709F28E8600B4AA8C65C6B64BFE7FE36BD19B SWAP1 PUSH1 0x0 SWAP2 JUMPDEST DUP6 DUP4 LT PUSH2 0x621 JUMPI POP POP PUSH2 0x508 SWAP4 POP DUP3 ADD ADD DUP6 PUSH2 0x4FB JUMP JUMPDEST DUP1 SLOAD DUP4 DUP10 ADD DUP6 ADD MSTORE DUP8 SWAP5 POP DUP7 SWAP4 SWAP1 SWAP3 ADD SWAP2 DUP2 ADD PUSH2 0x60A JUMP JUMPDEST POP CALLVALUE PUSH2 0x1DB JUMPI DUP1 PUSH1 0x3 NOT CALLDATASIZE ADD SLT PUSH2 0x1DB JUMPI PUSH1 0x20 PUSH1 0x9 SLOAD PUSH1 0x40 MLOAD SWAP1 DUP2 MSTORE RETURN JUMPDEST POP CALLVALUE PUSH2 0x1DB JUMPI DUP1 PUSH1 0x3 NOT CALLDATASIZE ADD SLT PUSH2 0x1DB JUMPI PUSH1 0x40 MLOAD PUSH1 0x3 SLOAD PUSH1 0x0 DUP3 PUSH2 0x67A DUP4 PUSH2 0x1C9B JUMP JUMPDEST SWAP2 DUP3 DUP3 MSTORE PUSH1 0x20 SWAP4 PUSH1 0x1 SWAP1 DUP6 PUSH1 0x1 DUP3 AND SWAP2 DUP3 PUSH1 0x0 EQ PUSH2 0x56B JUMPI POP POP PUSH1 0x1 EQ PUSH2 0x6A8 JUMPI POP PUSH2 0x508 SWAP3 POP SUB DUP4 PUSH2 0x1CFF JUMP JUMPDEST DUP5 SWAP2 POP PUSH1 0x3 PUSH1 0x0 MSTORE PUSH32 0xC2575A0E9E593C00F959F8C92F12DB2869C3395A3B0502D05E2516446F71F85B SWAP1 PUSH1 0x0 SWAP2 JUMPDEST DUP6 DUP4 LT PUSH2 0x6ED JUMPI POP POP PUSH2 0x508 SWAP4 POP DUP3 ADD ADD DUP6 PUSH2 0x4FB JUMP JUMPDEST DUP1 SLOAD DUP4 DUP10 ADD DUP6 ADD MSTORE DUP8 SWAP5 POP DUP7 SWAP4 SWAP1 SWAP3 ADD SWAP2 DUP2 ADD PUSH2 0x6D6 JUMP JUMPDEST POP CALLVALUE PUSH2 0x1DB JUMPI DUP1 PUSH1 0x3 NOT CALLDATASIZE ADD SLT PUSH2 0x1DB JUMPI SLOAD PUSH1 0x40 MLOAD PUSH1 0x1 PUSH1 0x1 PUSH1 0xA0 SHL SUB SWAP1 SWAP2 AND DUP2 MSTORE PUSH1 0x20 SWAP1 RETURN JUMPDEST POP CALLVALUE PUSH2 0x1DB JUMPI PUSH1 0x20 CALLDATASIZE PUSH1 0x3 NOT ADD SLT PUSH2 0x1DB JUMPI PUSH1 0x20 SWAP1 PUSH1 0x40 SWAP1 PUSH1 0x1 PUSH1 0x1 PUSH1 0xA0 SHL SUB PUSH2 0x754 PUSH2 0x1C80 JUMP JUMPDEST AND DUP2 MSTORE PUSH1 0xB DUP4 MSTORE KECCAK256 SLOAD PUSH1 0x40 MLOAD SWAP1 DUP2 MSTORE RETURN JUMPDEST POP CALLVALUE PUSH2 0x1DB JUMPI DUP1 PUSH1 0x3 NOT CALLDATASIZE ADD SLT PUSH2 0x1DB JUMPI PUSH1 0x20 PUSH1 0xFF PUSH1 0x6 SLOAD PUSH1 0x8 SHR AND PUSH1 0x40 MLOAD SWAP1 ISZERO ISZERO DUP2 MSTORE RETURN JUMPDEST POP CALLVALUE PUSH2 0x1DB JUMPI PUSH1 0x40 CALLDATASIZE PUSH1 0x3 NOT ADD SLT PUSH2 0x1DB JUMPI PUSH2 0x7A5 PUSH2 0x1C80 JUMP JUMPDEST PUSH1 0x24 CALLDATALOAD SWAP1 PUSH1 0x1 PUSH1 0x1 PUSH1 0xA0 SHL SUB SWAP1 PUSH2 0x7DF CALLER PUSH32 0x0 DUP5 AND EQ PUSH2 0x1FF1 JUMP JUMPDEST PUSH2 0x80A PUSH32 0x0 TIMESTAMP LT PUSH2 0x2035 JUMP JUMPDEST PUSH1 0xFF PUSH1 0x6 SLOAD PUSH1 0x10 SHR AND PUSH1 0x4 DUP2 LT ISZERO PUSH2 0x2DC JUMPI SWAP2 PUSH1 0x20 SWAP2 PUSH2 0x84B PUSH32 0x9BBB607F9FD45DBD95A8E54A66A3B0B2ED37477C49C5D10415DC5CFB84261ECD SWAP5 ISZERO PUSH2 0x1ED3 JUMP JUMPDEST PUSH2 0x856 DUP6 ISZERO ISZERO PUSH2 0x2075 JUMP JUMPDEST AND SWAP3 DUP4 DUP6 MSTORE PUSH1 0xA DUP3 MSTORE PUSH1 0x40 DUP6 KECCAK256 PUSH2 0x86E DUP3 DUP3 SLOAD PUSH2 0x1F59 JUMP JUMPDEST SWAP1 SSTORE PUSH2 0x87C DUP2 PUSH1 0x8 SLOAD PUSH2 0x1F59 JUMP JUMPDEST PUSH1 0x8 SSTORE PUSH1 0x40 MLOAD SWAP1 DUP2 MSTORE LOG2 DUP1 RETURN JUMPDEST POP CALLVALUE PUSH2 0x1DB JUMPI DUP1 PUSH1 0x3 NOT CALLDATASIZE ADD SLT PUSH2 0x1DB JUMPI PUSH1 0x20 PUSH1 0x7 SLOAD PUSH1 0x40 MLOAD SWAP1 DUP2 MSTORE RETURN JUMPDEST POP CALLVALUE PUSH2 0x1DB JUMPI DUP1 PUSH1 0x3 NOT CALLDATASIZE ADD SLT PUSH2 0x1DB JUMPI PUSH1 0x40 MLOAD SWAP1 DUP1 DUP3 PUSH1 0x5 SLOAD SWAP2 PUSH2 0x8CB DUP4 PUSH2 0x1C9B JUMP JUMPDEST SWAP3 DUP4 DUP4 MSTORE PUSH1 0x20 SWAP5 PUSH1 0x1 SWAP2 DUP7 PUSH1 0x1 DUP3 AND SWAP2 DUP3 PUSH1 0x0 EQ PUSH2 0x955 JUMPI POP POP PUSH1 0x1 EQ PUSH2 0x8FB JUMPI JUMPDEST POP POP PUSH2 0x508 SWAP3 POP SUB DUP4 PUSH2 0x1CFF JUMP JUMPDEST SWAP1 DUP6 SWAP3 POP PUSH1 0x5 DUP3 MSTORE PUSH32 0x36B6384B5ECA791C62761152D0C79BB0604C104A5FB6F4EB0703F3154BB3DB0 JUMPDEST DUP6 DUP4 LT PUSH2 0x93D JUMPI POP POP PUSH2 0x508 SWAP4 POP DUP3 ADD ADD CODESIZE DUP1 PUSH2 0x8ED JUMP JUMPDEST DUP1 SLOAD DUP4 DUP10 ADD DUP6 ADD MSTORE DUP8 SWAP5 POP DUP7 SWAP4 SWAP1 SWAP3 ADD SWAP2 DUP2 ADD PUSH2 0x925 JUMP JUMPDEST SWAP3 POP SWAP4 POP POP PUSH2 0x508 SWAP5 SWAP2 POP PUSH1 0xFF NOT AND DUP3 DUP5 ADD MSTORE ISZERO ISZERO PUSH1 0x5 SHL DUP3 ADD ADD CODESIZE DUP1 PUSH2 0x8ED JUMP JUMPDEST POP CALLVALUE PUSH2 0x1DB JUMPI DUP1 PUSH1 0x3 NOT CALLDATASIZE ADD SLT PUSH2 0x1DB JUMPI PUSH1 0x1 PUSH1 0x1 PUSH1 0xA0 SHL SUB SWAP1 PUSH32 0x0 DUP3 AND CALLER SUB PUSH2 0xB57 JUMPI PUSH1 0x6 SLOAD SWAP2 PUSH1 0xFF DUP4 PUSH1 0x10 SHR AND SWAP3 PUSH1 0x4 DUP5 LT ISZERO PUSH2 0x336 JUMPI PUSH1 0x1 DUP5 SUB PUSH2 0xB12 JUMPI PUSH1 0x7 SLOAD PUSH3 0x93A80 DUP2 ADD DUP1 SWAP2 GT PUSH2 0xAFE JUMPI TIMESTAMP LT PUSH2 0xAC3 JUMPI PUSH3 0x30001 PUSH1 0xFF SWAP2 PUSH3 0xFF00FF NOT AND OR SWAP2 DUP3 PUSH1 0x6 SSTORE PUSH32 0x0 AND SWAP2 PUSH1 0x10 SHR AND SWAP3 PUSH1 0x4 DUP5 LT ISZERO PUSH2 0x336 JUMPI DUP3 SWAP4 DUP3 EXTCODESIZE ISZERO PUSH2 0xABE JUMPI PUSH1 0x40 MLOAD PUSH4 0x1D8E2047 PUSH1 0xE0 SHL DUP2 MSTORE PUSH1 0xFF SWAP3 DUP4 AND PUSH1 0x4 DUP3 ADD MSTORE SWAP2 AND PUSH1 0x24 DUP3 ADD MSTORE SWAP1 DUP3 SWAP1 DUP3 SWAP1 PUSH1 0x44 SWAP1 DUP3 SWAP1 DUP5 SWAP1 GAS CALL DUP1 ISZERO PUSH2 0xAB3 JUMPI PUSH2 0xA9F JUMPI JUMPDEST POP PUSH32 0x110EEFE47FB2DF2A2F3149D618851E6AB16E70A4E6F3872B7C260BD48EEC14FE PUSH1 0x20 PUSH1 0x40 MLOAD TIMESTAMP DUP2 MSTORE LOG1 DUP1 RETURN JUMPDEST PUSH2 0xAA8 SWAP1 PUSH2 0x1CD5 JUMP JUMPDEST PUSH2 0x1DB JUMPI DUP1 CODESIZE PUSH2 0xA71 JUMP JUMPDEST PUSH1 0x40 MLOAD RETURNDATASIZE DUP5 DUP3 RETURNDATACOPY RETURNDATASIZE SWAP1 REVERT JUMPDEST POP POP POP REVERT JUMPDEST PUSH1 0x40 MLOAD PUSH3 0x461BCD PUSH1 0xE5 SHL DUP2 MSTORE PUSH1 0x20 PUSH1 0x4 DUP3 ADD MSTORE PUSH1 0x13 PUSH1 0x24 DUP3 ADD MSTORE PUSH19 0x151A5B595BDD5D081B9BDD081C995858DA1959 PUSH1 0x6A SHL PUSH1 0x44 DUP3 ADD MSTORE PUSH1 0x64 SWAP1 REVERT JUMPDEST PUSH4 0x4E487B71 PUSH1 0xE0 SHL DUP5 MSTORE PUSH1 0x11 PUSH1 0x4 MSTORE PUSH1 0x24 DUP5 REVERT JUMPDEST PUSH1 0x40 MLOAD PUSH3 0x461BCD PUSH1 0xE5 SHL DUP2 MSTORE PUSH1 0x20 PUSH1 0x4 DUP3 ADD MSTORE PUSH1 0x1F PUSH1 0x24 DUP3 ADD MSTORE PUSH32 0x43616E206F6E6C792063616E63656C207768696C65207265736F6C76696E6700 PUSH1 0x44 DUP3 ADD MSTORE PUSH1 0x64 SWAP1 REVERT JUMPDEST PUSH1 0x40 MLOAD PUSH3 0x461BCD PUSH1 0xE5 SHL DUP2 MSTORE PUSH1 0x20 PUSH1 0x4 DUP3 ADD MSTORE PUSH1 0x17 PUSH1 0x24 DUP3 ADD MSTORE PUSH32 0x4F6E6C792063726561746F722063616E2063616E63656C000000000000000000 PUSH1 0x44 DUP3 ADD MSTORE PUSH1 0x64 SWAP1 REVERT JUMPDEST POP CALLVALUE PUSH2 0x1DB JUMPI PUSH1 0x20 CALLDATASIZE PUSH1 0x3 NOT ADD SLT PUSH2 0x1DB JUMPI PUSH1 0x20 SWAP1 PUSH1 0xFF SWAP1 PUSH1 0x40 SWAP1 PUSH1 0x1 PUSH1 0x1 PUSH1 0xA0 SHL SUB PUSH2 0xBC7 PUSH2 0x1C80 JUMP JUMPDEST AND DUP2 MSTORE PUSH1 0xC DUP5 MSTORE KECCAK256 SLOAD AND PUSH1 0x40 MLOAD SWAP1 ISZERO ISZERO DUP2 MSTORE RETURN JUMPDEST POP CALLVALUE PUSH2 0x1DB JUMPI DUP1 PUSH1 0x3 NOT CALLDATASIZE ADD SLT PUSH2 0x1DB JUMPI PUSH1 0x20 PUSH1 0x8 SLOAD PUSH1 0x40 MLOAD SWAP1 DUP2 MSTORE RETURN JUMPDEST POP CALLVALUE PUSH2 0x1DB JUMPI DUP1 PUSH1 0x3 NOT CALLDATASIZE ADD SLT PUSH2 0x1DB JUMPI PUSH2 0xC12 PUSH2 0x20B8 JUMP JUMPDEST PUSH1 0x0 DUP1 SLOAD PUSH1 0x1 PUSH1 0x1 PUSH1 0xA0 SHL SUB NOT DUP2 AND DUP3 SSTORE PUSH1 0x1 PUSH1 0x1 PUSH1 0xA0 SHL SUB AND PUSH32 0x8BE0079C531659141344CD1FD0A4F28419497F9722A3DAAFE3B4186F6B6457E0 DUP3 DUP1 LOG3 DUP1 RETURN JUMPDEST POP CALLVALUE PUSH2 0x1DB JUMPI DUP1 PUSH1 0x3 NOT CALLDATASIZE ADD SLT PUSH2 0x1DB JUMPI PUSH1 0x6 SLOAD PUSH1 0x8 SLOAD PUSH1 0x9 SLOAD SWAP1 PUSH1 0xD SLOAD SWAP3 PUSH2 0xC7A PUSH2 0x1D21 JUMP JUMPDEST SWAP4 PUSH2 0xC83 PUSH2 0x1DE7 JUMP JUMPDEST SWAP4 PUSH1 0x40 MLOAD SWAP4 PUSH1 0x0 SWAP6 PUSH1 0x3 SLOAD SWAP6 PUSH2 0xC98 DUP8 PUSH2 0x1C9B JUMP JUMPDEST DUP1 DUP3 MSTORE DUP2 PUSH1 0x20 SWAP10 PUSH1 0x1 SWAP10 DUP12 DUP12 DUP3 AND SWAP2 DUP3 PUSH1 0x0 EQ PUSH2 0xF82 JUMPI POP POP PUSH1 0x1 EQ PUSH2 0xF24 JUMPI JUMPDEST PUSH2 0xCC5 SWAP3 POP SUB DUP3 PUSH2 0x1CFF JUMP JUMPDEST PUSH1 0x40 MLOAD SWAP2 PUSH1 0x0 DUP4 PUSH1 0x4 SLOAD SWAP2 PUSH2 0xCD9 DUP4 PUSH2 0x1C9B JUMP JUMPDEST SWAP3 DUP4 DUP4 MSTORE DUP13 DUP13 DUP3 AND SWAP2 DUP3 PUSH1 0x0 EQ PUSH2 0xF07 JUMPI POP POP PUSH1 0x1 EQ PUSH2 0xEA9 JUMPI JUMPDEST PUSH2 0xD00 SWAP3 POP SUB DUP5 PUSH2 0x1CFF JUMP JUMPDEST PUSH1 0x40 MLOAD DUP1 SWAP9 PUSH1 0x0 SWAP1 PUSH1 0xE SLOAD SWAP1 PUSH2 0xD15 DUP3 PUSH2 0x1C9B JUMP JUMPDEST SWAP2 DUP3 DUP6 MSTORE DUP14 DUP3 DUP3 AND SWAP2 DUP3 PUSH1 0x0 EQ PUSH2 0xE8D JUMPI POP POP PUSH1 0x1 EQ PUSH2 0xE42 JUMPI JUMPDEST POP POP SUB PUSH2 0xD3D SWAP1 DUP10 PUSH2 0x1CFF JUMP JUMPDEST PUSH1 0x40 MLOAD PUSH32 0x0 PUSH1 0x1 PUSH1 0x1 PUSH1 0xA0 SHL SUB AND DUP2 MSTORE PUSH2 0x1A0 SWAP10 DUP2 ADD DUP11 SWAP1 MSTORE SWAP10 DUP11 SWAP10 PUSH2 0xD85 SWAP2 SWAP1 DUP12 ADD SWAP1 PUSH2 0x1E86 JUMP JUMPDEST DUP10 DUP2 SUB PUSH1 0x40 DUP12 ADD MSTORE PUSH2 0xD96 SWAP2 PUSH2 0x1E86 JUMP JUMPDEST DUP9 DUP2 SUB PUSH1 0x60 DUP11 ADD MSTORE PUSH2 0xDA7 SWAP2 PUSH2 0x1E86 JUMP JUMPDEST DUP8 DUP2 SUB PUSH1 0x80 DUP10 ADD MSTORE PUSH2 0xDB8 SWAP2 PUSH2 0x1E86 JUMP JUMPDEST SWAP4 PUSH32 0x0 PUSH1 0xA0 DUP9 ADD MSTORE PUSH32 0x0 PUSH1 0xC0 DUP9 ADD MSTORE PUSH1 0xFF DUP2 AND ISZERO ISZERO PUSH1 0xE0 DUP9 ADD MSTORE PUSH1 0x8 SHR PUSH1 0xFF AND ISZERO ISZERO PUSH2 0x100 DUP8 ADD MSTORE PUSH2 0x120 DUP7 ADD MSTORE PUSH2 0x140 DUP6 ADD MSTORE PUSH2 0x160 DUP5 ADD MSTORE DUP3 DUP2 SUB PUSH2 0x180 DUP5 ADD MSTORE PUSH2 0x51C SWAP2 PUSH2 0x1E86 JUMP JUMPDEST SWAP1 DUP13 SWAP3 POP PUSH1 0xE PUSH1 0x0 MSTORE PUSH1 0x0 DUP1 MLOAD PUSH1 0x20 PUSH2 0x20E5 DUP4 CODECOPY DUP2 MLOAD SWAP2 MSTORE SWAP2 PUSH1 0x0 SWAP3 JUMPDEST DUP3 DUP5 LT PUSH2 0xE73 JUMPI POP POP POP DUP3 ADD ADD DUP13 DUP1 PUSH2 0xD30 JUMP JUMPDEST DUP5 SWAP3 SWAP6 DUP3 SWAP6 DUP6 DUP4 SLOAD SWAP3 ADD ADD MSTORE ADD SWAP2 ADD SWAP1 SWAP3 DUP13 SWAP3 DUP13 SWAP5 PUSH2 0xE5F JUMP JUMPDEST SWAP3 POP SWAP4 POP POP PUSH1 0xFF NOT AND DUP3 DUP5 ADD MSTORE ISZERO ISZERO PUSH1 0x5 SHL DUP3 ADD ADD DUP13 DUP1 PUSH2 0xD30 JUMP JUMPDEST POP POP PUSH1 0x4 PUSH1 0x0 MSTORE DUP4 DUP11 PUSH32 0x8A35ACFBC15FF81A39AE7D344FD709F28E8600B4AA8C65C6B64BFE7FE36BD19B DUP12 PUSH1 0x0 SWAP2 JUMPDEST DUP6 DUP4 LT PUSH2 0xEEE JUMPI POP POP PUSH2 0xD00 SWAP4 POP DUP3 ADD ADD PUSH2 0xCF4 JUMP JUMPDEST DUP1 SWAP2 SWAP3 SWAP5 POP SLOAD DUP4 DUP6 DUP11 ADD ADD MSTORE ADD SWAP2 ADD DUP12 SWAP1 DUP12 DUP8 SWAP4 PUSH2 0xED8 JUMP JUMPDEST PUSH1 0xFF NOT AND DUP5 DUP3 ADD MSTORE PUSH2 0xD00 SWAP5 ISZERO ISZERO PUSH1 0x5 SHL DUP5 ADD ADD SWAP2 POP PUSH2 0xCF4 SWAP1 POP JUMP JUMPDEST POP POP PUSH1 0x3 PUSH1 0x0 MSTORE DUP2 DUP10 PUSH32 0xC2575A0E9E593C00F959F8C92F12DB2869C3395A3B0502D05E2516446F71F85B DUP11 PUSH1 0x0 SWAP2 JUMPDEST DUP6 DUP4 LT PUSH2 0xF69 JUMPI POP POP PUSH2 0xCC5 SWAP4 POP DUP3 ADD ADD PUSH2 0xCB9 JUMP JUMPDEST DUP1 SWAP2 SWAP3 SWAP5 POP SLOAD DUP4 DUP6 DUP9 ADD ADD MSTORE ADD SWAP2 ADD DUP11 SWAP1 DUP11 DUP6 SWAP4 PUSH2 0xF53 JUMP JUMPDEST PUSH1 0xFF NOT AND DUP5 DUP3 ADD MSTORE PUSH2 0xCC5 SWAP5 ISZERO ISZERO PUSH1 0x5 SHL DUP5 ADD ADD SWAP2 POP PUSH2 0xCB9 SWAP1 POP JUMP JUMPDEST POP CALLVALUE PUSH2 0x1DB JUMPI DUP1 PUSH1 0x3 NOT CALLDATASIZE ADD SLT PUSH2 0x1DB JUMPI PUSH2 0x51C PUSH2 0xFBB PUSH2 0x1DE7 JUMP JUMPDEST PUSH1 0x40 MLOAD SWAP2 DUP3 SWAP2 PUSH1 0x20 DUP4 MSTORE PUSH1 0x20 DUP4 ADD SWAP1 PUSH2 0x1E86 JUMP JUMPDEST POP CALLVALUE PUSH2 0x1DB JUMPI DUP1 PUSH1 0x3 NOT CALLDATASIZE ADD SLT PUSH2 0x1DB JUMPI PUSH32 0x9B779B17422D0DF92223018B32B4D1FA46E071723D6817E2486D003BECC55F00 SWAP1 PUSH1 0x2 DUP3 SLOAD EQ PUSH2 0x12D1 JUMPI PUSH1 0x2 DUP3 SSTORE PUSH1 0x6 SLOAD SWAP2 PUSH1 0xFF DUP4 AND ISZERO PUSH2 0x1295 JUMPI CALLER DUP3 MSTORE PUSH1 0x20 SWAP3 PUSH1 0xC DUP5 MSTORE PUSH1 0xFF PUSH1 0x40 DUP5 KECCAK256 SLOAD AND PUSH2 0x125E JUMPI PUSH1 0xFF DUP2 PUSH1 0x10 SHR AND PUSH1 0x4 DUP2 LT ISZERO PUSH2 0x124A JUMPI PUSH1 0x3 SUB PUSH2 0x1199 JUMPI POP CALLER DUP3 MSTORE PUSH1 0xA DUP4 MSTORE PUSH2 0x1068 PUSH1 0x40 DUP4 KECCAK256 SLOAD PUSH1 0xB DUP6 MSTORE PUSH1 0x40 DUP5 KECCAK256 SLOAD SWAP1 PUSH2 0x1F59 JUMP JUMPDEST PUSH2 0x1073 DUP2 ISZERO ISZERO PUSH2 0x1FB2 JUMP JUMPDEST CALLER DUP1 DUP5 MSTORE PUSH1 0xC DUP6 MSTORE PUSH1 0x40 DUP1 DUP6 KECCAK256 DUP1 SLOAD PUSH1 0xFF NOT AND PUSH1 0x1 OR SWAP1 SSTORE MLOAD PUSH4 0xA9059CBB PUSH1 0xE0 SHL DUP2 MSTORE PUSH1 0x4 DUP2 ADD SWAP2 SWAP1 SWAP2 MSTORE PUSH1 0x24 DUP2 ADD DUP3 SWAP1 MSTORE DUP5 DUP2 PUSH1 0x44 DUP2 DUP8 PUSH32 0x0 PUSH1 0x1 PUSH1 0x1 PUSH1 0xA0 SHL SUB AND GAS CALL SWAP1 DUP2 ISZERO PUSH2 0x118E JUMPI DUP5 SWAP2 PUSH2 0x1154 JUMPI JUMPDEST POP ISZERO PUSH2 0x111D JUMPI PUSH32 0x1A31E733A172AFCF46074B3106C17F0C298E226442682A03C1E99CE256139EC2 PUSH1 0x1 SWAP4 SWAP5 PUSH1 0x40 MLOAD SWAP3 DUP4 MSTORE CALLER SWAP3 LOG2 SSTORE DUP1 RETURN JUMPDEST PUSH1 0x40 MLOAD PUSH3 0x461BCD PUSH1 0xE5 SHL DUP2 MSTORE PUSH1 0x4 DUP2 ADD DUP6 SWAP1 MSTORE PUSH1 0xF PUSH1 0x24 DUP3 ADD MSTORE PUSH15 0x151C985B9CD9995C8819985A5B1959 PUSH1 0x8A SHL PUSH1 0x44 DUP3 ADD MSTORE PUSH1 0x64 SWAP1 REVERT JUMPDEST SWAP1 POP DUP5 DUP2 DUP2 RETURNDATASIZE DUP4 GT PUSH2 0x1187 JUMPI JUMPDEST PUSH2 0x116B DUP2 DUP4 PUSH2 0x1CFF JUMP JUMPDEST DUP2 ADD SUB SLT PUSH2 0x1183 JUMPI MLOAD DUP1 ISZERO ISZERO DUP2 SUB PUSH2 0x1183 JUMPI CODESIZE PUSH2 0x10E5 JUMP JUMPDEST DUP4 DUP1 REVERT JUMPDEST POP RETURNDATASIZE PUSH2 0x1161 JUMP JUMPDEST PUSH1 0x40 MLOAD RETURNDATASIZE DUP7 DUP3 RETURNDATACOPY RETURNDATASIZE SWAP1 REVERT JUMPDEST PUSH1 0x8 SHR PUSH1 0xFF AND ISZERO PUSH2 0x11FF JUMPI PUSH1 0x8 SLOAD DUP1 PUSH2 0x11C9 JUMPI POP CALLER DUP3 MSTORE PUSH1 0xB DUP4 MSTORE PUSH1 0x40 DUP3 KECCAK256 SLOAD PUSH2 0x11C4 DUP2 ISZERO ISZERO PUSH2 0x1FB2 JUMP JUMPDEST PUSH2 0x1073 JUMP JUMPDEST PUSH2 0x11C4 SWAP1 CALLER DUP5 MSTORE PUSH1 0xA DUP6 MSTORE PUSH2 0x11F9 PUSH1 0x40 DUP6 KECCAK256 SLOAD SWAP2 PUSH2 0x11E8 DUP4 ISZERO ISZERO PUSH2 0x1F66 JUMP JUMPDEST PUSH2 0x11F4 PUSH1 0x9 SLOAD DUP5 PUSH2 0x1F10 JUMP JUMPDEST PUSH2 0x1F39 JUMP JUMPDEST SWAP1 PUSH2 0x1F59 JUMP JUMPDEST PUSH1 0x9 SLOAD DUP1 PUSH2 0x121F JUMPI POP CALLER DUP3 MSTORE PUSH1 0xA DUP4 MSTORE PUSH1 0x40 DUP3 KECCAK256 SLOAD PUSH2 0x11C4 DUP2 ISZERO ISZERO PUSH2 0x1FB2 JUMP JUMPDEST PUSH2 0x11C4 SWAP1 CALLER DUP5 MSTORE PUSH1 0xB DUP6 MSTORE PUSH2 0x11F9 PUSH1 0x40 DUP6 KECCAK256 SLOAD SWAP2 PUSH2 0x123E DUP4 ISZERO ISZERO PUSH2 0x1F66 JUMP JUMPDEST PUSH2 0x11F4 PUSH1 0x8 SLOAD DUP5 PUSH2 0x1F10 JUMP JUMPDEST PUSH4 0x4E487B71 PUSH1 0xE0 SHL DUP5 MSTORE PUSH1 0x21 PUSH1 0x4 MSTORE PUSH1 0x24 DUP5 REVERT JUMPDEST PUSH1 0x40 MLOAD PUSH3 0x461BCD PUSH1 0xE5 SHL DUP2 MSTORE PUSH1 0x4 DUP2 ADD DUP6 SWAP1 MSTORE PUSH1 0xF PUSH1 0x24 DUP3 ADD MSTORE PUSH15 0x105B1C9958591E4818DB185A5B5959 PUSH1 0x8A SHL PUSH1 0x44 DUP3 ADD MSTORE PUSH1 0x64 SWAP1 REVERT JUMPDEST PUSH1 0x40 MLOAD PUSH3 0x461BCD PUSH1 0xE5 SHL DUP2 MSTORE PUSH1 0x20 PUSH1 0x4 DUP3 ADD MSTORE PUSH1 0x14 PUSH1 0x24 DUP3 ADD MSTORE PUSH20 0x10995D081B9BDD081C995CDBDB1D9959081E595D PUSH1 0x62 SHL PUSH1 0x44 DUP3 ADD MSTORE PUSH1 0x64 SWAP1 REVERT JUMPDEST PUSH1 0x40 MLOAD PUSH4 0x3EE5AEB5 PUSH1 0xE0 SHL DUP2 MSTORE PUSH1 0x4 SWAP1 REVERT JUMPDEST POP CALLVALUE PUSH2 0x1DB JUMPI DUP1 PUSH1 0x3 NOT CALLDATASIZE ADD SLT PUSH2 0x1DB JUMPI PUSH2 0x51C PUSH2 0xFBB PUSH2 0x1D21 JUMP JUMPDEST POP CALLVALUE PUSH2 0x1DB JUMPI DUP1 PUSH1 0x3 NOT CALLDATASIZE ADD SLT PUSH2 0x1DB JUMPI PUSH1 0x20 PUSH1 0xD SLOAD PUSH1 0x40 MLOAD SWAP1 DUP2 MSTORE RETURN JUMPDEST POP CALLVALUE PUSH2 0x1DB JUMPI PUSH1 0x20 CALLDATASIZE PUSH1 0x3 NOT ADD SLT PUSH2 0x1DB JUMPI PUSH1 0x40 SWAP1 PUSH2 0x133A PUSH2 0x1C80 JUMP JUMPDEST PUSH1 0x1 PUSH1 0x1 PUSH1 0xA0 SHL SUB AND DUP2 MSTORE PUSH1 0xA PUSH1 0x20 SWAP1 DUP2 MSTORE DUP3 DUP3 KECCAK256 SLOAD PUSH1 0xB SWAP1 SWAP2 MSTORE DUP3 DUP3 KECCAK256 SLOAD DUP3 SWAP2 DUP3 SWAP1 DUP1 ISZERO ISZERO DUP1 PUSH2 0x13FD JUMPI JUMPDEST PUSH2 0x13C8 JUMPI JUMPDEST POP DUP2 ISZERO ISZERO DUP1 PUSH2 0x13BD JUMPI JUMPDEST PUSH2 0x1388 JUMPI JUMPDEST POP POP DUP3 MLOAD SWAP2 DUP3 MSTORE PUSH1 0x20 DUP3 ADD MSTORE RETURN JUMPDEST PUSH1 0x8 SLOAD PUSH2 0x13AE SWAP4 POP SWAP1 DUP2 ISZERO PUSH2 0x13B5 JUMPI POP PUSH2 0x13A5 PUSH2 0x11F9 SWAP2 DUP4 PUSH2 0x1F10 JUMP JUMPDEST PUSH1 0x9 SLOAD SWAP1 PUSH2 0x1F39 JUMP JUMPDEST CODESIZE DUP1 PUSH2 0x137A JUMP JUMPDEST SWAP1 POP SWAP1 PUSH2 0x1F59 JUMP JUMPDEST POP PUSH1 0x9 SLOAD ISZERO ISZERO PUSH2 0x1375 JUMP JUMPDEST PUSH1 0x9 SLOAD SWAP2 SWAP5 POP PUSH2 0x13EE SWAP2 DUP1 ISZERO PUSH2 0x13F5 JUMPI PUSH2 0x13E5 PUSH2 0x11F9 SWAP2 DUP4 PUSH2 0x1F10 JUMP JUMPDEST PUSH1 0x8 SLOAD SWAP1 PUSH2 0x1F39 JUMP JUMPDEST SWAP3 CODESIZE PUSH2 0x136B JUMP JUMPDEST POP DUP5 SWAP1 PUSH2 0x1F59 JUMP JUMPDEST POP PUSH1 0x8 SLOAD ISZERO ISZERO PUSH2 0x1366 JUMP JUMPDEST POP CALLVALUE PUSH2 0x1DB JUMPI PUSH1 0x20 CALLDATASIZE PUSH1 0x3 NOT ADD SLT PUSH2 0x1DB JUMPI PUSH1 0x40 SWAP1 PUSH1 0x1 PUSH1 0x1 PUSH1 0xA0 SHL SUB PUSH2 0x142D PUSH2 0x1C80 JUMP JUMPDEST AND DUP2 MSTORE PUSH1 0xA PUSH1 0x20 MSTORE DUP2 DUP1 DUP3 KECCAK256 SLOAD SWAP2 PUSH1 0xB PUSH1 0x20 MSTORE KECCAK256 SLOAD DUP3 MLOAD SWAP2 DUP3 MSTORE PUSH1 0x20 DUP3 ADD MSTORE RETURN JUMPDEST POP CALLVALUE PUSH2 0x1DB JUMPI DUP1 PUSH1 0x3 NOT CALLDATASIZE ADD SLT PUSH2 0x1DB JUMPI PUSH1 0x1 PUSH1 0x1 PUSH1 0xA0 SHL SUB SWAP1 PUSH32 0x0 DUP3 AND CALLER SUB PUSH2 0x1643 JUMPI PUSH32 0x0 TIMESTAMP LT PUSH2 0x15FE JUMPI PUSH1 0x6 SLOAD PUSH1 0xFF DUP2 PUSH1 0x10 SHR AND SWAP1 PUSH1 0x4 DUP3 LT ISZERO PUSH2 0x336 JUMPI PUSH3 0x10000 PUSH1 0xFF SWAP2 PUSH2 0x14DD DUP5 ISZERO PUSH2 0x1ED3 JUMP JUMPDEST PUSH3 0xFF0000 NOT AND OR SWAP4 DUP5 PUSH1 0x6 SSTORE TIMESTAMP PUSH1 0x7 SSTORE PUSH32 0x0 AND SWAP4 PUSH1 0x10 SHR AND SWAP1 PUSH1 0x4 DUP3 LT ISZERO PUSH2 0x336 JUMPI DUP4 EXTCODESIZE ISZERO PUSH2 0x15FA JUMPI PUSH1 0x40 MLOAD PUSH4 0x1D8E2047 PUSH1 0xE0 SHL DUP2 MSTORE PUSH1 0xFF SWAP2 DUP3 AND PUSH1 0x4 DUP3 ADD MSTORE SWAP2 AND PUSH1 0x24 DUP3 ADD MSTORE DUP2 DUP2 PUSH1 0x44 DUP2 DUP4 DUP8 GAS CALL DUP1 ISZERO PUSH2 0xAB3 JUMPI SWAP1 DUP3 SWAP2 PUSH2 0x15E6 JUMPI JUMPDEST POP POP PUSH32 0x0 SWAP2 PUSH1 0x3 DUP4 LT ISZERO PUSH2 0x15D2 JUMPI DUP2 SWAP3 DUP2 EXTCODESIZE ISZERO PUSH2 0x15CE JUMPI PUSH1 0xFF PUSH1 0x24 DUP5 SWAP3 DUP4 PUSH1 0x40 MLOAD SWAP6 DUP7 SWAP5 DUP6 SWAP4 PUSH4 0x12ED5937 PUSH1 0xE3 SHL DUP6 MSTORE AND PUSH1 0x4 DUP5 ADD MSTORE GAS CALL DUP1 ISZERO PUSH2 0xAB3 JUMPI PUSH2 0x15BE JUMPI POP RETURN JUMPDEST PUSH2 0x15C7 SWAP1 PUSH2 0x1CD5 JUMP JUMPDEST PUSH2 0x1DB JUMPI DUP1 RETURN JUMPDEST POP POP REVERT JUMPDEST PUSH4 0x4E487B71 PUSH1 0xE0 SHL DUP3 MSTORE PUSH1 0x21 PUSH1 0x4 MSTORE PUSH1 0x24 DUP3 REVERT JUMPDEST PUSH2 0x15EF SWAP1 PUSH2 0x1CD5 JUMP JUMPDEST PUSH2 0x1DB JUMPI DUP1 CODESIZE PUSH2 0x155A JUMP JUMPDEST DUP3 DUP1 REVERT JUMPDEST PUSH1 0x40 MLOAD PUSH3 0x461BCD PUSH1 0xE5 SHL DUP2 MSTORE PUSH1 0x20 PUSH1 0x4 DUP3 ADD MSTORE PUSH1 0x1E PUSH1 0x24 DUP3 ADD MSTORE PUSH32 0x43616E6E6F74207265736F6C7665206265666F726520656E6420646174650000 PUSH1 0x44 DUP3 ADD MSTORE PUSH1 0x64 SWAP1 REVERT JUMPDEST PUSH1 0x40 MLOAD PUSH3 0x461BCD PUSH1 0xE5 SHL DUP2 MSTORE PUSH1 0x20 PUSH1 0x4 DUP3 ADD MSTORE PUSH1 0x18 PUSH1 0x24 DUP3 ADD MSTORE PUSH32 0x4F6E6C792063726561746F722063616E207265736F6C76650000000000000000 PUSH1 0x44 DUP3 ADD MSTORE PUSH1 0x64 SWAP1 REVERT JUMPDEST POP CALLVALUE PUSH2 0x1DB JUMPI PUSH1 0x20 CALLDATASIZE PUSH1 0x3 NOT ADD SLT PUSH2 0x1DB JUMPI PUSH1 0x4 CALLDATALOAD PUSH8 0xFFFFFFFFFFFFFFFF DUP1 DUP3 GT PUSH2 0x15FA JUMPI CALLDATASIZE PUSH1 0x23 DUP4 ADD SLT ISZERO PUSH2 0x15FA JUMPI DUP2 PUSH1 0x4 ADD CALLDATALOAD DUP2 DUP2 GT PUSH2 0x1183 JUMPI DUP3 ADD PUSH1 0x24 DUP2 ADD CALLDATASIZE DUP2 GT PUSH2 0x1B86 JUMPI PUSH1 0x1 PUSH1 0x1 PUSH1 0xA0 SHL SUB SWAP2 PUSH32 0x0 DUP4 AND CALLER SUB PUSH2 0x1B8A JUMPI DUP5 PUSH1 0xE0 SWAP2 SUB SLT PUSH2 0x1B86 JUMPI PUSH1 0x24 DUP5 ADD CALLDATALOAD SWAP4 DUP3 DUP6 AND DUP1 SWAP6 SUB PUSH2 0x1B82 JUMPI PUSH2 0x1729 PUSH1 0x44 DUP3 ADD PUSH2 0x1EC6 JUMP JUMPDEST SWAP5 PUSH2 0x1736 PUSH1 0x64 DUP4 ADD PUSH2 0x1EC6 JUMP JUMPDEST SWAP1 PUSH1 0xE4 DUP4 ADD CALLDATALOAD DUP7 DUP2 GT PUSH2 0x1B7E JUMPI DUP4 ADD DUP5 PUSH1 0x43 DUP3 ADD SLT ISZERO PUSH2 0x1B7E JUMPI PUSH1 0x24 DUP2 ADD CALLDATALOAD DUP8 DUP2 GT PUSH2 0x1B6A JUMPI SWAP1 DUP10 SWAP2 PUSH1 0x40 MLOAD SWAP7 PUSH2 0x1777 PUSH1 0x20 PUSH1 0x1F NOT PUSH1 0x1F DUP6 ADD AND ADD DUP10 PUSH2 0x1CFF JUMP JUMPDEST DUP2 DUP9 MSTORE PUSH1 0x44 DUP3 DUP5 ADD ADD GT PUSH2 0x15FA JUMPI DUP1 PUSH1 0x44 PUSH1 0x20 SWAP4 ADD DUP4 DUP10 ADD CALLDATACOPY DUP7 ADD ADD MSTORE ADDRESS SUB PUSH2 0x1B2C JUMPI PUSH1 0x6 SLOAD SWAP5 PUSH1 0x4 PUSH1 0xFF DUP8 PUSH1 0x10 SHR AND LT ISZERO PUSH2 0x1B18 JUMPI PUSH1 0x1 PUSH1 0xFF DUP8 PUSH1 0x10 SHR AND SUB PUSH2 0x1AD3 JUMPI PUSH1 0xFF NOT DUP7 AND PUSH1 0x1 OR PUSH1 0x6 SSTORE PUSH1 0xC4 DUP4 ADD CALLDATALOAD PUSH1 0xD SSTORE DUP4 MLOAD SWAP1 DUP2 GT PUSH2 0x1ABF JUMPI PUSH2 0x17E2 PUSH1 0xE SLOAD PUSH2 0x1C9B JUMP JUMPDEST PUSH1 0x1F DUP2 GT PUSH2 0x1A58 JUMPI JUMPDEST POP DUP1 PUSH1 0x20 PUSH1 0x1F DUP3 GT PUSH1 0x1 EQ PUSH2 0x19E7 JUMPI DUP10 SWAP2 PUSH2 0x19DC JUMPI JUMPDEST POP DUP2 PUSH1 0x1 SHL SWAP2 PUSH1 0x0 NOT SWAP1 PUSH1 0x3 SHL SHR NOT AND OR PUSH1 0xE SSTORE JUMPDEST ISZERO PUSH2 0x1968 JUMPI POP POP PUSH3 0x30000 PUSH3 0xFF0000 NOT PUSH1 0x6 SLOAD AND OR PUSH1 0x6 SSTORE PUSH32 0x110EEFE47FB2DF2A2F3149D618851E6AB16E70A4E6F3872B7C260BD48EEC14FE PUSH1 0x20 PUSH1 0x40 MLOAD TIMESTAMP DUP2 MSTORE LOG1 JUMPDEST PUSH1 0xFF PUSH1 0x6 SLOAD PUSH1 0x10 SHR AND SWAP1 PUSH1 0x4 DUP3 LT ISZERO PUSH2 0x2DC JUMPI SWAP1 DUP2 DUP6 SWAP3 PUSH32 0x0 AND EXTCODESIZE ISZERO PUSH2 0x15FA JUMPI PUSH1 0x40 MLOAD PUSH4 0x1D8E2047 PUSH1 0xE0 SHL DUP2 MSTORE PUSH1 0xFF PUSH1 0x10 SWAP6 SWAP1 SWAP6 SHR DUP6 AND PUSH1 0x4 DUP3 ADD MSTORE SWAP2 SWAP1 SWAP4 AND PUSH1 0x24 DUP3 ADD MSTORE SWAP2 DUP3 SWAP1 PUSH1 0x44 SWAP1 DUP3 SWAP1 DUP5 SWAP1 PUSH32 0x0 AND GAS CALL DUP1 ISZERO PUSH2 0x195D JUMPI PUSH2 0x1927 JUMPI JUMPDEST POP PUSH1 0x20 PUSH32 0xAD24B3D82D5622FB9874775664B448323C0CD92415340FD16BB0DCDD9223D919 SWAP2 PUSH1 0x40 MLOAD SWAP1 ISZERO ISZERO DUP2 MSTORE LOG1 DUP1 RETURN JUMPDEST PUSH32 0xAD24B3D82D5622FB9874775664B448323C0CD92415340FD16BB0DCDD9223D919 SWAP2 SWAP3 PUSH2 0x1955 PUSH1 0x20 SWAP3 PUSH2 0x1CD5 JUMP JUMPDEST SWAP3 SWAP2 POP PUSH2 0x18F6 JUMP JUMPDEST PUSH1 0x40 MLOAD RETURNDATASIZE DUP6 DUP3 RETURNDATACOPY RETURNDATASIZE SWAP1 REVERT JUMPDEST PUSH32 0x901EF2B1D58E0424D4371C33A6D269CADF61C7F9C58F6F5347A6A157476BA581 SWAP2 PUSH2 0x19D4 DUP7 ISZERO ISZERO SWAP2 PUSH3 0x20000 PUSH1 0x6 SLOAD PUSH2 0xFF00 DUP6 PUSH1 0x8 SHL AND SWAP1 PUSH3 0xFFFF00 NOT AND OR OR PUSH1 0x6 SSTORE PUSH1 0xC4 PUSH1 0x40 MLOAD SWAP5 DUP6 SWAP5 DUP6 MSTORE TIMESTAMP PUSH1 0x20 DUP7 ADD MSTORE ADD CALLDATALOAD PUSH1 0x40 DUP5 ADD MSTORE PUSH1 0x80 PUSH1 0x60 DUP5 ADD MSTORE PUSH1 0x80 DUP4 ADD SWAP1 PUSH2 0x1E86 JUMP JUMPDEST SUB SWAP1 LOG1 PUSH2 0x1859 JUMP JUMPDEST SWAP1 POP DUP5 ADD MLOAD CODESIZE PUSH2 0x1801 JUMP JUMPDEST SWAP2 POP PUSH1 0xE DUP10 MSTORE PUSH1 0x0 DUP1 MLOAD PUSH1 0x20 PUSH2 0x20E5 DUP4 CODECOPY DUP2 MLOAD SWAP2 MSTORE DUP10 SWAP3 JUMPDEST PUSH1 0x1F NOT DUP4 AND DUP5 LT PUSH2 0x1A40 JUMPI PUSH1 0x1 SWAP4 POP DUP3 PUSH1 0x1F NOT DUP2 AND LT PUSH2 0x1A27 JUMPI JUMPDEST POP POP DUP2 SHL ADD PUSH1 0xE SSTORE PUSH2 0x1816 JUMP JUMPDEST DUP7 ADD MLOAD PUSH1 0x0 NOT PUSH1 0xF8 DUP5 PUSH1 0x3 SHL AND SHR NOT AND SWAP1 SSTORE CODESIZE DUP1 PUSH2 0x1A1A JUMP JUMPDEST DUP7 DUP2 ADD MLOAD DUP3 SSTORE PUSH1 0x20 SWAP4 DUP5 ADD SWAP4 PUSH1 0x1 SWAP1 SWAP3 ADD SWAP2 ADD PUSH2 0x19FF JUMP JUMPDEST PUSH1 0xE DUP10 MSTORE PUSH1 0x1F DUP3 ADD PUSH1 0x5 SHR PUSH1 0x0 DUP1 MLOAD PUSH1 0x20 PUSH2 0x20E5 DUP4 CODECOPY DUP2 MLOAD SWAP2 MSTORE ADD PUSH1 0x20 DUP4 LT PUSH2 0x1AAA JUMPI JUMPDEST PUSH1 0x1F DUP3 ADD PUSH1 0x5 SHR PUSH1 0x0 DUP1 MLOAD PUSH1 0x20 PUSH2 0x20E5 DUP4 CODECOPY DUP2 MLOAD SWAP2 MSTORE ADD DUP2 LT PUSH2 0x1A9F JUMPI POP PUSH2 0x17EB JUMP JUMPDEST DUP10 DUP2 SSTORE PUSH1 0x1 ADD PUSH2 0x1A7C JUMP JUMPDEST POP PUSH1 0x0 DUP1 MLOAD PUSH1 0x20 PUSH2 0x20E5 DUP4 CODECOPY DUP2 MLOAD SWAP2 MSTORE PUSH2 0x1A7C JUMP JUMPDEST PUSH4 0x4E487B71 PUSH1 0xE0 SHL DUP9 MSTORE PUSH1 0x41 PUSH1 0x4 MSTORE PUSH1 0x24 DUP9 REVERT JUMPDEST PUSH1 0x40 MLOAD PUSH3 0x461BCD PUSH1 0xE5 SHL DUP2 MSTORE PUSH1 0x20 PUSH1 0x4 DUP3 ADD MSTORE PUSH1 0x17 PUSH1 0x24 DUP3 ADD MSTORE PUSH32 0x4E6F74206177616974696E67207265736F6C7574696F6E000000000000000000 PUSH1 0x44 DUP3 ADD MSTORE PUSH1 0x64 SWAP1 REVERT JUMPDEST PUSH4 0x4E487B71 PUSH1 0xE0 SHL DUP9 MSTORE PUSH1 0x21 PUSH1 0x4 MSTORE PUSH1 0x24 DUP9 REVERT JUMPDEST PUSH1 0x40 MLOAD PUSH3 0x461BCD PUSH1 0xE5 SHL DUP2 MSTORE PUSH1 0x20 PUSH1 0x4 DUP3 ADD MSTORE PUSH1 0x16 PUSH1 0x24 DUP3 ADD MSTORE PUSH22 0x14995CDC1BDB9CD948199BDC881DDC9BDB99C818995D PUSH1 0x52 SHL PUSH1 0x44 DUP3 ADD MSTORE PUSH1 0x64 SWAP1 REVERT JUMPDEST PUSH4 0x4E487B71 PUSH1 0xE0 SHL DUP11 MSTORE PUSH1 0x41 PUSH1 0x4 MSTORE PUSH1 0x24 DUP11 REVERT JUMPDEST DUP9 DUP1 REVERT JUMPDEST DUP6 DUP1 REVERT JUMPDEST DUP5 DUP1 REVERT JUMPDEST PUSH1 0x40 MLOAD PUSH3 0x461BCD PUSH1 0xE5 SHL DUP2 MSTORE PUSH1 0x20 PUSH1 0x4 DUP3 ADD MSTORE PUSH1 0x19 PUSH1 0x24 DUP3 ADD MSTORE PUSH32 0x4F6E6C7920666163746F72792063616E20646973706174636800000000000000 PUSH1 0x44 DUP3 ADD MSTORE PUSH1 0x64 SWAP1 REVERT JUMPDEST POP CALLVALUE PUSH2 0x1DB JUMPI DUP1 PUSH1 0x3 NOT CALLDATASIZE ADD SLT PUSH2 0x1DB JUMPI PUSH1 0xFF PUSH1 0x6 SLOAD PUSH1 0x10 SHR AND PUSH1 0x40 MLOAD SWAP1 PUSH1 0x4 DUP2 LT ISZERO PUSH2 0x336 JUMPI PUSH1 0x20 SWAP3 POP DUP2 MSTORE RETURN JUMPDEST POP CALLVALUE PUSH2 0x1DB JUMPI DUP1 PUSH1 0x3 NOT CALLDATASIZE ADD SLT PUSH2 0x1DB JUMPI PUSH1 0x20 PUSH1 0x40 MLOAD PUSH32 0x0 DUP2 MSTORE RETURN JUMPDEST SWAP1 POP CALLVALUE PUSH2 0x1C7C JUMPI DUP2 PUSH1 0x3 NOT CALLDATASIZE ADD SLT PUSH2 0x1C7C JUMPI PUSH32 0x0 PUSH1 0x1 PUSH1 0x1 PUSH1 0xA0 SHL SUB AND DUP2 MSTORE PUSH1 0x20 SWAP1 RETURN JUMPDEST POP DUP1 REVERT JUMPDEST PUSH1 0x4 CALLDATALOAD SWAP1 PUSH1 0x1 PUSH1 0x1 PUSH1 0xA0 SHL SUB DUP3 AND DUP3 SUB PUSH2 0x1C96 JUMPI JUMP JUMPDEST PUSH1 0x0 DUP1 REVERT JUMPDEST SWAP1 PUSH1 0x1 DUP3 DUP2 SHR SWAP3 AND DUP1 ISZERO PUSH2 0x1CCB JUMPI JUMPDEST PUSH1 0x20 DUP4 LT EQ PUSH2 0x1CB5 JUMPI JUMP JUMPDEST PUSH4 0x4E487B71 PUSH1 0xE0 SHL PUSH1 0x0 MSTORE PUSH1 0x22 PUSH1 0x4 MSTORE PUSH1 0x24 PUSH1 0x0 REVERT JUMPDEST SWAP2 PUSH1 0x7F AND SWAP2 PUSH2 0x1CAA JUMP JUMPDEST PUSH8 0xFFFFFFFFFFFFFFFF DUP2 GT PUSH2 0x1CE9 JUMPI PUSH1 0x40 MSTORE JUMP JUMPDEST PUSH4 0x4E487B71 PUSH1 0xE0 SHL PUSH1 0x0 MSTORE PUSH1 0x41 PUSH1 0x4 MSTORE PUSH1 0x24 PUSH1 0x0 REVERT JUMPDEST SWAP1 PUSH1 0x1F DUP1 NOT SWAP2 ADD AND DUP2 ADD SWAP1 DUP2 LT PUSH8 0xFFFFFFFFFFFFFFFF DUP3 GT OR PUSH2 0x1CE9 JUMPI PUSH1 0x40 MSTORE JUMP JUMPDEST PUSH1 0x40 MLOAD SWAP1 PUSH1 0x0 DUP3 PUSH1 0x1 SWAP2 PUSH1 0x1 SLOAD PUSH2 0x1D37 DUP2 PUSH2 0x1C9B JUMP JUMPDEST DUP1 DUP5 MSTORE SWAP4 PUSH1 0x20 SWAP2 PUSH1 0x1 DUP2 AND SWAP1 DUP2 ISZERO PUSH2 0x1DC3 JUMPI POP PUSH1 0x1 EQ PUSH2 0x1D62 JUMPI JUMPDEST POP POP PUSH2 0x1D60 SWAP3 POP SUB DUP4 PUSH2 0x1CFF JUMP JUMPDEST JUMP JUMPDEST SWAP2 POP SWAP3 PUSH1 0x1 PUSH1 0x0 MSTORE PUSH32 0xB10E2D527612073B26EECDFD717E6A320CF44B4AFAC2B0732D9FCBE2B7FA0CF6 SWAP4 PUSH1 0x0 SWAP3 JUMPDEST DUP3 DUP5 LT PUSH2 0x1DAB JUMPI POP PUSH2 0x1D60 SWAP5 POP POP POP DUP2 ADD PUSH1 0x20 ADD CODESIZE DUP1 PUSH2 0x1D52 JUMP JUMPDEST DUP6 SLOAD DUP9 DUP6 ADD DUP4 ADD MSTORE SWAP5 DUP6 ADD SWAP5 DUP8 SWAP5 POP SWAP3 DUP2 ADD SWAP3 PUSH2 0x1D90 JUMP JUMPDEST SWAP2 POP POP PUSH1 0x20 SWAP3 POP PUSH2 0x1D60 SWAP5 SWAP2 POP PUSH1 0xFF NOT AND DUP3 DUP5 ADD MSTORE ISZERO ISZERO PUSH1 0x5 SHL DUP3 ADD ADD CODESIZE DUP1 PUSH2 0x1D52 JUMP JUMPDEST PUSH1 0x40 MLOAD SWAP1 PUSH1 0x0 DUP3 PUSH1 0x2 SLOAD SWAP2 PUSH2 0x1DFB DUP4 PUSH2 0x1C9B JUMP JUMPDEST DUP1 DUP4 MSTORE SWAP3 PUSH1 0x20 SWAP1 PUSH1 0x1 SWAP1 DUP2 DUP2 AND SWAP1 DUP2 ISZERO PUSH2 0x1DC3 JUMPI POP PUSH1 0x1 EQ PUSH2 0x1E25 JUMPI POP POP PUSH2 0x1D60 SWAP3 POP SUB DUP4 PUSH2 0x1CFF JUMP JUMPDEST SWAP2 POP SWAP3 PUSH1 0x2 PUSH1 0x0 MSTORE PUSH32 0x405787FA12A823E0F2B7631CC41B3BA8828B3321CA811111FA75CD3AA3BB5ACE SWAP4 PUSH1 0x0 SWAP3 JUMPDEST DUP3 DUP5 LT PUSH2 0x1E6E JUMPI POP PUSH2 0x1D60 SWAP5 POP POP POP DUP2 ADD PUSH1 0x20 ADD CODESIZE DUP1 PUSH2 0x1D52 JUMP JUMPDEST DUP6 SLOAD DUP9 DUP6 ADD DUP4 ADD MSTORE SWAP5 DUP6 ADD SWAP5 DUP8 SWAP5 POP SWAP3 DUP2 ADD SWAP3 PUSH2 0x1E53 JUMP JUMPDEST SWAP2 SWAP1 DUP3 MLOAD SWAP3 DUP4 DUP3 MSTORE PUSH1 0x0 JUMPDEST DUP5 DUP2 LT PUSH2 0x1EB2 JUMPI POP POP DUP3 PUSH1 0x0 PUSH1 0x20 DUP1 SWAP5 SWAP6 DUP5 ADD ADD MSTORE PUSH1 0x1F DUP1 NOT SWAP2 ADD AND ADD ADD SWAP1 JUMP JUMPDEST PUSH1 0x20 DUP2 DUP4 ADD DUP2 ADD MLOAD DUP5 DUP4 ADD DUP3 ADD MSTORE ADD PUSH2 0x1E91 JUMP JUMPDEST CALLDATALOAD SWAP1 DUP2 ISZERO ISZERO DUP3 SUB PUSH2 0x1C96 JUMPI JUMP JUMPDEST ISZERO PUSH2 0x1EDA JUMPI JUMP JUMPDEST PUSH1 0x40 MLOAD PUSH3 0x461BCD PUSH1 0xE5 SHL DUP2 MSTORE PUSH1 0x20 PUSH1 0x4 DUP3 ADD MSTORE PUSH1 0xE PUSH1 0x24 DUP3 ADD MSTORE PUSH14 0x426574206E6F7420616374697665 PUSH1 0x90 SHL PUSH1 0x44 DUP3 ADD MSTORE PUSH1 0x64 SWAP1 REVERT JUMPDEST DUP2 DUP2 MUL SWAP3 SWAP2 DUP2 ISZERO SWAP2 DUP5 DIV EQ OR ISZERO PUSH2 0x1F23 JUMPI JUMP JUMPDEST PUSH4 0x4E487B71 PUSH1 0xE0 SHL PUSH1 0x0 MSTORE PUSH1 0x11 PUSH1 0x4 MSTORE PUSH1 0x24 PUSH1 0x0 REVERT JUMPDEST DUP2 ISZERO PUSH2 0x1F43 JUMPI DIV SWAP1 JUMP JUMPDEST PUSH4 0x4E487B71 PUSH1 0xE0 SHL PUSH1 0x0 MSTORE PUSH1 0x12 PUSH1 0x4 MSTORE PUSH1 0x24 PUSH1 0x0 REVERT JUMPDEST SWAP2 SWAP1 DUP3 ADD DUP1 SWAP3 GT PUSH2 0x1F23 JUMPI JUMP JUMPDEST ISZERO PUSH2 0x1F6D JUMPI JUMP JUMPDEST PUSH1 0x40 MLOAD PUSH3 0x461BCD PUSH1 0xE5 SHL DUP2 MSTORE PUSH1 0x20 PUSH1 0x4 DUP3 ADD MSTORE PUSH1 0x17 PUSH1 0x24 DUP3 ADD MSTORE PUSH32 0x4E6F2077696E6E696E672062657420746F20636C61696D000000000000000000 PUSH1 0x44 DUP3 ADD MSTORE PUSH1 0x64 SWAP1 REVERT JUMPDEST ISZERO PUSH2 0x1FB9 JUMPI JUMP JUMPDEST PUSH1 0x40 MLOAD PUSH3 0x461BCD PUSH1 0xE5 SHL DUP2 MSTORE PUSH1 0x20 PUSH1 0x4 DUP3 ADD MSTORE PUSH1 0x10 PUSH1 0x24 DUP3 ADD MSTORE PUSH16 0x139BC818995D081D1BC81C99599D5B99 PUSH1 0x82 SHL PUSH1 0x44 DUP3 ADD MSTORE PUSH1 0x64 SWAP1 REVERT JUMPDEST ISZERO PUSH2 0x1FF8 JUMPI JUMP JUMPDEST PUSH1 0x40 MLOAD PUSH3 0x461BCD PUSH1 0xE5 SHL DUP2 MSTORE PUSH1 0x20 PUSH1 0x4 DUP3 ADD MSTORE PUSH1 0x15 PUSH1 0x24 DUP3 ADD MSTORE PUSH21 0x13DB9B1E48199858DD1BDC9E4818D85B8818D85B1B PUSH1 0x5A SHL PUSH1 0x44 DUP3 ADD MSTORE PUSH1 0x64 SWAP1 REVERT JUMPDEST ISZERO PUSH2 0x203C JUMPI JUMP JUMPDEST PUSH1 0x40 MLOAD PUSH3 0x461BCD PUSH1 0xE5 SHL DUP2 MSTORE PUSH1 0x20 PUSH1 0x4 DUP3 ADD MSTORE PUSH1 0x11 PUSH1 0x24 DUP3 ADD MSTORE PUSH17 0x10995D1D1A5B99C81A185CC8195B991959 PUSH1 0x7A SHL PUSH1 0x44 DUP3 ADD MSTORE PUSH1 0x64 SWAP1 REVERT JUMPDEST ISZERO PUSH2 0x207C JUMPI JUMP JUMPDEST PUSH1 0x40 MLOAD PUSH3 0x461BCD PUSH1 0xE5 SHL DUP2 MSTORE PUSH1 0x20 PUSH1 0x4 DUP3 ADD MSTORE PUSH1 0x14 PUSH1 0x24 DUP3 ADD MSTORE PUSH20 0x4D75737420626574206D6F7265207468616E203 PUSH1 0x64 SHL PUSH1 0x44 DUP3 ADD MSTORE PUSH1 0x64 SWAP1 REVERT JUMPDEST PUSH1 0x0 SLOAD PUSH1 0x1 PUSH1 0x1 PUSH1 0xA0 SHL SUB AND CALLER SUB PUSH2 0x20CC JUMPI JUMP JUMPDEST PUSH1 0x40 MLOAD PUSH4 0x118CDAA7 PUSH1 0xE0 SHL DUP2 MSTORE CALLER PUSH1 0x4 DUP3 ADD MSTORE PUSH1 0x24 SWAP1 REVERT INVALID 0xBB PUSH28 0x4A454DC3493923482F07822329ED19E8244EFF582CC204F8554C3620 0xC3 REVERT LOG2 PUSH5 0x6970667358 0x22 SLT KECCAK256 0xD4 CALLDATASIZE EXTCODECOPY BYTE 0xA7 0xC1 0xC3 MSIZE SWAP16 MUL 0x25 SWAP12 PUSH3 0x58B794 0x25 0xBC SLT 0xAE 0xD4 PUSH20 0x4B22C455D0B3DA905F2C64736F6C634300081600 CALLER BLOCKHASH JUMPI DUP8 STATICCALL SLT 0xA8 0x23 0xE0 CALLCODE 0xB7 PUSH4 0x1CC41B3B 0xA8 DUP3 DUP12 CALLER 0x21 0xCA DUP2 GT GT STATICCALL PUSH22 0xCD3AA3BB5ACEB10E2D527612073B26EECDFD717E6A32 0xC DELEGATECALL 0x4B 0x4A STATICCALL 0xC2 0xB0 PUSH20 0x2D9FCBE2B7FA0CF6036B6384B5ECA791C6276115 0x2D 0xC PUSH26 0xBB0604C104A5FB6F4EB0703F3154BB3DB0A26469706673582212 KECCAK256 0xD3 0x4B DUP4 CREATE2 0xEE 0xE7 DUP8 MSTORE8 SWAP1 DUP5 PUSH19 0xE0B88450C7EA6946D4B0729F8C3F78D94CEA9D ADDRESS DUP2 PUSH5 0x736F6C6343 STOP ADDMOD AND STOP CALLER "},"methodIdentifiers":{"activeBets(uint256)":"af768ee3","allBets(uint256)":"e0ced0e1","approvedCreators(address)":"55232467","bridgeReceiver()":"0a208972","canCreateBet(address)":"749598eb","createBet(string,string,string,string,uint256,uint8,bytes)":"f2b37421","deployedBets(address)":"2c136c34","forwardResolutionRequest(uint8)":"976ac9b8","getActiveBets()":"ada73020","getActiveBetsCount()":"ed53afa3","getAllBets()":"700eae73","getBetCount()":"b93dab0b","getBetsByStatus(uint8)":"a6c8260f","getResolvedBets()":"6532e2c3","getResolvingBets()":"df7ebae3","getUndeterminedBets()":"107d67c2","isLegitBet(address)":"76aa5f0e","notifyStatusChange(uint8,uint8)":"1d8e2047","owner()":"8da5cb5b","placeBet(address,bool,uint256)":"76648637","processBridgeMessage(uint32,address,bytes)":"a489d267","renounceOwnership()":"715018a6","resolvedBets(uint256)":"1644af88","resolvingBets(uint256)":"db01ea8c","setBridgeReceiver(address)":"d044e81f","setCreatorApproval(address,bool)":"ea0d5bb5","transferOwnership(address)":"f2fde38b","undeterminedBets(uint256)":"3591ca41","usdcToken()":"11eac855"}}}}}