{"contracts/WorkFactoryCOFI.sol":{"WorkFactoryCOFI":{"abi":[{"inputs":[{"internalType":"address","name":"_usdcToken","type":"address"}],"stateMutability":"nonpayable","type":"constructor"},{"inputs":[{"internalType":"address","name":"owner","type":"address"}],"name":"OwnableInvalidOwner","type":"error"},{"inputs":[{"internalType":"address","name":"account","type":"address"}],"name":"OwnableUnauthorizedAccount","type":"error"},{"anonymous":false,"inputs":[{"indexed":true,"internalType":"address","name":"old","type":"address"},{"indexed":true,"internalType":"address","name":"newAddr","type":"address"}],"name":"BridgeReceiverUpdated","type":"event"},{"anonymous":false,"inputs":[{"indexed":true,"internalType":"address","name":"previousOwner","type":"address"},{"indexed":true,"internalType":"address","name":"newOwner","type":"address"}],"name":"OwnershipTransferred","type":"event"},{"anonymous":false,"inputs":[{"indexed":true,"internalType":"address","name":"workAddress","type":"address"}],"name":"ResolutionDispatched","type":"event"},{"anonymous":false,"inputs":[{"indexed":true,"internalType":"address","name":"workAddress","type":"address"},{"indexed":true,"internalType":"address","name":"creator","type":"address"},{"indexed":false,"internalType":"string","name":"title","type":"string"},{"indexed":false,"internalType":"string","name":"descriptionPublic","type":"string"},{"indexed":false,"internalType":"string","name":"deliveryUrl","type":"string"},{"indexed":false,"internalType":"uint8","name":"requiredApprovals","type":"uint8"},{"indexed":false,"internalType":"uint256","name":"timestamp","type":"uint256"}],"name":"ValidationForwarded","type":"event"},{"anonymous":false,"inputs":[{"indexed":true,"internalType":"address","name":"workAddress","type":"address"},{"indexed":true,"internalType":"address","name":"creator","type":"address"},{"indexed":false,"internalType":"string","name":"title","type":"string"},{"indexed":false,"internalType":"uint256","name":"bounty","type":"uint256"},{"indexed":false,"internalType":"uint256","name":"endDate","type":"uint256"}],"name":"WorkCreated","type":"event"},{"anonymous":false,"inputs":[{"indexed":true,"internalType":"address","name":"workAddress","type":"address"},{"indexed":false,"internalType":"uint8","name":"oldStatus","type":"uint8"},{"indexed":false,"internalType":"uint8","name":"newStatus","type":"uint8"}],"name":"WorkStatusChanged","type":"event"},{"inputs":[{"internalType":"uint256","name":"","type":"uint256"}],"name":"allWorks","outputs":[{"internalType":"address","name":"","type":"address"}],"stateMutability":"view","type":"function"},{"inputs":[],"name":"bridgeReceiver","outputs":[{"internalType":"address","name":"","type":"address"}],"stateMutability":"view","type":"function"},{"inputs":[{"internalType":"uint256","name":"","type":"uint256"}],"name":"cancelledWorks","outputs":[{"internalType":"address","name":"","type":"address"}],"stateMutability":"view","type":"function"},{"inputs":[{"internalType":"string","name":"title","type":"string"},{"internalType":"string","name":"descriptionPublic","type":"string"},{"internalType":"uint256","name":"bounty","type":"uint256"},{"internalType":"uint256","name":"endDate","type":"uint256"},{"internalType":"uint8","name":"requiredApprovals","type":"uint8"},{"internalType":"bool","name":"isPrivate","type":"bool"}],"name":"createWork","outputs":[{"internalType":"address","name":"","type":"address"}],"stateMutability":"nonpayable","type":"function"},{"inputs":[{"internalType":"address","name":"","type":"address"}],"name":"deployedWorks","outputs":[{"internalType":"bool","name":"","type":"bool"}],"stateMutability":"view","type":"function"},{"inputs":[{"internalType":"address","name":"workAddress","type":"address"}],"name":"forwardToGenLayer","outputs":[],"stateMutability":"nonpayable","type":"function"},{"inputs":[],"name":"getAllWorks","outputs":[{"internalType":"address[]","name":"","type":"address[]"}],"stateMutability":"view","type":"function"},{"inputs":[],"name":"getOpenWorks","outputs":[{"internalType":"address[]","name":"","type":"address[]"}],"stateMutability":"view","type":"function"},{"inputs":[],"name":"getResolvedWorks","outputs":[{"internalType":"address[]","name":"","type":"address[]"}],"stateMutability":"view","type":"function"},{"inputs":[],"name":"getSubmittedWorks","outputs":[{"internalType":"address[]","name":"","type":"address[]"}],"stateMutability":"view","type":"function"},{"inputs":[],"name":"getValidatingWorks","outputs":[{"internalType":"address[]","name":"","type":"address[]"}],"stateMutability":"view","type":"function"},{"inputs":[],"name":"getWorkCount","outputs":[{"internalType":"uint256","name":"","type":"uint256"}],"stateMutability":"view","type":"function"},{"inputs":[{"internalType":"address","name":"w","type":"address"}],"name":"isLegitWork","outputs":[{"internalType":"bool","name":"","type":"bool"}],"stateMutability":"view","type":"function"},{"inputs":[{"internalType":"uint8","name":"_oldStatus","type":"uint8"},{"internalType":"uint8","name":"_newStatus","type":"uint8"}],"name":"notifyStatusChange","outputs":[],"stateMutability":"nonpayable","type":"function"},{"inputs":[{"internalType":"uint256","name":"","type":"uint256"}],"name":"openWorks","outputs":[{"internalType":"address","name":"","type":"address"}],"stateMutability":"view","type":"function"},{"inputs":[],"name":"owner","outputs":[{"internalType":"address","name":"","type":"address"}],"stateMutability":"view","type":"function"},{"inputs":[{"internalType":"uint32","name":"","type":"uint32"},{"internalType":"address","name":"","type":"address"},{"internalType":"bytes","name":"_message","type":"bytes"}],"name":"processBridgeMessage","outputs":[],"stateMutability":"nonpayable","type":"function"},{"inputs":[],"name":"renounceOwnership","outputs":[],"stateMutability":"nonpayable","type":"function"},{"inputs":[{"internalType":"uint256","name":"","type":"uint256"}],"name":"resolvedWorks","outputs":[{"internalType":"address","name":"","type":"address"}],"stateMutability":"view","type":"function"},{"inputs":[{"internalType":"address","name":"_bridgeReceiver","type":"address"}],"name":"setBridgeReceiver","outputs":[],"stateMutability":"nonpayable","type":"function"},{"inputs":[{"internalType":"uint256","name":"","type":"uint256"}],"name":"submittedWorks","outputs":[{"internalType":"address","name":"","type":"address"}],"stateMutability":"view","type":"function"},{"inputs":[{"internalType":"address","name":"newOwner","type":"address"}],"name":"transferOwnership","outputs":[],"stateMutability":"nonpayable","type":"function"},{"inputs":[],"name":"usdcToken","outputs":[{"internalType":"address","name":"","type":"address"}],"stateMutability":"view","type":"function"},{"inputs":[{"internalType":"uint256","name":"","type":"uint256"}],"name":"validatingWorks","outputs":[{"internalType":"address","name":"","type":"address"}],"stateMutability":"view","type":"function"},{"inputs":[{"internalType":"address","name":"","type":"address"}],"name":"workToCreator","outputs":[{"internalType":"address","name":"","type":"address"}],"stateMutability":"view","type":"function"}],"evm":{"bytecode":{"linkReferences":{},"object":"60a03461011657601f61420838819003918201601f19168301916001600160401b0383118484101761011b5780849260209460405283398101031261011657516001600160a01b038082168083036101165733156100fd576000543360018060a01b0319821617600055604051923391167f8be0079c531659141344cd1fd0a4f28419497f9722a3daafe3b4186f6b6457e0600080a3156100cb57506080526040516140d690816101328239608051818181610403015281816104c00152818161054601526114bc0152f35b62461bcd60e51b815260206004820152600d60248201526c5553444320696e76616c69646f60981b6044820152606490fd5b604051631e4fbdf760e01b815260006004820152602490fd5b600080fd5b634e487b7160e01b600052604160045260246000fdfe60808060405260043610156200001457600080fd5b600090813560e01c908163080b0a6b1462001516575080630a20897214620014eb57806311eac85514620014a457806315e9f2b9146200141e5780631d8e204714620012b8578063470cbabf1462000a0d578063715018a6146200125a578063790b85ab14620011d457806389964f0514620011755780638da5cb5b146200114c57806395e3a71e14620010c65780639b97cee514620010a65780639f029a711462000d73578063a489d2671462000b94578063adce13d51462000b35578063b82baa4e1462000aaf578063bf110e411462000a50578063c0b768b01462000a0d578063d044e81f146200095e578063db88417d14620008ff578063dc2f2df7146200033b578063e3c983f714620002dc578063ed0bbc561462000245578063f2fde38b14620001b35763fe43ab27146200014e57600080fd5b34620001b0576020366003190112620001b057600435600654811015620001ac5760066000527ff652222313e28459528d920b65115c16c04f3efc82aaedc97be59f3f377c0d3f01546040516001600160a01b039091168152602090f35b5080fd5b80fd5b5034620001b0576020366003190112620001b057620001d162001553565b620001db62001845565b6001600160a01b039081169081156200022c57600054826001600160601b0360a01b821617600055167f8be0079c531659141344cd1fd0a4f28419497f9722a3daafe3b4186f6b6457e0600080a380f35b604051631e4fbdf760e01b815260048101849052602490fd5b5034620001b05780600319360112620001b057604051600580548083529083526020808301937f036b6384b5eca791c62761152d0c79bb0604c104a5fb6f4eb0703f3154bb3db092915b828210620002bb57620002b785620002aa81890382620015df565b604051918291826200156a565b0390f35b83546001600160a01b0316865294850194600193840193909101906200028f565b5034620001b0576020366003190112620001b057600435600254811015620001ac5760026000527f405787fa12a823e0f2b7631cc41b3ba8828b3321ca811111fa75cd3aa3bb5ace01546040516001600160a01b039091168152602090f35b5034620001b05760c0366003190112620001b05760043567ffffffffffffffff8111620001ac57620003729036906004016200165b565b60243567ffffffffffffffff81116200072e57620003959036906004016200165b565b60843560ff81168103620008fa5760a4358015158103620008f65760443515620008bf574260643511156200088957600360ff83161015806200087a575b1562000843576040516323b872dd60e01b81523360048201523060248201526044803590820152602081606481897f00000000000000000000000000000000000000000000000000000000000000006001600160a01b03165af19081156200083857869162000814575b5015620007d75760405192836127d181011067ffffffffffffffff6127d186011117620007c3579060ff620004ae8594936127d1620018d08739336127d1870190815261010060208201819052620004979101896200170a565b906127d18701820360406127d1890101526200170a565b6064356127d1860160608101919091527f00000000000000000000000000000000000000000000000000000000000000006001600160a01b031660808201523060a08201529190931660c082015290151560e090910152039083f08015620007325760405163a9059cbb60e01b81526001600160a01b03918216600482018190526044803560248401529093926020918391829088907f0000000000000000000000000000000000000000000000000000000000000000165af1908115620007b857849162000782575b50156200073d57813b156200072e5760405162784a6960e81b815260443560048201528390818160248183885af18015620007325762000716575b505060025492600160401b8085101562000700576001850180600255851015620006ea5760409460026000527f405787fa12a823e0f2b7631cc41b3ba8828b3321ca811111fa75cd3aa3bb5ace01916001600160601b0360a01b9285848254161790558481526003602052858120600160ff1982541617905560046020528581203384825416179055600554958691600a602052205584101562000700576001840180600555841015620006ea578260209460056000527f036b6384b5eca791c62761152d0c79bb0604c104a5fb6f4eb0703f3154bb3db00191825416179055817f631b4d3cba5ca277460bdc15d2c8e6f20b2c5ee0c41612b066675d0fdd117545620006cc604051936060855260608501906200170a565b926044358682015260643560408201528033940390a3604051908152f35b634e487b7160e01b600052603260045260246000fd5b634e487b7160e01b600052604160045260246000fd5b6200072190620015ca565b6200072e578238620005b3565b8280fd5b6040513d84823e3d90fd5b60405162461bcd60e51b815260206004820152601b60248201527f5472616e73666572206120636f6e747261746f2066616c6c69646100000000006044820152606490fd5b620007a9915060203d602011620007b0575b620007a08183620015df565b81019062001731565b3862000578565b503d62000794565b6040513d86823e3d90fd5b634e487b7160e01b86526041600452602486fd5b60405162461bcd60e51b815260206004820152601560248201527455534443207472616e736665722066616c6c69646160581b6044820152606490fd5b62000831915060203d602011620007b057620007a08183620015df565b386200043d565b6040513d88823e3d90fd5b60405162461bcd60e51b815260206004820152600f60248201526e556d6272616c20696e76616c69646f60881b6044820152606490fd5b50600560ff83161115620003d3565b60405162461bcd60e51b815260206004820152600e60248201526d466563686120696e76616c69646160901b6044820152606490fd5b60405162461bcd60e51b815260206004820152600f60248201526e426f756e747920696e76616c69646f60881b6044820152606490fd5b8480fd5b600080fd5b5034620001b0576020366003190112620001b057600435600954811015620001ac5760096000527f6e1540171b6c0c960b71a7020d9f60077f6af931a8bbf590da0223dacf75c7af01546040516001600160a01b039091168152602090f35b5034620001b0576020366003190112620001b0576200097c62001553565b6200098662001845565b6001600160a01b03908116908115620009d657600154826001600160601b0360a01b821617600155167fa8803d9e6a41a59e9581926a91f2dfbebeb38d9dec8366511c6d5906f4df91fd8380a380f35b60405162461bcd60e51b815260206004820152600f60248201526e42726964676520696e76616c69646f60881b6044820152606490fd5b5034620001b0576020366003190112620001b05760209060ff906040906001600160a01b0362000a3c62001553565b168152600384522054166040519015158152f35b5034620001b0576020366003190112620001b057600435600554811015620001ac5760056000527f036b6384b5eca791c62761152d0c79bb0604c104a5fb6f4eb0703f3154bb3db001546040516001600160a01b039091168152602090f35b5034620001b05780600319360112620001b057604051600680548083529083526020808301937ff652222313e28459528d920b65115c16c04f3efc82aaedc97be59f3f377c0d3f92915b82821062000b1457620002b785620002aa81890382620015df565b83546001600160a01b03168652948501946001938401939091019062000af9565b5034620001b0576020366003190112620001b057600435600854811015620001ac5760086000527ff3f7a9fe364faab93b216da50a3214154f22a0a2b415b23a84c8169e8b636ee301546040516001600160a01b039091168152602090f35b5034620001b0576060366003190112620001b05760043563ffffffff811603620001b0576001600160a01b03906024803583811603620001ac5760443567ffffffffffffffff80821162000d30573660238301121562000d30578160040135818111620008f6578201918383019236841162000d6f578660015416330362000d3457816040910312620008f65783810135958616809603620008f6576044810135918211620008f657018160438201121562000d3057908160448462000c5e94013591016200161f565b90838352600360205260ff6040842054161562000cf557833b156200072e576040516321701a1560e01b8152602060048201529183918391829162000ca791908301906200170a565b038183875af18015620007325762000ce3575b50907fc51589ca8e3657ca3dfd95c288aa7f2a24f7dcee55202124cc602c38083b79f48280a280f35b62000cee90620015ca565b3862000cba565b60649060146040519162461bcd60e51b83526020600484015282015273436f6e747261746f20646573636f6e6f6369646f60601b6044820152fd5b8380fd5b60405162461bcd60e51b8152602060048201526014818701527329b7b63790313934b233b2903932b1b2b4bb32b960611b6044820152606490fd5b8580fd5b5034620001b057602080600319360112620001ac576001600160a01b038062000d9b62001553565b16908184526003835260ff60408520541615620010685781330362001023576040516302d05d3f60e01b8152908382600481865afa9182156200101857859262000fd9575b5060405163129e754360e21b8152918583600481875afa9283156200083857869362000fb9575b50604051633f8b7fcf60e11b8152948686600481885afa95861562000fae57879662000f8e575b50604051631ab30f4760e31b8152908782600481895afa91821562000f8357889262000f5a575b506040516326706ab760e21b81529681886004818a5afa97881562000f4f57899862000ef9575b5062000ee462000ec7959362000ed57fca1d371c61c510b5a546c0885f672bbfe56605854dcdc005ed00857c5ba2e2ad98969460ff94604051998a9960a08b5260a08b01906200170a565b91898303908a01526200170a565b9086820360408801526200170a565b9716606084015242608084015216940390a380f35b9097508181819795939694963d831162000f47575b62000f1a8183620015df565b8101031262000f43575160ff8116810362000f43579692949193909290919062000ee462000e7c565b8880fd5b503d62000f0e565b6040513d8b823e3d90fd5b62000f7b9192503d808a833e62000f728183620015df565b810190620016a1565b903862000e55565b6040513d8a823e3d90fd5b62000fa69196503d8089833e62000f728183620015df565b943862000e2e565b6040513d89823e3d90fd5b62000fd19193503d8088833e62000f728183620015df565b913862000e07565b9091508381813d831162001010575b62000ff48183620015df565b81010312620008f657518181168103620008f657903862000de0565b503d62000fe8565b6040513d87823e3d90fd5b60405162461bcd60e51b815260048101849052601760248201527f536f6c6f20656c2070726f70696f20636f6e747261746f0000000000000000006044820152606490fd5b60405162461bcd60e51b8152600481018490526016602482015275436f6e747261746f206e6f207265676973747261646f60501b6044820152606490fd5b5034620001b05780600319360112620001b0576020600254604051908152f35b5034620001b05780600319360112620001b057604051600880548083529083526020808301937ff3f7a9fe364faab93b216da50a3214154f22a0a2b415b23a84c8169e8b636ee392915b8282106200112b57620002b785620002aa81890382620015df565b83546001600160a01b03168652948501946001938401939091019062001110565b5034620001b05780600319360112620001b057546040516001600160a01b039091168152602090f35b5034620001b0576020366003190112620001b057600435600754811015620001ac5760079091527fa66cc928b5edb82af9bd49922954155ab7b0942694bea4ce44661d9a8736c68801546040516001600160a01b039091168152602090f35b5034620001b05780600319360112620001b057604051600280548083529083526020808301937f405787fa12a823e0f2b7631cc41b3ba8828b3321ca811111fa75cd3aa3bb5ace92915b8282106200123957620002b785620002aa81890382620015df565b83546001600160a01b0316865294850194600193840193909101906200121e565b5034620001b05780600319360112620001b0576200127762001845565b80546001600160a01b03198116825581906001600160a01b03167f8be0079c531659141344cd1fd0a4f28419497f9722a3daafe3b4186f6b6457e08280a380f35b5034620001b0576040366003190112620001b05760043560ff8116809103620001ac5760243560ff81168091036200072e57338352600360205260ff60408420541615620013d9576006821015620013c5576200131682336200174b565b6006811015620013c5576200132b8162001872565b805490338552600a602052816040862055600160401b821015620013b157816200135f9160016200137d94018155620015b1565b81546001600160a01b0360039290921b91821b19163390911b179055565b60405191825260208201527f3e8649690ecbdee2a12233cb6e3204cb3232be841142b4b40e7e3225293b13aa60403392a280f35b634e487b7160e01b85526041600452602485fd5b634e487b7160e01b83526021600452602483fd5b60405162461bcd60e51b815260206004820152601c60248201527f4e6f20657320756e20636f6e747261746f207265676973747261646f000000006044820152606490fd5b5034620001b05780600319360112620001b057604051600780548083529083526020808301937fa66cc928b5edb82af9bd49922954155ab7b0942694bea4ce44661d9a8736c68892915b8282106200148357620002b785620002aa81890382620015df565b83546001600160a01b03168652948501946001938401939091019062001468565b5034620001b05780600319360112620001b0576040517f00000000000000000000000000000000000000000000000000000000000000006001600160a01b03168152602090f35b5034620001b05780600319360112620001b0576001546040516001600160a01b039091168152602090f35b905034620001ac576020366003190112620001ac576020916001600160a01b0390604090826200154562001553565b168152600485522054168152f35b600435906001600160a01b0382168203620008fa57565b602090602060408183019282815285518094520193019160005b82811062001593575050505090565b83516001600160a01b03168552938101939281019260010162001584565b8054821015620006ea5760005260206000200190600090565b67ffffffffffffffff81116200070057604052565b90601f8019910116810190811067ffffffffffffffff8211176200070057604052565b67ffffffffffffffff81116200070057601f01601f191660200190565b9291926200162d8262001602565b916200163d6040519384620015df565b829481845281830111620008fa578281602093846000960137010152565b9080601f83011215620008fa5781602062001679933591016200161f565b90565b60005b838110620016905750506000910152565b81810151838201526020016200167f565b602081830312620008fa5780519067ffffffffffffffff8211620008fa570181601f82011215620008fa578051620016d98162001602565b92620016e96040519485620015df565b81845260208284010111620008fa576200167991602080850191016200167c565b9060209162001725815180928185528580860191016200167c565b601f01601f1916010190565b90816020910312620008fa57518015158103620008fa5790565b90620017579062001872565b8054801562001840576001600160a01b039283166000908152600a6020526040812054600019928084019081116200182c578086918303620017d4575b5050508254908115620017c057500191620017b08383620015b1565b909182549160031b1b1916905555565b634e487b7160e01b81526031600452602490fd5b620017e09086620015b1565b90549060031b1c166200181781620017f98488620015b1565b90919060018060a01b038084549260031b9316831b921b1916179055565b8252600a602052604082205538848162001794565b634e487b7160e01b83526011600452602483fd5b505050565b6000546001600160a01b031633036200185a57565b60405163118cdaa760e01b8152336004820152602490fd5b6006811015620018b9578015620018b35760018114620018ad5760028114620018a757600514620018a257600890565b600990565b50600790565b50600690565b50600590565b634e487b7160e01b600052602160045260246000fdfe60406101208152346200064457620027d19081380380620000208162000649565b938439820161010092838183031262000644576200003e8162000685565b6020828101519093906001600160401b0390818111620006445782620000669186016200069a565b9186850151908282116200064457620000819186016200069a565b94606085015191620000966080870162000685565b620000a460a0880162000685565b9460c08801519760ff8916809903620006445760e0015198891515809a03620006445760017f9b779b17422d0df92223018b32b4d1fa46e071723d6817e2486d003becc55f00819055926001600160a01b038881169182156200062c57600080546001600160a01b03198116851782558f5191949084167f8be0079c531659141344cd1fd0a4f28419497f9722a3daafe3b4186f6b6457e08680a3828c1615620005f7575016988915620005c2578351156200058f5760038b10158062000583575b156200054d57428811156200051857608052825185811162000504578454938585811c95168015620004f9575b88861014620004e5578190601f9586811162000492575b5088908683116001146200042e57849262000422575b5050600019600383901b1c191690851b1784555b81519485116200040e576002548481811c9116801562000403575b87821014620003ef57838111620003a6575b50859285116001146200033d57939450849291908362000331575b50501b916000199060031b1c1916176002555b4260a05260c05260e052845260ff19600354161760035560ff60055491169061ffff191617600555516120c491826200070d83396080518281816102af0152818161069801528181610ca201528181610e8b015281816110db015281816112ae015281816118000152611aa2015260a0518281816112fb0152611a4e015260c051828181610606015281816108bd0152611321015260e05182818161039001528181610594015281816107170152818161097701528181610ee601528181611060015281816114360152818161166d01526116c701525181818161017401528181610353015281816106da01528181610d1f015281816115cb015261183e0152f35b0151925038806200021c565b6002815285812093958591601f198316915b888383106200038b575050501062000371575b505050811b016002556200022f565b015160001960f88460031b161c1916905538808062000362565b8587015188559096019594850194879350908101906200034f565b600282528682208480880160051c820192898910620003e5575b0160051c019085905b828110620003d957505062000201565b838155018590620003c9565b92508192620003c0565b634e487b7160e01b82526022600452602482fd5b90607f1690620001ef565b634e487b7160e01b81526041600452602490fd5b015190503880620001c0565b8785528985208894509190601f198416865b8c8282106200047b575050841162000461575b505050811b018455620001d4565b015160001960f88460031b161c1916905538808062000453565b8385015186558b9790950194938401930162000440565b9091508684528884208680850160051c8201928b8610620004db575b918991869594930160051c01915b828110620004cc575050620001aa565b868155859450899101620004bc565b92508192620004ae565b634e487b7160e01b83526022600452602483fd5b94607f169462000193565b634e487b7160e01b82526041600452602482fd5b8c5162461bcd60e51b815260048101889052600e60248201526d466563686120696e76616c69646160901b6044820152606490fd5b8c5162461bcd60e51b815260048101889052600f60248201526e556d6272616c20696e76616c69646f60881b6044820152606490fd5b5060058b111562000166565b8c5162461bcd60e51b815260048101889052600c60248201526b546974756c6f20766163696f60a01b6044820152606490fd5b8c5162461bcd60e51b815260048101889052600e60248201526d546f6b656e20696e76616c69646f60901b6044820152606490fd5b62461bcd60e51b815260048101899052601060248201526f43726561746f7220696e76616c69646f60801b6044820152606490fd5b8d51631e4fbdf760e01b815260006004820152602490fd5b600080fd5b6040519190601f01601f191682016001600160401b038111838210176200066f57604052565b634e487b7160e01b600052604160045260246000fd5b51906001600160a01b03821682036200064457565b919080601f84011215620006445782516001600160401b0381116200066f57602090620006d0601f8201601f1916830162000649565b92818452828287010111620006445760005b818110620006f857508260009394955001015290565b8581018301518482018401528201620006e256fe60806040818152600436101561001457600080fd5b600091823560e01c90816302d05d3f14611a8e575080630420a22414611a7157806305b3441014611a375780631ca1079914611a19578063200d2ed21461138f57806321701a15146113fa57806328f371aa146113d75780634a79d50c146113ba5780634e69d5601461138f5780635a9b0b8914611245578063715018a6146111eb578063784a6900146110375780637f16ff9e1461101a57806383c0967514610e6b578063854287a814610c745780638da5cb5b14610c4d57806391098ee41461085e57806399c1aadc1461083d578063a36693b114610629578063c24a0f8b146105ef578063c34c08e5146105c3578063c45a015514610580578063d5987a381461054c578063ea8a1af01461029c578063f07c7dc31461027e578063f19d96eb14610260578063f2fde38b146101ca578063faff660e146101a75763fc0c546a1461016157600080fd5b346101a357816003193601126101a357517f00000000000000000000000000000000000000000000000000000000000000006001600160a01b03168152602090f35b5080fd5b50346101a357816003193601126101a35760209060ff6005541690519015158152f35b50346101a35760203660031901126101a3576001600160a01b03600435818116929083900361025c576101fb611ff2565b82156102455750600054826bffffffffffffffffffffffff60a01b821617600055167f8be0079c531659141344cd1fd0a4f28419497f9722a3daafe3b4186f6b6457e0600080a380f35b51631e4fbdf760e01b815260048101849052602490fd5b8380fd5b50346101a357816003193601126101a3576020906004549051908152f35b50346101a357816003193601126101a3576020906008549051908152f35b50346101a357816003193601126101a3577f00000000000000000000000000000000000000000000000000000000000000006001600160a01b0381811692906102e6338514611fb4565b6102ee61201e565b6005549260ff8460081c1693600685101561053857846104e857828160101c166104af5761ff0019166105001760055560048054845163a9059cbb60e01b81526001600160a01b039093169183019190915260248201526020818060448101038189867f0000000000000000000000000000000000000000000000000000000000000000165af19081156104a5579061038e918791610476575b50611f13565b7f0000000000000000000000000000000000000000000000000000000000000000169160ff60055460081c166006811015610462579083929186943b1561045e578251631d8e204760e01b815260ff9283166004820152911660248201529183908390604490829084905af19081156104555750610441575b50807febbecbf8e22c4af8caff6c302d6a9e3afb6e5aba9c78a382543a69e851209c1b91a2600160008051602061206f8339815191525580f35b61044a90611b0b565b6101a3578138610407565b513d84823e3d90fd5b8480fd5b634e487b7160e01b86526021600452602486fd5b610498915060203d60201161049e575b6104908183611b35565b810190611efb565b38610388565b503d610486565b83513d88823e3d90fd5b835162461bcd60e51b81526020600482015260126024820152712cb0903430bc903ab71032b532b1baba37b960711b6044820152606490fd5b835162461bcd60e51b815260206004820152602360248201527f536f6c6f2073652070756564652063616e63656c61722073692065737461204f6044820152622822a760e91b6064820152608490fd5b634e487b7160e01b87526021600452602487fd5b50346101a357816003193601126101a35761057c90610569611d49565b9051918291602083526020830190611de8565b0390f35b50346101a357816003193601126101a357517f00000000000000000000000000000000000000000000000000000000000000006001600160a01b03168152602090f35b50346101a357816003193601126101a357600554905160109190911c6001600160a01b03168152602090f35b50346101a357816003193601126101a357602090517f00000000000000000000000000000000000000000000000000000000000000008152f35b5090346107b657806003193601126107b65761064361201e565b6005549160ff8360081c169260068410156108295761066460028514611ebc565b6008546203f48081018091116108155742106107da5761ff0019166104001760055560048054825163a9059cbb60e01b81527f00000000000000000000000000000000000000000000000000000000000000006001600160a01b03908116938201939093526024810191909152602081604481877f000000000000000000000000000000000000000000000000000000000000000087165af19081156107cd57906107159185916104765750611f13565b7f0000000000000000000000000000000000000000000000000000000000000000169060ff60055460081c169360068510156107b9578394833b1561045e578251631d8e204760e01b815260ff9283166004820152911660248201529183908390604490829084905af190811561045557506107a2575b50600160008051602061206f8339815191525580f35b6107ab90611b0b565b6107b657803861078c565b80fd5b634e487b7160e01b84526021600452602484fd5b50505051903d90823e3d90fd5b815162461bcd60e51b815260206004820152601460248201527354696d656f7574206e6f20616c63616e7a61646f60601b6044820152606490fd5b634e487b7160e01b84526011600452602484fd5b634e487b7160e01b83526021600452602483fd5b50346101a357816003193601126101a35760209060ff600354169051908152f35b50346101a357602080600319360112610c495767ffffffffffffffff9060043582811161045e57610893903690600401611e4b565b93909261089e61201e565b60059081549060ff8260081c169160069283811015610c3557610c01577f0000000000000000000000000000000000000000000000000000000000000000421015610bca578715610b9a5762010000600160b01b0319163360101b62010000600160b01b03161783558611610b86576109178154611ad1565b601f8111610b25575b508686601f8111600114610aa5578061094e928a91610a9a575b508160011b916000199060031b1c19161790565b81555b4260075581549060ff8260081c169181831015610a865761ff00191661010017928390557f00000000000000000000000000000000000000000000000000000000000000006001600160a01b03169260081c60ff1690811015610a725790829188933b1561025c578451631d8e204760e01b815260ff9283166004820152911660248201529082908290604490829084905af18015610a685790869291610a51575b50507fac470955c2d1b04bf1a1bc9e3aecbc595816126af46dde4a7a11839384db743393818351948086528501528284013784818584010152813394601f80199101168101030190a2600160008051602061206f8339815191525580f35b610a5c919250611b0b565b61045e578385386109f3565b83513d84823e3d90fd5b634e487b7160e01b88526021600452602488fd5b634e487b7160e01b89526021600452602489fd5b90508701353861093a565b508188527ff652222313e28459528d920b65115c16c04f3efc82aaedc97be59f3f377c0d3f9087601f1981168a5b88828210610b0c57505010610af2575b5050600186811b018155610951565b860135600019600389901b60f8161c191690553880610ae3565b8a8501358655600190950194938401938b935001610ad3565b816000527ff652222313e28459528d920b65115c16c04f3efc82aaedc97be59f3f377c0d3f601f8801841c810191868910610b7c575b601f01841c01905b818110610b705750610920565b60008155600101610b63565b9091508190610b5b565b634e487b7160e01b87526041600452602487fd5b845162461bcd60e51b815260048101879052600960248201526855524c20766163696160b81b6044820152606490fd5b845162461bcd60e51b815260048101879052601060248201526f436f6e747261746f2076656e6369646f60801b6044820152606490fd5b845162461bcd60e51b815260048101879052600d60248201526c4e6f20646973706f6e69626c6560981b6044820152606490fd5b634e487b7160e01b8a52602160045260248afd5b8280fd5b50346101a357816003193601126101a357905490516001600160a01b039091168152602090f35b5090346107b657602091826003193601126101a357600435610c9461201e565b6001600160a01b03610cc9337f0000000000000000000000000000000000000000000000000000000000000000831614611fb4565b60ff60055460081c166006811015610e57578015908115610e4c575b5015610dfc57848491610cf9841515611f54565b60648551809481936323b872dd60e01b83523360048401523060248401528760448401527f0000000000000000000000000000000000000000000000000000000000000000165af19081156107cd578491610ddf575b5015610da8577fe292d9413bbf8109ebc64ca5578582baebe6ab565efae2f604cf9bbd2638ecdf9293610d856004549283611f91565b90816004558351928352820152a1600160008051602061206f8339815191525580f35b815162461bcd60e51b815260048101859052601060248201526f5472616e736665722066616c6c69646160801b6044820152606490fd5b610df69150853d871161049e576104908183611b35565b38610d4f565b825162461bcd60e51b815260048101869052602360248201527f4e6f2073652070756564652061756d656e74617220656e20657374652065737460448201526261646f60e81b6064820152608490fd5b600191501438610ce5565b634e487b7160e01b85526021600452602485fd5b5090346107b657806003193601126107b6576001600160a01b03610eb2337f0000000000000000000000000000000000000000000000000000000000000000831614611fb4565b6005549260ff8460081c169360068510156107b95760018503610fe35761020060ff9161ff001916179283600555426008557f0000000000000000000000000000000000000000000000000000000000000000169260081c1660068110156107b9578394833b1561045e578251631d8e204760e01b815260ff918216600482015291166024820152838160448183875af18015610fd957908491610fc5575b5050813b15610fc1578280926024835180958193639f029a7160e01b83523060048401525af19081156104555750610fad575b50307f240c264a21c2718c9fc2e96638b07d52c28470ec9d4d069d670cee203e35936a8280a280f35b610fb690611b0b565b6107b6578038610f84565b5050fd5b610fce90611b0b565b610fc1578238610f51565b82513d86823e3d90fd5b815162461bcd60e51b815260206004820152601060248201526f2730b2309038bab2903b30b634b230b960811b6044820152606490fd5b50346101a357816003193601126101a35761057c90610569611caa565b50346101a3576020906020600319360112610c49576001600160a01b0361109a600435611087337f0000000000000000000000000000000000000000000000000000000000000000851614611e7e565b611092811515611f54565b600454611f91565b806004558251928084528594600180546110b381611ad1565b80948801526060906001811690816000146111a05750600114611125575b60208701859052887f000000000000000000000000000000000000000000000000000000000000000087167fc350ac134280a527f410caad1fa322557288c7c758738c97239e0de487798ecb898b038aa280f35b6001895293965087937fb10e2d527612073b26eecdfd717e6a320cf44b4afac2b0732d9fcbe2b7fa0cf65b84861061118d5750505050908301606001939050817fc350ac134280a527f410caad1fa322557288c7c758738c97239e0de487798ecb84386110d1565b8054888701830152948301948201611150565b60ff19166060808a019190915294151560051b880190940197508593507fc350ac134280a527f410caad1fa322557288c7c758738c97239e0de487798ecb92508691503890506110d1565b82346107b657806003193601126107b657611204611ff2565b600080546001600160a01b0319811682556001600160a01b03167f8be0079c531659141344cd1fd0a4f28419497f9722a3daafe3b4186f6b6457e08280a380f35b50346101a357816003193601126101a3576112de9061057c60045460ff600354169260055460018060a01b0360ff6009541691611280611c0b565b966112f861128c611caa565b956112ea611298611d49565b916112a1611b57565b988151809e819e6101a08b7f0000000000000000000000000000000000000000000000000000000000000000168452806020850152830190611de8565b92818403910152611de8565b908a820360608c0152611de8565b957f000000000000000000000000000000000000000000000000000000000000000060808a01527f000000000000000000000000000000000000000000000000000000000000000060a08a015260c089015260e088015260ff8116151561010088015261136f610120880160ff8360081c16611e28565b60101c166101408601521515610160850152838203610180850152611de8565b50346101a357816003193601126101a3576020906113b860ff60055460081c1691518092611e28565bf35b50346101a357816003193601126101a35761057c90610569611c0b565b50346101a357816003193601126101a35760209060ff6009541690519015158152f35b50346101a35760203660031901126101a35767ffffffffffffffff60043581811161025c5761142d903690600401611e4b565b909290611464337f00000000000000000000000000000000000000000000000000000000000000006001600160a01b031614611e7e565b60ff60055460081c169060068210156104625761148360028314611ebc565b840192606085850312611a155784356001600160a01b03811690819003611a115760208601358015159003611a115783860135828111611a0d5786019085601f83011215611a0d578135918383116119f9578890601f19938751986114f0602087601f850116018b611b35565b818a5260208284010111610c4957806020809301838b01378801015230036119be5760ff196009541660ff6020880135151516176009558451918211610b865761153b600a54611ad1565b601f8111611953575b50602090601f83116001146118e7575090806115749288916118dc57508160011b916000199060031b1c19161790565b600a555b6020840135156117d7576005805461ff001916610300179081905560048054845163a9059cbb60e01b815260109390931c6001600160a01b031691830191909152602482015260208180604481010381897f00000000000000000000000000000000000000000000000000000000000000006001600160a01b03165af19081156104a55786916117b8575b50156117855760018060a01b0360055460101c167faad24d8919447735c8907ef8cb19a9a5dd8574f3aec5d471a0f7c540f3836fbf60045484519081528460208201528061165386820188611de8565b0390a25b60ff60055460081c1660068110156104625785907f00000000000000000000000000000000000000000000000000000000000000006001600160a01b03163b156101a3578351631d8e204760e01b815260ff93841660048201529216602483015281604481836001600160a01b037f0000000000000000000000000000000000000000000000000000000000000000165af1801561177b5761173d575b5091611737602092847fc0064232451bbe55312283d0089335d92c1969fd74c200d794b58a485909e6479551948594013515158452806020850152830190611de8565b0390a180f35b6020927fc0064232451bbe55312283d0089335d92c1969fd74c200d794b58a485909e64794929561177061173793611b0b565b9592945092506116f4565b82513d87823e3d90fd5b815162461bcd60e51b815260206004820152600c60248201526b5061676f2066616c6c69646f60a01b6044820152606490fd5b6117d1915060203d60201161049e576104908183611b35565b38611603565b6005805461ff00191661040017905560048054835163a9059cbb60e01b81526001600160a01b037f0000000000000000000000000000000000000000000000000000000000000000908116938201939093526024810191909152602081806044810103818a7f00000000000000000000000000000000000000000000000000000000000000006001600160a01b03165af19081156118d257906118809188916104765750611f13565b6004548351908152602081018490526001600160a01b03909116907f3a517193a06765ea79d9cb63f96b9d44c526404623f094614bc45a2de3e9dd3b90806118ca81870188611de8565b0390a2611657565b84513d89823e3d90fd5b90508501513861093a565b821690600a885260008051602061204f83398151915291885b81811061193b57509083600194939210611922575b5050811b01600a55611578565b86015160001960f88460031b161c191690553880611915565b9192602060018192868b015181550194019201611900565b600a8852601f830160051c60008051602061204f8339815191520190602084106119a8575b601f0160051c60008051602061204f83398151915201905b81811061199d5750611544565b888155600101611990565b60008051602061204f8339815191529150611978565b835162461bcd60e51b815260206004820152601460248201527352657370756573746120696e636f72726563746160601b6044820152606490fd5b634e487b7160e01b89526041600452602489fd5b8780fd5b8680fd5b8580fd5b50346101a357816003193601126101a3576020906007549051908152f35b50346101a357816003193601126101a357602090517f00000000000000000000000000000000000000000000000000000000000000008152f35b50346101a357816003193601126101a35761057c90610569611b57565b8390346101a357816003193601126101a3577f00000000000000000000000000000000000000000000000000000000000000006001600160a01b03168152602090f35b90600182811c92168015611b01575b6020831014611aeb57565b634e487b7160e01b600052602260045260246000fd5b91607f1691611ae0565b67ffffffffffffffff8111611b1f57604052565b634e487b7160e01b600052604160045260246000fd5b90601f8019910116810190811067ffffffffffffffff821117611b1f57604052565b60405190600082600a5491611b6b83611ad1565b80835292602090600190818116908115611be75750600114611b98575b5050611b9692500383611b35565b565b915092600a60005260008051602061204f833981519152936000925b828410611bcf5750611b969450505081016020013880611b88565b85548885018301529485019487945092810192611bb4565b91505060209250611b9694915060ff191682840152151560051b8201013880611b88565b60405190600082600191600154611c2181611ad1565b8084529360209160018116908115611be75750600114611c49575050611b9692500383611b35565b91509260016000527fb10e2d527612073b26eecdfd717e6a320cf44b4afac2b0732d9fcbe2b7fa0cf6936000925b828410611c925750611b969450505081016020013880611b88565b85548885018301529485019487945092810192611c77565b6040519060008260025491611cbe83611ad1565b80835292602090600190818116908115611be75750600114611ce8575050611b9692500383611b35565b91509260026000527f405787fa12a823e0f2b7631cc41b3ba8828b3321ca811111fa75cd3aa3bb5ace936000925b828410611d315750611b969450505081016020013880611b88565b85548885018301529485019487945092810192611d16565b6040519060008260065491611d5d83611ad1565b80835292602090600190818116908115611be75750600114611d87575050611b9692500383611b35565b91509260066000527ff652222313e28459528d920b65115c16c04f3efc82aaedc97be59f3f377c0d3f936000925b828410611dd05750611b969450505081016020013880611b88565b85548885018301529485019487945092810192611db5565b919082519283825260005b848110611e14575050826000602080949584010152601f8019910116010190565b602081830181015184830182015201611df3565b906006821015611e355752565b634e487b7160e01b600052602160045260246000fd5b9181601f84011215611e795782359167ffffffffffffffff8311611e795760208381860195010111611e7957565b600080fd5b15611e8557565b60405162461bcd60e51b815260206004820152600f60248201526e536f6c6f206c6120666163746f727960881b6044820152606490fd5b15611ec357565b60405162461bcd60e51b815260206004820152601060248201526f27379032b7103b30b634b230b1b4b7b760811b6044820152606490fd5b90816020910312611e7957518015158103611e795790565b15611f1a57565b60405162461bcd60e51b81526020600482015260126024820152714465766f6c7563696f6e2066616c6c69646160701b6044820152606490fd5b15611f5b57565b60405162461bcd60e51b815260206004820152600e60248201526d4d6f6e746f20696e76616c69646f60901b6044820152606490fd5b91908201809211611f9e57565b634e487b7160e01b600052601160045260246000fd5b15611fbb57565b60405162461bcd60e51b815260206004820152600f60248201526e29b7b6379032b61031b932b0b237b960891b6044820152606490fd5b6000546001600160a01b0316330361200657565b60405163118cdaa760e01b8152336004820152602490fd5b60008051602061206f833981519152600281541461203c5760029055565b604051633ee5aeb560e01b8152600490fdfec65a7bb8d6351c1cf70c95a316cc6a92839c986682d98bc35f958f4883f9d2a89b779b17422d0df92223018b32b4d1fa46e071723d6817e2486d003becc55f00a2646970667358221220ed04bd0530978470f0989d36a435f4b3e1c9c62d26db4305cad98716039dc97264736f6c63430008160033a2646970667358221220053f6aaffc85f4ed20d2447aed96b6f670e96a0ea8ed7158353319628dd53f6264736f6c63430008160033","opcodes":"PUSH1 0xA0 CALLVALUE PUSH2 0x116 JUMPI PUSH1 0x1F PUSH2 0x4208 CODESIZE DUP2 SWAP1 SUB SWAP2 DUP3 ADD PUSH1 0x1F NOT AND DUP4 ADD SWAP2 PUSH1 0x1 PUSH1 0x1 PUSH1 0x40 SHL SUB DUP4 GT DUP5 DUP5 LT OR PUSH2 0x11B JUMPI DUP1 DUP5 SWAP3 PUSH1 0x20 SWAP5 PUSH1 0x40 MSTORE DUP4 CODECOPY DUP2 ADD SUB SLT PUSH2 0x116 JUMPI MLOAD PUSH1 0x1 PUSH1 0x1 PUSH1 0xA0 SHL SUB DUP1 DUP3 AND DUP1 DUP4 SUB PUSH2 0x116 JUMPI CALLER ISZERO PUSH2 0xFD JUMPI PUSH1 0x0 SLOAD CALLER PUSH1 0x1 DUP1 PUSH1 0xA0 SHL SUB NOT DUP3 AND OR PUSH1 0x0 SSTORE PUSH1 0x40 MLOAD SWAP3 CALLER SWAP2 AND PUSH32 0x8BE0079C531659141344CD1FD0A4F28419497F9722A3DAAFE3B4186F6B6457E0 PUSH1 0x0 DUP1 LOG3 ISZERO PUSH2 0xCB JUMPI POP PUSH1 0x80 MSTORE PUSH1 0x40 MLOAD PUSH2 0x40D6 SWAP1 DUP2 PUSH2 0x132 DUP3 CODECOPY PUSH1 0x80 MLOAD DUP2 DUP2 DUP2 PUSH2 0x403 ADD MSTORE DUP2 DUP2 PUSH2 0x4C0 ADD MSTORE DUP2 DUP2 PUSH2 0x546 ADD MSTORE PUSH2 0x14BC ADD MSTORE RETURN JUMPDEST PUSH3 0x461BCD PUSH1 0xE5 SHL DUP2 MSTORE PUSH1 0x20 PUSH1 0x4 DUP3 ADD MSTORE PUSH1 0xD PUSH1 0x24 DUP3 ADD MSTORE PUSH13 0x5553444320696E76616C69646F PUSH1 0x98 SHL PUSH1 0x44 DUP3 ADD MSTORE PUSH1 0x64 SWAP1 REVERT JUMPDEST PUSH1 0x40 MLOAD PUSH4 0x1E4FBDF7 PUSH1 0xE0 SHL DUP2 MSTORE PUSH1 0x0 PUSH1 0x4 DUP3 ADD MSTORE PUSH1 0x24 SWAP1 REVERT JUMPDEST PUSH1 0x0 DUP1 REVERT JUMPDEST PUSH4 0x4E487B71 PUSH1 0xE0 SHL PUSH1 0x0 MSTORE PUSH1 0x41 PUSH1 0x4 MSTORE PUSH1 0x24 PUSH1 0x0 REVERT INVALID PUSH1 0x80 DUP1 PUSH1 0x40 MSTORE PUSH1 0x4 CALLDATASIZE LT ISZERO PUSH3 0x14 JUMPI PUSH1 0x0 DUP1 REVERT JUMPDEST PUSH1 0x0 SWAP1 DUP2 CALLDATALOAD PUSH1 0xE0 SHR SWAP1 DUP2 PUSH4 0x80B0A6B EQ PUSH3 0x1516 JUMPI POP DUP1 PUSH4 0xA208972 EQ PUSH3 0x14EB JUMPI DUP1 PUSH4 0x11EAC855 EQ PUSH3 0x14A4 JUMPI DUP1 PUSH4 0x15E9F2B9 EQ PUSH3 0x141E JUMPI DUP1 PUSH4 0x1D8E2047 EQ PUSH3 0x12B8 JUMPI DUP1 PUSH4 0x470CBABF EQ PUSH3 0xA0D JUMPI DUP1 PUSH4 0x715018A6 EQ PUSH3 0x125A JUMPI DUP1 PUSH4 0x790B85AB EQ PUSH3 0x11D4 JUMPI DUP1 PUSH4 0x89964F05 EQ PUSH3 0x1175 JUMPI DUP1 PUSH4 0x8DA5CB5B EQ PUSH3 0x114C JUMPI DUP1 PUSH4 0x95E3A71E EQ PUSH3 0x10C6 JUMPI DUP1 PUSH4 0x9B97CEE5 EQ PUSH3 0x10A6 JUMPI DUP1 PUSH4 0x9F029A71 EQ PUSH3 0xD73 JUMPI DUP1 PUSH4 0xA489D267 EQ PUSH3 0xB94 JUMPI DUP1 PUSH4 0xADCE13D5 EQ PUSH3 0xB35 JUMPI DUP1 PUSH4 0xB82BAA4E EQ PUSH3 0xAAF JUMPI DUP1 PUSH4 0xBF110E41 EQ PUSH3 0xA50 JUMPI DUP1 PUSH4 0xC0B768B0 EQ PUSH3 0xA0D JUMPI DUP1 PUSH4 0xD044E81F EQ PUSH3 0x95E JUMPI DUP1 PUSH4 0xDB88417D EQ PUSH3 0x8FF JUMPI DUP1 PUSH4 0xDC2F2DF7 EQ PUSH3 0x33B JUMPI DUP1 PUSH4 0xE3C983F7 EQ PUSH3 0x2DC JUMPI DUP1 PUSH4 0xED0BBC56 EQ PUSH3 0x245 JUMPI DUP1 PUSH4 0xF2FDE38B EQ PUSH3 0x1B3 JUMPI PUSH4 0xFE43AB27 EQ PUSH3 0x14E JUMPI PUSH1 0x0 DUP1 REVERT JUMPDEST CALLVALUE PUSH3 0x1B0 JUMPI PUSH1 0x20 CALLDATASIZE PUSH1 0x3 NOT ADD SLT PUSH3 0x1B0 JUMPI PUSH1 0x4 CALLDATALOAD PUSH1 0x6 SLOAD DUP2 LT ISZERO PUSH3 0x1AC JUMPI PUSH1 0x6 PUSH1 0x0 MSTORE PUSH32 0xF652222313E28459528D920B65115C16C04F3EFC82AAEDC97BE59F3F377C0D3F ADD SLOAD PUSH1 0x40 MLOAD PUSH1 0x1 PUSH1 0x1 PUSH1 0xA0 SHL SUB SWAP1 SWAP2 AND DUP2 MSTORE PUSH1 0x20 SWAP1 RETURN JUMPDEST POP DUP1 REVERT JUMPDEST DUP1 REVERT JUMPDEST POP CALLVALUE PUSH3 0x1B0 JUMPI PUSH1 0x20 CALLDATASIZE PUSH1 0x3 NOT ADD SLT PUSH3 0x1B0 JUMPI PUSH3 0x1D1 PUSH3 0x1553 JUMP JUMPDEST PUSH3 0x1DB PUSH3 0x1845 JUMP JUMPDEST PUSH1 0x1 PUSH1 0x1 PUSH1 0xA0 SHL SUB SWAP1 DUP2 AND SWAP1 DUP2 ISZERO PUSH3 0x22C JUMPI PUSH1 0x0 SLOAD DUP3 PUSH1 0x1 PUSH1 0x1 PUSH1 0x60 SHL SUB PUSH1 0xA0 SHL DUP3 AND OR PUSH1 0x0 SSTORE AND PUSH32 0x8BE0079C531659141344CD1FD0A4F28419497F9722A3DAAFE3B4186F6B6457E0 PUSH1 0x0 DUP1 LOG3 DUP1 RETURN JUMPDEST PUSH1 0x40 MLOAD PUSH4 0x1E4FBDF7 PUSH1 0xE0 SHL DUP2 MSTORE PUSH1 0x4 DUP2 ADD DUP5 SWAP1 MSTORE PUSH1 0x24 SWAP1 REVERT JUMPDEST POP CALLVALUE PUSH3 0x1B0 JUMPI DUP1 PUSH1 0x3 NOT CALLDATASIZE ADD SLT PUSH3 0x1B0 JUMPI PUSH1 0x40 MLOAD PUSH1 0x5 DUP1 SLOAD DUP1 DUP4 MSTORE SWAP1 DUP4 MSTORE PUSH1 0x20 DUP1 DUP4 ADD SWAP4 PUSH32 0x36B6384B5ECA791C62761152D0C79BB0604C104A5FB6F4EB0703F3154BB3DB0 SWAP3 SWAP2 JUMPDEST DUP3 DUP3 LT PUSH3 0x2BB JUMPI PUSH3 0x2B7 DUP6 PUSH3 0x2AA DUP2 DUP10 SUB DUP3 PUSH3 0x15DF JUMP JUMPDEST PUSH1 0x40 MLOAD SWAP2 DUP3 SWAP2 DUP3 PUSH3 0x156A JUMP JUMPDEST SUB SWAP1 RETURN JUMPDEST DUP4 SLOAD PUSH1 0x1 PUSH1 0x1 PUSH1 0xA0 SHL SUB AND DUP7 MSTORE SWAP5 DUP6 ADD SWAP5 PUSH1 0x1 SWAP4 DUP5 ADD SWAP4 SWAP1 SWAP2 ADD SWAP1 PUSH3 0x28F JUMP JUMPDEST POP CALLVALUE PUSH3 0x1B0 JUMPI PUSH1 0x20 CALLDATASIZE PUSH1 0x3 NOT ADD SLT PUSH3 0x1B0 JUMPI PUSH1 0x4 CALLDATALOAD PUSH1 0x2 SLOAD DUP2 LT ISZERO PUSH3 0x1AC JUMPI PUSH1 0x2 PUSH1 0x0 MSTORE PUSH32 0x405787FA12A823E0F2B7631CC41B3BA8828B3321CA811111FA75CD3AA3BB5ACE ADD SLOAD PUSH1 0x40 MLOAD PUSH1 0x1 PUSH1 0x1 PUSH1 0xA0 SHL SUB SWAP1 SWAP2 AND DUP2 MSTORE PUSH1 0x20 SWAP1 RETURN JUMPDEST POP CALLVALUE PUSH3 0x1B0 JUMPI PUSH1 0xC0 CALLDATASIZE PUSH1 0x3 NOT ADD SLT PUSH3 0x1B0 JUMPI PUSH1 0x4 CALLDATALOAD PUSH8 0xFFFFFFFFFFFFFFFF DUP2 GT PUSH3 0x1AC JUMPI PUSH3 0x372 SWAP1 CALLDATASIZE SWAP1 PUSH1 0x4 ADD PUSH3 0x165B JUMP JUMPDEST PUSH1 0x24 CALLDATALOAD PUSH8 0xFFFFFFFFFFFFFFFF DUP2 GT PUSH3 0x72E JUMPI PUSH3 0x395 SWAP1 CALLDATASIZE SWAP1 PUSH1 0x4 ADD PUSH3 0x165B JUMP JUMPDEST PUSH1 0x84 CALLDATALOAD PUSH1 0xFF DUP2 AND DUP2 SUB PUSH3 0x8FA JUMPI PUSH1 0xA4 CALLDATALOAD DUP1 ISZERO ISZERO DUP2 SUB PUSH3 0x8F6 JUMPI PUSH1 0x44 CALLDATALOAD ISZERO PUSH3 0x8BF JUMPI TIMESTAMP PUSH1 0x64 CALLDATALOAD GT ISZERO PUSH3 0x889 JUMPI PUSH1 0x3 PUSH1 0xFF DUP4 AND LT ISZERO DUP1 PUSH3 0x87A JUMPI JUMPDEST ISZERO PUSH3 0x843 JUMPI PUSH1 0x40 MLOAD PUSH4 0x23B872DD PUSH1 0xE0 SHL DUP2 MSTORE CALLER PUSH1 0x4 DUP3 ADD MSTORE ADDRESS PUSH1 0x24 DUP3 ADD MSTORE PUSH1 0x44 DUP1 CALLDATALOAD SWAP1 DUP3 ADD MSTORE PUSH1 0x20 DUP2 PUSH1 0x64 DUP2 DUP10 PUSH32 0x0 PUSH1 0x1 PUSH1 0x1 PUSH1 0xA0 SHL SUB AND GAS CALL SWAP1 DUP2 ISZERO PUSH3 0x838 JUMPI DUP7 SWAP2 PUSH3 0x814 JUMPI JUMPDEST POP ISZERO PUSH3 0x7D7 JUMPI PUSH1 0x40 MLOAD SWAP3 DUP4 PUSH2 0x27D1 DUP2 ADD LT PUSH8 0xFFFFFFFFFFFFFFFF PUSH2 0x27D1 DUP7 ADD GT OR PUSH3 0x7C3 JUMPI SWAP1 PUSH1 0xFF PUSH3 0x4AE DUP6 SWAP5 SWAP4 PUSH2 0x27D1 PUSH3 0x18D0 DUP8 CODECOPY CALLER PUSH2 0x27D1 DUP8 ADD SWAP1 DUP2 MSTORE PUSH2 0x100 PUSH1 0x20 DUP3 ADD DUP2 SWAP1 MSTORE PUSH3 0x497 SWAP2 ADD DUP10 PUSH3 0x170A JUMP JUMPDEST SWAP1 PUSH2 0x27D1 DUP8 ADD DUP3 SUB PUSH1 0x40 PUSH2 0x27D1 DUP10 ADD ADD MSTORE PUSH3 0x170A JUMP JUMPDEST PUSH1 0x64 CALLDATALOAD PUSH2 0x27D1 DUP7 ADD PUSH1 0x60 DUP2 ADD SWAP2 SWAP1 SWAP2 MSTORE PUSH32 0x0 PUSH1 0x1 PUSH1 0x1 PUSH1 0xA0 SHL SUB AND PUSH1 0x80 DUP3 ADD MSTORE ADDRESS PUSH1 0xA0 DUP3 ADD MSTORE SWAP2 SWAP1 SWAP4 AND PUSH1 0xC0 DUP3 ADD MSTORE SWAP1 ISZERO ISZERO PUSH1 0xE0 SWAP1 SWAP2 ADD MSTORE SUB SWAP1 DUP4 CREATE DUP1 ISZERO PUSH3 0x732 JUMPI PUSH1 0x40 MLOAD PUSH4 0xA9059CBB PUSH1 0xE0 SHL DUP2 MSTORE PUSH1 0x1 PUSH1 0x1 PUSH1 0xA0 SHL SUB SWAP2 DUP3 AND PUSH1 0x4 DUP3 ADD DUP2 SWAP1 MSTORE PUSH1 0x44 DUP1 CALLDATALOAD PUSH1 0x24 DUP5 ADD MSTORE SWAP1 SWAP4 SWAP3 PUSH1 0x20 SWAP2 DUP4 SWAP2 DUP3 SWAP1 DUP9 SWAP1 PUSH32 0x0 AND GAS CALL SWAP1 DUP2 ISZERO PUSH3 0x7B8 JUMPI DUP5 SWAP2 PUSH3 0x782 JUMPI JUMPDEST POP ISZERO PUSH3 0x73D JUMPI DUP2 EXTCODESIZE ISZERO PUSH3 0x72E JUMPI PUSH1 0x40 MLOAD PUSH3 0x784A69 PUSH1 0xE8 SHL DUP2 MSTORE PUSH1 0x44 CALLDATALOAD PUSH1 0x4 DUP3 ADD MSTORE DUP4 SWAP1 DUP2 DUP2 PUSH1 0x24 DUP2 DUP4 DUP9 GAS CALL DUP1 ISZERO PUSH3 0x732 JUMPI PUSH3 0x716 JUMPI JUMPDEST POP POP PUSH1 0x2 SLOAD SWAP3 PUSH1 0x1 PUSH1 0x40 SHL DUP1 DUP6 LT ISZERO PUSH3 0x700 JUMPI PUSH1 0x1 DUP6 ADD DUP1 PUSH1 0x2 SSTORE DUP6 LT ISZERO PUSH3 0x6EA JUMPI PUSH1 0x40 SWAP5 PUSH1 0x2 PUSH1 0x0 MSTORE PUSH32 0x405787FA12A823E0F2B7631CC41B3BA8828B3321CA811111FA75CD3AA3BB5ACE ADD SWAP2 PUSH1 0x1 PUSH1 0x1 PUSH1 0x60 SHL SUB PUSH1 0xA0 SHL SWAP3 DUP6 DUP5 DUP3 SLOAD AND OR SWAP1 SSTORE DUP5 DUP2 MSTORE PUSH1 0x3 PUSH1 0x20 MSTORE DUP6 DUP2 KECCAK256 PUSH1 0x1 PUSH1 0xFF NOT DUP3 SLOAD AND OR SWAP1 SSTORE PUSH1 0x4 PUSH1 0x20 MSTORE DUP6 DUP2 KECCAK256 CALLER DUP5 DUP3 SLOAD AND OR SWAP1 SSTORE PUSH1 0x5 SLOAD SWAP6 DUP7 SWAP2 PUSH1 0xA PUSH1 0x20 MSTORE KECCAK256 SSTORE DUP5 LT ISZERO PUSH3 0x700 JUMPI PUSH1 0x1 DUP5 ADD DUP1 PUSH1 0x5 SSTORE DUP5 LT ISZERO PUSH3 0x6EA JUMPI DUP3 PUSH1 0x20 SWAP5 PUSH1 0x5 PUSH1 0x0 MSTORE PUSH32 0x36B6384B5ECA791C62761152D0C79BB0604C104A5FB6F4EB0703F3154BB3DB0 ADD SWAP2 DUP3 SLOAD AND OR SWAP1 SSTORE DUP2 PUSH32 0x631B4D3CBA5CA277460BDC15D2C8E6F20B2C5EE0C41612B066675D0FDD117545 PUSH3 0x6CC PUSH1 0x40 MLOAD SWAP4 PUSH1 0x60 DUP6 MSTORE PUSH1 0x60 DUP6 ADD SWAP1 PUSH3 0x170A JUMP JUMPDEST SWAP3 PUSH1 0x44 CALLDATALOAD DUP7 DUP3 ADD MSTORE PUSH1 0x64 CALLDATALOAD PUSH1 0x40 DUP3 ADD MSTORE DUP1 CALLER SWAP5 SUB SWAP1 LOG3 PUSH1 0x40 MLOAD SWAP1 DUP2 MSTORE RETURN JUMPDEST PUSH4 0x4E487B71 PUSH1 0xE0 SHL PUSH1 0x0 MSTORE PUSH1 0x32 PUSH1 0x4 MSTORE PUSH1 0x24 PUSH1 0x0 REVERT JUMPDEST PUSH4 0x4E487B71 PUSH1 0xE0 SHL PUSH1 0x0 MSTORE PUSH1 0x41 PUSH1 0x4 MSTORE PUSH1 0x24 PUSH1 0x0 REVERT JUMPDEST PUSH3 0x721 SWAP1 PUSH3 0x15CA JUMP JUMPDEST PUSH3 0x72E JUMPI DUP3 CODESIZE PUSH3 0x5B3 JUMP JUMPDEST DUP3 DUP1 REVERT JUMPDEST PUSH1 0x40 MLOAD RETURNDATASIZE DUP5 DUP3 RETURNDATACOPY RETURNDATASIZE SWAP1 REVERT JUMPDEST PUSH1 0x40 MLOAD PUSH3 0x461BCD PUSH1 0xE5 SHL DUP2 MSTORE PUSH1 0x20 PUSH1 0x4 DUP3 ADD MSTORE PUSH1 0x1B PUSH1 0x24 DUP3 ADD MSTORE PUSH32 0x5472616E73666572206120636F6E747261746F2066616C6C6964610000000000 PUSH1 0x44 DUP3 ADD MSTORE PUSH1 0x64 SWAP1 REVERT JUMPDEST PUSH3 0x7A9 SWAP2 POP PUSH1 0x20 RETURNDATASIZE PUSH1 0x20 GT PUSH3 0x7B0 JUMPI JUMPDEST PUSH3 0x7A0 DUP2 DUP4 PUSH3 0x15DF JUMP JUMPDEST DUP2 ADD SWAP1 PUSH3 0x1731 JUMP JUMPDEST CODESIZE PUSH3 0x578 JUMP JUMPDEST POP RETURNDATASIZE PUSH3 0x794 JUMP JUMPDEST PUSH1 0x40 MLOAD RETURNDATASIZE DUP7 DUP3 RETURNDATACOPY RETURNDATASIZE SWAP1 REVERT JUMPDEST PUSH4 0x4E487B71 PUSH1 0xE0 SHL DUP7 MSTORE PUSH1 0x41 PUSH1 0x4 MSTORE PUSH1 0x24 DUP7 REVERT JUMPDEST PUSH1 0x40 MLOAD PUSH3 0x461BCD PUSH1 0xE5 SHL DUP2 MSTORE PUSH1 0x20 PUSH1 0x4 DUP3 ADD MSTORE PUSH1 0x15 PUSH1 0x24 DUP3 ADD MSTORE PUSH21 0x55534443207472616E736665722066616C6C696461 PUSH1 0x58 SHL PUSH1 0x44 DUP3 ADD MSTORE PUSH1 0x64 SWAP1 REVERT JUMPDEST PUSH3 0x831 SWAP2 POP PUSH1 0x20 RETURNDATASIZE PUSH1 0x20 GT PUSH3 0x7B0 JUMPI PUSH3 0x7A0 DUP2 DUP4 PUSH3 0x15DF JUMP JUMPDEST CODESIZE PUSH3 0x43D JUMP JUMPDEST PUSH1 0x40 MLOAD RETURNDATASIZE DUP9 DUP3 RETURNDATACOPY RETURNDATASIZE SWAP1 REVERT JUMPDEST PUSH1 0x40 MLOAD PUSH3 0x461BCD PUSH1 0xE5 SHL DUP2 MSTORE PUSH1 0x20 PUSH1 0x4 DUP3 ADD MSTORE PUSH1 0xF PUSH1 0x24 DUP3 ADD MSTORE PUSH15 0x556D6272616C20696E76616C69646F PUSH1 0x88 SHL PUSH1 0x44 DUP3 ADD MSTORE PUSH1 0x64 SWAP1 REVERT JUMPDEST POP PUSH1 0x5 PUSH1 0xFF DUP4 AND GT ISZERO PUSH3 0x3D3 JUMP JUMPDEST PUSH1 0x40 MLOAD PUSH3 0x461BCD PUSH1 0xE5 SHL DUP2 MSTORE PUSH1 0x20 PUSH1 0x4 DUP3 ADD MSTORE PUSH1 0xE PUSH1 0x24 DUP3 ADD MSTORE PUSH14 0x466563686120696E76616C696461 PUSH1 0x90 SHL PUSH1 0x44 DUP3 ADD MSTORE PUSH1 0x64 SWAP1 REVERT JUMPDEST PUSH1 0x40 MLOAD PUSH3 0x461BCD PUSH1 0xE5 SHL DUP2 MSTORE PUSH1 0x20 PUSH1 0x4 DUP3 ADD MSTORE PUSH1 0xF PUSH1 0x24 DUP3 ADD MSTORE PUSH15 0x426F756E747920696E76616C69646F PUSH1 0x88 SHL PUSH1 0x44 DUP3 ADD MSTORE PUSH1 0x64 SWAP1 REVERT JUMPDEST DUP5 DUP1 REVERT JUMPDEST PUSH1 0x0 DUP1 REVERT JUMPDEST POP CALLVALUE PUSH3 0x1B0 JUMPI PUSH1 0x20 CALLDATASIZE PUSH1 0x3 NOT ADD SLT PUSH3 0x1B0 JUMPI PUSH1 0x4 CALLDATALOAD PUSH1 0x9 SLOAD DUP2 LT ISZERO PUSH3 0x1AC JUMPI PUSH1 0x9 PUSH1 0x0 MSTORE PUSH32 0x6E1540171B6C0C960B71A7020D9F60077F6AF931A8BBF590DA0223DACF75C7AF ADD SLOAD PUSH1 0x40 MLOAD PUSH1 0x1 PUSH1 0x1 PUSH1 0xA0 SHL SUB SWAP1 SWAP2 AND DUP2 MSTORE PUSH1 0x20 SWAP1 RETURN JUMPDEST POP CALLVALUE PUSH3 0x1B0 JUMPI PUSH1 0x20 CALLDATASIZE PUSH1 0x3 NOT ADD SLT PUSH3 0x1B0 JUMPI PUSH3 0x97C PUSH3 0x1553 JUMP JUMPDEST PUSH3 0x986 PUSH3 0x1845 JUMP JUMPDEST PUSH1 0x1 PUSH1 0x1 PUSH1 0xA0 SHL SUB SWAP1 DUP2 AND SWAP1 DUP2 ISZERO PUSH3 0x9D6 JUMPI PUSH1 0x1 SLOAD DUP3 PUSH1 0x1 PUSH1 0x1 PUSH1 0x60 SHL SUB PUSH1 0xA0 SHL DUP3 AND OR PUSH1 0x1 SSTORE AND PUSH32 0xA8803D9E6A41A59E9581926A91F2DFBEBEB38D9DEC8366511C6D5906F4DF91FD DUP4 DUP1 LOG3 DUP1 RETURN JUMPDEST PUSH1 0x40 MLOAD PUSH3 0x461BCD PUSH1 0xE5 SHL DUP2 MSTORE PUSH1 0x20 PUSH1 0x4 DUP3 ADD MSTORE PUSH1 0xF PUSH1 0x24 DUP3 ADD MSTORE PUSH15 0x42726964676520696E76616C69646F PUSH1 0x88 SHL PUSH1 0x44 DUP3 ADD MSTORE PUSH1 0x64 SWAP1 REVERT JUMPDEST POP CALLVALUE PUSH3 0x1B0 JUMPI PUSH1 0x20 CALLDATASIZE PUSH1 0x3 NOT ADD SLT PUSH3 0x1B0 JUMPI PUSH1 0x20 SWAP1 PUSH1 0xFF SWAP1 PUSH1 0x40 SWAP1 PUSH1 0x1 PUSH1 0x1 PUSH1 0xA0 SHL SUB PUSH3 0xA3C PUSH3 0x1553 JUMP JUMPDEST AND DUP2 MSTORE PUSH1 0x3 DUP5 MSTORE KECCAK256 SLOAD AND PUSH1 0x40 MLOAD SWAP1 ISZERO ISZERO DUP2 MSTORE RETURN JUMPDEST POP CALLVALUE PUSH3 0x1B0 JUMPI PUSH1 0x20 CALLDATASIZE PUSH1 0x3 NOT ADD SLT PUSH3 0x1B0 JUMPI PUSH1 0x4 CALLDATALOAD PUSH1 0x5 SLOAD DUP2 LT ISZERO PUSH3 0x1AC JUMPI PUSH1 0x5 PUSH1 0x0 MSTORE PUSH32 0x36B6384B5ECA791C62761152D0C79BB0604C104A5FB6F4EB0703F3154BB3DB0 ADD SLOAD PUSH1 0x40 MLOAD PUSH1 0x1 PUSH1 0x1 PUSH1 0xA0 SHL SUB SWAP1 SWAP2 AND DUP2 MSTORE PUSH1 0x20 SWAP1 RETURN JUMPDEST POP CALLVALUE PUSH3 0x1B0 JUMPI DUP1 PUSH1 0x3 NOT CALLDATASIZE ADD SLT PUSH3 0x1B0 JUMPI PUSH1 0x40 MLOAD PUSH1 0x6 DUP1 SLOAD DUP1 DUP4 MSTORE SWAP1 DUP4 MSTORE PUSH1 0x20 DUP1 DUP4 ADD SWAP4 PUSH32 0xF652222313E28459528D920B65115C16C04F3EFC82AAEDC97BE59F3F377C0D3F SWAP3 SWAP2 JUMPDEST DUP3 DUP3 LT PUSH3 0xB14 JUMPI PUSH3 0x2B7 DUP6 PUSH3 0x2AA DUP2 DUP10 SUB DUP3 PUSH3 0x15DF JUMP JUMPDEST DUP4 SLOAD PUSH1 0x1 PUSH1 0x1 PUSH1 0xA0 SHL SUB AND DUP7 MSTORE SWAP5 DUP6 ADD SWAP5 PUSH1 0x1 SWAP4 DUP5 ADD SWAP4 SWAP1 SWAP2 ADD SWAP1 PUSH3 0xAF9 JUMP JUMPDEST POP CALLVALUE PUSH3 0x1B0 JUMPI PUSH1 0x20 CALLDATASIZE PUSH1 0x3 NOT ADD SLT PUSH3 0x1B0 JUMPI PUSH1 0x4 CALLDATALOAD PUSH1 0x8 SLOAD DUP2 LT ISZERO PUSH3 0x1AC JUMPI PUSH1 0x8 PUSH1 0x0 MSTORE PUSH32 0xF3F7A9FE364FAAB93B216DA50A3214154F22A0A2B415B23A84C8169E8B636EE3 ADD SLOAD PUSH1 0x40 MLOAD PUSH1 0x1 PUSH1 0x1 PUSH1 0xA0 SHL SUB SWAP1 SWAP2 AND DUP2 MSTORE PUSH1 0x20 SWAP1 RETURN JUMPDEST POP CALLVALUE PUSH3 0x1B0 JUMPI PUSH1 0x60 CALLDATASIZE PUSH1 0x3 NOT ADD SLT PUSH3 0x1B0 JUMPI PUSH1 0x4 CALLDATALOAD PUSH4 0xFFFFFFFF DUP2 AND SUB PUSH3 0x1B0 JUMPI PUSH1 0x1 PUSH1 0x1 PUSH1 0xA0 SHL SUB SWAP1 PUSH1 0x24 DUP1 CALLDATALOAD DUP4 DUP2 AND SUB PUSH3 0x1AC JUMPI PUSH1 0x44 CALLDATALOAD PUSH8 0xFFFFFFFFFFFFFFFF DUP1 DUP3 GT PUSH3 0xD30 JUMPI CALLDATASIZE PUSH1 0x23 DUP4 ADD SLT ISZERO PUSH3 0xD30 JUMPI DUP2 PUSH1 0x4 ADD CALLDATALOAD DUP2 DUP2 GT PUSH3 0x8F6 JUMPI DUP3 ADD SWAP2 DUP4 DUP4 ADD SWAP3 CALLDATASIZE DUP5 GT PUSH3 0xD6F JUMPI DUP7 PUSH1 0x1 SLOAD AND CALLER SUB PUSH3 0xD34 JUMPI DUP2 PUSH1 0x40 SWAP2 SUB SLT PUSH3 0x8F6 JUMPI DUP4 DUP2 ADD CALLDATALOAD SWAP6 DUP7 AND DUP1 SWAP7 SUB PUSH3 0x8F6 JUMPI PUSH1 0x44 DUP2 ADD CALLDATALOAD SWAP2 DUP3 GT PUSH3 0x8F6 JUMPI ADD DUP2 PUSH1 0x43 DUP3 ADD SLT ISZERO PUSH3 0xD30 JUMPI SWAP1 DUP2 PUSH1 0x44 DUP5 PUSH3 0xC5E SWAP5 ADD CALLDATALOAD SWAP2 ADD PUSH3 0x161F JUMP JUMPDEST SWAP1 DUP4 DUP4 MSTORE PUSH1 0x3 PUSH1 0x20 MSTORE PUSH1 0xFF PUSH1 0x40 DUP5 KECCAK256 SLOAD AND ISZERO PUSH3 0xCF5 JUMPI DUP4 EXTCODESIZE ISZERO PUSH3 0x72E JUMPI PUSH1 0x40 MLOAD PUSH4 0x21701A15 PUSH1 0xE0 SHL DUP2 MSTORE PUSH1 0x20 PUSH1 0x4 DUP3 ADD MSTORE SWAP2 DUP4 SWAP2 DUP4 SWAP2 DUP3 SWAP2 PUSH3 0xCA7 SWAP2 SWAP1 DUP4 ADD SWAP1 PUSH3 0x170A JUMP JUMPDEST SUB DUP2 DUP4 DUP8 GAS CALL DUP1 ISZERO PUSH3 0x732 JUMPI PUSH3 0xCE3 JUMPI JUMPDEST POP SWAP1 PUSH32 0xC51589CA8E3657CA3DFD95C288AA7F2A24F7DCEE55202124CC602C38083B79F4 DUP3 DUP1 LOG2 DUP1 RETURN JUMPDEST PUSH3 0xCEE SWAP1 PUSH3 0x15CA JUMP JUMPDEST CODESIZE PUSH3 0xCBA JUMP JUMPDEST PUSH1 0x64 SWAP1 PUSH1 0x14 PUSH1 0x40 MLOAD SWAP2 PUSH3 0x461BCD PUSH1 0xE5 SHL DUP4 MSTORE PUSH1 0x20 PUSH1 0x4 DUP5 ADD MSTORE DUP3 ADD MSTORE PUSH20 0x436F6E747261746F20646573636F6E6F6369646F PUSH1 0x60 SHL PUSH1 0x44 DUP3 ADD MSTORE REVERT JUMPDEST DUP4 DUP1 REVERT JUMPDEST PUSH1 0x40 MLOAD PUSH3 0x461BCD PUSH1 0xE5 SHL DUP2 MSTORE PUSH1 0x20 PUSH1 0x4 DUP3 ADD MSTORE PUSH1 0x14 DUP2 DUP8 ADD MSTORE PUSH20 0x29B7B63790313934B233B2903932B1B2B4BB32B9 PUSH1 0x61 SHL PUSH1 0x44 DUP3 ADD MSTORE PUSH1 0x64 SWAP1 REVERT JUMPDEST DUP6 DUP1 REVERT JUMPDEST POP CALLVALUE PUSH3 0x1B0 JUMPI PUSH1 0x20 DUP1 PUSH1 0x3 NOT CALLDATASIZE ADD SLT PUSH3 0x1AC JUMPI PUSH1 0x1 PUSH1 0x1 PUSH1 0xA0 SHL SUB DUP1 PUSH3 0xD9B PUSH3 0x1553 JUMP JUMPDEST AND SWAP1 DUP2 DUP5 MSTORE PUSH1 0x3 DUP4 MSTORE PUSH1 0xFF PUSH1 0x40 DUP6 KECCAK256 SLOAD AND ISZERO PUSH3 0x1068 JUMPI DUP2 CALLER SUB PUSH3 0x1023 JUMPI PUSH1 0x40 MLOAD PUSH4 0x2D05D3F PUSH1 0xE0 SHL DUP2 MSTORE SWAP1 DUP4 DUP3 PUSH1 0x4 DUP2 DUP7 GAS STATICCALL SWAP2 DUP3 ISZERO PUSH3 0x1018 JUMPI DUP6 SWAP3 PUSH3 0xFD9 JUMPI JUMPDEST POP PUSH1 0x40 MLOAD PUSH4 0x129E7543 PUSH1 0xE2 SHL DUP2 MSTORE SWAP2 DUP6 DUP4 PUSH1 0x4 DUP2 DUP8 GAS STATICCALL SWAP3 DUP4 ISZERO PUSH3 0x838 JUMPI DUP7 SWAP4 PUSH3 0xFB9 JUMPI JUMPDEST POP PUSH1 0x40 MLOAD PUSH4 0x3F8B7FCF PUSH1 0xE1 SHL DUP2 MSTORE SWAP5 DUP7 DUP7 PUSH1 0x4 DUP2 DUP9 GAS STATICCALL SWAP6 DUP7 ISZERO PUSH3 0xFAE JUMPI DUP8 SWAP7 PUSH3 0xF8E JUMPI JUMPDEST POP PUSH1 0x40 MLOAD PUSH4 0x1AB30F47 PUSH1 0xE3 SHL DUP2 MSTORE SWAP1 DUP8 DUP3 PUSH1 0x4 DUP2 DUP10 GAS STATICCALL SWAP2 DUP3 ISZERO PUSH3 0xF83 JUMPI DUP9 SWAP3 PUSH3 0xF5A JUMPI JUMPDEST POP PUSH1 0x40 MLOAD PUSH4 0x26706AB7 PUSH1 0xE2 SHL DUP2 MSTORE SWAP7 DUP2 DUP9 PUSH1 0x4 DUP2 DUP11 GAS STATICCALL SWAP8 DUP9 ISZERO PUSH3 0xF4F JUMPI DUP10 SWAP9 PUSH3 0xEF9 JUMPI JUMPDEST POP PUSH3 0xEE4 PUSH3 0xEC7 SWAP6 SWAP4 PUSH3 0xED5 PUSH32 0xCA1D371C61C510B5A546C0885F672BBFE56605854DCDC005ED00857C5BA2E2AD SWAP9 SWAP7 SWAP5 PUSH1 0xFF SWAP5 PUSH1 0x40 MLOAD SWAP10 DUP11 SWAP10 PUSH1 0xA0 DUP12 MSTORE PUSH1 0xA0 DUP12 ADD SWAP1 PUSH3 0x170A JUMP JUMPDEST SWAP2 DUP10 DUP4 SUB SWAP1 DUP11 ADD MSTORE PUSH3 0x170A JUMP JUMPDEST SWAP1 DUP7 DUP3 SUB PUSH1 0x40 DUP9 ADD MSTORE PUSH3 0x170A JUMP JUMPDEST SWAP8 AND PUSH1 0x60 DUP5 ADD MSTORE TIMESTAMP PUSH1 0x80 DUP5 ADD MSTORE AND SWAP5 SUB SWAP1 LOG3 DUP1 RETURN JUMPDEST SWAP1 SWAP8 POP DUP2 DUP2 DUP2 SWAP8 SWAP6 SWAP4 SWAP7 SWAP5 SWAP7 RETURNDATASIZE DUP4 GT PUSH3 0xF47 JUMPI JUMPDEST PUSH3 0xF1A DUP2 DUP4 PUSH3 0x15DF JUMP JUMPDEST DUP2 ADD SUB SLT PUSH3 0xF43 JUMPI MLOAD PUSH1 0xFF DUP2 AND DUP2 SUB PUSH3 0xF43 JUMPI SWAP7 SWAP3 SWAP5 SWAP2 SWAP4 SWAP1 SWAP3 SWAP1 SWAP2 SWAP1 PUSH3 0xEE4 PUSH3 0xE7C JUMP JUMPDEST DUP9 DUP1 REVERT JUMPDEST POP RETURNDATASIZE PUSH3 0xF0E JUMP JUMPDEST PUSH1 0x40 MLOAD RETURNDATASIZE DUP12 DUP3 RETURNDATACOPY RETURNDATASIZE SWAP1 REVERT JUMPDEST PUSH3 0xF7B SWAP2 SWAP3 POP RETURNDATASIZE DUP1 DUP11 DUP4 RETURNDATACOPY PUSH3 0xF72 DUP2 DUP4 PUSH3 0x15DF JUMP JUMPDEST DUP2 ADD SWAP1 PUSH3 0x16A1 JUMP JUMPDEST SWAP1 CODESIZE PUSH3 0xE55 JUMP JUMPDEST PUSH1 0x40 MLOAD RETURNDATASIZE DUP11 DUP3 RETURNDATACOPY RETURNDATASIZE SWAP1 REVERT JUMPDEST PUSH3 0xFA6 SWAP2 SWAP7 POP RETURNDATASIZE DUP1 DUP10 DUP4 RETURNDATACOPY PUSH3 0xF72 DUP2 DUP4 PUSH3 0x15DF JUMP JUMPDEST SWAP5 CODESIZE PUSH3 0xE2E JUMP JUMPDEST PUSH1 0x40 MLOAD RETURNDATASIZE DUP10 DUP3 RETURNDATACOPY RETURNDATASIZE SWAP1 REVERT JUMPDEST PUSH3 0xFD1 SWAP2 SWAP4 POP RETURNDATASIZE DUP1 DUP9 DUP4 RETURNDATACOPY PUSH3 0xF72 DUP2 DUP4 PUSH3 0x15DF JUMP JUMPDEST SWAP2 CODESIZE PUSH3 0xE07 JUMP JUMPDEST SWAP1 SWAP2 POP DUP4 DUP2 DUP2 RETURNDATASIZE DUP4 GT PUSH3 0x1010 JUMPI JUMPDEST PUSH3 0xFF4 DUP2 DUP4 PUSH3 0x15DF JUMP JUMPDEST DUP2 ADD SUB SLT PUSH3 0x8F6 JUMPI MLOAD DUP2 DUP2 AND DUP2 SUB PUSH3 0x8F6 JUMPI SWAP1 CODESIZE PUSH3 0xDE0 JUMP JUMPDEST POP RETURNDATASIZE PUSH3 0xFE8 JUMP JUMPDEST PUSH1 0x40 MLOAD RETURNDATASIZE DUP8 DUP3 RETURNDATACOPY RETURNDATASIZE SWAP1 REVERT JUMPDEST PUSH1 0x40 MLOAD PUSH3 0x461BCD PUSH1 0xE5 SHL DUP2 MSTORE PUSH1 0x4 DUP2 ADD DUP5 SWAP1 MSTORE PUSH1 0x17 PUSH1 0x24 DUP3 ADD MSTORE PUSH32 0x536F6C6F20656C2070726F70696F20636F6E747261746F000000000000000000 PUSH1 0x44 DUP3 ADD MSTORE PUSH1 0x64 SWAP1 REVERT JUMPDEST PUSH1 0x40 MLOAD PUSH3 0x461BCD PUSH1 0xE5 SHL DUP2 MSTORE PUSH1 0x4 DUP2 ADD DUP5 SWAP1 MSTORE PUSH1 0x16 PUSH1 0x24 DUP3 ADD MSTORE PUSH22 0x436F6E747261746F206E6F207265676973747261646F PUSH1 0x50 SHL PUSH1 0x44 DUP3 ADD MSTORE PUSH1 0x64 SWAP1 REVERT JUMPDEST POP CALLVALUE PUSH3 0x1B0 JUMPI DUP1 PUSH1 0x3 NOT CALLDATASIZE ADD SLT PUSH3 0x1B0 JUMPI PUSH1 0x20 PUSH1 0x2 SLOAD PUSH1 0x40 MLOAD SWAP1 DUP2 MSTORE RETURN JUMPDEST POP CALLVALUE PUSH3 0x1B0 JUMPI DUP1 PUSH1 0x3 NOT CALLDATASIZE ADD SLT PUSH3 0x1B0 JUMPI PUSH1 0x40 MLOAD PUSH1 0x8 DUP1 SLOAD DUP1 DUP4 MSTORE SWAP1 DUP4 MSTORE PUSH1 0x20 DUP1 DUP4 ADD SWAP4 PUSH32 0xF3F7A9FE364FAAB93B216DA50A3214154F22A0A2B415B23A84C8169E8B636EE3 SWAP3 SWAP2 JUMPDEST DUP3 DUP3 LT PUSH3 0x112B JUMPI PUSH3 0x2B7 DUP6 PUSH3 0x2AA DUP2 DUP10 SUB DUP3 PUSH3 0x15DF JUMP JUMPDEST DUP4 SLOAD PUSH1 0x1 PUSH1 0x1 PUSH1 0xA0 SHL SUB AND DUP7 MSTORE SWAP5 DUP6 ADD SWAP5 PUSH1 0x1 SWAP4 DUP5 ADD SWAP4 SWAP1 SWAP2 ADD SWAP1 PUSH3 0x1110 JUMP JUMPDEST POP CALLVALUE PUSH3 0x1B0 JUMPI DUP1 PUSH1 0x3 NOT CALLDATASIZE ADD SLT PUSH3 0x1B0 JUMPI SLOAD PUSH1 0x40 MLOAD PUSH1 0x1 PUSH1 0x1 PUSH1 0xA0 SHL SUB SWAP1 SWAP2 AND DUP2 MSTORE PUSH1 0x20 SWAP1 RETURN JUMPDEST POP CALLVALUE PUSH3 0x1B0 JUMPI PUSH1 0x20 CALLDATASIZE PUSH1 0x3 NOT ADD SLT PUSH3 0x1B0 JUMPI PUSH1 0x4 CALLDATALOAD PUSH1 0x7 SLOAD DUP2 LT ISZERO PUSH3 0x1AC JUMPI PUSH1 0x7 SWAP1 SWAP2 MSTORE PUSH32 0xA66CC928B5EDB82AF9BD49922954155AB7B0942694BEA4CE44661D9A8736C688 ADD SLOAD PUSH1 0x40 MLOAD PUSH1 0x1 PUSH1 0x1 PUSH1 0xA0 SHL SUB SWAP1 SWAP2 AND DUP2 MSTORE PUSH1 0x20 SWAP1 RETURN JUMPDEST POP CALLVALUE PUSH3 0x1B0 JUMPI DUP1 PUSH1 0x3 NOT CALLDATASIZE ADD SLT PUSH3 0x1B0 JUMPI PUSH1 0x40 MLOAD PUSH1 0x2 DUP1 SLOAD DUP1 DUP4 MSTORE SWAP1 DUP4 MSTORE PUSH1 0x20 DUP1 DUP4 ADD SWAP4 PUSH32 0x405787FA12A823E0F2B7631CC41B3BA8828B3321CA811111FA75CD3AA3BB5ACE SWAP3 SWAP2 JUMPDEST DUP3 DUP3 LT PUSH3 0x1239 JUMPI PUSH3 0x2B7 DUP6 PUSH3 0x2AA DUP2 DUP10 SUB DUP3 PUSH3 0x15DF JUMP JUMPDEST DUP4 SLOAD PUSH1 0x1 PUSH1 0x1 PUSH1 0xA0 SHL SUB AND DUP7 MSTORE SWAP5 DUP6 ADD SWAP5 PUSH1 0x1 SWAP4 DUP5 ADD SWAP4 SWAP1 SWAP2 ADD SWAP1 PUSH3 0x121E JUMP JUMPDEST POP CALLVALUE PUSH3 0x1B0 JUMPI DUP1 PUSH1 0x3 NOT CALLDATASIZE ADD SLT PUSH3 0x1B0 JUMPI PUSH3 0x1277 PUSH3 0x1845 JUMP JUMPDEST DUP1 SLOAD PUSH1 0x1 PUSH1 0x1 PUSH1 0xA0 SHL SUB NOT DUP2 AND DUP3 SSTORE DUP2 SWAP1 PUSH1 0x1 PUSH1 0x1 PUSH1 0xA0 SHL SUB AND PUSH32 0x8BE0079C531659141344CD1FD0A4F28419497F9722A3DAAFE3B4186F6B6457E0 DUP3 DUP1 LOG3 DUP1 RETURN JUMPDEST POP CALLVALUE PUSH3 0x1B0 JUMPI PUSH1 0x40 CALLDATASIZE PUSH1 0x3 NOT ADD SLT PUSH3 0x1B0 JUMPI PUSH1 0x4 CALLDATALOAD PUSH1 0xFF DUP2 AND DUP1 SWAP2 SUB PUSH3 0x1AC JUMPI PUSH1 0x24 CALLDATALOAD PUSH1 0xFF DUP2 AND DUP1 SWAP2 SUB PUSH3 0x72E JUMPI CALLER DUP4 MSTORE PUSH1 0x3 PUSH1 0x20 MSTORE PUSH1 0xFF PUSH1 0x40 DUP5 KECCAK256 SLOAD AND ISZERO PUSH3 0x13D9 JUMPI PUSH1 0x6 DUP3 LT ISZERO PUSH3 0x13C5 JUMPI PUSH3 0x1316 DUP3 CALLER PUSH3 0x174B JUMP JUMPDEST PUSH1 0x6 DUP2 LT ISZERO PUSH3 0x13C5 JUMPI PUSH3 0x132B DUP2 PUSH3 0x1872 JUMP JUMPDEST DUP1 SLOAD SWAP1 CALLER DUP6 MSTORE PUSH1 0xA PUSH1 0x20 MSTORE DUP2 PUSH1 0x40 DUP7 KECCAK256 SSTORE PUSH1 0x1 PUSH1 0x40 SHL DUP3 LT ISZERO PUSH3 0x13B1 JUMPI DUP2 PUSH3 0x135F SWAP2 PUSH1 0x1 PUSH3 0x137D SWAP5 ADD DUP2 SSTORE PUSH3 0x15B1 JUMP JUMPDEST DUP2 SLOAD PUSH1 0x1 PUSH1 0x1 PUSH1 0xA0 SHL SUB PUSH1 0x3 SWAP3 SWAP1 SWAP3 SHL SWAP2 DUP3 SHL NOT AND CALLER SWAP1 SWAP2 SHL OR SWAP1 SSTORE JUMP JUMPDEST PUSH1 0x40 MLOAD SWAP2 DUP3 MSTORE PUSH1 0x20 DUP3 ADD MSTORE PUSH32 0x3E8649690ECBDEE2A12233CB6E3204CB3232BE841142B4B40E7E3225293B13AA PUSH1 0x40 CALLER SWAP3 LOG2 DUP1 RETURN JUMPDEST PUSH4 0x4E487B71 PUSH1 0xE0 SHL DUP6 MSTORE PUSH1 0x41 PUSH1 0x4 MSTORE PUSH1 0x24 DUP6 REVERT JUMPDEST PUSH4 0x4E487B71 PUSH1 0xE0 SHL DUP4 MSTORE PUSH1 0x21 PUSH1 0x4 MSTORE PUSH1 0x24 DUP4 REVERT JUMPDEST PUSH1 0x40 MLOAD PUSH3 0x461BCD PUSH1 0xE5 SHL DUP2 MSTORE PUSH1 0x20 PUSH1 0x4 DUP3 ADD MSTORE PUSH1 0x1C PUSH1 0x24 DUP3 ADD MSTORE PUSH32 0x4E6F20657320756E20636F6E747261746F207265676973747261646F00000000 PUSH1 0x44 DUP3 ADD MSTORE PUSH1 0x64 SWAP1 REVERT JUMPDEST POP CALLVALUE PUSH3 0x1B0 JUMPI DUP1 PUSH1 0x3 NOT CALLDATASIZE ADD SLT PUSH3 0x1B0 JUMPI PUSH1 0x40 MLOAD PUSH1 0x7 DUP1 SLOAD DUP1 DUP4 MSTORE SWAP1 DUP4 MSTORE PUSH1 0x20 DUP1 DUP4 ADD SWAP4 PUSH32 0xA66CC928B5EDB82AF9BD49922954155AB7B0942694BEA4CE44661D9A8736C688 SWAP3 SWAP2 JUMPDEST DUP3 DUP3 LT PUSH3 0x1483 JUMPI PUSH3 0x2B7 DUP6 PUSH3 0x2AA DUP2 DUP10 SUB DUP3 PUSH3 0x15DF JUMP JUMPDEST DUP4 SLOAD PUSH1 0x1 PUSH1 0x1 PUSH1 0xA0 SHL SUB AND DUP7 MSTORE SWAP5 DUP6 ADD SWAP5 PUSH1 0x1 SWAP4 DUP5 ADD SWAP4 SWAP1 SWAP2 ADD SWAP1 PUSH3 0x1468 JUMP JUMPDEST POP CALLVALUE PUSH3 0x1B0 JUMPI DUP1 PUSH1 0x3 NOT CALLDATASIZE ADD SLT PUSH3 0x1B0 JUMPI PUSH1 0x40 MLOAD PUSH32 0x0 PUSH1 0x1 PUSH1 0x1 PUSH1 0xA0 SHL SUB AND DUP2 MSTORE PUSH1 0x20 SWAP1 RETURN JUMPDEST POP CALLVALUE PUSH3 0x1B0 JUMPI DUP1 PUSH1 0x3 NOT CALLDATASIZE ADD SLT PUSH3 0x1B0 JUMPI PUSH1 0x1 SLOAD PUSH1 0x40 MLOAD PUSH1 0x1 PUSH1 0x1 PUSH1 0xA0 SHL SUB SWAP1 SWAP2 AND DUP2 MSTORE PUSH1 0x20 SWAP1 RETURN JUMPDEST SWAP1 POP CALLVALUE PUSH3 0x1AC JUMPI PUSH1 0x20 CALLDATASIZE PUSH1 0x3 NOT ADD SLT PUSH3 0x1AC JUMPI PUSH1 0x20 SWAP2 PUSH1 0x1 PUSH1 0x1 PUSH1 0xA0 SHL SUB SWAP1 PUSH1 0x40 SWAP1 DUP3 PUSH3 0x1545 PUSH3 0x1553 JUMP JUMPDEST AND DUP2 MSTORE PUSH1 0x4 DUP6 MSTORE KECCAK256 SLOAD AND DUP2 MSTORE RETURN JUMPDEST PUSH1 0x4 CALLDATALOAD SWAP1 PUSH1 0x1 PUSH1 0x1 PUSH1 0xA0 SHL SUB DUP3 AND DUP3 SUB PUSH3 0x8FA JUMPI JUMP JUMPDEST PUSH1 0x20 SWAP1 PUSH1 0x20 PUSH1 0x40 DUP2 DUP4 ADD SWAP3 DUP3 DUP2 MSTORE DUP6 MLOAD DUP1 SWAP5 MSTORE ADD SWAP4 ADD SWAP2 PUSH1 0x0 JUMPDEST DUP3 DUP2 LT PUSH3 0x1593 JUMPI POP POP POP POP SWAP1 JUMP JUMPDEST DUP4 MLOAD PUSH1 0x1 PUSH1 0x1 PUSH1 0xA0 SHL SUB AND DUP6 MSTORE SWAP4 DUP2 ADD SWAP4 SWAP3 DUP2 ADD SWAP3 PUSH1 0x1 ADD PUSH3 0x1584 JUMP JUMPDEST DUP1 SLOAD DUP3 LT ISZERO PUSH3 0x6EA JUMPI PUSH1 0x0 MSTORE PUSH1 0x20 PUSH1 0x0 KECCAK256 ADD SWAP1 PUSH1 0x0 SWAP1 JUMP JUMPDEST PUSH8 0xFFFFFFFFFFFFFFFF DUP2 GT PUSH3 0x700 JUMPI PUSH1 0x40 MSTORE JUMP JUMPDEST SWAP1 PUSH1 0x1F DUP1 NOT SWAP2 ADD AND DUP2 ADD SWAP1 DUP2 LT PUSH8 0xFFFFFFFFFFFFFFFF DUP3 GT OR PUSH3 0x700 JUMPI PUSH1 0x40 MSTORE JUMP JUMPDEST PUSH8 0xFFFFFFFFFFFFFFFF DUP2 GT PUSH3 0x700 JUMPI PUSH1 0x1F ADD PUSH1 0x1F NOT AND PUSH1 0x20 ADD SWAP1 JUMP JUMPDEST SWAP3 SWAP2 SWAP3 PUSH3 0x162D DUP3 PUSH3 0x1602 JUMP JUMPDEST SWAP2 PUSH3 0x163D PUSH1 0x40 MLOAD SWAP4 DUP5 PUSH3 0x15DF JUMP JUMPDEST DUP3 SWAP5 DUP2 DUP5 MSTORE DUP2 DUP4 ADD GT PUSH3 0x8FA JUMPI DUP3 DUP2 PUSH1 0x20 SWAP4 DUP5 PUSH1 0x0 SWAP7 ADD CALLDATACOPY ADD ADD MSTORE JUMP JUMPDEST SWAP1 DUP1 PUSH1 0x1F DUP4 ADD SLT ISZERO PUSH3 0x8FA JUMPI DUP2 PUSH1 0x20 PUSH3 0x1679 SWAP4 CALLDATALOAD SWAP2 ADD PUSH3 0x161F JUMP JUMPDEST SWAP1 JUMP JUMPDEST PUSH1 0x0 JUMPDEST DUP4 DUP2 LT PUSH3 0x1690 JUMPI POP POP PUSH1 0x0 SWAP2 ADD MSTORE JUMP JUMPDEST DUP2 DUP2 ADD MLOAD DUP4 DUP3 ADD MSTORE PUSH1 0x20 ADD PUSH3 0x167F JUMP JUMPDEST PUSH1 0x20 DUP2 DUP4 SUB SLT PUSH3 0x8FA JUMPI DUP1 MLOAD SWAP1 PUSH8 0xFFFFFFFFFFFFFFFF DUP3 GT PUSH3 0x8FA JUMPI ADD DUP2 PUSH1 0x1F DUP3 ADD SLT ISZERO PUSH3 0x8FA JUMPI DUP1 MLOAD PUSH3 0x16D9 DUP2 PUSH3 0x1602 JUMP JUMPDEST SWAP3 PUSH3 0x16E9 PUSH1 0x40 MLOAD SWAP5 DUP6 PUSH3 0x15DF JUMP JUMPDEST DUP2 DUP5 MSTORE PUSH1 0x20 DUP3 DUP5 ADD ADD GT PUSH3 0x8FA JUMPI PUSH3 0x1679 SWAP2 PUSH1 0x20 DUP1 DUP6 ADD SWAP2 ADD PUSH3 0x167C JUMP JUMPDEST SWAP1 PUSH1 0x20 SWAP2 PUSH3 0x1725 DUP2 MLOAD DUP1 SWAP3 DUP2 DUP6 MSTORE DUP6 DUP1 DUP7 ADD SWAP2 ADD PUSH3 0x167C JUMP JUMPDEST PUSH1 0x1F ADD PUSH1 0x1F NOT AND ADD ADD SWAP1 JUMP JUMPDEST SWAP1 DUP2 PUSH1 0x20 SWAP2 SUB SLT PUSH3 0x8FA JUMPI MLOAD DUP1 ISZERO ISZERO DUP2 SUB PUSH3 0x8FA JUMPI SWAP1 JUMP JUMPDEST SWAP1 PUSH3 0x1757 SWAP1 PUSH3 0x1872 JUMP JUMPDEST DUP1 SLOAD DUP1 ISZERO PUSH3 0x1840 JUMPI PUSH1 0x1 PUSH1 0x1 PUSH1 0xA0 SHL SUB SWAP3 DUP4 AND PUSH1 0x0 SWAP1 DUP2 MSTORE PUSH1 0xA PUSH1 0x20 MSTORE PUSH1 0x40 DUP2 KECCAK256 SLOAD PUSH1 0x0 NOT SWAP3 DUP1 DUP5 ADD SWAP1 DUP2 GT PUSH3 0x182C JUMPI DUP1 DUP7 SWAP2 DUP4 SUB PUSH3 0x17D4 JUMPI JUMPDEST POP POP POP DUP3 SLOAD SWAP1 DUP2 ISZERO PUSH3 0x17C0 JUMPI POP ADD SWAP2 PUSH3 0x17B0 DUP4 DUP4 PUSH3 0x15B1 JUMP JUMPDEST SWAP1 SWAP2 DUP3 SLOAD SWAP2 PUSH1 0x3 SHL SHL NOT AND SWAP1 SSTORE SSTORE JUMP JUMPDEST PUSH4 0x4E487B71 PUSH1 0xE0 SHL DUP2 MSTORE PUSH1 0x31 PUSH1 0x4 MSTORE PUSH1 0x24 SWAP1 REVERT JUMPDEST PUSH3 0x17E0 SWAP1 DUP7 PUSH3 0x15B1 JUMP JUMPDEST SWAP1 SLOAD SWAP1 PUSH1 0x3 SHL SHR AND PUSH3 0x1817 DUP2 PUSH3 0x17F9 DUP5 DUP9 PUSH3 0x15B1 JUMP JUMPDEST SWAP1 SWAP2 SWAP1 PUSH1 0x1 DUP1 PUSH1 0xA0 SHL SUB DUP1 DUP5 SLOAD SWAP3 PUSH1 0x3 SHL SWAP4 AND DUP4 SHL SWAP3 SHL NOT AND OR SWAP1 SSTORE JUMP JUMPDEST DUP3 MSTORE PUSH1 0xA PUSH1 0x20 MSTORE PUSH1 0x40 DUP3 KECCAK256 SSTORE CODESIZE DUP5 DUP2 PUSH3 0x1794 JUMP JUMPDEST PUSH4 0x4E487B71 PUSH1 0xE0 SHL DUP4 MSTORE PUSH1 0x11 PUSH1 0x4 MSTORE PUSH1 0x24 DUP4 REVERT JUMPDEST POP POP POP JUMP JUMPDEST PUSH1 0x0 SLOAD PUSH1 0x1 PUSH1 0x1 PUSH1 0xA0 SHL SUB AND CALLER SUB PUSH3 0x185A JUMPI JUMP JUMPDEST PUSH1 0x40 MLOAD PUSH4 0x118CDAA7 PUSH1 0xE0 SHL DUP2 MSTORE CALLER PUSH1 0x4 DUP3 ADD MSTORE PUSH1 0x24 SWAP1 REVERT JUMPDEST PUSH1 0x6 DUP2 LT ISZERO PUSH3 0x18B9 JUMPI DUP1 ISZERO PUSH3 0x18B3 JUMPI PUSH1 0x1 DUP2 EQ PUSH3 0x18AD JUMPI PUSH1 0x2 DUP2 EQ PUSH3 0x18A7 JUMPI PUSH1 0x5 EQ PUSH3 0x18A2 JUMPI PUSH1 0x8 SWAP1 JUMP JUMPDEST PUSH1 0x9 SWAP1 JUMP JUMPDEST POP PUSH1 0x7 SWAP1 JUMP JUMPDEST POP PUSH1 0x6 SWAP1 JUMP JUMPDEST POP PUSH1 0x5 SWAP1 JUMP JUMPDEST PUSH4 0x4E487B71 PUSH1 0xE0 SHL PUSH1 0x0 MSTORE PUSH1 0x21 PUSH1 0x4 MSTORE PUSH1 0x24 PUSH1 0x0 REVERT INVALID PUSH1 0x40 PUSH2 0x120 DUP2 MSTORE CALLVALUE PUSH3 0x644 JUMPI PUSH3 0x27D1 SWAP1 DUP2 CODESIZE SUB DUP1 PUSH3 0x20 DUP2 PUSH3 0x649 JUMP JUMPDEST SWAP4 DUP5 CODECOPY DUP3 ADD PUSH2 0x100 SWAP3 DUP4 DUP2 DUP4 SUB SLT PUSH3 0x644 JUMPI PUSH3 0x3E DUP2 PUSH3 0x685 JUMP JUMPDEST PUSH1 0x20 DUP3 DUP2 ADD MLOAD SWAP1 SWAP4 SWAP1 PUSH1 0x1 PUSH1 0x1 PUSH1 0x40 SHL SUB SWAP1 DUP2 DUP2 GT PUSH3 0x644 JUMPI DUP3 PUSH3 0x66 SWAP2 DUP7 ADD PUSH3 0x69A JUMP JUMPDEST SWAP2 DUP7 DUP6 ADD MLOAD SWAP1 DUP3 DUP3 GT PUSH3 0x644 JUMPI PUSH3 0x81 SWAP2 DUP7 ADD PUSH3 0x69A JUMP JUMPDEST SWAP5 PUSH1 0x60 DUP6 ADD MLOAD SWAP2 PUSH3 0x96 PUSH1 0x80 DUP8 ADD PUSH3 0x685 JUMP JUMPDEST PUSH3 0xA4 PUSH1 0xA0 DUP9 ADD PUSH3 0x685 JUMP JUMPDEST SWAP5 PUSH1 0xC0 DUP9 ADD MLOAD SWAP8 PUSH1 0xFF DUP10 AND DUP1 SWAP10 SUB PUSH3 0x644 JUMPI PUSH1 0xE0 ADD MLOAD SWAP9 DUP10 ISZERO ISZERO DUP1 SWAP11 SUB PUSH3 0x644 JUMPI PUSH1 0x1 PUSH32 0x9B779B17422D0DF92223018B32B4D1FA46E071723D6817E2486D003BECC55F00 DUP2 SWAP1 SSTORE SWAP3 PUSH1 0x1 PUSH1 0x1 PUSH1 0xA0 SHL SUB DUP9 DUP2 AND SWAP2 DUP3 ISZERO PUSH3 0x62C JUMPI PUSH1 0x0 DUP1 SLOAD PUSH1 0x1 PUSH1 0x1 PUSH1 0xA0 SHL SUB NOT DUP2 AND DUP6 OR DUP3 SSTORE DUP16 MLOAD SWAP2 SWAP5 SWAP1 DUP5 AND PUSH32 0x8BE0079C531659141344CD1FD0A4F28419497F9722A3DAAFE3B4186F6B6457E0 DUP7 DUP1 LOG3 DUP3 DUP13 AND ISZERO PUSH3 0x5F7 JUMPI POP AND SWAP9 DUP10 ISZERO PUSH3 0x5C2 JUMPI DUP4 MLOAD ISZERO PUSH3 0x58F JUMPI PUSH1 0x3 DUP12 LT ISZERO DUP1 PUSH3 0x583 JUMPI JUMPDEST ISZERO PUSH3 0x54D JUMPI TIMESTAMP DUP9 GT ISZERO PUSH3 0x518 JUMPI PUSH1 0x80 MSTORE DUP3 MLOAD DUP6 DUP2 GT PUSH3 0x504 JUMPI DUP5 SLOAD SWAP4 DUP6 DUP6 DUP2 SHR SWAP6 AND DUP1 ISZERO PUSH3 0x4F9 JUMPI JUMPDEST DUP9 DUP7 LT EQ PUSH3 0x4E5 JUMPI DUP2 SWAP1 PUSH1 0x1F SWAP6 DUP7 DUP2 GT PUSH3 0x492 JUMPI JUMPDEST POP DUP9 SWAP1 DUP7 DUP4 GT PUSH1 0x1 EQ PUSH3 0x42E JUMPI DUP5 SWAP3 PUSH3 0x422 JUMPI JUMPDEST POP POP PUSH1 0x0 NOT PUSH1 0x3 DUP4 SWAP1 SHL SHR NOT AND SWAP1 DUP6 SHL OR DUP5 SSTORE JUMPDEST DUP2 MLOAD SWAP5 DUP6 GT PUSH3 0x40E JUMPI PUSH1 0x2 SLOAD DUP5 DUP2 DUP2 SHR SWAP2 AND DUP1 ISZERO PUSH3 0x403 JUMPI JUMPDEST DUP8 DUP3 LT EQ PUSH3 0x3EF JUMPI DUP4 DUP2 GT PUSH3 0x3A6 JUMPI JUMPDEST POP DUP6 SWAP3 DUP6 GT PUSH1 0x1 EQ PUSH3 0x33D JUMPI SWAP4 SWAP5 POP DUP5 SWAP3 SWAP2 SWAP1 DUP4 PUSH3 0x331 JUMPI JUMPDEST POP POP SHL SWAP2 PUSH1 0x0 NOT SWAP1 PUSH1 0x3 SHL SHR NOT AND OR PUSH1 0x2 SSTORE JUMPDEST TIMESTAMP PUSH1 0xA0 MSTORE PUSH1 0xC0 MSTORE PUSH1 0xE0 MSTORE DUP5 MSTORE PUSH1 0xFF NOT PUSH1 0x3 SLOAD AND OR PUSH1 0x3 SSTORE PUSH1 0xFF PUSH1 0x5 SLOAD SWAP2 AND SWAP1 PUSH2 0xFFFF NOT AND OR PUSH1 0x5 SSTORE MLOAD PUSH2 0x20C4 SWAP2 DUP3 PUSH3 0x70D DUP4 CODECOPY PUSH1 0x80 MLOAD DUP3 DUP2 DUP2 PUSH2 0x2AF ADD MSTORE DUP2 DUP2 PUSH2 0x698 ADD MSTORE DUP2 DUP2 PUSH2 0xCA2 ADD MSTORE DUP2 DUP2 PUSH2 0xE8B ADD MSTORE DUP2 DUP2 PUSH2 0x10DB ADD MSTORE DUP2 DUP2 PUSH2 0x12AE ADD MSTORE DUP2 DUP2 PUSH2 0x1800 ADD MSTORE PUSH2 0x1AA2 ADD MSTORE PUSH1 0xA0 MLOAD DUP3 DUP2 DUP2 PUSH2 0x12FB ADD MSTORE PUSH2 0x1A4E ADD MSTORE PUSH1 0xC0 MLOAD DUP3 DUP2 DUP2 PUSH2 0x606 ADD MSTORE DUP2 DUP2 PUSH2 0x8BD ADD MSTORE PUSH2 0x1321 ADD MSTORE PUSH1 0xE0 MLOAD DUP3 DUP2 DUP2 PUSH2 0x390 ADD MSTORE DUP2 DUP2 PUSH2 0x594 ADD MSTORE DUP2 DUP2 PUSH2 0x717 ADD MSTORE DUP2 DUP2 PUSH2 0x977 ADD MSTORE DUP2 DUP2 PUSH2 0xEE6 ADD MSTORE DUP2 DUP2 PUSH2 0x1060 ADD MSTORE DUP2 DUP2 PUSH2 0x1436 ADD MSTORE DUP2 DUP2 PUSH2 0x166D ADD MSTORE PUSH2 0x16C7 ADD MSTORE MLOAD DUP2 DUP2 DUP2 PUSH2 0x174 ADD MSTORE DUP2 DUP2 PUSH2 0x353 ADD MSTORE DUP2 DUP2 PUSH2 0x6DA ADD MSTORE DUP2 DUP2 PUSH2 0xD1F ADD MSTORE DUP2 DUP2 PUSH2 0x15CB ADD MSTORE PUSH2 0x183E ADD MSTORE RETURN JUMPDEST ADD MLOAD SWAP3 POP CODESIZE DUP1 PUSH3 0x21C JUMP JUMPDEST PUSH1 0x2 DUP2 MSTORE DUP6 DUP2 KECCAK256 SWAP4 SWAP6 DUP6 SWAP2 PUSH1 0x1F NOT DUP4 AND SWAP2 JUMPDEST DUP9 DUP4 DUP4 LT PUSH3 0x38B JUMPI POP POP POP LT PUSH3 0x371 JUMPI JUMPDEST POP POP POP DUP2 SHL ADD PUSH1 0x2 SSTORE PUSH3 0x22F JUMP JUMPDEST ADD MLOAD PUSH1 0x0 NOT PUSH1 0xF8 DUP5 PUSH1 0x3 SHL AND SHR NOT AND SWAP1 SSTORE CODESIZE DUP1 DUP1 PUSH3 0x362 JUMP JUMPDEST DUP6 DUP8 ADD MLOAD DUP9 SSTORE SWAP1 SWAP7 ADD SWAP6 SWAP5 DUP6 ADD SWAP5 DUP8 SWAP4 POP SWAP1 DUP2 ADD SWAP1 PUSH3 0x34F JUMP JUMPDEST PUSH1 0x2 DUP3 MSTORE DUP7 DUP3 KECCAK256 DUP5 DUP1 DUP9 ADD PUSH1 0x5 SHR DUP3 ADD SWAP3 DUP10 DUP10 LT PUSH3 0x3E5 JUMPI JUMPDEST ADD PUSH1 0x5 SHR ADD SWAP1 DUP6 SWAP1 JUMPDEST DUP3 DUP2 LT PUSH3 0x3D9 JUMPI POP POP PUSH3 0x201 JUMP JUMPDEST DUP4 DUP2 SSTORE ADD DUP6 SWAP1 PUSH3 0x3C9 JUMP JUMPDEST SWAP3 POP DUP2 SWAP3 PUSH3 0x3C0 JUMP JUMPDEST PUSH4 0x4E487B71 PUSH1 0xE0 SHL DUP3 MSTORE PUSH1 0x22 PUSH1 0x4 MSTORE PUSH1 0x24 DUP3 REVERT JUMPDEST SWAP1 PUSH1 0x7F AND SWAP1 PUSH3 0x1EF JUMP JUMPDEST PUSH4 0x4E487B71 PUSH1 0xE0 SHL DUP2 MSTORE PUSH1 0x41 PUSH1 0x4 MSTORE PUSH1 0x24 SWAP1 REVERT JUMPDEST ADD MLOAD SWAP1 POP CODESIZE DUP1 PUSH3 0x1C0 JUMP JUMPDEST DUP8 DUP6 MSTORE DUP10 DUP6 KECCAK256 DUP9 SWAP5 POP SWAP2 SWAP1 PUSH1 0x1F NOT DUP5 AND DUP7 JUMPDEST DUP13 DUP3 DUP3 LT PUSH3 0x47B JUMPI POP POP DUP5 GT PUSH3 0x461 JUMPI JUMPDEST POP POP POP DUP2 SHL ADD DUP5 SSTORE PUSH3 0x1D4 JUMP JUMPDEST ADD MLOAD PUSH1 0x0 NOT PUSH1 0xF8 DUP5 PUSH1 0x3 SHL AND SHR NOT AND SWAP1 SSTORE CODESIZE DUP1 DUP1 PUSH3 0x453 JUMP JUMPDEST DUP4 DUP6 ADD MLOAD DUP7 SSTORE DUP12 SWAP8 SWAP1 SWAP6 ADD SWAP5 SWAP4 DUP5 ADD SWAP4 ADD PUSH3 0x440 JUMP JUMPDEST SWAP1 SWAP2 POP DUP7 DUP5 MSTORE DUP9 DUP5 KECCAK256 DUP7 DUP1 DUP6 ADD PUSH1 0x5 SHR DUP3 ADD SWAP3 DUP12 DUP7 LT PUSH3 0x4DB JUMPI JUMPDEST SWAP2 DUP10 SWAP2 DUP7 SWAP6 SWAP5 SWAP4 ADD PUSH1 0x5 SHR ADD SWAP2 JUMPDEST DUP3 DUP2 LT PUSH3 0x4CC JUMPI POP POP PUSH3 0x1AA JUMP JUMPDEST DUP7 DUP2 SSTORE DUP6 SWAP5 POP DUP10 SWAP2 ADD PUSH3 0x4BC JUMP JUMPDEST SWAP3 POP DUP2 SWAP3 PUSH3 0x4AE JUMP JUMPDEST PUSH4 0x4E487B71 PUSH1 0xE0 SHL DUP4 MSTORE PUSH1 0x22 PUSH1 0x4 MSTORE PUSH1 0x24 DUP4 REVERT JUMPDEST SWAP5 PUSH1 0x7F AND SWAP5 PUSH3 0x193 JUMP JUMPDEST PUSH4 0x4E487B71 PUSH1 0xE0 SHL DUP3 MSTORE PUSH1 0x41 PUSH1 0x4 MSTORE PUSH1 0x24 DUP3 REVERT JUMPDEST DUP13 MLOAD PUSH3 0x461BCD PUSH1 0xE5 SHL DUP2 MSTORE PUSH1 0x4 DUP2 ADD DUP9 SWAP1 MSTORE PUSH1 0xE PUSH1 0x24 DUP3 ADD MSTORE PUSH14 0x466563686120696E76616C696461 PUSH1 0x90 SHL PUSH1 0x44 DUP3 ADD MSTORE PUSH1 0x64 SWAP1 REVERT JUMPDEST DUP13 MLOAD PUSH3 0x461BCD PUSH1 0xE5 SHL DUP2 MSTORE PUSH1 0x4 DUP2 ADD DUP9 SWAP1 MSTORE PUSH1 0xF PUSH1 0x24 DUP3 ADD MSTORE PUSH15 0x556D6272616C20696E76616C69646F PUSH1 0x88 SHL PUSH1 0x44 DUP3 ADD MSTORE PUSH1 0x64 SWAP1 REVERT JUMPDEST POP PUSH1 0x5 DUP12 GT ISZERO PUSH3 0x166 JUMP JUMPDEST DUP13 MLOAD PUSH3 0x461BCD PUSH1 0xE5 SHL DUP2 MSTORE PUSH1 0x4 DUP2 ADD DUP9 SWAP1 MSTORE PUSH1 0xC PUSH1 0x24 DUP3 ADD MSTORE PUSH12 0x546974756C6F20766163696F PUSH1 0xA0 SHL PUSH1 0x44 DUP3 ADD MSTORE PUSH1 0x64 SWAP1 REVERT JUMPDEST DUP13 MLOAD PUSH3 0x461BCD PUSH1 0xE5 SHL DUP2 MSTORE PUSH1 0x4 DUP2 ADD DUP9 SWAP1 MSTORE PUSH1 0xE PUSH1 0x24 DUP3 ADD MSTORE PUSH14 0x546F6B656E20696E76616C69646F PUSH1 0x90 SHL PUSH1 0x44 DUP3 ADD MSTORE PUSH1 0x64 SWAP1 REVERT JUMPDEST PUSH3 0x461BCD PUSH1 0xE5 SHL DUP2 MSTORE PUSH1 0x4 DUP2 ADD DUP10 SWAP1 MSTORE PUSH1 0x10 PUSH1 0x24 DUP3 ADD MSTORE PUSH16 0x43726561746F7220696E76616C69646F PUSH1 0x80 SHL PUSH1 0x44 DUP3 ADD MSTORE PUSH1 0x64 SWAP1 REVERT JUMPDEST DUP14 MLOAD PUSH4 0x1E4FBDF7 PUSH1 0xE0 SHL DUP2 MSTORE PUSH1 0x0 PUSH1 0x4 DUP3 ADD MSTORE PUSH1 0x24 SWAP1 REVERT JUMPDEST PUSH1 0x0 DUP1 REVERT JUMPDEST PUSH1 0x40 MLOAD SWAP2 SWAP1 PUSH1 0x1F ADD PUSH1 0x1F NOT AND DUP3 ADD PUSH1 0x1 PUSH1 0x1 PUSH1 0x40 SHL SUB DUP2 GT DUP4 DUP3 LT OR PUSH3 0x66F JUMPI PUSH1 0x40 MSTORE JUMP JUMPDEST PUSH4 0x4E487B71 PUSH1 0xE0 SHL PUSH1 0x0 MSTORE PUSH1 0x41 PUSH1 0x4 MSTORE PUSH1 0x24 PUSH1 0x0 REVERT JUMPDEST MLOAD SWAP1 PUSH1 0x1 PUSH1 0x1 PUSH1 0xA0 SHL SUB DUP3 AND DUP3 SUB PUSH3 0x644 JUMPI JUMP JUMPDEST SWAP2 SWAP1 DUP1 PUSH1 0x1F DUP5 ADD SLT ISZERO PUSH3 0x644 JUMPI DUP3 MLOAD PUSH1 0x1 PUSH1 0x1 PUSH1 0x40 SHL SUB DUP2 GT PUSH3 0x66F JUMPI PUSH1 0x20 SWAP1 PUSH3 0x6D0 PUSH1 0x1F DUP3 ADD PUSH1 0x1F NOT AND DUP4 ADD PUSH3 0x649 JUMP JUMPDEST SWAP3 DUP2 DUP5 MSTORE DUP3 DUP3 DUP8 ADD ADD GT PUSH3 0x644 JUMPI PUSH1 0x0 JUMPDEST DUP2 DUP2 LT PUSH3 0x6F8 JUMPI POP DUP3 PUSH1 0x0 SWAP4 SWAP5 SWAP6 POP ADD ADD MSTORE SWAP1 JUMP JUMPDEST DUP6 DUP2 ADD DUP4 ADD MLOAD DUP5 DUP3 ADD DUP5 ADD MSTORE DUP3 ADD PUSH3 0x6E2 JUMP INVALID PUSH1 0x80 PUSH1 0x40 DUP2 DUP2 MSTORE PUSH1 0x4 CALLDATASIZE LT ISZERO PUSH2 0x14 JUMPI PUSH1 0x0 DUP1 REVERT JUMPDEST PUSH1 0x0 SWAP2 DUP3 CALLDATALOAD PUSH1 0xE0 SHR SWAP1 DUP2 PUSH4 0x2D05D3F EQ PUSH2 0x1A8E JUMPI POP DUP1 PUSH4 0x420A224 EQ PUSH2 0x1A71 JUMPI DUP1 PUSH4 0x5B34410 EQ PUSH2 0x1A37 JUMPI DUP1 PUSH4 0x1CA10799 EQ PUSH2 0x1A19 JUMPI DUP1 PUSH4 0x200D2ED2 EQ PUSH2 0x138F JUMPI DUP1 PUSH4 0x21701A15 EQ PUSH2 0x13FA JUMPI DUP1 PUSH4 0x28F371AA EQ PUSH2 0x13D7 JUMPI DUP1 PUSH4 0x4A79D50C EQ PUSH2 0x13BA JUMPI DUP1 PUSH4 0x4E69D560 EQ PUSH2 0x138F JUMPI DUP1 PUSH4 0x5A9B0B89 EQ PUSH2 0x1245 JUMPI DUP1 PUSH4 0x715018A6 EQ PUSH2 0x11EB JUMPI DUP1 PUSH4 0x784A6900 EQ PUSH2 0x1037 JUMPI DUP1 PUSH4 0x7F16FF9E EQ PUSH2 0x101A JUMPI DUP1 PUSH4 0x83C09675 EQ PUSH2 0xE6B JUMPI DUP1 PUSH4 0x854287A8 EQ PUSH2 0xC74 JUMPI DUP1 PUSH4 0x8DA5CB5B EQ PUSH2 0xC4D JUMPI DUP1 PUSH4 0x91098EE4 EQ PUSH2 0x85E JUMPI DUP1 PUSH4 0x99C1AADC EQ PUSH2 0x83D JUMPI DUP1 PUSH4 0xA36693B1 EQ PUSH2 0x629 JUMPI DUP1 PUSH4 0xC24A0F8B EQ PUSH2 0x5EF JUMPI DUP1 PUSH4 0xC34C08E5 EQ PUSH2 0x5C3 JUMPI DUP1 PUSH4 0xC45A0155 EQ PUSH2 0x580 JUMPI DUP1 PUSH4 0xD5987A38 EQ PUSH2 0x54C JUMPI DUP1 PUSH4 0xEA8A1AF0 EQ PUSH2 0x29C JUMPI DUP1 PUSH4 0xF07C7DC3 EQ PUSH2 0x27E JUMPI DUP1 PUSH4 0xF19D96EB EQ PUSH2 0x260 JUMPI DUP1 PUSH4 0xF2FDE38B EQ PUSH2 0x1CA JUMPI DUP1 PUSH4 0xFAFF660E EQ PUSH2 0x1A7 JUMPI PUSH4 0xFC0C546A EQ PUSH2 0x161 JUMPI PUSH1 0x0 DUP1 REVERT JUMPDEST CALLVALUE PUSH2 0x1A3 JUMPI DUP2 PUSH1 0x3 NOT CALLDATASIZE ADD SLT PUSH2 0x1A3 JUMPI MLOAD PUSH32 0x0 PUSH1 0x1 PUSH1 0x1 PUSH1 0xA0 SHL SUB AND DUP2 MSTORE PUSH1 0x20 SWAP1 RETURN JUMPDEST POP DUP1 REVERT JUMPDEST POP CALLVALUE PUSH2 0x1A3 JUMPI DUP2 PUSH1 0x3 NOT CALLDATASIZE ADD SLT PUSH2 0x1A3 JUMPI PUSH1 0x20 SWAP1 PUSH1 0xFF PUSH1 0x5 SLOAD AND SWAP1 MLOAD SWAP1 ISZERO ISZERO DUP2 MSTORE RETURN JUMPDEST POP CALLVALUE PUSH2 0x1A3 JUMPI PUSH1 0x20 CALLDATASIZE PUSH1 0x3 NOT ADD SLT PUSH2 0x1A3 JUMPI PUSH1 0x1 PUSH1 0x1 PUSH1 0xA0 SHL SUB PUSH1 0x4 CALLDATALOAD DUP2 DUP2 AND SWAP3 SWAP1 DUP4 SWAP1 SUB PUSH2 0x25C JUMPI PUSH2 0x1FB PUSH2 0x1FF2 JUMP JUMPDEST DUP3 ISZERO PUSH2 0x245 JUMPI POP PUSH1 0x0 SLOAD DUP3 PUSH12 0xFFFFFFFFFFFFFFFFFFFFFFFF PUSH1 0xA0 SHL DUP3 AND OR PUSH1 0x0 SSTORE AND PUSH32 0x8BE0079C531659141344CD1FD0A4F28419497F9722A3DAAFE3B4186F6B6457E0 PUSH1 0x0 DUP1 LOG3 DUP1 RETURN JUMPDEST MLOAD PUSH4 0x1E4FBDF7 PUSH1 0xE0 SHL DUP2 MSTORE PUSH1 0x4 DUP2 ADD DUP5 SWAP1 MSTORE PUSH1 0x24 SWAP1 REVERT JUMPDEST DUP4 DUP1 REVERT JUMPDEST POP CALLVALUE PUSH2 0x1A3 JUMPI DUP2 PUSH1 0x3 NOT CALLDATASIZE ADD SLT PUSH2 0x1A3 JUMPI PUSH1 0x20 SWAP1 PUSH1 0x4 SLOAD SWAP1 MLOAD SWAP1 DUP2 MSTORE RETURN JUMPDEST POP CALLVALUE PUSH2 0x1A3 JUMPI DUP2 PUSH1 0x3 NOT CALLDATASIZE ADD SLT PUSH2 0x1A3 JUMPI PUSH1 0x20 SWAP1 PUSH1 0x8 SLOAD SWAP1 MLOAD SWAP1 DUP2 MSTORE RETURN JUMPDEST POP CALLVALUE PUSH2 0x1A3 JUMPI DUP2 PUSH1 0x3 NOT CALLDATASIZE ADD SLT PUSH2 0x1A3 JUMPI PUSH32 0x0 PUSH1 0x1 PUSH1 0x1 PUSH1 0xA0 SHL SUB DUP2 DUP2 AND SWAP3 SWAP1 PUSH2 0x2E6 CALLER DUP6 EQ PUSH2 0x1FB4 JUMP JUMPDEST PUSH2 0x2EE PUSH2 0x201E JUMP JUMPDEST PUSH1 0x5 SLOAD SWAP3 PUSH1 0xFF DUP5 PUSH1 0x8 SHR AND SWAP4 PUSH1 0x6 DUP6 LT ISZERO PUSH2 0x538 JUMPI DUP5 PUSH2 0x4E8 JUMPI DUP3 DUP2 PUSH1 0x10 SHR AND PUSH2 0x4AF JUMPI PUSH2 0xFF00 NOT AND PUSH2 0x500 OR PUSH1 0x5 SSTORE PUSH1 0x4 DUP1 SLOAD DUP5 MLOAD PUSH4 0xA9059CBB PUSH1 0xE0 SHL DUP2 MSTORE PUSH1 0x1 PUSH1 0x1 PUSH1 0xA0 SHL SUB SWAP1 SWAP4 AND SWAP2 DUP4 ADD SWAP2 SWAP1 SWAP2 MSTORE PUSH1 0x24 DUP3 ADD MSTORE PUSH1 0x20 DUP2 DUP1 PUSH1 0x44 DUP2 ADD SUB DUP2 DUP10 DUP7 PUSH32 0x0 AND GAS CALL SWAP1 DUP2 ISZERO PUSH2 0x4A5 JUMPI SWAP1 PUSH2 0x38E SWAP2 DUP8 SWAP2 PUSH2 0x476 JUMPI JUMPDEST POP PUSH2 0x1F13 JUMP JUMPDEST PUSH32 0x0 AND SWAP2 PUSH1 0xFF PUSH1 0x5 SLOAD PUSH1 0x8 SHR AND PUSH1 0x6 DUP2 LT ISZERO PUSH2 0x462 JUMPI SWAP1 DUP4 SWAP3 SWAP2 DUP7 SWAP5 EXTCODESIZE ISZERO PUSH2 0x45E JUMPI DUP3 MLOAD PUSH4 0x1D8E2047 PUSH1 0xE0 SHL DUP2 MSTORE PUSH1 0xFF SWAP3 DUP4 AND PUSH1 0x4 DUP3 ADD MSTORE SWAP2 AND PUSH1 0x24 DUP3 ADD MSTORE SWAP2 DUP4 SWAP1 DUP4 SWAP1 PUSH1 0x44 SWAP1 DUP3 SWAP1 DUP5 SWAP1 GAS CALL SWAP1 DUP2 ISZERO PUSH2 0x455 JUMPI POP PUSH2 0x441 JUMPI JUMPDEST POP DUP1 PUSH32 0xEBBECBF8E22C4AF8CAFF6C302D6A9E3AFB6E5ABA9C78A382543A69E851209C1B SWAP2 LOG2 PUSH1 0x1 PUSH1 0x0 DUP1 MLOAD PUSH1 0x20 PUSH2 0x206F DUP4 CODECOPY DUP2 MLOAD SWAP2 MSTORE SSTORE DUP1 RETURN JUMPDEST PUSH2 0x44A SWAP1 PUSH2 0x1B0B JUMP JUMPDEST PUSH2 0x1A3 JUMPI DUP2 CODESIZE PUSH2 0x407 JUMP JUMPDEST MLOAD RETURNDATASIZE DUP5 DUP3 RETURNDATACOPY RETURNDATASIZE SWAP1 REVERT JUMPDEST DUP5 DUP1 REVERT JUMPDEST PUSH4 0x4E487B71 PUSH1 0xE0 SHL DUP7 MSTORE PUSH1 0x21 PUSH1 0x4 MSTORE PUSH1 0x24 DUP7 REVERT JUMPDEST PUSH2 0x498 SWAP2 POP PUSH1 0x20 RETURNDATASIZE PUSH1 0x20 GT PUSH2 0x49E JUMPI JUMPDEST PUSH2 0x490 DUP2 DUP4 PUSH2 0x1B35 JUMP JUMPDEST DUP2 ADD SWAP1 PUSH2 0x1EFB JUMP JUMPDEST CODESIZE PUSH2 0x388 JUMP JUMPDEST POP RETURNDATASIZE PUSH2 0x486 JUMP JUMPDEST DUP4 MLOAD RETURNDATASIZE DUP9 DUP3 RETURNDATACOPY RETURNDATASIZE SWAP1 REVERT JUMPDEST DUP4 MLOAD PUSH3 0x461BCD PUSH1 0xE5 SHL DUP2 MSTORE PUSH1 0x20 PUSH1 0x4 DUP3 ADD MSTORE PUSH1 0x12 PUSH1 0x24 DUP3 ADD MSTORE PUSH18 0x2CB0903430BC903AB71032B532B1BABA37B9 PUSH1 0x71 SHL PUSH1 0x44 DUP3 ADD MSTORE PUSH1 0x64 SWAP1 REVERT JUMPDEST DUP4 MLOAD PUSH3 0x461BCD PUSH1 0xE5 SHL DUP2 MSTORE PUSH1 0x20 PUSH1 0x4 DUP3 ADD MSTORE PUSH1 0x23 PUSH1 0x24 DUP3 ADD MSTORE PUSH32 0x536F6C6F2073652070756564652063616E63656C61722073692065737461204F PUSH1 0x44 DUP3 ADD MSTORE PUSH3 0x2822A7 PUSH1 0xE9 SHL PUSH1 0x64 DUP3 ADD MSTORE PUSH1 0x84 SWAP1 REVERT JUMPDEST PUSH4 0x4E487B71 PUSH1 0xE0 SHL DUP8 MSTORE PUSH1 0x21 PUSH1 0x4 MSTORE PUSH1 0x24 DUP8 REVERT JUMPDEST POP CALLVALUE PUSH2 0x1A3 JUMPI DUP2 PUSH1 0x3 NOT CALLDATASIZE ADD SLT PUSH2 0x1A3 JUMPI PUSH2 0x57C SWAP1 PUSH2 0x569 PUSH2 0x1D49 JUMP JUMPDEST SWAP1 MLOAD SWAP2 DUP3 SWAP2 PUSH1 0x20 DUP4 MSTORE PUSH1 0x20 DUP4 ADD SWAP1 PUSH2 0x1DE8 JUMP JUMPDEST SUB SWAP1 RETURN JUMPDEST POP CALLVALUE PUSH2 0x1A3 JUMPI DUP2 PUSH1 0x3 NOT CALLDATASIZE ADD SLT PUSH2 0x1A3 JUMPI MLOAD PUSH32 0x0 PUSH1 0x1 PUSH1 0x1 PUSH1 0xA0 SHL SUB AND DUP2 MSTORE PUSH1 0x20 SWAP1 RETURN JUMPDEST POP CALLVALUE PUSH2 0x1A3 JUMPI DUP2 PUSH1 0x3 NOT CALLDATASIZE ADD SLT PUSH2 0x1A3 JUMPI PUSH1 0x5 SLOAD SWAP1 MLOAD PUSH1 0x10 SWAP2 SWAP1 SWAP2 SHR PUSH1 0x1 PUSH1 0x1 PUSH1 0xA0 SHL SUB AND DUP2 MSTORE PUSH1 0x20 SWAP1 RETURN JUMPDEST POP CALLVALUE PUSH2 0x1A3 JUMPI DUP2 PUSH1 0x3 NOT CALLDATASIZE ADD SLT PUSH2 0x1A3 JUMPI PUSH1 0x20 SWAP1 MLOAD PUSH32 0x0 DUP2 MSTORE RETURN JUMPDEST POP SWAP1 CALLVALUE PUSH2 0x7B6 JUMPI DUP1 PUSH1 0x3 NOT CALLDATASIZE ADD SLT PUSH2 0x7B6 JUMPI PUSH2 0x643 PUSH2 0x201E JUMP JUMPDEST PUSH1 0x5 SLOAD SWAP2 PUSH1 0xFF DUP4 PUSH1 0x8 SHR AND SWAP3 PUSH1 0x6 DUP5 LT ISZERO PUSH2 0x829 JUMPI PUSH2 0x664 PUSH1 0x2 DUP6 EQ PUSH2 0x1EBC JUMP JUMPDEST PUSH1 0x8 SLOAD PUSH3 0x3F480 DUP2 ADD DUP1 SWAP2 GT PUSH2 0x815 JUMPI TIMESTAMP LT PUSH2 0x7DA JUMPI PUSH2 0xFF00 NOT AND PUSH2 0x400 OR PUSH1 0x5 SSTORE PUSH1 0x4 DUP1 SLOAD DUP3 MLOAD PUSH4 0xA9059CBB PUSH1 0xE0 SHL DUP2 MSTORE PUSH32 0x0 PUSH1 0x1 PUSH1 0x1 PUSH1 0xA0 SHL SUB SWAP1 DUP2 AND SWAP4 DUP3 ADD SWAP4 SWAP1 SWAP4 MSTORE PUSH1 0x24 DUP2 ADD SWAP2 SWAP1 SWAP2 MSTORE PUSH1 0x20 DUP2 PUSH1 0x44 DUP2 DUP8 PUSH32 0x0 DUP8 AND GAS CALL SWAP1 DUP2 ISZERO PUSH2 0x7CD JUMPI SWAP1 PUSH2 0x715 SWAP2 DUP6 SWAP2 PUSH2 0x476 JUMPI POP PUSH2 0x1F13 JUMP JUMPDEST PUSH32 0x0 AND SWAP1 PUSH1 0xFF PUSH1 0x5 SLOAD PUSH1 0x8 SHR AND SWAP4 PUSH1 0x6 DUP6 LT ISZERO PUSH2 0x7B9 JUMPI DUP4 SWAP5 DUP4 EXTCODESIZE ISZERO PUSH2 0x45E JUMPI DUP3 MLOAD PUSH4 0x1D8E2047 PUSH1 0xE0 SHL DUP2 MSTORE PUSH1 0xFF SWAP3 DUP4 AND PUSH1 0x4 DUP3 ADD MSTORE SWAP2 AND PUSH1 0x24 DUP3 ADD MSTORE SWAP2 DUP4 SWAP1 DUP4 SWAP1 PUSH1 0x44 SWAP1 DUP3 SWAP1 DUP5 SWAP1 GAS CALL SWAP1 DUP2 ISZERO PUSH2 0x455 JUMPI POP PUSH2 0x7A2 JUMPI JUMPDEST POP PUSH1 0x1 PUSH1 0x0 DUP1 MLOAD PUSH1 0x20 PUSH2 0x206F DUP4 CODECOPY DUP2 MLOAD SWAP2 MSTORE SSTORE DUP1 RETURN JUMPDEST PUSH2 0x7AB SWAP1 PUSH2 0x1B0B JUMP JUMPDEST PUSH2 0x7B6 JUMPI DUP1 CODESIZE PUSH2 0x78C JUMP JUMPDEST DUP1 REVERT JUMPDEST PUSH4 0x4E487B71 PUSH1 0xE0 SHL DUP5 MSTORE PUSH1 0x21 PUSH1 0x4 MSTORE PUSH1 0x24 DUP5 REVERT JUMPDEST POP POP POP MLOAD SWAP1 RETURNDATASIZE SWAP1 DUP3 RETURNDATACOPY RETURNDATASIZE SWAP1 REVERT JUMPDEST DUP2 MLOAD PUSH3 0x461BCD PUSH1 0xE5 SHL DUP2 MSTORE PUSH1 0x20 PUSH1 0x4 DUP3 ADD MSTORE PUSH1 0x14 PUSH1 0x24 DUP3 ADD MSTORE PUSH20 0x54696D656F7574206E6F20616C63616E7A61646F PUSH1 0x60 SHL PUSH1 0x44 DUP3 ADD MSTORE PUSH1 0x64 SWAP1 REVERT JUMPDEST PUSH4 0x4E487B71 PUSH1 0xE0 SHL DUP5 MSTORE PUSH1 0x11 PUSH1 0x4 MSTORE PUSH1 0x24 DUP5 REVERT JUMPDEST PUSH4 0x4E487B71 PUSH1 0xE0 SHL DUP4 MSTORE PUSH1 0x21 PUSH1 0x4 MSTORE PUSH1 0x24 DUP4 REVERT JUMPDEST POP CALLVALUE PUSH2 0x1A3 JUMPI DUP2 PUSH1 0x3 NOT CALLDATASIZE ADD SLT PUSH2 0x1A3 JUMPI PUSH1 0x20 SWAP1 PUSH1 0xFF PUSH1 0x3 SLOAD AND SWAP1 MLOAD SWAP1 DUP2 MSTORE RETURN JUMPDEST POP CALLVALUE PUSH2 0x1A3 JUMPI PUSH1 0x20 DUP1 PUSH1 0x3 NOT CALLDATASIZE ADD SLT PUSH2 0xC49 JUMPI PUSH8 0xFFFFFFFFFFFFFFFF SWAP1 PUSH1 0x4 CALLDATALOAD DUP3 DUP2 GT PUSH2 0x45E JUMPI PUSH2 0x893 SWAP1 CALLDATASIZE SWAP1 PUSH1 0x4 ADD PUSH2 0x1E4B JUMP JUMPDEST SWAP4 SWAP1 SWAP3 PUSH2 0x89E PUSH2 0x201E JUMP JUMPDEST PUSH1 0x5 SWAP1 DUP2 SLOAD SWAP1 PUSH1 0xFF DUP3 PUSH1 0x8 SHR AND SWAP2 PUSH1 0x6 SWAP3 DUP4 DUP2 LT ISZERO PUSH2 0xC35 JUMPI PUSH2 0xC01 JUMPI PUSH32 0x0 TIMESTAMP LT ISZERO PUSH2 0xBCA JUMPI DUP8 ISZERO PUSH2 0xB9A JUMPI PUSH3 0x10000 PUSH1 0x1 PUSH1 0xB0 SHL SUB NOT AND CALLER PUSH1 0x10 SHL PUSH3 0x10000 PUSH1 0x1 PUSH1 0xB0 SHL SUB AND OR DUP4 SSTORE DUP7 GT PUSH2 0xB86 JUMPI PUSH2 0x917 DUP2 SLOAD PUSH2 0x1AD1 JUMP JUMPDEST PUSH1 0x1F DUP2 GT PUSH2 0xB25 JUMPI JUMPDEST POP DUP7 DUP7 PUSH1 0x1F DUP2 GT PUSH1 0x1 EQ PUSH2 0xAA5 JUMPI DUP1 PUSH2 0x94E SWAP3 DUP11 SWAP2 PUSH2 0xA9A JUMPI JUMPDEST POP DUP2 PUSH1 0x1 SHL SWAP2 PUSH1 0x0 NOT SWAP1 PUSH1 0x3 SHL SHR NOT AND OR SWAP1 JUMP JUMPDEST DUP2 SSTORE JUMPDEST TIMESTAMP PUSH1 0x7 SSTORE DUP2 SLOAD SWAP1 PUSH1 0xFF DUP3 PUSH1 0x8 SHR AND SWAP2 DUP2 DUP4 LT ISZERO PUSH2 0xA86 JUMPI PUSH2 0xFF00 NOT AND PUSH2 0x100 OR SWAP3 DUP4 SWAP1 SSTORE PUSH32 0x0 PUSH1 0x1 PUSH1 0x1 PUSH1 0xA0 SHL SUB AND SWAP3 PUSH1 0x8 SHR PUSH1 0xFF AND SWAP1 DUP2 LT ISZERO PUSH2 0xA72 JUMPI SWAP1 DUP3 SWAP2 DUP9 SWAP4 EXTCODESIZE ISZERO PUSH2 0x25C JUMPI DUP5 MLOAD PUSH4 0x1D8E2047 PUSH1 0xE0 SHL DUP2 MSTORE PUSH1 0xFF SWAP3 DUP4 AND PUSH1 0x4 DUP3 ADD MSTORE SWAP2 AND PUSH1 0x24 DUP3 ADD MSTORE SWAP1 DUP3 SWAP1 DUP3 SWAP1 PUSH1 0x44 SWAP1 DUP3 SWAP1 DUP5 SWAP1 GAS CALL DUP1 ISZERO PUSH2 0xA68 JUMPI SWAP1 DUP7 SWAP3 SWAP2 PUSH2 0xA51 JUMPI JUMPDEST POP POP PUSH32 0xAC470955C2D1B04BF1A1BC9E3AECBC595816126AF46DDE4A7A11839384DB7433 SWAP4 DUP2 DUP4 MLOAD SWAP5 DUP1 DUP7 MSTORE DUP6 ADD MSTORE DUP3 DUP5 ADD CALLDATACOPY DUP5 DUP2 DUP6 DUP5 ADD ADD MSTORE DUP2 CALLER SWAP5 PUSH1 0x1F DUP1 NOT SWAP2 ADD AND DUP2 ADD SUB ADD SWAP1 LOG2 PUSH1 0x1 PUSH1 0x0 DUP1 MLOAD PUSH1 0x20 PUSH2 0x206F DUP4 CODECOPY DUP2 MLOAD SWAP2 MSTORE SSTORE DUP1 RETURN JUMPDEST PUSH2 0xA5C SWAP2 SWAP3 POP PUSH2 0x1B0B JUMP JUMPDEST PUSH2 0x45E JUMPI DUP4 DUP6 CODESIZE PUSH2 0x9F3 JUMP JUMPDEST DUP4 MLOAD RETURNDATASIZE DUP5 DUP3 RETURNDATACOPY RETURNDATASIZE SWAP1 REVERT JUMPDEST PUSH4 0x4E487B71 PUSH1 0xE0 SHL DUP9 MSTORE PUSH1 0x21 PUSH1 0x4 MSTORE PUSH1 0x24 DUP9 REVERT JUMPDEST PUSH4 0x4E487B71 PUSH1 0xE0 SHL DUP10 MSTORE PUSH1 0x21 PUSH1 0x4 MSTORE PUSH1 0x24 DUP10 REVERT JUMPDEST SWAP1 POP DUP8 ADD CALLDATALOAD CODESIZE PUSH2 0x93A JUMP JUMPDEST POP DUP2 DUP9 MSTORE PUSH32 0xF652222313E28459528D920B65115C16C04F3EFC82AAEDC97BE59F3F377C0D3F SWAP1 DUP8 PUSH1 0x1F NOT DUP2 AND DUP11 JUMPDEST DUP9 DUP3 DUP3 LT PUSH2 0xB0C JUMPI POP POP LT PUSH2 0xAF2 JUMPI JUMPDEST POP POP PUSH1 0x1 DUP7 DUP2 SHL ADD DUP2 SSTORE PUSH2 0x951 JUMP JUMPDEST DUP7 ADD CALLDATALOAD PUSH1 0x0 NOT PUSH1 0x3 DUP10 SWAP1 SHL PUSH1 0xF8 AND SHR NOT AND SWAP1 SSTORE CODESIZE DUP1 PUSH2 0xAE3 JUMP JUMPDEST DUP11 DUP6 ADD CALLDATALOAD DUP7 SSTORE PUSH1 0x1 SWAP1 SWAP6 ADD SWAP5 SWAP4 DUP5 ADD SWAP4 DUP12 SWAP4 POP ADD PUSH2 0xAD3 JUMP JUMPDEST DUP2 PUSH1 0x0 MSTORE PUSH32 0xF652222313E28459528D920B65115C16C04F3EFC82AAEDC97BE59F3F377C0D3F PUSH1 0x1F DUP9 ADD DUP5 SHR DUP2 ADD SWAP2 DUP7 DUP10 LT PUSH2 0xB7C JUMPI JUMPDEST PUSH1 0x1F ADD DUP5 SHR ADD SWAP1 JUMPDEST DUP2 DUP2 LT PUSH2 0xB70 JUMPI POP PUSH2 0x920 JUMP JUMPDEST PUSH1 0x0 DUP2 SSTORE PUSH1 0x1 ADD PUSH2 0xB63 JUMP JUMPDEST SWAP1 SWAP2 POP DUP2 SWAP1 PUSH2 0xB5B JUMP JUMPDEST PUSH4 0x4E487B71 PUSH1 0xE0 SHL DUP8 MSTORE PUSH1 0x41 PUSH1 0x4 MSTORE PUSH1 0x24 DUP8 REVERT JUMPDEST DUP5 MLOAD PUSH3 0x461BCD PUSH1 0xE5 SHL DUP2 MSTORE PUSH1 0x4 DUP2 ADD DUP8 SWAP1 MSTORE PUSH1 0x9 PUSH1 0x24 DUP3 ADD MSTORE PUSH9 0x55524C207661636961 PUSH1 0xB8 SHL PUSH1 0x44 DUP3 ADD MSTORE PUSH1 0x64 SWAP1 REVERT JUMPDEST DUP5 MLOAD PUSH3 0x461BCD PUSH1 0xE5 SHL DUP2 MSTORE PUSH1 0x4 DUP2 ADD DUP8 SWAP1 MSTORE PUSH1 0x10 PUSH1 0x24 DUP3 ADD MSTORE PUSH16 0x436F6E747261746F2076656E6369646F PUSH1 0x80 SHL PUSH1 0x44 DUP3 ADD MSTORE PUSH1 0x64 SWAP1 REVERT JUMPDEST DUP5 MLOAD PUSH3 0x461BCD PUSH1 0xE5 SHL DUP2 MSTORE PUSH1 0x4 DUP2 ADD DUP8 SWAP1 MSTORE PUSH1 0xD PUSH1 0x24 DUP3 ADD MSTORE PUSH13 0x4E6F20646973706F6E69626C65 PUSH1 0x98 SHL PUSH1 0x44 DUP3 ADD MSTORE PUSH1 0x64 SWAP1 REVERT JUMPDEST PUSH4 0x4E487B71 PUSH1 0xE0 SHL DUP11 MSTORE PUSH1 0x21 PUSH1 0x4 MSTORE PUSH1 0x24 DUP11 REVERT JUMPDEST DUP3 DUP1 REVERT JUMPDEST POP CALLVALUE PUSH2 0x1A3 JUMPI DUP2 PUSH1 0x3 NOT CALLDATASIZE ADD SLT PUSH2 0x1A3 JUMPI SWAP1 SLOAD SWAP1 MLOAD PUSH1 0x1 PUSH1 0x1 PUSH1 0xA0 SHL SUB SWAP1 SWAP2 AND DUP2 MSTORE PUSH1 0x20 SWAP1 RETURN JUMPDEST POP SWAP1 CALLVALUE PUSH2 0x7B6 JUMPI PUSH1 0x20 SWAP2 DUP3 PUSH1 0x3 NOT CALLDATASIZE ADD SLT PUSH2 0x1A3 JUMPI PUSH1 0x4 CALLDATALOAD PUSH2 0xC94 PUSH2 0x201E JUMP JUMPDEST PUSH1 0x1 PUSH1 0x1 PUSH1 0xA0 SHL SUB PUSH2 0xCC9 CALLER PUSH32 0x0 DUP4 AND EQ PUSH2 0x1FB4 JUMP JUMPDEST PUSH1 0xFF PUSH1 0x5 SLOAD PUSH1 0x8 SHR AND PUSH1 0x6 DUP2 LT ISZERO PUSH2 0xE57 JUMPI DUP1 ISZERO SWAP1 DUP2 ISZERO PUSH2 0xE4C JUMPI JUMPDEST POP ISZERO PUSH2 0xDFC JUMPI DUP5 DUP5 SWAP2 PUSH2 0xCF9 DUP5 ISZERO ISZERO PUSH2 0x1F54 JUMP JUMPDEST PUSH1 0x64 DUP6 MLOAD DUP1 SWAP5 DUP2 SWAP4 PUSH4 0x23B872DD PUSH1 0xE0 SHL DUP4 MSTORE CALLER PUSH1 0x4 DUP5 ADD MSTORE ADDRESS PUSH1 0x24 DUP5 ADD MSTORE DUP8 PUSH1 0x44 DUP5 ADD MSTORE PUSH32 0x0 AND GAS CALL SWAP1 DUP2 ISZERO PUSH2 0x7CD JUMPI DUP5 SWAP2 PUSH2 0xDDF JUMPI JUMPDEST POP ISZERO PUSH2 0xDA8 JUMPI PUSH32 0xE292D9413BBF8109EBC64CA5578582BAEBE6AB565EFAE2F604CF9BBD2638ECDF SWAP3 SWAP4 PUSH2 0xD85 PUSH1 0x4 SLOAD SWAP3 DUP4 PUSH2 0x1F91 JUMP JUMPDEST SWAP1 DUP2 PUSH1 0x4 SSTORE DUP4 MLOAD SWAP3 DUP4 MSTORE DUP3 ADD MSTORE LOG1 PUSH1 0x1 PUSH1 0x0 DUP1 MLOAD PUSH1 0x20 PUSH2 0x206F DUP4 CODECOPY DUP2 MLOAD SWAP2 MSTORE SSTORE DUP1 RETURN JUMPDEST DUP2 MLOAD PUSH3 0x461BCD PUSH1 0xE5 SHL DUP2 MSTORE PUSH1 0x4 DUP2 ADD DUP6 SWAP1 MSTORE PUSH1 0x10 PUSH1 0x24 DUP3 ADD MSTORE PUSH16 0x5472616E736665722066616C6C696461 PUSH1 0x80 SHL PUSH1 0x44 DUP3 ADD MSTORE PUSH1 0x64 SWAP1 REVERT JUMPDEST PUSH2 0xDF6 SWAP2 POP DUP6 RETURNDATASIZE DUP8 GT PUSH2 0x49E JUMPI PUSH2 0x490 DUP2 DUP4 PUSH2 0x1B35 JUMP JUMPDEST CODESIZE PUSH2 0xD4F JUMP JUMPDEST DUP3 MLOAD PUSH3 0x461BCD PUSH1 0xE5 SHL DUP2 MSTORE PUSH1 0x4 DUP2 ADD DUP7 SWAP1 MSTORE PUSH1 0x23 PUSH1 0x24 DUP3 ADD MSTORE PUSH32 0x4E6F2073652070756564652061756D656E74617220656E206573746520657374 PUSH1 0x44 DUP3 ADD MSTORE PUSH3 0x61646F PUSH1 0xE8 SHL PUSH1 0x64 DUP3 ADD MSTORE PUSH1 0x84 SWAP1 REVERT JUMPDEST PUSH1 0x1 SWAP2 POP EQ CODESIZE PUSH2 0xCE5 JUMP JUMPDEST PUSH4 0x4E487B71 PUSH1 0xE0 SHL DUP6 MSTORE PUSH1 0x21 PUSH1 0x4 MSTORE PUSH1 0x24 DUP6 REVERT JUMPDEST POP SWAP1 CALLVALUE PUSH2 0x7B6 JUMPI DUP1 PUSH1 0x3 NOT CALLDATASIZE ADD SLT PUSH2 0x7B6 JUMPI PUSH1 0x1 PUSH1 0x1 PUSH1 0xA0 SHL SUB PUSH2 0xEB2 CALLER PUSH32 0x0 DUP4 AND EQ PUSH2 0x1FB4 JUMP JUMPDEST PUSH1 0x5 SLOAD SWAP3 PUSH1 0xFF DUP5 PUSH1 0x8 SHR AND SWAP4 PUSH1 0x6 DUP6 LT ISZERO PUSH2 0x7B9 JUMPI PUSH1 0x1 DUP6 SUB PUSH2 0xFE3 JUMPI PUSH2 0x200 PUSH1 0xFF SWAP2 PUSH2 0xFF00 NOT AND OR SWAP3 DUP4 PUSH1 0x5 SSTORE TIMESTAMP PUSH1 0x8 SSTORE PUSH32 0x0 AND SWAP3 PUSH1 0x8 SHR AND PUSH1 0x6 DUP2 LT ISZERO PUSH2 0x7B9 JUMPI DUP4 SWAP5 DUP4 EXTCODESIZE ISZERO PUSH2 0x45E JUMPI DUP3 MLOAD PUSH4 0x1D8E2047 PUSH1 0xE0 SHL DUP2 MSTORE PUSH1 0xFF SWAP2 DUP3 AND PUSH1 0x4 DUP3 ADD MSTORE SWAP2 AND PUSH1 0x24 DUP3 ADD MSTORE DUP4 DUP2 PUSH1 0x44 DUP2 DUP4 DUP8 GAS CALL DUP1 ISZERO PUSH2 0xFD9 JUMPI SWAP1 DUP5 SWAP2 PUSH2 0xFC5 JUMPI JUMPDEST POP POP DUP2 EXTCODESIZE ISZERO PUSH2 0xFC1 JUMPI DUP3 DUP1 SWAP3 PUSH1 0x24 DUP4 MLOAD DUP1 SWAP6 DUP2 SWAP4 PUSH4 0x9F029A71 PUSH1 0xE0 SHL DUP4 MSTORE ADDRESS PUSH1 0x4 DUP5 ADD MSTORE GAS CALL SWAP1 DUP2 ISZERO PUSH2 0x455 JUMPI POP PUSH2 0xFAD JUMPI JUMPDEST POP ADDRESS PUSH32 0x240C264A21C2718C9FC2E96638B07D52C28470EC9D4D069D670CEE203E35936A DUP3 DUP1 LOG2 DUP1 RETURN JUMPDEST PUSH2 0xFB6 SWAP1 PUSH2 0x1B0B JUMP JUMPDEST PUSH2 0x7B6 JUMPI DUP1 CODESIZE PUSH2 0xF84 JUMP JUMPDEST POP POP REVERT JUMPDEST PUSH2 0xFCE SWAP1 PUSH2 0x1B0B JUMP JUMPDEST PUSH2 0xFC1 JUMPI DUP3 CODESIZE PUSH2 0xF51 JUMP JUMPDEST DUP3 MLOAD RETURNDATASIZE DUP7 DUP3 RETURNDATACOPY RETURNDATASIZE SWAP1 REVERT JUMPDEST DUP2 MLOAD PUSH3 0x461BCD PUSH1 0xE5 SHL DUP2 MSTORE PUSH1 0x20 PUSH1 0x4 DUP3 ADD MSTORE PUSH1 0x10 PUSH1 0x24 DUP3 ADD MSTORE PUSH16 0x2730B2309038BAB2903B30B634B230B9 PUSH1 0x81 SHL PUSH1 0x44 DUP3 ADD MSTORE PUSH1 0x64 SWAP1 REVERT JUMPDEST POP CALLVALUE PUSH2 0x1A3 JUMPI DUP2 PUSH1 0x3 NOT CALLDATASIZE ADD SLT PUSH2 0x1A3 JUMPI PUSH2 0x57C SWAP1 PUSH2 0x569 PUSH2 0x1CAA JUMP JUMPDEST POP CALLVALUE PUSH2 0x1A3 JUMPI PUSH1 0x20 SWAP1 PUSH1 0x20 PUSH1 0x3 NOT CALLDATASIZE ADD SLT PUSH2 0xC49 JUMPI PUSH1 0x1 PUSH1 0x1 PUSH1 0xA0 SHL SUB PUSH2 0x109A PUSH1 0x4 CALLDATALOAD PUSH2 0x1087 CALLER PUSH32 0x0 DUP6 AND EQ PUSH2 0x1E7E JUMP JUMPDEST PUSH2 0x1092 DUP2 ISZERO ISZERO PUSH2 0x1F54 JUMP JUMPDEST PUSH1 0x4 SLOAD PUSH2 0x1F91 JUMP JUMPDEST DUP1 PUSH1 0x4 SSTORE DUP3 MLOAD SWAP3 DUP1 DUP5 MSTORE DUP6 SWAP5 PUSH1 0x1 DUP1 SLOAD PUSH2 0x10B3 DUP2 PUSH2 0x1AD1 JUMP JUMPDEST DUP1 SWAP5 DUP9 ADD MSTORE PUSH1 0x60 SWAP1 PUSH1 0x1 DUP2 AND SWAP1 DUP2 PUSH1 0x0 EQ PUSH2 0x11A0 JUMPI POP PUSH1 0x1 EQ PUSH2 0x1125 JUMPI JUMPDEST PUSH1 0x20 DUP8 ADD DUP6 SWAP1 MSTORE DUP9 PUSH32 0x0 DUP8 AND PUSH32 0xC350AC134280A527F410CAAD1FA322557288C7C758738C97239E0DE487798ECB DUP10 DUP12 SUB DUP11 LOG2 DUP1 RETURN JUMPDEST PUSH1 0x1 DUP10 MSTORE SWAP4 SWAP7 POP DUP8 SWAP4 PUSH32 0xB10E2D527612073B26EECDFD717E6A320CF44B4AFAC2B0732D9FCBE2B7FA0CF6 JUMPDEST DUP5 DUP7 LT PUSH2 0x118D JUMPI POP POP POP POP SWAP1 DUP4 ADD PUSH1 0x60 ADD SWAP4 SWAP1 POP DUP2 PUSH32 0xC350AC134280A527F410CAAD1FA322557288C7C758738C97239E0DE487798ECB DUP5 CODESIZE PUSH2 0x10D1 JUMP JUMPDEST DUP1 SLOAD DUP9 DUP8 ADD DUP4 ADD MSTORE SWAP5 DUP4 ADD SWAP5 DUP3 ADD PUSH2 0x1150 JUMP JUMPDEST PUSH1 0xFF NOT AND PUSH1 0x60 DUP1 DUP11 ADD SWAP2 SWAP1 SWAP2 MSTORE SWAP5 ISZERO ISZERO PUSH1 0x5 SHL DUP9 ADD SWAP1 SWAP5 ADD SWAP8 POP DUP6 SWAP4 POP PUSH32 0xC350AC134280A527F410CAAD1FA322557288C7C758738C97239E0DE487798ECB SWAP3 POP DUP7 SWAP2 POP CODESIZE SWAP1 POP PUSH2 0x10D1 JUMP JUMPDEST DUP3 CALLVALUE PUSH2 0x7B6 JUMPI DUP1 PUSH1 0x3 NOT CALLDATASIZE ADD SLT PUSH2 0x7B6 JUMPI PUSH2 0x1204 PUSH2 0x1FF2 JUMP JUMPDEST PUSH1 0x0 DUP1 SLOAD PUSH1 0x1 PUSH1 0x1 PUSH1 0xA0 SHL SUB NOT DUP2 AND DUP3 SSTORE PUSH1 0x1 PUSH1 0x1 PUSH1 0xA0 SHL SUB AND PUSH32 0x8BE0079C531659141344CD1FD0A4F28419497F9722A3DAAFE3B4186F6B6457E0 DUP3 DUP1 LOG3 DUP1 RETURN JUMPDEST POP CALLVALUE PUSH2 0x1A3 JUMPI DUP2 PUSH1 0x3 NOT CALLDATASIZE ADD SLT PUSH2 0x1A3 JUMPI PUSH2 0x12DE SWAP1 PUSH2 0x57C PUSH1 0x4 SLOAD PUSH1 0xFF PUSH1 0x3 SLOAD AND SWAP3 PUSH1 0x5 SLOAD PUSH1 0x1 DUP1 PUSH1 0xA0 SHL SUB PUSH1 0xFF PUSH1 0x9 SLOAD AND SWAP2 PUSH2 0x1280 PUSH2 0x1C0B JUMP JUMPDEST SWAP7 PUSH2 0x12F8 PUSH2 0x128C PUSH2 0x1CAA JUMP JUMPDEST SWAP6 PUSH2 0x12EA PUSH2 0x1298 PUSH2 0x1D49 JUMP JUMPDEST SWAP2 PUSH2 0x12A1 PUSH2 0x1B57 JUMP JUMPDEST SWAP9 DUP2 MLOAD DUP1 SWAP15 DUP2 SWAP15 PUSH2 0x1A0 DUP12 PUSH32 0x0 AND DUP5 MSTORE DUP1 PUSH1 0x20 DUP6 ADD MSTORE DUP4 ADD SWAP1 PUSH2 0x1DE8 JUMP JUMPDEST SWAP3 DUP2 DUP5 SUB SWAP2 ADD MSTORE PUSH2 0x1DE8 JUMP JUMPDEST SWAP1 DUP11 DUP3 SUB PUSH1 0x60 DUP13 ADD MSTORE PUSH2 0x1DE8 JUMP JUMPDEST SWAP6 PUSH32 0x0 PUSH1 0x80 DUP11 ADD MSTORE PUSH32 0x0 PUSH1 0xA0 DUP11 ADD MSTORE PUSH1 0xC0 DUP10 ADD MSTORE PUSH1 0xE0 DUP9 ADD MSTORE PUSH1 0xFF DUP2 AND ISZERO ISZERO PUSH2 0x100 DUP9 ADD MSTORE PUSH2 0x136F PUSH2 0x120 DUP9 ADD PUSH1 0xFF DUP4 PUSH1 0x8 SHR AND PUSH2 0x1E28 JUMP JUMPDEST PUSH1 0x10 SHR AND PUSH2 0x140 DUP7 ADD MSTORE ISZERO ISZERO PUSH2 0x160 DUP6 ADD MSTORE DUP4 DUP3 SUB PUSH2 0x180 DUP6 ADD MSTORE PUSH2 0x1DE8 JUMP JUMPDEST POP CALLVALUE PUSH2 0x1A3 JUMPI DUP2 PUSH1 0x3 NOT CALLDATASIZE ADD SLT PUSH2 0x1A3 JUMPI PUSH1 0x20 SWAP1 PUSH2 0x13B8 PUSH1 0xFF PUSH1 0x5 SLOAD PUSH1 0x8 SHR AND SWAP2 MLOAD DUP1 SWAP3 PUSH2 0x1E28 JUMP JUMPDEST RETURN JUMPDEST POP CALLVALUE PUSH2 0x1A3 JUMPI DUP2 PUSH1 0x3 NOT CALLDATASIZE ADD SLT PUSH2 0x1A3 JUMPI PUSH2 0x57C SWAP1 PUSH2 0x569 PUSH2 0x1C0B JUMP JUMPDEST POP CALLVALUE PUSH2 0x1A3 JUMPI DUP2 PUSH1 0x3 NOT CALLDATASIZE ADD SLT PUSH2 0x1A3 JUMPI PUSH1 0x20 SWAP1 PUSH1 0xFF PUSH1 0x9 SLOAD AND SWAP1 MLOAD SWAP1 ISZERO ISZERO DUP2 MSTORE RETURN JUMPDEST POP CALLVALUE PUSH2 0x1A3 JUMPI PUSH1 0x20 CALLDATASIZE PUSH1 0x3 NOT ADD SLT PUSH2 0x1A3 JUMPI PUSH8 0xFFFFFFFFFFFFFFFF PUSH1 0x4 CALLDATALOAD DUP2 DUP2 GT PUSH2 0x25C JUMPI PUSH2 0x142D SWAP1 CALLDATASIZE SWAP1 PUSH1 0x4 ADD PUSH2 0x1E4B JUMP JUMPDEST SWAP1 SWAP3 SWAP1 PUSH2 0x1464 CALLER PUSH32 0x0 PUSH1 0x1 PUSH1 0x1 PUSH1 0xA0 SHL SUB AND EQ PUSH2 0x1E7E JUMP JUMPDEST PUSH1 0xFF PUSH1 0x5 SLOAD PUSH1 0x8 SHR AND SWAP1 PUSH1 0x6 DUP3 LT ISZERO PUSH2 0x462 JUMPI PUSH2 0x1483 PUSH1 0x2 DUP4 EQ PUSH2 0x1EBC JUMP JUMPDEST DUP5 ADD SWAP3 PUSH1 0x60 DUP6 DUP6 SUB SLT PUSH2 0x1A15 JUMPI DUP5 CALLDATALOAD PUSH1 0x1 PUSH1 0x1 PUSH1 0xA0 SHL SUB DUP2 AND SWAP1 DUP2 SWAP1 SUB PUSH2 0x1A11 JUMPI PUSH1 0x20 DUP7 ADD CALLDATALOAD DUP1 ISZERO ISZERO SWAP1 SUB PUSH2 0x1A11 JUMPI DUP4 DUP7 ADD CALLDATALOAD DUP3 DUP2 GT PUSH2 0x1A0D JUMPI DUP7 ADD SWAP1 DUP6 PUSH1 0x1F DUP4 ADD SLT ISZERO PUSH2 0x1A0D JUMPI DUP2 CALLDATALOAD SWAP2 DUP4 DUP4 GT PUSH2 0x19F9 JUMPI DUP9 SWAP1 PUSH1 0x1F NOT SWAP4 DUP8 MLOAD SWAP9 PUSH2 0x14F0 PUSH1 0x20 DUP8 PUSH1 0x1F DUP6 ADD AND ADD DUP12 PUSH2 0x1B35 JUMP JUMPDEST DUP2 DUP11 MSTORE PUSH1 0x20 DUP3 DUP5 ADD ADD GT PUSH2 0xC49 JUMPI DUP1 PUSH1 0x20 DUP1 SWAP4 ADD DUP4 DUP12 ADD CALLDATACOPY DUP9 ADD ADD MSTORE ADDRESS SUB PUSH2 0x19BE JUMPI PUSH1 0xFF NOT PUSH1 0x9 SLOAD AND PUSH1 0xFF PUSH1 0x20 DUP9 ADD CALLDATALOAD ISZERO ISZERO AND OR PUSH1 0x9 SSTORE DUP5 MLOAD SWAP2 DUP3 GT PUSH2 0xB86 JUMPI PUSH2 0x153B PUSH1 0xA SLOAD PUSH2 0x1AD1 JUMP JUMPDEST PUSH1 0x1F DUP2 GT PUSH2 0x1953 JUMPI JUMPDEST POP PUSH1 0x20 SWAP1 PUSH1 0x1F DUP4 GT PUSH1 0x1 EQ PUSH2 0x18E7 JUMPI POP SWAP1 DUP1 PUSH2 0x1574 SWAP3 DUP9 SWAP2 PUSH2 0x18DC JUMPI POP DUP2 PUSH1 0x1 SHL SWAP2 PUSH1 0x0 NOT SWAP1 PUSH1 0x3 SHL SHR NOT AND OR SWAP1 JUMP JUMPDEST PUSH1 0xA SSTORE JUMPDEST PUSH1 0x20 DUP5 ADD CALLDATALOAD ISZERO PUSH2 0x17D7 JUMPI PUSH1 0x5 DUP1 SLOAD PUSH2 0xFF00 NOT AND PUSH2 0x300 OR SWAP1 DUP2 SWAP1 SSTORE PUSH1 0x4 DUP1 SLOAD DUP5 MLOAD PUSH4 0xA9059CBB PUSH1 0xE0 SHL DUP2 MSTORE PUSH1 0x10 SWAP4 SWAP1 SWAP4 SHR PUSH1 0x1 PUSH1 0x1 PUSH1 0xA0 SHL SUB AND SWAP2 DUP4 ADD SWAP2 SWAP1 SWAP2 MSTORE PUSH1 0x24 DUP3 ADD MSTORE PUSH1 0x20 DUP2 DUP1 PUSH1 0x44 DUP2 ADD SUB DUP2 DUP10 PUSH32 0x0 PUSH1 0x1 PUSH1 0x1 PUSH1 0xA0 SHL SUB AND GAS CALL SWAP1 DUP2 ISZERO PUSH2 0x4A5 JUMPI DUP7 SWAP2 PUSH2 0x17B8 JUMPI JUMPDEST POP ISZERO PUSH2 0x1785 JUMPI PUSH1 0x1 DUP1 PUSH1 0xA0 SHL SUB PUSH1 0x5 SLOAD PUSH1 0x10 SHR AND PUSH32 0xAAD24D8919447735C8907EF8CB19A9A5DD8574F3AEC5D471A0F7C540F3836FBF PUSH1 0x4 SLOAD DUP5 MLOAD SWAP1 DUP2 MSTORE DUP5 PUSH1 0x20 DUP3 ADD MSTORE DUP1 PUSH2 0x1653 DUP7 DUP3 ADD DUP9 PUSH2 0x1DE8 JUMP JUMPDEST SUB SWAP1 LOG2 JUMPDEST PUSH1 0xFF PUSH1 0x5 SLOAD PUSH1 0x8 SHR AND PUSH1 0x6 DUP2 LT ISZERO PUSH2 0x462 JUMPI DUP6 SWAP1 PUSH32 0x0 PUSH1 0x1 PUSH1 0x1 PUSH1 0xA0 SHL SUB AND EXTCODESIZE ISZERO PUSH2 0x1A3 JUMPI DUP4 MLOAD PUSH4 0x1D8E2047 PUSH1 0xE0 SHL DUP2 MSTORE PUSH1 0xFF SWAP4 DUP5 AND PUSH1 0x4 DUP3 ADD MSTORE SWAP3 AND PUSH1 0x24 DUP4 ADD MSTORE DUP2 PUSH1 0x44 DUP2 DUP4 PUSH1 0x1 PUSH1 0x1 PUSH1 0xA0 SHL SUB PUSH32 0x0 AND GAS CALL DUP1 ISZERO PUSH2 0x177B JUMPI PUSH2 0x173D JUMPI JUMPDEST POP SWAP2 PUSH2 0x1737 PUSH1 0x20 SWAP3 DUP5 PUSH32 0xC0064232451BBE55312283D0089335D92C1969FD74C200D794B58A485909E647 SWAP6 MLOAD SWAP5 DUP6 SWAP5 ADD CALLDATALOAD ISZERO ISZERO DUP5 MSTORE DUP1 PUSH1 0x20 DUP6 ADD MSTORE DUP4 ADD SWAP1 PUSH2 0x1DE8 JUMP JUMPDEST SUB SWAP1 LOG1 DUP1 RETURN JUMPDEST PUSH1 0x20 SWAP3 PUSH32 0xC0064232451BBE55312283D0089335D92C1969FD74C200D794B58A485909E647 SWAP5 SWAP3 SWAP6 PUSH2 0x1770 PUSH2 0x1737 SWAP4 PUSH2 0x1B0B JUMP JUMPDEST SWAP6 SWAP3 SWAP5 POP SWAP3 POP PUSH2 0x16F4 JUMP JUMPDEST DUP3 MLOAD RETURNDATASIZE DUP8 DUP3 RETURNDATACOPY RETURNDATASIZE SWAP1 REVERT JUMPDEST DUP2 MLOAD PUSH3 0x461BCD PUSH1 0xE5 SHL DUP2 MSTORE PUSH1 0x20 PUSH1 0x4 DUP3 ADD MSTORE PUSH1 0xC PUSH1 0x24 DUP3 ADD MSTORE PUSH12 0x5061676F2066616C6C69646F PUSH1 0xA0 SHL PUSH1 0x44 DUP3 ADD MSTORE PUSH1 0x64 SWAP1 REVERT JUMPDEST PUSH2 0x17D1 SWAP2 POP PUSH1 0x20 RETURNDATASIZE PUSH1 0x20 GT PUSH2 0x49E JUMPI PUSH2 0x490 DUP2 DUP4 PUSH2 0x1B35 JUMP JUMPDEST CODESIZE PUSH2 0x1603 JUMP JUMPDEST PUSH1 0x5 DUP1 SLOAD PUSH2 0xFF00 NOT AND PUSH2 0x400 OR SWAP1 SSTORE PUSH1 0x4 DUP1 SLOAD DUP4 MLOAD PUSH4 0xA9059CBB PUSH1 0xE0 SHL DUP2 MSTORE PUSH1 0x1 PUSH1 0x1 PUSH1 0xA0 SHL SUB PUSH32 0x0 SWAP1 DUP2 AND SWAP4 DUP3 ADD SWAP4 SWAP1 SWAP4 MSTORE PUSH1 0x24 DUP2 ADD SWAP2 SWAP1 SWAP2 MSTORE PUSH1 0x20 DUP2 DUP1 PUSH1 0x44 DUP2 ADD SUB DUP2 DUP11 PUSH32 0x0 PUSH1 0x1 PUSH1 0x1 PUSH1 0xA0 SHL SUB AND GAS CALL SWAP1 DUP2 ISZERO PUSH2 0x18D2 JUMPI SWAP1 PUSH2 0x1880 SWAP2 DUP9 SWAP2 PUSH2 0x476 JUMPI POP PUSH2 0x1F13 JUMP JUMPDEST PUSH1 0x4 SLOAD DUP4 MLOAD SWAP1 DUP2 MSTORE PUSH1 0x20 DUP2 ADD DUP5 SWAP1 MSTORE PUSH1 0x1 PUSH1 0x1 PUSH1 0xA0 SHL SUB SWAP1 SWAP2 AND SWAP1 PUSH32 0x3A517193A06765EA79D9CB63F96B9D44C526404623F094614BC45A2DE3E9DD3B SWAP1 DUP1 PUSH2 0x18CA DUP2 DUP8 ADD DUP9 PUSH2 0x1DE8 JUMP JUMPDEST SUB SWAP1 LOG2 PUSH2 0x1657 JUMP JUMPDEST DUP5 MLOAD RETURNDATASIZE DUP10 DUP3 RETURNDATACOPY RETURNDATASIZE SWAP1 REVERT JUMPDEST SWAP1 POP DUP6 ADD MLOAD CODESIZE PUSH2 0x93A JUMP JUMPDEST DUP3 AND SWAP1 PUSH1 0xA DUP9 MSTORE PUSH1 0x0 DUP1 MLOAD PUSH1 0x20 PUSH2 0x204F DUP4 CODECOPY DUP2 MLOAD SWAP2 MSTORE SWAP2 DUP9 JUMPDEST DUP2 DUP2 LT PUSH2 0x193B JUMPI POP SWAP1 DUP4 PUSH1 0x1 SWAP5 SWAP4 SWAP3 LT PUSH2 0x1922 JUMPI JUMPDEST POP POP DUP2 SHL ADD PUSH1 0xA SSTORE PUSH2 0x1578 JUMP JUMPDEST DUP7 ADD MLOAD PUSH1 0x0 NOT PUSH1 0xF8 DUP5 PUSH1 0x3 SHL AND SHR NOT AND SWAP1 SSTORE CODESIZE DUP1 PUSH2 0x1915 JUMP JUMPDEST SWAP2 SWAP3 PUSH1 0x20 PUSH1 0x1 DUP2 SWAP3 DUP7 DUP12 ADD MLOAD DUP2 SSTORE ADD SWAP5 ADD SWAP3 ADD PUSH2 0x1900 JUMP JUMPDEST PUSH1 0xA DUP9 MSTORE PUSH1 0x1F DUP4 ADD PUSH1 0x5 SHR PUSH1 0x0 DUP1 MLOAD PUSH1 0x20 PUSH2 0x204F DUP4 CODECOPY DUP2 MLOAD SWAP2 MSTORE ADD SWAP1 PUSH1 0x20 DUP5 LT PUSH2 0x19A8 JUMPI JUMPDEST PUSH1 0x1F ADD PUSH1 0x5 SHR PUSH1 0x0 DUP1 MLOAD PUSH1 0x20 PUSH2 0x204F DUP4 CODECOPY DUP2 MLOAD SWAP2 MSTORE ADD SWAP1 JUMPDEST DUP2 DUP2 LT PUSH2 0x199D JUMPI POP PUSH2 0x1544 JUMP JUMPDEST DUP9 DUP2 SSTORE PUSH1 0x1 ADD PUSH2 0x1990 JUMP JUMPDEST PUSH1 0x0 DUP1 MLOAD PUSH1 0x20 PUSH2 0x204F DUP4 CODECOPY DUP2 MLOAD SWAP2 MSTORE SWAP2 POP PUSH2 0x1978 JUMP JUMPDEST DUP4 MLOAD PUSH3 0x461BCD PUSH1 0xE5 SHL DUP2 MSTORE PUSH1 0x20 PUSH1 0x4 DUP3 ADD MSTORE PUSH1 0x14 PUSH1 0x24 DUP3 ADD MSTORE PUSH20 0x52657370756573746120696E636F727265637461 PUSH1 0x60 SHL PUSH1 0x44 DUP3 ADD MSTORE PUSH1 0x64 SWAP1 REVERT JUMPDEST PUSH4 0x4E487B71 PUSH1 0xE0 SHL DUP10 MSTORE PUSH1 0x41 PUSH1 0x4 MSTORE PUSH1 0x24 DUP10 REVERT JUMPDEST DUP8 DUP1 REVERT JUMPDEST DUP7 DUP1 REVERT JUMPDEST DUP6 DUP1 REVERT JUMPDEST POP CALLVALUE PUSH2 0x1A3 JUMPI DUP2 PUSH1 0x3 NOT CALLDATASIZE ADD SLT PUSH2 0x1A3 JUMPI PUSH1 0x20 SWAP1 PUSH1 0x7 SLOAD SWAP1 MLOAD SWAP1 DUP2 MSTORE RETURN JUMPDEST POP CALLVALUE PUSH2 0x1A3 JUMPI DUP2 PUSH1 0x3 NOT CALLDATASIZE ADD SLT PUSH2 0x1A3 JUMPI PUSH1 0x20 SWAP1 MLOAD PUSH32 0x0 DUP2 MSTORE RETURN JUMPDEST POP CALLVALUE PUSH2 0x1A3 JUMPI DUP2 PUSH1 0x3 NOT CALLDATASIZE ADD SLT PUSH2 0x1A3 JUMPI PUSH2 0x57C SWAP1 PUSH2 0x569 PUSH2 0x1B57 JUMP JUMPDEST DUP4 SWAP1 CALLVALUE PUSH2 0x1A3 JUMPI DUP2 PUSH1 0x3 NOT CALLDATASIZE ADD SLT PUSH2 0x1A3 JUMPI PUSH32 0x0 PUSH1 0x1 PUSH1 0x1 PUSH1 0xA0 SHL SUB AND DUP2 MSTORE PUSH1 0x20 SWAP1 RETURN JUMPDEST SWAP1 PUSH1 0x1 DUP3 DUP2 SHR SWAP3 AND DUP1 ISZERO PUSH2 0x1B01 JUMPI JUMPDEST PUSH1 0x20 DUP4 LT EQ PUSH2 0x1AEB JUMPI JUMP JUMPDEST PUSH4 0x4E487B71 PUSH1 0xE0 SHL PUSH1 0x0 MSTORE PUSH1 0x22 PUSH1 0x4 MSTORE PUSH1 0x24 PUSH1 0x0 REVERT JUMPDEST SWAP2 PUSH1 0x7F AND SWAP2 PUSH2 0x1AE0 JUMP JUMPDEST PUSH8 0xFFFFFFFFFFFFFFFF DUP2 GT PUSH2 0x1B1F JUMPI PUSH1 0x40 MSTORE JUMP JUMPDEST PUSH4 0x4E487B71 PUSH1 0xE0 SHL PUSH1 0x0 MSTORE PUSH1 0x41 PUSH1 0x4 MSTORE PUSH1 0x24 PUSH1 0x0 REVERT JUMPDEST SWAP1 PUSH1 0x1F DUP1 NOT SWAP2 ADD AND DUP2 ADD SWAP1 DUP2 LT PUSH8 0xFFFFFFFFFFFFFFFF DUP3 GT OR PUSH2 0x1B1F JUMPI PUSH1 0x40 MSTORE JUMP JUMPDEST PUSH1 0x40 MLOAD SWAP1 PUSH1 0x0 DUP3 PUSH1 0xA SLOAD SWAP2 PUSH2 0x1B6B DUP4 PUSH2 0x1AD1 JUMP JUMPDEST DUP1 DUP4 MSTORE SWAP3 PUSH1 0x20 SWAP1 PUSH1 0x1 SWAP1 DUP2 DUP2 AND SWAP1 DUP2 ISZERO PUSH2 0x1BE7 JUMPI POP PUSH1 0x1 EQ PUSH2 0x1B98 JUMPI JUMPDEST POP POP PUSH2 0x1B96 SWAP3 POP SUB DUP4 PUSH2 0x1B35 JUMP JUMPDEST JUMP JUMPDEST SWAP2 POP SWAP3 PUSH1 0xA PUSH1 0x0 MSTORE PUSH1 0x0 DUP1 MLOAD PUSH1 0x20 PUSH2 0x204F DUP4 CODECOPY DUP2 MLOAD SWAP2 MSTORE SWAP4 PUSH1 0x0 SWAP3 JUMPDEST DUP3 DUP5 LT PUSH2 0x1BCF JUMPI POP PUSH2 0x1B96 SWAP5 POP POP POP DUP2 ADD PUSH1 0x20 ADD CODESIZE DUP1 PUSH2 0x1B88 JUMP JUMPDEST DUP6 SLOAD DUP9 DUP6 ADD DUP4 ADD MSTORE SWAP5 DUP6 ADD SWAP5 DUP8 SWAP5 POP SWAP3 DUP2 ADD SWAP3 PUSH2 0x1BB4 JUMP JUMPDEST SWAP2 POP POP PUSH1 0x20 SWAP3 POP PUSH2 0x1B96 SWAP5 SWAP2 POP PUSH1 0xFF NOT AND DUP3 DUP5 ADD MSTORE ISZERO ISZERO PUSH1 0x5 SHL DUP3 ADD ADD CODESIZE DUP1 PUSH2 0x1B88 JUMP JUMPDEST PUSH1 0x40 MLOAD SWAP1 PUSH1 0x0 DUP3 PUSH1 0x1 SWAP2 PUSH1 0x1 SLOAD PUSH2 0x1C21 DUP2 PUSH2 0x1AD1 JUMP JUMPDEST DUP1 DUP5 MSTORE SWAP4 PUSH1 0x20 SWAP2 PUSH1 0x1 DUP2 AND SWAP1 DUP2 ISZERO PUSH2 0x1BE7 JUMPI POP PUSH1 0x1 EQ PUSH2 0x1C49 JUMPI POP POP PUSH2 0x1B96 SWAP3 POP SUB DUP4 PUSH2 0x1B35 JUMP JUMPDEST SWAP2 POP SWAP3 PUSH1 0x1 PUSH1 0x0 MSTORE PUSH32 0xB10E2D527612073B26EECDFD717E6A320CF44B4AFAC2B0732D9FCBE2B7FA0CF6 SWAP4 PUSH1 0x0 SWAP3 JUMPDEST DUP3 DUP5 LT PUSH2 0x1C92 JUMPI POP PUSH2 0x1B96 SWAP5 POP POP POP DUP2 ADD PUSH1 0x20 ADD CODESIZE DUP1 PUSH2 0x1B88 JUMP JUMPDEST DUP6 SLOAD DUP9 DUP6 ADD DUP4 ADD MSTORE SWAP5 DUP6 ADD SWAP5 DUP8 SWAP5 POP SWAP3 DUP2 ADD SWAP3 PUSH2 0x1C77 JUMP JUMPDEST PUSH1 0x40 MLOAD SWAP1 PUSH1 0x0 DUP3 PUSH1 0x2 SLOAD SWAP2 PUSH2 0x1CBE DUP4 PUSH2 0x1AD1 JUMP JUMPDEST DUP1 DUP4 MSTORE SWAP3 PUSH1 0x20 SWAP1 PUSH1 0x1 SWAP1 DUP2 DUP2 AND SWAP1 DUP2 ISZERO PUSH2 0x1BE7 JUMPI POP PUSH1 0x1 EQ PUSH2 0x1CE8 JUMPI POP POP PUSH2 0x1B96 SWAP3 POP SUB DUP4 PUSH2 0x1B35 JUMP JUMPDEST SWAP2 POP SWAP3 PUSH1 0x2 PUSH1 0x0 MSTORE PUSH32 0x405787FA12A823E0F2B7631CC41B3BA8828B3321CA811111FA75CD3AA3BB5ACE SWAP4 PUSH1 0x0 SWAP3 JUMPDEST DUP3 DUP5 LT PUSH2 0x1D31 JUMPI POP PUSH2 0x1B96 SWAP5 POP POP POP DUP2 ADD PUSH1 0x20 ADD CODESIZE DUP1 PUSH2 0x1B88 JUMP JUMPDEST DUP6 SLOAD DUP9 DUP6 ADD DUP4 ADD MSTORE SWAP5 DUP6 ADD SWAP5 DUP8 SWAP5 POP SWAP3 DUP2 ADD SWAP3 PUSH2 0x1D16 JUMP JUMPDEST PUSH1 0x40 MLOAD SWAP1 PUSH1 0x0 DUP3 PUSH1 0x6 SLOAD SWAP2 PUSH2 0x1D5D DUP4 PUSH2 0x1AD1 JUMP JUMPDEST DUP1 DUP4 MSTORE SWAP3 PUSH1 0x20 SWAP1 PUSH1 0x1 SWAP1 DUP2 DUP2 AND SWAP1 DUP2 ISZERO PUSH2 0x1BE7 JUMPI POP PUSH1 0x1 EQ PUSH2 0x1D87 JUMPI POP POP PUSH2 0x1B96 SWAP3 POP SUB DUP4 PUSH2 0x1B35 JUMP JUMPDEST SWAP2 POP SWAP3 PUSH1 0x6 PUSH1 0x0 MSTORE PUSH32 0xF652222313E28459528D920B65115C16C04F3EFC82AAEDC97BE59F3F377C0D3F SWAP4 PUSH1 0x0 SWAP3 JUMPDEST DUP3 DUP5 LT PUSH2 0x1DD0 JUMPI POP PUSH2 0x1B96 SWAP5 POP POP POP DUP2 ADD PUSH1 0x20 ADD CODESIZE DUP1 PUSH2 0x1B88 JUMP JUMPDEST DUP6 SLOAD DUP9 DUP6 ADD DUP4 ADD MSTORE SWAP5 DUP6 ADD SWAP5 DUP8 SWAP5 POP SWAP3 DUP2 ADD SWAP3 PUSH2 0x1DB5 JUMP JUMPDEST SWAP2 SWAP1 DUP3 MLOAD SWAP3 DUP4 DUP3 MSTORE PUSH1 0x0 JUMPDEST DUP5 DUP2 LT PUSH2 0x1E14 JUMPI POP POP DUP3 PUSH1 0x0 PUSH1 0x20 DUP1 SWAP5 SWAP6 DUP5 ADD ADD MSTORE PUSH1 0x1F DUP1 NOT SWAP2 ADD AND ADD ADD SWAP1 JUMP JUMPDEST PUSH1 0x20 DUP2 DUP4 ADD DUP2 ADD MLOAD DUP5 DUP4 ADD DUP3 ADD MSTORE ADD PUSH2 0x1DF3 JUMP JUMPDEST SWAP1 PUSH1 0x6 DUP3 LT ISZERO PUSH2 0x1E35 JUMPI MSTORE JUMP JUMPDEST PUSH4 0x4E487B71 PUSH1 0xE0 SHL PUSH1 0x0 MSTORE PUSH1 0x21 PUSH1 0x4 MSTORE PUSH1 0x24 PUSH1 0x0 REVERT JUMPDEST SWAP2 DUP2 PUSH1 0x1F DUP5 ADD SLT ISZERO PUSH2 0x1E79 JUMPI DUP3 CALLDATALOAD SWAP2 PUSH8 0xFFFFFFFFFFFFFFFF DUP4 GT PUSH2 0x1E79 JUMPI PUSH1 0x20 DUP4 DUP2 DUP7 ADD SWAP6 ADD ADD GT PUSH2 0x1E79 JUMPI JUMP JUMPDEST PUSH1 0x0 DUP1 REVERT JUMPDEST ISZERO PUSH2 0x1E85 JUMPI JUMP JUMPDEST PUSH1 0x40 MLOAD PUSH3 0x461BCD PUSH1 0xE5 SHL DUP2 MSTORE PUSH1 0x20 PUSH1 0x4 DUP3 ADD MSTORE PUSH1 0xF PUSH1 0x24 DUP3 ADD MSTORE PUSH15 0x536F6C6F206C6120666163746F7279 PUSH1 0x88 SHL PUSH1 0x44 DUP3 ADD MSTORE PUSH1 0x64 SWAP1 REVERT JUMPDEST ISZERO PUSH2 0x1EC3 JUMPI JUMP JUMPDEST PUSH1 0x40 MLOAD PUSH3 0x461BCD PUSH1 0xE5 SHL DUP2 MSTORE PUSH1 0x20 PUSH1 0x4 DUP3 ADD MSTORE PUSH1 0x10 PUSH1 0x24 DUP3 ADD MSTORE PUSH16 0x27379032B7103B30B634B230B1B4B7B7 PUSH1 0x81 SHL PUSH1 0x44 DUP3 ADD MSTORE PUSH1 0x64 SWAP1 REVERT JUMPDEST SWAP1 DUP2 PUSH1 0x20 SWAP2 SUB SLT PUSH2 0x1E79 JUMPI MLOAD DUP1 ISZERO ISZERO DUP2 SUB PUSH2 0x1E79 JUMPI SWAP1 JUMP JUMPDEST ISZERO PUSH2 0x1F1A JUMPI JUMP JUMPDEST PUSH1 0x40 MLOAD PUSH3 0x461BCD PUSH1 0xE5 SHL DUP2 MSTORE PUSH1 0x20 PUSH1 0x4 DUP3 ADD MSTORE PUSH1 0x12 PUSH1 0x24 DUP3 ADD MSTORE PUSH18 0x4465766F6C7563696F6E2066616C6C696461 PUSH1 0x70 SHL PUSH1 0x44 DUP3 ADD MSTORE PUSH1 0x64 SWAP1 REVERT JUMPDEST ISZERO PUSH2 0x1F5B JUMPI JUMP JUMPDEST PUSH1 0x40 MLOAD PUSH3 0x461BCD PUSH1 0xE5 SHL DUP2 MSTORE PUSH1 0x20 PUSH1 0x4 DUP3 ADD MSTORE PUSH1 0xE PUSH1 0x24 DUP3 ADD MSTORE PUSH14 0x4D6F6E746F20696E76616C69646F PUSH1 0x90 SHL PUSH1 0x44 DUP3 ADD MSTORE PUSH1 0x64 SWAP1 REVERT JUMPDEST SWAP2 SWAP1 DUP3 ADD DUP1 SWAP3 GT PUSH2 0x1F9E JUMPI JUMP JUMPDEST PUSH4 0x4E487B71 PUSH1 0xE0 SHL PUSH1 0x0 MSTORE PUSH1 0x11 PUSH1 0x4 MSTORE PUSH1 0x24 PUSH1 0x0 REVERT JUMPDEST ISZERO PUSH2 0x1FBB JUMPI JUMP JUMPDEST PUSH1 0x40 MLOAD PUSH3 0x461BCD PUSH1 0xE5 SHL DUP2 MSTORE PUSH1 0x20 PUSH1 0x4 DUP3 ADD MSTORE PUSH1 0xF PUSH1 0x24 DUP3 ADD MSTORE PUSH15 0x29B7B6379032B61031B932B0B237B9 PUSH1 0x89 SHL PUSH1 0x44 DUP3 ADD MSTORE PUSH1 0x64 SWAP1 REVERT JUMPDEST PUSH1 0x0 SLOAD PUSH1 0x1 PUSH1 0x1 PUSH1 0xA0 SHL SUB AND CALLER SUB PUSH2 0x2006 JUMPI JUMP JUMPDEST PUSH1 0x40 MLOAD PUSH4 0x118CDAA7 PUSH1 0xE0 SHL DUP2 MSTORE CALLER PUSH1 0x4 DUP3 ADD MSTORE PUSH1 0x24 SWAP1 REVERT JUMPDEST PUSH1 0x0 DUP1 MLOAD PUSH1 0x20 PUSH2 0x206F DUP4 CODECOPY DUP2 MLOAD SWAP2 MSTORE PUSH1 0x2 DUP2 SLOAD EQ PUSH2 0x203C JUMPI PUSH1 0x2 SWAP1 SSTORE JUMP JUMPDEST PUSH1 0x40 MLOAD PUSH4 0x3EE5AEB5 PUSH1 0xE0 SHL DUP2 MSTORE PUSH1 0x4 SWAP1 REVERT INVALID 0xC6 GAS PUSH28 0xB8D6351C1CF70C95A316CC6A92839C986682D98BC35F958F4883F9D2 0xA8 SWAP12 PUSH24 0x9B17422D0DF92223018B32B4D1FA46E071723D6817E2486D STOP EXTCODESIZE 0xEC 0xC5 PUSH0 STOP LOG2 PUSH5 0x6970667358 0x22 SLT KECCAK256 0xED DIV 0xBD SDIV ADDRESS SWAP8 DUP5 PUSH17 0xF0989D36A435F4B3E1C9C62D26DB4305CA 0xD9 DUP8 AND SUB SWAP14 0xC9 PUSH19 0x64736F6C63430008160033A264697066735822 SLT KECCAK256 SDIV EXTCODEHASH PUSH11 0xAFFC85F4ED20D2447AED96 0xB6 0xF6 PUSH17 0xE96A0EA8ED7158353319628DD53F626473 PUSH16 0x6C634300081600330000000000000000 "},"methodIdentifiers":{"allWorks(uint256)":"e3c983f7","bridgeReceiver()":"0a208972","cancelledWorks(uint256)":"db88417d","createWork(string,string,uint256,uint256,uint8,bool)":"dc2f2df7","deployedWorks(address)":"c0b768b0","forwardToGenLayer(address)":"9f029a71","getAllWorks()":"790b85ab","getOpenWorks()":"ed0bbc56","getResolvedWorks()":"95e3a71e","getSubmittedWorks()":"b82baa4e","getValidatingWorks()":"15e9f2b9","getWorkCount()":"9b97cee5","isLegitWork(address)":"470cbabf","notifyStatusChange(uint8,uint8)":"1d8e2047","openWorks(uint256)":"bf110e41","owner()":"8da5cb5b","processBridgeMessage(uint32,address,bytes)":"a489d267","renounceOwnership()":"715018a6","resolvedWorks(uint256)":"adce13d5","setBridgeReceiver(address)":"d044e81f","submittedWorks(uint256)":"fe43ab27","transferOwnership(address)":"f2fde38b","usdcToken()":"11eac855","validatingWorks(uint256)":"89964f05","workToCreator(address)":"080b0a6b"}}}}}