{"contracts/BetCOFI.sol":{"BetCOFI":{"abi":[{"inputs":[{"internalType":"address","name":"_creator","type":"address"},{"internalType":"string","name":"_title","type":"string"},{"internalType":"string","name":"_resolutionCriteria","type":"string"},{"internalType":"string","name":"_sideAName","type":"string"},{"internalType":"string","name":"_sideBName","type":"string"},{"internalType":"uint256","name":"_endDate","type":"uint256"},{"internalType":"address","name":"_token","type":"address"},{"internalType":"address","name":"_factory","type":"address"},{"internalType":"enum BetCOFI.ResolutionType","name":"_resolutionType","type":"uint8"},{"internalType":"bytes","name":"_resolutionData","type":"bytes"}],"stateMutability":"nonpayable","type":"constructor"},{"inputs":[{"internalType":"address","name":"owner","type":"address"}],"name":"OwnableInvalidOwner","type":"error"},{"inputs":[{"internalType":"address","name":"account","type":"address"}],"name":"OwnableUnauthorizedAccount","type":"error"},{"inputs":[],"name":"ReentrancyGuardReentrantCall","type":"error"},{"anonymous":false,"inputs":[{"indexed":true,"internalType":"address","name":"bettor","type":"address"},{"indexed":false,"internalType":"uint256","name":"amount","type":"uint256"}],"name":"BetPlacedOnA","type":"event"},{"anonymous":false,"inputs":[{"indexed":true,"internalType":"address","name":"bettor","type":"address"},{"indexed":false,"internalType":"uint256","name":"amount","type":"uint256"}],"name":"BetPlacedOnB","type":"event"},{"anonymous":false,"inputs":[{"indexed":false,"internalType":"bool","name":"sideAWins","type":"bool"},{"indexed":false,"internalType":"uint256","name":"timestamp","type":"uint256"},{"indexed":false,"internalType":"uint256","name":"priceValue","type":"uint256"},{"indexed":false,"internalType":"string","name":"winnerValue","type":"string"}],"name":"BetResolved","type":"event"},{"anonymous":false,"inputs":[{"indexed":false,"internalType":"uint256","name":"timestamp","type":"uint256"}],"name":"BetUndetermined","type":"event"},{"anonymous":false,"inputs":[{"indexed":true,"internalType":"address","name":"previousOwner","type":"address"},{"indexed":true,"internalType":"address","name":"newOwner","type":"address"}],"name":"OwnershipTransferred","type":"event"},{"anonymous":false,"inputs":[{"indexed":false,"internalType":"bool","name":"sideAWins","type":"bool"}],"name":"ResolutionReceived","type":"event"},{"anonymous":false,"inputs":[{"indexed":true,"internalType":"address","name":"winner","type":"address"},{"indexed":false,"internalType":"uint256","name":"amount","type":"uint256"}],"name":"WinningsClaimed","type":"event"},{"inputs":[{"internalType":"address","name":"bettor","type":"address"},{"internalType":"uint256","name":"amount","type":"uint256"}],"name":"betOnSideAViaFactory","outputs":[],"stateMutability":"nonpayable","type":"function"},{"inputs":[{"internalType":"address","name":"bettor","type":"address"},{"internalType":"uint256","name":"amount","type":"uint256"}],"name":"betOnSideBViaFactory","outputs":[],"stateMutability":"nonpayable","type":"function"},{"inputs":[{"internalType":"address","name":"","type":"address"}],"name":"betsOnSideA","outputs":[{"internalType":"uint256","name":"","type":"uint256"}],"stateMutability":"view","type":"function"},{"inputs":[{"internalType":"address","name":"","type":"address"}],"name":"betsOnSideB","outputs":[{"internalType":"uint256","name":"","type":"uint256"}],"stateMutability":"view","type":"function"},{"inputs":[{"internalType":"address","name":"user","type":"address"}],"name":"calculatePotentialWinnings","outputs":[{"internalType":"uint256","name":"ifSideAWins","type":"uint256"},{"internalType":"uint256","name":"ifSideBWins","type":"uint256"}],"stateMutability":"view","type":"function"},{"inputs":[],"name":"cancelBet","outputs":[],"stateMutability":"nonpayable","type":"function"},{"inputs":[],"name":"claim","outputs":[],"stateMutability":"nonpayable","type":"function"},{"inputs":[],"name":"creationDate","outputs":[{"internalType":"uint256","name":"","type":"uint256"}],"stateMutability":"view","type":"function"},{"inputs":[],"name":"creator","outputs":[{"internalType":"address","name":"","type":"address"}],"stateMutability":"view","type":"function"},{"inputs":[],"name":"endDate","outputs":[{"internalType":"uint256","name":"","type":"uint256"}],"stateMutability":"view","type":"function"},{"inputs":[],"name":"factory","outputs":[{"internalType":"address","name":"","type":"address"}],"stateMutability":"view","type":"function"},{"inputs":[],"name":"getInfo","outputs":[{"internalType":"address","name":"_creator","type":"address"},{"internalType":"string","name":"_title","type":"string"},{"internalType":"string","name":"_resolutionCriteria","type":"string"},{"internalType":"string","name":"_sideAName","type":"string"},{"internalType":"string","name":"_sideBName","type":"string"},{"internalType":"uint256","name":"_creationDate","type":"uint256"},{"internalType":"uint256","name":"_endDate","type":"uint256"},{"internalType":"bool","name":"_isResolved","type":"bool"},{"internalType":"bool","name":"_isSideAWinner","type":"bool"},{"internalType":"uint256","name":"_totalSideA","type":"uint256"},{"internalType":"uint256","name":"_totalSideB","type":"uint256"},{"internalType":"uint256","name":"_resolvedPrice","type":"uint256"},{"internalType":"string","name":"_winnerValue","type":"string"}],"stateMutability":"view","type":"function"},{"inputs":[{"internalType":"address","name":"user","type":"address"}],"name":"getUserBets","outputs":[{"internalType":"uint256","name":"onSideA","type":"uint256"},{"internalType":"uint256","name":"onSideB","type":"uint256"}],"stateMutability":"view","type":"function"},{"inputs":[{"internalType":"address","name":"","type":"address"}],"name":"hasClaimed","outputs":[{"internalType":"bool","name":"","type":"bool"}],"stateMutability":"view","type":"function"},{"inputs":[],"name":"isResolved","outputs":[{"internalType":"bool","name":"","type":"bool"}],"stateMutability":"view","type":"function"},{"inputs":[],"name":"isSideAWinner","outputs":[{"internalType":"bool","name":"","type":"bool"}],"stateMutability":"view","type":"function"},{"inputs":[],"name":"owner","outputs":[{"internalType":"address","name":"","type":"address"}],"stateMutability":"view","type":"function"},{"inputs":[],"name":"renounceOwnership","outputs":[],"stateMutability":"nonpayable","type":"function"},{"inputs":[],"name":"resolutionCriteria","outputs":[{"internalType":"string","name":"","type":"string"}],"stateMutability":"view","type":"function"},{"inputs":[],"name":"resolutionData","outputs":[{"internalType":"bytes","name":"","type":"bytes"}],"stateMutability":"view","type":"function"},{"inputs":[],"name":"resolutionRequestedAt","outputs":[{"internalType":"uint256","name":"","type":"uint256"}],"stateMutability":"view","type":"function"},{"inputs":[],"name":"resolutionType","outputs":[{"internalType":"enum BetCOFI.ResolutionType","name":"","type":"uint8"}],"stateMutability":"view","type":"function"},{"inputs":[],"name":"resolve","outputs":[],"stateMutability":"nonpayable","type":"function"},{"inputs":[],"name":"resolvedPrice","outputs":[{"internalType":"uint256","name":"","type":"uint256"}],"stateMutability":"view","type":"function"},{"inputs":[{"internalType":"bytes","name":"_message","type":"bytes"}],"name":"setResolution","outputs":[],"stateMutability":"nonpayable","type":"function"},{"inputs":[],"name":"sideAName","outputs":[{"internalType":"string","name":"","type":"string"}],"stateMutability":"view","type":"function"},{"inputs":[],"name":"sideBName","outputs":[{"internalType":"string","name":"","type":"string"}],"stateMutability":"view","type":"function"},{"inputs":[],"name":"status","outputs":[{"internalType":"enum BetCOFI.BetStatus","name":"","type":"uint8"}],"stateMutability":"view","type":"function"},{"inputs":[],"name":"title","outputs":[{"internalType":"string","name":"","type":"string"}],"stateMutability":"view","type":"function"},{"inputs":[],"name":"token","outputs":[{"internalType":"contract IERC20","name":"","type":"address"}],"stateMutability":"view","type":"function"},{"inputs":[],"name":"totalSideA","outputs":[{"internalType":"uint256","name":"","type":"uint256"}],"stateMutability":"view","type":"function"},{"inputs":[],"name":"totalSideB","outputs":[{"internalType":"uint256","name":"","type":"uint256"}],"stateMutability":"view","type":"function"},{"inputs":[{"internalType":"address","name":"newOwner","type":"address"}],"name":"transferOwnership","outputs":[],"stateMutability":"nonpayable","type":"function"},{"inputs":[],"name":"winnerValue","outputs":[{"internalType":"string","name":"","type":"string"}],"stateMutability":"view","type":"function"}],"evm":{"bytecode":{"linkReferences":{},"object":"6101406040523462000a255762002cb7803803806200001e8162000a2a565b9283398101906101408183031262000a25576200003b8162000a50565b60208201519091906001600160401b03811162000a2557836200006091830162000ac6565b60408201519093906001600160401b03811162000a2557816200008591840162000ac6565b60608301519093906001600160401b03811162000a255782620000aa91850162000ac6565b60808401516001600160401b03811162000a255783620000cc91860162000ac6565b9060a0850151620000e060c0870162000a50565b92620000ef60e0880162000a50565b92610100988989015197600389101562000a25576101208a810151909a6001600160401b03821162000a2557019080601f8301121562000a25578151620001399260200162000a65565b60017f9b779b17422d0df92223018b32b4d1fa46e071723d6817e2486d003becc55f00559a6001600160a01b0397868916801562000a0c57600080546001600160a01b03198116831782556040519291908c16907f8be0079c531659141344cd1fd0a4f28419497f9722a3daafe3b4186f6b6457e09080a389821615620009ca57508888161562000985578151156200094057835115620008fb57845115620008b6576080528051906001600160401b0382116200055457620001fe60015462000ae6565b601f811162000874575b50602090601f8311600114620007f7576200023d9291600091836200049d575b50508160011b916000199060031b1c19161790565b6001555b8051906001600160401b03821162000554576200026060025462000ae6565b601f8111620007b5575b50602090601f831160011462000738576200029e9291600091836200049d5750508160011b916000199060031b1c19161790565b6002555b8051906001600160401b0382116200055457620002c160035462000ae6565b601f8111620006e5575b50602090601f83116001146200065757620002ff9291600091836200049d5750508160011b916000199060031b1c19161790565b6003555b8051906001600160401b03821162000554576200032260045462000ae6565b601f8111620005f8575b50602090601f83116001146200056a57620003609291600091836200049d5750508160011b916000199060031b1c19161790565b6004555b4260a05260c05260e052168352815282516001600160401b038111620005545760059062000393825462000ae6565b601f811162000514575b50602094601f8211600114620004a957620003d49293949582916000926200049d5750508160011b916000199060031b1c19161790565b90555b62ff000019600654166006556040519061213a928362000b3d843960805183818161099301528181610d420152818161146a0152611c4d015260a051838181610dbb0152611c16015260c05183818161023701528181610493015281816107e401528181610de10152611493015260e05183818161020b0152818161044c015281816107b801528181610a02015281816114ef015281816116dc0152818161187201526118c90152518281816101ac01526110ad015251818181610306015261155e0152f35b01519050388062000228565b601f198216958360005260206000209160005b888110620004fb57508360019596979810620004e1575b505050811b019055620003d7565b015160001960f88460031b161c19169055388080620004d3565b91926020600181928685015181550194019201620004bc565b6200054290836000526020600020601f8401851c8101916020851062000549575b601f01851c019062000b23565b386200039d565b909150819062000535565b634e487b7160e01b600052604160045260246000fd5b6004600090815292917f8a35acfbc15ff81a39ae7d344fd709f28e8600b4aa8c65c6b64bfe7fe36bd19b915b601f1984168510620005dc576001945083601f19811610620005c2575b505050811b0160045562000364565b015160001960f88460031b161c19169055388080620005b3565b8181015183556020948501946001909301929091019062000596565b600460005262000645907f8a35acfbc15ff81a39ae7d344fd709f28e8600b4aa8c65c6b64bfe7fe36bd19b601f850160051c810191602086106200064c575b601f0160051c019062000b23565b386200032c565b909150819062000637565b6003600090815292917fc2575a0e9e593c00f959f8c92f12db2869c3395a3b0502d05e2516446f71f85b915b601f1984168510620006c9576001945083601f19811610620006af575b505050811b0160035562000303565b015160001960f88460031b161c19169055388080620006a0565b8181015183556020948501946001909301929091019062000683565b600360005262000731907fc2575a0e9e593c00f959f8c92f12db2869c3395a3b0502d05e2516446f71f85b601f850160051c810191602086106200064c57601f0160051c019062000b23565b38620002cb565b60026000908152929160008051602062002c77833981519152915b601f198416851062000799576001945083601f198116106200077f575b505050811b01600255620002a2565b015160001960f88460031b161c1916905538808062000770565b8181015183556020948501946001909301929091019062000753565b6002600052620007f09060008051602062002c77833981519152601f850160051c810191602086106200064c57601f0160051c019062000b23565b386200026a565b60016000908152929160008051602062002c97833981519152915b601f198416851062000858576001945083601f198116106200083e575b505050811b0160015562000241565b015160001960f88460031b161c191690553880806200082f565b8181015183556020948501946001909301929091019062000812565b6001600052620008af9060008051602062002c97833981519152601f850160051c810191602086106200064c57601f0160051c019062000b23565b3862000208565b60405162461bcd60e51b815260206004820152601b60248201527f536964652042206e616d652063616e6e6f7420626520656d70747900000000006044820152606490fd5b60405162461bcd60e51b815260206004820152601b60248201527f536964652041206e616d652063616e6e6f7420626520656d70747900000000006044820152606490fd5b60405162461bcd60e51b815260206004820152601560248201527f5469746c652063616e6e6f7420626520656d70747900000000000000000000006044820152606490fd5b60405162461bcd60e51b815260206004820152601560248201527f496e76616c696420746f6b656e206164647265737300000000000000000000006044820152606490fd5b62461bcd60e51b815260206004820152601760248201527f496e76616c69642063726561746f7220616464726573730000000000000000006044820152606490fd5b604051631e4fbdf760e01b815260006004820152602490fd5b600080fd5b6040519190601f01601f191682016001600160401b038111838210176200055457604052565b51906001600160a01b038216820362000a2557565b9192916001600160401b038211620005545760209062000a8e601f8401601f1916830162000a2a565b948386528382011162000a255760005b83811062000ab457505050602060009184010152565b81810151868201840152820162000a9e565b9080601f8301121562000a2557815162000ae39260200162000a65565b90565b90600182811c9216801562000b18575b602083101462000b0257565b634e487b7160e01b600052602260045260246000fd5b91607f169162000af6565b81811062000b2f575050565b6000815560010162000b2356fe608080604052600436101561001357600080fd5b600090813560e01c90816302d05d3f14611c395750806305b3441014611bfe578063200d2ed214611bcf57806321701a15146116885780632810e1d61461144e5780632d56657d146114085780633caef3811461131d5780633d5d526a146112ff5780634a79d50c146112e35780634e71d92d14610fcf578063519a1d8414610f9f5780635a9b0b8914610c53578063715018a614610bf957806372834e5b14610bdb57806373b2e80e14610b9c5780637b6d79f1146109775780637ff41970146108a7578063831ad6db14610889578063845e45f91461078b57806385a26fe614610765578063881e4cca1461072c5780638da5cb5b146107055780638eb1a4ad14610657578063958f03b714610639578063a355f8971461058b578063bb978c5b146104b6578063c24a0f8b1461047b578063c45a015514610436578063dbb3f53714610413578063e2529773146103da578063f2fde38b1461034a578063f7ad7920146102f0578063f7dda472146101de5763fc0c546a1461019757600080fd5b346101db57806003193601126101db576040517f00000000000000000000000000000000000000000000000000000000000000006001600160a01b03168152602090f35b80fd5b50346101db5760403660031901126101db576101f8611c80565b602435906001600160a01b0390610232337f0000000000000000000000000000000000000000000000000000000000000000841614611ff1565b61025d7f00000000000000000000000000000000000000000000000000000000000000004210612035565b60ff60065460101c1660048110156102dc579160209161029e7f8b1b269ed471a640fd80b1f65b929a812a4c36183f7807568b77b08925bdee4d9415611ed3565b6102a9851515612075565b1692838552600b8252604085206102c1828254611f59565b90556102cf81600954611f59565b600955604051908152a280f35b634e487b7160e01b85526021600452602485fd5b50346101db57806003193601126101db576040517f0000000000000000000000000000000000000000000000000000000000000000600381101561033657602092508152f35b634e487b7160e01b83526021600452602483fd5b50346101db5760203660031901126101db57610364611c80565b61036c6120b8565b6001600160a01b039081169081156103c157600054826bffffffffffffffffffffffff60a01b821617600055167f8be0079c531659141344cd1fd0a4f28419497f9722a3daafe3b4186f6b6457e0600080a380f35b604051631e4fbdf760e01b815260048101849052602490fd5b50346101db5760203660031901126101db576020906040906001600160a01b03610402611c80565b168152600a83522054604051908152f35b50346101db57806003193601126101db57602060ff600654166040519015158152f35b50346101db57806003193601126101db576040517f00000000000000000000000000000000000000000000000000000000000000006001600160a01b03168152602090f35b50346101db57806003193601126101db5760206040517f00000000000000000000000000000000000000000000000000000000000000008152f35b50346101db57806003193601126101db57604051600e546000826104d983611c9b565b918282526020936001908560018216918260001461056b575050600114610520575b5061050892500383611cff565b61051c604051928284938452830190611e86565b0390f35b849150600e6000526000805160206120e5833981519152906000915b8583106105535750506105089350820101856104fb565b8054838901850152879450869390920191810161053c565b60ff19168582015261050895151560051b85010192508791506104fb9050565b50346101db57806003193601126101db576040516004546000826105ae83611c9b565b918282526020936001908560018216918260001461056b5750506001146105dc575061050892500383611cff565b84915060046000527f8a35acfbc15ff81a39ae7d344fd709f28e8600b4aa8c65c6b64bfe7fe36bd19b906000915b8583106106215750506105089350820101856104fb565b8054838901850152879450869390920191810161060a565b50346101db57806003193601126101db576020600954604051908152f35b50346101db57806003193601126101db5760405160035460008261067a83611c9b565b918282526020936001908560018216918260001461056b5750506001146106a8575061050892500383611cff565b84915060036000527fc2575a0e9e593c00f959f8c92f12db2869c3395a3b0502d05e2516446f71f85b906000915b8583106106ed5750506105089350820101856104fb565b805483890185015287945086939092019181016106d6565b50346101db57806003193601126101db57546040516001600160a01b039091168152602090f35b50346101db5760203660031901126101db576020906040906001600160a01b03610754611c80565b168152600b83522054604051908152f35b50346101db57806003193601126101db57602060ff60065460081c166040519015158152f35b50346101db5760403660031901126101db576107a5611c80565b602435906001600160a01b03906107df337f0000000000000000000000000000000000000000000000000000000000000000841614611ff1565b61080a7f00000000000000000000000000000000000000000000000000000000000000004210612035565b60ff60065460101c1660048110156102dc579160209161084b7f9bbb607f9fd45dbd95a8e54a66a3b0b2ed37477c49c5d10415dc5cfb84261ecd9415611ed3565b610856851515612075565b1692838552600a82526040852061086e828254611f59565b905561087c81600854611f59565b600855604051908152a280f35b50346101db57806003193601126101db576020600754604051908152f35b50346101db57806003193601126101db57604051908082600554916108cb83611c9b565b92838352602094600191866001821691826000146109555750506001146108fb575b505061050892500383611cff565b90859250600582527f036b6384b5eca791c62761152d0c79bb0604c104a5fb6f4eb0703f3154bb3db05b85831061093d575050610508935082010138806108ed565b80548389018501528794508693909201918101610925565b925093505061050894915060ff191682840152151560051b82010138806108ed565b50346101db57806003193601126101db576001600160a01b03907f000000000000000000000000000000000000000000000000000000000000000082163303610b57576006549160ff8360101c169260048410156103365760018403610b125760075462093a808101809111610afe574210610ac3576203000160ff9162ff00ff19161791826006557f0000000000000000000000000000000000000000000000000000000000000000169160101c16926004841015610336578293823b15610abe57604051631d8e204760e01b815260ff9283166004820152911660248201529082908290604490829084905af18015610ab357610a9f575b507f110eefe47fb2df2a2f3149d618851e6ab16e70a4e6f3872b7c260bd48eec14fe6020604051428152a180f35b610aa890611cd5565b6101db578038610a71565b6040513d84823e3d90fd5b505050fd5b60405162461bcd60e51b8152602060048201526013602482015272151a5b595bdd5d081b9bdd081c995858da1959606a1b6044820152606490fd5b634e487b7160e01b84526011600452602484fd5b60405162461bcd60e51b815260206004820152601f60248201527f43616e206f6e6c792063616e63656c207768696c65207265736f6c76696e67006044820152606490fd5b60405162461bcd60e51b815260206004820152601760248201527f4f6e6c792063726561746f722063616e2063616e63656c0000000000000000006044820152606490fd5b50346101db5760203660031901126101db5760209060ff906040906001600160a01b03610bc7611c80565b168152600c84522054166040519015158152f35b50346101db57806003193601126101db576020600854604051908152f35b50346101db57806003193601126101db57610c126120b8565b600080546001600160a01b0319811682556001600160a01b03167f8be0079c531659141344cd1fd0a4f28419497f9722a3daafe3b4186f6b6457e08280a380f35b50346101db57806003193601126101db5760065460085460095490600d5492610c7a611d21565b93610c83611de7565b936040519360009560035495610c9887611c9b565b808252816020996001998b8b82169182600014610f82575050600114610f24575b610cc592500382611cff565b6040519160008360045491610cd983611c9b565b928383528c8c82169182600014610f07575050600114610ea9575b610d0092500384611cff565b6040518098600090600e5490610d1582611c9b565b918285528d8282169182600014610e8d575050600114610e42575b505003610d3d9089611cff565b6040517f00000000000000000000000000000000000000000000000000000000000000006001600160a01b031681526101a09981018a9052998a99610d8591908b0190611e86565b89810360408b0152610d9691611e86565b88810360608a0152610da791611e86565b8781036080890152610db891611e86565b937f000000000000000000000000000000000000000000000000000000000000000060a08801527f000000000000000000000000000000000000000000000000000000000000000060c088015260ff8116151560e088015260081c60ff16151561010087015261012086015261014085015261016084015282810361018084015261051c91611e86565b908c9250600e6000526000805160206120e5833981519152916000925b828410610e73575050508201018c80610d30565b84929582958583549201015201910190928c928c94610e5f565b925093505060ff191682840152151560051b8201018c80610d30565b50506004600052838a7f8a35acfbc15ff81a39ae7d344fd709f28e8600b4aa8c65c6b64bfe7fe36bd19b8b6000915b858310610eee575050610d009350820101610cf4565b80919294505483858a0101520191018b908b8793610ed8565b60ff191684820152610d0094151560051b8401019150610cf49050565b5050600360005281897fc2575a0e9e593c00f959f8c92f12db2869c3395a3b0502d05e2516446f71f85b8a6000915b858310610f69575050610cc59350820101610cb9565b8091929450548385880101520191018a908a8593610f53565b60ff191684820152610cc594151560051b8401019150610cb99050565b50346101db57806003193601126101db5761051c610fbb611de7565b604051918291602083526020830190611e86565b50346101db57806003193601126101db577f9b779b17422d0df92223018b32b4d1fa46e071723d6817e2486d003becc55f009060028254146112d157600282556006549160ff83161561129557338252602092600c845260ff60408420541661125e5760ff8160101c16600481101561124a576003036111995750338252600a83526110686040832054600b8552604084205490611f59565b611073811515611fb2565b33808452600c85526040808520805460ff191660011790555163a9059cbb60e01b81526004810191909152602481018290528481604481877f00000000000000000000000000000000000000000000000000000000000000006001600160a01b03165af190811561118e578491611154575b501561111d577f1a31e733a172afcf46074b3106c17f0c298e226442682a03c1e99ce256139ec2600193946040519283523392a25580f35b60405162461bcd60e51b815260048101859052600f60248201526e151c985b9cd9995c8819985a5b1959608a1b6044820152606490fd5b90508481813d8311611187575b61116b8183611cff565b810103126111835751801515810361118357386110e5565b8380fd5b503d611161565b6040513d86823e3d90fd5b60081c60ff16156111ff57600854806111c95750338252600b835260408220546111c4811515611fb2565b611073565b6111c490338452600a85526111f96040852054916111e8831515611f66565b6111f460095484611f10565b611f39565b90611f59565b6009548061121f5750338252600a835260408220546111c4811515611fb2565b6111c490338452600b85526111f960408520549161123e831515611f66565b6111f460085484611f10565b634e487b7160e01b84526021600452602484fd5b60405162461bcd60e51b815260048101859052600f60248201526e105b1c9958591e4818db185a5b5959608a1b6044820152606490fd5b60405162461bcd60e51b815260206004820152601460248201527310995d081b9bdd081c995cdbdb1d9959081e595d60621b6044820152606490fd5b604051633ee5aeb560e01b8152600490fd5b50346101db57806003193601126101db5761051c610fbb611d21565b50346101db57806003193601126101db576020600d54604051908152f35b50346101db5760203660031901126101db5760409061133a611c80565b6001600160a01b03168152600a602090815282822054600b9091528282205482918290801515806113fd575b6113c8575b50811515806113bd575b611388575b505082519182526020820152f35b6008546113ae93509081156113b557506113a56111f99183611f10565b60095490611f39565b388061137a565b905090611f59565b506009541515611375565b6009549194506113ee9180156113f5576113e56111f99183611f10565b60085490611f39565b923861136b565b508490611f59565b506008541515611366565b50346101db5760203660031901126101db576040906001600160a01b0361142d611c80565b168152600a602052818082205491600b602052205482519182526020820152f35b50346101db57806003193601126101db576001600160a01b03907f000000000000000000000000000000000000000000000000000000000000000082163303611643577f000000000000000000000000000000000000000000000000000000000000000042106115fe5760065460ff8160101c16906004821015610336576201000060ff916114dd8415611ed3565b62ff00001916179384600655426007557f0000000000000000000000000000000000000000000000000000000000000000169360101c1690600482101561033657833b156115fa57604051631d8e204760e01b815260ff918216600482015291166024820152818160448183875af18015610ab3579082916115e6575b50507f00000000000000000000000000000000000000000000000000000000000000009160038310156115d2578192813b156115ce5760ff602484928360405195869485936312ed593760e31b85521660048401525af18015610ab3576115be5750f35b6115c790611cd5565b6101db5780f35b5050fd5b634e487b7160e01b82526021600452602482fd5b6115ef90611cd5565b6101db57803861155a565b8280fd5b60405162461bcd60e51b815260206004820152601e60248201527f43616e6e6f74207265736f6c7665206265666f726520656e64206461746500006044820152606490fd5b60405162461bcd60e51b815260206004820152601860248201527f4f6e6c792063726561746f722063616e207265736f6c766500000000000000006044820152606490fd5b50346101db5760203660031901126101db5760043567ffffffffffffffff8082116115fa57366023830112156115fa57816004013581811161118357820160248101368111611b86576001600160a01b03917f000000000000000000000000000000000000000000000000000000000000000083163303611b8a578460e0910312611b8657602484013593828516809503611b825761172960448201611ec6565b9461173660648301611ec6565b9060e4830135868111611b7e57830184604382011215611b7e576024810135878111611b6a57908991604051966117776020601f19601f8501160189611cff565b818852604482840101116115fa578060446020930183890137860101523003611b2c5760065494600460ff8760101c161015611b1857600160ff8760101c1603611ad35760ff19861660011760065560c4830135600d558351908111611abf576117e2600e54611c9b565b601f8111611a58575b50806020601f82116001146119e75789916119dc575b508160011b916000199060031b1c191617600e555b156119685750506203000062ff00001960065416176006557f110eefe47fb2df2a2f3149d618851e6ab16e70a4e6f3872b7c260bd48eec14fe6020604051428152a15b60ff60065460101c169060048210156102dc57908185927f0000000000000000000000000000000000000000000000000000000000000000163b156115fa57604051631d8e204760e01b815260ff60109590951c85166004820152919093166024820152918290604490829084907f0000000000000000000000000000000000000000000000000000000000000000165af1801561195d57611927575b5060207fad24b3d82d5622fb9874775664b448323c0cd92415340fd16bb0dcdd9223d919916040519015158152a180f35b7fad24b3d82d5622fb9874775664b448323c0cd92415340fd16bb0dcdd9223d9199192611955602092611cd5565b9291506118f6565b6040513d85823e3d90fd5b7f901ef2b1d58e0424d4371c33a6d269cadf61c7f9c58f6f5347a6a157476ba581916119d4861515916202000060065461ff008560081b169062ffff001916171760065560c4604051948594855242602086015201356040840152608060608401526080830190611e86565b0390a1611859565b905084015138611801565b9150600e89526000805160206120e583398151915289925b601f1983168410611a40576001935082601f19811610611a27575b5050811b01600e55611816565b86015160001960f88460031b161c191690553880611a1a565b868101518255602093840193600190920191016119ff565b600e8952601f820160051c6000805160206120e58339815191520160208310611aaa575b601f820160051c6000805160206120e5833981519152018110611a9f57506117eb565b898155600101611a7c565b506000805160206120e5833981519152611a7c565b634e487b7160e01b88526041600452602488fd5b60405162461bcd60e51b815260206004820152601760248201527f4e6f74206177616974696e67207265736f6c7574696f6e0000000000000000006044820152606490fd5b634e487b7160e01b88526021600452602488fd5b60405162461bcd60e51b815260206004820152601660248201527514995cdc1bdb9cd948199bdc881ddc9bdb99c818995d60521b6044820152606490fd5b634e487b7160e01b8a52604160045260248afd5b8880fd5b8580fd5b8480fd5b60405162461bcd60e51b815260206004820152601960248201527f4f6e6c7920666163746f72792063616e206469737061746368000000000000006044820152606490fd5b50346101db57806003193601126101db5760ff60065460101c1660405190600481101561033657602092508152f35b50346101db57806003193601126101db5760206040517f00000000000000000000000000000000000000000000000000000000000000008152f35b905034611c7c5781600319360112611c7c577f00000000000000000000000000000000000000000000000000000000000000006001600160a01b03168152602090f35b5080fd5b600435906001600160a01b0382168203611c9657565b600080fd5b90600182811c92168015611ccb575b6020831014611cb557565b634e487b7160e01b600052602260045260246000fd5b91607f1691611caa565b67ffffffffffffffff8111611ce957604052565b634e487b7160e01b600052604160045260246000fd5b90601f8019910116810190811067ffffffffffffffff821117611ce957604052565b60405190600082600191600154611d3781611c9b565b8084529360209160018116908115611dc35750600114611d62575b5050611d6092500383611cff565b565b91509260016000527fb10e2d527612073b26eecdfd717e6a320cf44b4afac2b0732d9fcbe2b7fa0cf6936000925b828410611dab5750611d609450505081016020013880611d52565b85548885018301529485019487945092810192611d90565b91505060209250611d6094915060ff191682840152151560051b8201013880611d52565b6040519060008260025491611dfb83611c9b565b80835292602090600190818116908115611dc35750600114611e25575050611d6092500383611cff565b91509260026000527f405787fa12a823e0f2b7631cc41b3ba8828b3321ca811111fa75cd3aa3bb5ace936000925b828410611e6e5750611d609450505081016020013880611d52565b85548885018301529485019487945092810192611e53565b919082519283825260005b848110611eb2575050826000602080949584010152601f8019910116010190565b602081830181015184830182015201611e91565b35908115158203611c9657565b15611eda57565b60405162461bcd60e51b815260206004820152600e60248201526d426574206e6f742061637469766560901b6044820152606490fd5b81810292918115918404141715611f2357565b634e487b7160e01b600052601160045260246000fd5b8115611f43570490565b634e487b7160e01b600052601260045260246000fd5b91908201809211611f2357565b15611f6d57565b60405162461bcd60e51b815260206004820152601760248201527f4e6f2077696e6e696e672062657420746f20636c61696d0000000000000000006044820152606490fd5b15611fb957565b60405162461bcd60e51b815260206004820152601060248201526f139bc818995d081d1bc81c99599d5b9960821b6044820152606490fd5b15611ff857565b60405162461bcd60e51b815260206004820152601560248201527413db9b1e48199858dd1bdc9e4818d85b8818d85b1b605a1b6044820152606490fd5b1561203c57565b60405162461bcd60e51b815260206004820152601160248201527010995d1d1a5b99c81a185cc8195b991959607a1b6044820152606490fd5b1561207c57565b60405162461bcd60e51b815260206004820152601460248201527304d75737420626574206d6f7265207468616e20360641b6044820152606490fd5b6000546001600160a01b031633036120cc57565b60405163118cdaa760e01b8152336004820152602490fdfebb7b4a454dc3493923482f07822329ed19e8244eff582cc204f8554c3620c3fda2646970667358221220d4363c1aa7c1c3599f02259b6258b79425bc12aed4734b22c455d0b3da905f2c64736f6c63430008160033405787fa12a823e0f2b7631cc41b3ba8828b3321ca811111fa75cd3aa3bb5aceb10e2d527612073b26eecdfd717e6a320cf44b4afac2b0732d9fcbe2b7fa0cf6","opcodes":"PUSH2 0x140 PUSH1 0x40 MSTORE CALLVALUE PUSH3 0xA25 JUMPI PUSH3 0x2CB7 DUP1 CODESIZE SUB DUP1 PUSH3 0x1E DUP2 PUSH3 0xA2A JUMP JUMPDEST SWAP3 DUP4 CODECOPY DUP2 ADD SWAP1 PUSH2 0x140 DUP2 DUP4 SUB SLT PUSH3 0xA25 JUMPI PUSH3 0x3B DUP2 PUSH3 0xA50 JUMP JUMPDEST PUSH1 0x20 DUP3 ADD MLOAD SWAP1 SWAP2 SWAP1 PUSH1 0x1 PUSH1 0x1 PUSH1 0x40 SHL SUB DUP2 GT PUSH3 0xA25 JUMPI DUP4 PUSH3 0x60 SWAP2 DUP4 ADD PUSH3 0xAC6 JUMP JUMPDEST PUSH1 0x40 DUP3 ADD MLOAD SWAP1 SWAP4 SWAP1 PUSH1 0x1 PUSH1 0x1 PUSH1 0x40 SHL SUB DUP2 GT PUSH3 0xA25 JUMPI DUP2 PUSH3 0x85 SWAP2 DUP5 ADD PUSH3 0xAC6 JUMP JUMPDEST PUSH1 0x60 DUP4 ADD MLOAD SWAP1 SWAP4 SWAP1 PUSH1 0x1 PUSH1 0x1 PUSH1 0x40 SHL SUB DUP2 GT PUSH3 0xA25 JUMPI DUP3 PUSH3 0xAA SWAP2 DUP6 ADD PUSH3 0xAC6 JUMP JUMPDEST PUSH1 0x80 DUP5 ADD MLOAD PUSH1 0x1 PUSH1 0x1 PUSH1 0x40 SHL SUB DUP2 GT PUSH3 0xA25 JUMPI DUP4 PUSH3 0xCC SWAP2 DUP7 ADD PUSH3 0xAC6 JUMP JUMPDEST SWAP1 PUSH1 0xA0 DUP6 ADD MLOAD PUSH3 0xE0 PUSH1 0xC0 DUP8 ADD PUSH3 0xA50 JUMP JUMPDEST SWAP3 PUSH3 0xEF PUSH1 0xE0 DUP9 ADD PUSH3 0xA50 JUMP JUMPDEST SWAP3 PUSH2 0x100 SWAP9 DUP10 DUP10 ADD MLOAD SWAP8 PUSH1 0x3 DUP10 LT ISZERO PUSH3 0xA25 JUMPI PUSH2 0x120 DUP11 DUP2 ADD MLOAD SWAP1 SWAP11 PUSH1 0x1 PUSH1 0x1 PUSH1 0x40 SHL SUB DUP3 GT PUSH3 0xA25 JUMPI ADD SWAP1 DUP1 PUSH1 0x1F DUP4 ADD SLT ISZERO PUSH3 0xA25 JUMPI DUP2 MLOAD PUSH3 0x139 SWAP3 PUSH1 0x20 ADD PUSH3 0xA65 JUMP JUMPDEST PUSH1 0x1 PUSH32 0x9B779B17422D0DF92223018B32B4D1FA46E071723D6817E2486D003BECC55F00 SSTORE SWAP11 PUSH1 0x1 PUSH1 0x1 PUSH1 0xA0 SHL SUB SWAP8 DUP7 DUP10 AND DUP1 ISZERO PUSH3 0xA0C JUMPI PUSH1 0x0 DUP1 SLOAD PUSH1 0x1 PUSH1 0x1 PUSH1 0xA0 SHL SUB NOT DUP2 AND DUP4 OR DUP3 SSTORE PUSH1 0x40 MLOAD SWAP3 SWAP2 SWAP1 DUP13 AND SWAP1 PUSH32 0x8BE0079C531659141344CD1FD0A4F28419497F9722A3DAAFE3B4186F6B6457E0 SWAP1 DUP1 LOG3 DUP10 DUP3 AND ISZERO PUSH3 0x9CA JUMPI POP DUP9 DUP9 AND ISZERO PUSH3 0x985 JUMPI DUP2 MLOAD ISZERO PUSH3 0x940 JUMPI DUP4 MLOAD ISZERO PUSH3 0x8FB JUMPI DUP5 MLOAD ISZERO PUSH3 0x8B6 JUMPI PUSH1 0x80 MSTORE DUP1 MLOAD SWAP1 PUSH1 0x1 PUSH1 0x1 PUSH1 0x40 SHL SUB DUP3 GT PUSH3 0x554 JUMPI PUSH3 0x1FE PUSH1 0x1 SLOAD PUSH3 0xAE6 JUMP JUMPDEST PUSH1 0x1F DUP2 GT PUSH3 0x874 JUMPI JUMPDEST POP PUSH1 0x20 SWAP1 PUSH1 0x1F DUP4 GT PUSH1 0x1 EQ PUSH3 0x7F7 JUMPI PUSH3 0x23D SWAP3 SWAP2 PUSH1 0x0 SWAP2 DUP4 PUSH3 0x49D JUMPI JUMPDEST POP POP DUP2 PUSH1 0x1 SHL SWAP2 PUSH1 0x0 NOT SWAP1 PUSH1 0x3 SHL SHR NOT AND OR SWAP1 JUMP JUMPDEST PUSH1 0x1 SSTORE JUMPDEST DUP1 MLOAD SWAP1 PUSH1 0x1 PUSH1 0x1 PUSH1 0x40 SHL SUB DUP3 GT PUSH3 0x554 JUMPI PUSH3 0x260 PUSH1 0x2 SLOAD PUSH3 0xAE6 JUMP JUMPDEST PUSH1 0x1F DUP2 GT PUSH3 0x7B5 JUMPI JUMPDEST POP PUSH1 0x20 SWAP1 PUSH1 0x1F DUP4 GT PUSH1 0x1 EQ PUSH3 0x738 JUMPI PUSH3 0x29E SWAP3 SWAP2 PUSH1 0x0 SWAP2 DUP4 PUSH3 0x49D JUMPI POP POP DUP2 PUSH1 0x1 SHL SWAP2 PUSH1 0x0 NOT SWAP1 PUSH1 0x3 SHL SHR NOT AND OR SWAP1 JUMP JUMPDEST PUSH1 0x2 SSTORE JUMPDEST DUP1 MLOAD SWAP1 PUSH1 0x1 PUSH1 0x1 PUSH1 0x40 SHL SUB DUP3 GT PUSH3 0x554 JUMPI PUSH3 0x2C1 PUSH1 0x3 SLOAD PUSH3 0xAE6 JUMP JUMPDEST PUSH1 0x1F DUP2 GT PUSH3 0x6E5 JUMPI JUMPDEST POP PUSH1 0x20 SWAP1 PUSH1 0x1F DUP4 GT PUSH1 0x1 EQ PUSH3 0x657 JUMPI PUSH3 0x2FF SWAP3 SWAP2 PUSH1 0x0 SWAP2 DUP4 PUSH3 0x49D JUMPI POP POP DUP2 PUSH1 0x1 SHL SWAP2 PUSH1 0x0 NOT SWAP1 PUSH1 0x3 SHL SHR NOT AND OR SWAP1 JUMP JUMPDEST PUSH1 0x3 SSTORE JUMPDEST DUP1 MLOAD SWAP1 PUSH1 0x1 PUSH1 0x1 PUSH1 0x40 SHL SUB DUP3 GT PUSH3 0x554 JUMPI PUSH3 0x322 PUSH1 0x4 SLOAD PUSH3 0xAE6 JUMP JUMPDEST PUSH1 0x1F DUP2 GT PUSH3 0x5F8 JUMPI JUMPDEST POP PUSH1 0x20 SWAP1 PUSH1 0x1F DUP4 GT PUSH1 0x1 EQ PUSH3 0x56A JUMPI PUSH3 0x360 SWAP3 SWAP2 PUSH1 0x0 SWAP2 DUP4 PUSH3 0x49D JUMPI POP POP DUP2 PUSH1 0x1 SHL SWAP2 PUSH1 0x0 NOT SWAP1 PUSH1 0x3 SHL SHR NOT AND OR SWAP1 JUMP JUMPDEST PUSH1 0x4 SSTORE JUMPDEST TIMESTAMP PUSH1 0xA0 MSTORE PUSH1 0xC0 MSTORE PUSH1 0xE0 MSTORE AND DUP4 MSTORE DUP2 MSTORE DUP3 MLOAD PUSH1 0x1 PUSH1 0x1 PUSH1 0x40 SHL SUB DUP2 GT PUSH3 0x554 JUMPI PUSH1 0x5 SWAP1 PUSH3 0x393 DUP3 SLOAD PUSH3 0xAE6 JUMP JUMPDEST PUSH1 0x1F DUP2 GT PUSH3 0x514 JUMPI JUMPDEST POP PUSH1 0x20 SWAP5 PUSH1 0x1F DUP3 GT PUSH1 0x1 EQ PUSH3 0x4A9 JUMPI PUSH3 0x3D4 SWAP3 SWAP4 SWAP5 SWAP6 DUP3 SWAP2 PUSH1 0x0 SWAP3 PUSH3 0x49D JUMPI POP POP DUP2 PUSH1 0x1 SHL SWAP2 PUSH1 0x0 NOT SWAP1 PUSH1 0x3 SHL SHR NOT AND OR SWAP1 JUMP JUMPDEST SWAP1 SSTORE JUMPDEST PUSH3 0xFF0000 NOT PUSH1 0x6 SLOAD AND PUSH1 0x6 SSTORE PUSH1 0x40 MLOAD SWAP1 PUSH2 0x213A SWAP3 DUP4 PUSH3 0xB3D DUP5 CODECOPY PUSH1 0x80 MLOAD DUP4 DUP2 DUP2 PUSH2 0x993 ADD MSTORE DUP2 DUP2 PUSH2 0xD42 ADD MSTORE DUP2 DUP2 PUSH2 0x146A ADD MSTORE PUSH2 0x1C4D ADD MSTORE PUSH1 0xA0 MLOAD DUP4 DUP2 DUP2 PUSH2 0xDBB ADD MSTORE PUSH2 0x1C16 ADD MSTORE PUSH1 0xC0 MLOAD DUP4 DUP2 DUP2 PUSH2 0x237 ADD MSTORE DUP2 DUP2 PUSH2 0x493 ADD MSTORE DUP2 DUP2 PUSH2 0x7E4 ADD MSTORE DUP2 DUP2 PUSH2 0xDE1 ADD MSTORE PUSH2 0x1493 ADD MSTORE PUSH1 0xE0 MLOAD DUP4 DUP2 DUP2 PUSH2 0x20B ADD MSTORE DUP2 DUP2 PUSH2 0x44C ADD MSTORE DUP2 DUP2 PUSH2 0x7B8 ADD MSTORE DUP2 DUP2 PUSH2 0xA02 ADD MSTORE DUP2 DUP2 PUSH2 0x14EF ADD MSTORE DUP2 DUP2 PUSH2 0x16DC ADD MSTORE DUP2 DUP2 PUSH2 0x1872 ADD MSTORE PUSH2 0x18C9 ADD MSTORE MLOAD DUP3 DUP2 DUP2 PUSH2 0x1AC ADD MSTORE PUSH2 0x10AD ADD MSTORE MLOAD DUP2 DUP2 DUP2 PUSH2 0x306 ADD MSTORE PUSH2 0x155E ADD MSTORE RETURN JUMPDEST ADD MLOAD SWAP1 POP CODESIZE DUP1 PUSH3 0x228 JUMP JUMPDEST PUSH1 0x1F NOT DUP3 AND SWAP6 DUP4 PUSH1 0x0 MSTORE PUSH1 0x20 PUSH1 0x0 KECCAK256 SWAP2 PUSH1 0x0 JUMPDEST DUP9 DUP2 LT PUSH3 0x4FB JUMPI POP DUP4 PUSH1 0x1 SWAP6 SWAP7 SWAP8 SWAP9 LT PUSH3 0x4E1 JUMPI JUMPDEST POP POP POP DUP2 SHL ADD SWAP1 SSTORE PUSH3 0x3D7 JUMP JUMPDEST ADD MLOAD PUSH1 0x0 NOT PUSH1 0xF8 DUP5 PUSH1 0x3 SHL AND SHR NOT AND SWAP1 SSTORE CODESIZE DUP1 DUP1 PUSH3 0x4D3 JUMP JUMPDEST SWAP2 SWAP3 PUSH1 0x20 PUSH1 0x1 DUP2 SWAP3 DUP7 DUP6 ADD MLOAD DUP2 SSTORE ADD SWAP5 ADD SWAP3 ADD PUSH3 0x4BC JUMP JUMPDEST PUSH3 0x542 SWAP1 DUP4 PUSH1 0x0 MSTORE PUSH1 0x20 PUSH1 0x0 KECCAK256 PUSH1 0x1F DUP5 ADD DUP6 SHR DUP2 ADD SWAP2 PUSH1 0x20 DUP6 LT PUSH3 0x549 JUMPI JUMPDEST PUSH1 0x1F ADD DUP6 SHR ADD SWAP1 PUSH3 0xB23 JUMP JUMPDEST CODESIZE PUSH3 0x39D JUMP JUMPDEST SWAP1 SWAP2 POP DUP2 SWAP1 PUSH3 0x535 JUMP JUMPDEST PUSH4 0x4E487B71 PUSH1 0xE0 SHL PUSH1 0x0 MSTORE PUSH1 0x41 PUSH1 0x4 MSTORE PUSH1 0x24 PUSH1 0x0 REVERT JUMPDEST PUSH1 0x4 PUSH1 0x0 SWAP1 DUP2 MSTORE SWAP3 SWAP2 PUSH32 0x8A35ACFBC15FF81A39AE7D344FD709F28E8600B4AA8C65C6B64BFE7FE36BD19B SWAP2 JUMPDEST PUSH1 0x1F NOT DUP5 AND DUP6 LT PUSH3 0x5DC JUMPI PUSH1 0x1 SWAP5 POP DUP4 PUSH1 0x1F NOT DUP2 AND LT PUSH3 0x5C2 JUMPI JUMPDEST POP POP POP DUP2 SHL ADD PUSH1 0x4 SSTORE PUSH3 0x364 JUMP JUMPDEST ADD MLOAD PUSH1 0x0 NOT PUSH1 0xF8 DUP5 PUSH1 0x3 SHL AND SHR NOT AND SWAP1 SSTORE CODESIZE DUP1 DUP1 PUSH3 0x5B3 JUMP JUMPDEST DUP2 DUP2 ADD MLOAD DUP4 SSTORE PUSH1 0x20 SWAP5 DUP6 ADD SWAP5 PUSH1 0x1 SWAP1 SWAP4 ADD SWAP3 SWAP1 SWAP2 ADD SWAP1 PUSH3 0x596 JUMP JUMPDEST PUSH1 0x4 PUSH1 0x0 MSTORE PUSH3 0x645 SWAP1 PUSH32 0x8A35ACFBC15FF81A39AE7D344FD709F28E8600B4AA8C65C6B64BFE7FE36BD19B PUSH1 0x1F DUP6 ADD PUSH1 0x5 SHR DUP2 ADD SWAP2 PUSH1 0x20 DUP7 LT PUSH3 0x64C JUMPI JUMPDEST PUSH1 0x1F ADD PUSH1 0x5 SHR ADD SWAP1 PUSH3 0xB23 JUMP JUMPDEST CODESIZE PUSH3 0x32C JUMP JUMPDEST SWAP1 SWAP2 POP DUP2 SWAP1 PUSH3 0x637 JUMP JUMPDEST PUSH1 0x3 PUSH1 0x0 SWAP1 DUP2 MSTORE SWAP3 SWAP2 PUSH32 0xC2575A0E9E593C00F959F8C92F12DB2869C3395A3B0502D05E2516446F71F85B SWAP2 JUMPDEST PUSH1 0x1F NOT DUP5 AND DUP6 LT PUSH3 0x6C9 JUMPI PUSH1 0x1 SWAP5 POP DUP4 PUSH1 0x1F NOT DUP2 AND LT PUSH3 0x6AF JUMPI JUMPDEST POP POP POP DUP2 SHL ADD PUSH1 0x3 SSTORE PUSH3 0x303 JUMP JUMPDEST ADD MLOAD PUSH1 0x0 NOT PUSH1 0xF8 DUP5 PUSH1 0x3 SHL AND SHR NOT AND SWAP1 SSTORE CODESIZE DUP1 DUP1 PUSH3 0x6A0 JUMP JUMPDEST DUP2 DUP2 ADD MLOAD DUP4 SSTORE PUSH1 0x20 SWAP5 DUP6 ADD SWAP5 PUSH1 0x1 SWAP1 SWAP4 ADD SWAP3 SWAP1 SWAP2 ADD SWAP1 PUSH3 0x683 JUMP JUMPDEST PUSH1 0x3 PUSH1 0x0 MSTORE PUSH3 0x731 SWAP1 PUSH32 0xC2575A0E9E593C00F959F8C92F12DB2869C3395A3B0502D05E2516446F71F85B PUSH1 0x1F DUP6 ADD PUSH1 0x5 SHR DUP2 ADD SWAP2 PUSH1 0x20 DUP7 LT PUSH3 0x64C JUMPI PUSH1 0x1F ADD PUSH1 0x5 SHR ADD SWAP1 PUSH3 0xB23 JUMP JUMPDEST CODESIZE PUSH3 0x2CB JUMP JUMPDEST PUSH1 0x2 PUSH1 0x0 SWAP1 DUP2 MSTORE SWAP3 SWAP2 PUSH1 0x0 DUP1 MLOAD PUSH1 0x20 PUSH3 0x2C77 DUP4 CODECOPY DUP2 MLOAD SWAP2 MSTORE SWAP2 JUMPDEST PUSH1 0x1F NOT DUP5 AND DUP6 LT PUSH3 0x799 JUMPI PUSH1 0x1 SWAP5 POP DUP4 PUSH1 0x1F NOT DUP2 AND LT PUSH3 0x77F JUMPI JUMPDEST POP POP POP DUP2 SHL ADD PUSH1 0x2 SSTORE PUSH3 0x2A2 JUMP JUMPDEST ADD MLOAD PUSH1 0x0 NOT PUSH1 0xF8 DUP5 PUSH1 0x3 SHL AND SHR NOT AND SWAP1 SSTORE CODESIZE DUP1 DUP1 PUSH3 0x770 JUMP JUMPDEST DUP2 DUP2 ADD MLOAD DUP4 SSTORE PUSH1 0x20 SWAP5 DUP6 ADD SWAP5 PUSH1 0x1 SWAP1 SWAP4 ADD SWAP3 SWAP1 SWAP2 ADD SWAP1 PUSH3 0x753 JUMP JUMPDEST PUSH1 0x2 PUSH1 0x0 MSTORE PUSH3 0x7F0 SWAP1 PUSH1 0x0 DUP1 MLOAD PUSH1 0x20 PUSH3 0x2C77 DUP4 CODECOPY DUP2 MLOAD SWAP2 MSTORE PUSH1 0x1F DUP6 ADD PUSH1 0x5 SHR DUP2 ADD SWAP2 PUSH1 0x20 DUP7 LT PUSH3 0x64C JUMPI PUSH1 0x1F ADD PUSH1 0x5 SHR ADD SWAP1 PUSH3 0xB23 JUMP JUMPDEST CODESIZE PUSH3 0x26A JUMP JUMPDEST PUSH1 0x1 PUSH1 0x0 SWAP1 DUP2 MSTORE SWAP3 SWAP2 PUSH1 0x0 DUP1 MLOAD PUSH1 0x20 PUSH3 0x2C97 DUP4 CODECOPY DUP2 MLOAD SWAP2 MSTORE SWAP2 JUMPDEST PUSH1 0x1F NOT DUP5 AND DUP6 LT PUSH3 0x858 JUMPI PUSH1 0x1 SWAP5 POP DUP4 PUSH1 0x1F NOT DUP2 AND LT PUSH3 0x83E JUMPI JUMPDEST POP POP POP DUP2 SHL ADD PUSH1 0x1 SSTORE PUSH3 0x241 JUMP JUMPDEST ADD MLOAD PUSH1 0x0 NOT PUSH1 0xF8 DUP5 PUSH1 0x3 SHL AND SHR NOT AND SWAP1 SSTORE CODESIZE DUP1 DUP1 PUSH3 0x82F JUMP JUMPDEST DUP2 DUP2 ADD MLOAD DUP4 SSTORE PUSH1 0x20 SWAP5 DUP6 ADD SWAP5 PUSH1 0x1 SWAP1 SWAP4 ADD SWAP3 SWAP1 SWAP2 ADD SWAP1 PUSH3 0x812 JUMP JUMPDEST PUSH1 0x1 PUSH1 0x0 MSTORE PUSH3 0x8AF SWAP1 PUSH1 0x0 DUP1 MLOAD PUSH1 0x20 PUSH3 0x2C97 DUP4 CODECOPY DUP2 MLOAD SWAP2 MSTORE PUSH1 0x1F DUP6 ADD PUSH1 0x5 SHR DUP2 ADD SWAP2 PUSH1 0x20 DUP7 LT PUSH3 0x64C JUMPI PUSH1 0x1F ADD PUSH1 0x5 SHR ADD SWAP1 PUSH3 0xB23 JUMP JUMPDEST CODESIZE PUSH3 0x208 JUMP JUMPDEST PUSH1 0x40 MLOAD PUSH3 0x461BCD PUSH1 0xE5 SHL DUP2 MSTORE PUSH1 0x20 PUSH1 0x4 DUP3 ADD MSTORE PUSH1 0x1B PUSH1 0x24 DUP3 ADD MSTORE PUSH32 0x536964652042206E616D652063616E6E6F7420626520656D7074790000000000 PUSH1 0x44 DUP3 ADD MSTORE PUSH1 0x64 SWAP1 REVERT JUMPDEST PUSH1 0x40 MLOAD PUSH3 0x461BCD PUSH1 0xE5 SHL DUP2 MSTORE PUSH1 0x20 PUSH1 0x4 DUP3 ADD MSTORE PUSH1 0x1B PUSH1 0x24 DUP3 ADD MSTORE PUSH32 0x536964652041206E616D652063616E6E6F7420626520656D7074790000000000 PUSH1 0x44 DUP3 ADD MSTORE PUSH1 0x64 SWAP1 REVERT JUMPDEST PUSH1 0x40 MLOAD PUSH3 0x461BCD PUSH1 0xE5 SHL DUP2 MSTORE PUSH1 0x20 PUSH1 0x4 DUP3 ADD MSTORE PUSH1 0x15 PUSH1 0x24 DUP3 ADD MSTORE PUSH32 0x5469746C652063616E6E6F7420626520656D7074790000000000000000000000 PUSH1 0x44 DUP3 ADD MSTORE PUSH1 0x64 SWAP1 REVERT JUMPDEST PUSH1 0x40 MLOAD PUSH3 0x461BCD PUSH1 0xE5 SHL DUP2 MSTORE PUSH1 0x20 PUSH1 0x4 DUP3 ADD MSTORE PUSH1 0x15 PUSH1 0x24 DUP3 ADD MSTORE PUSH32 0x496E76616C696420746F6B656E20616464726573730000000000000000000000 PUSH1 0x44 DUP3 ADD MSTORE PUSH1 0x64 SWAP1 REVERT JUMPDEST PUSH3 0x461BCD PUSH1 0xE5 SHL DUP2 MSTORE PUSH1 0x20 PUSH1 0x4 DUP3 ADD MSTORE PUSH1 0x17 PUSH1 0x24 DUP3 ADD MSTORE PUSH32 0x496E76616C69642063726561746F722061646472657373000000000000000000 PUSH1 0x44 DUP3 ADD MSTORE PUSH1 0x64 SWAP1 REVERT JUMPDEST PUSH1 0x40 MLOAD PUSH4 0x1E4FBDF7 PUSH1 0xE0 SHL DUP2 MSTORE PUSH1 0x0 PUSH1 0x4 DUP3 ADD MSTORE PUSH1 0x24 SWAP1 REVERT JUMPDEST PUSH1 0x0 DUP1 REVERT JUMPDEST PUSH1 0x40 MLOAD SWAP2 SWAP1 PUSH1 0x1F ADD PUSH1 0x1F NOT AND DUP3 ADD PUSH1 0x1 PUSH1 0x1 PUSH1 0x40 SHL SUB DUP2 GT DUP4 DUP3 LT OR PUSH3 0x554 JUMPI PUSH1 0x40 MSTORE JUMP JUMPDEST MLOAD SWAP1 PUSH1 0x1 PUSH1 0x1 PUSH1 0xA0 SHL SUB DUP3 AND DUP3 SUB PUSH3 0xA25 JUMPI JUMP JUMPDEST SWAP2 SWAP3 SWAP2 PUSH1 0x1 PUSH1 0x1 PUSH1 0x40 SHL SUB DUP3 GT PUSH3 0x554 JUMPI PUSH1 0x20 SWAP1 PUSH3 0xA8E PUSH1 0x1F DUP5 ADD PUSH1 0x1F NOT AND DUP4 ADD PUSH3 0xA2A JUMP JUMPDEST SWAP5 DUP4 DUP7 MSTORE DUP4 DUP3 ADD GT PUSH3 0xA25 JUMPI PUSH1 0x0 JUMPDEST DUP4 DUP2 LT PUSH3 0xAB4 JUMPI POP POP POP PUSH1 0x20 PUSH1 0x0 SWAP2 DUP5 ADD ADD MSTORE JUMP JUMPDEST DUP2 DUP2 ADD MLOAD DUP7 DUP3 ADD DUP5 ADD MSTORE DUP3 ADD PUSH3 0xA9E JUMP JUMPDEST SWAP1 DUP1 PUSH1 0x1F DUP4 ADD SLT ISZERO PUSH3 0xA25 JUMPI DUP2 MLOAD PUSH3 0xAE3 SWAP3 PUSH1 0x20 ADD PUSH3 0xA65 JUMP JUMPDEST SWAP1 JUMP JUMPDEST SWAP1 PUSH1 0x1 DUP3 DUP2 SHR SWAP3 AND DUP1 ISZERO PUSH3 0xB18 JUMPI JUMPDEST PUSH1 0x20 DUP4 LT EQ PUSH3 0xB02 JUMPI JUMP JUMPDEST PUSH4 0x4E487B71 PUSH1 0xE0 SHL PUSH1 0x0 MSTORE PUSH1 0x22 PUSH1 0x4 MSTORE PUSH1 0x24 PUSH1 0x0 REVERT JUMPDEST SWAP2 PUSH1 0x7F AND SWAP2 PUSH3 0xAF6 JUMP JUMPDEST DUP2 DUP2 LT PUSH3 0xB2F JUMPI POP POP JUMP JUMPDEST PUSH1 0x0 DUP2 SSTORE PUSH1 0x1 ADD PUSH3 0xB23 JUMP INVALID PUSH1 0x80 DUP1 PUSH1 0x40 MSTORE PUSH1 0x4 CALLDATASIZE LT ISZERO PUSH2 0x13 JUMPI PUSH1 0x0 DUP1 REVERT JUMPDEST PUSH1 0x0 SWAP1 DUP2 CALLDATALOAD PUSH1 0xE0 SHR SWAP1 DUP2 PUSH4 0x2D05D3F EQ PUSH2 0x1C39 JUMPI POP DUP1 PUSH4 0x5B34410 EQ PUSH2 0x1BFE JUMPI DUP1 PUSH4 0x200D2ED2 EQ PUSH2 0x1BCF JUMPI DUP1 PUSH4 0x21701A15 EQ PUSH2 0x1688 JUMPI DUP1 PUSH4 0x2810E1D6 EQ PUSH2 0x144E JUMPI DUP1 PUSH4 0x2D56657D EQ PUSH2 0x1408 JUMPI DUP1 PUSH4 0x3CAEF381 EQ PUSH2 0x131D JUMPI DUP1 PUSH4 0x3D5D526A EQ PUSH2 0x12FF JUMPI DUP1 PUSH4 0x4A79D50C EQ PUSH2 0x12E3 JUMPI DUP1 PUSH4 0x4E71D92D EQ PUSH2 0xFCF JUMPI DUP1 PUSH4 0x519A1D84 EQ PUSH2 0xF9F JUMPI DUP1 PUSH4 0x5A9B0B89 EQ PUSH2 0xC53 JUMPI DUP1 PUSH4 0x715018A6 EQ PUSH2 0xBF9 JUMPI DUP1 PUSH4 0x72834E5B EQ PUSH2 0xBDB JUMPI DUP1 PUSH4 0x73B2E80E EQ PUSH2 0xB9C JUMPI DUP1 PUSH4 0x7B6D79F1 EQ PUSH2 0x977 JUMPI DUP1 PUSH4 0x7FF41970 EQ PUSH2 0x8A7 JUMPI DUP1 PUSH4 0x831AD6DB EQ PUSH2 0x889 JUMPI DUP1 PUSH4 0x845E45F9 EQ PUSH2 0x78B JUMPI DUP1 PUSH4 0x85A26FE6 EQ PUSH2 0x765 JUMPI DUP1 PUSH4 0x881E4CCA EQ PUSH2 0x72C JUMPI DUP1 PUSH4 0x8DA5CB5B EQ PUSH2 0x705 JUMPI DUP1 PUSH4 0x8EB1A4AD EQ PUSH2 0x657 JUMPI DUP1 PUSH4 0x958F03B7 EQ PUSH2 0x639 JUMPI DUP1 PUSH4 0xA355F897 EQ PUSH2 0x58B JUMPI DUP1 PUSH4 0xBB978C5B EQ PUSH2 0x4B6 JUMPI DUP1 PUSH4 0xC24A0F8B EQ PUSH2 0x47B JUMPI DUP1 PUSH4 0xC45A0155 EQ PUSH2 0x436 JUMPI DUP1 PUSH4 0xDBB3F537 EQ PUSH2 0x413 JUMPI DUP1 PUSH4 0xE2529773 EQ PUSH2 0x3DA JUMPI DUP1 PUSH4 0xF2FDE38B EQ PUSH2 0x34A JUMPI DUP1 PUSH4 0xF7AD7920 EQ PUSH2 0x2F0 JUMPI DUP1 PUSH4 0xF7DDA472 EQ PUSH2 0x1DE JUMPI PUSH4 0xFC0C546A EQ PUSH2 0x197 JUMPI PUSH1 0x0 DUP1 REVERT JUMPDEST CALLVALUE PUSH2 0x1DB JUMPI DUP1 PUSH1 0x3 NOT CALLDATASIZE ADD SLT PUSH2 0x1DB JUMPI PUSH1 0x40 MLOAD PUSH32 0x0 PUSH1 0x1 PUSH1 0x1 PUSH1 0xA0 SHL SUB AND DUP2 MSTORE PUSH1 0x20 SWAP1 RETURN JUMPDEST DUP1 REVERT JUMPDEST POP CALLVALUE PUSH2 0x1DB JUMPI PUSH1 0x40 CALLDATASIZE PUSH1 0x3 NOT ADD SLT PUSH2 0x1DB JUMPI PUSH2 0x1F8 PUSH2 0x1C80 JUMP JUMPDEST PUSH1 0x24 CALLDATALOAD SWAP1 PUSH1 0x1 PUSH1 0x1 PUSH1 0xA0 SHL SUB SWAP1 PUSH2 0x232 CALLER PUSH32 0x0 DUP5 AND EQ PUSH2 0x1FF1 JUMP JUMPDEST PUSH2 0x25D PUSH32 0x0 TIMESTAMP LT PUSH2 0x2035 JUMP JUMPDEST PUSH1 0xFF PUSH1 0x6 SLOAD PUSH1 0x10 SHR AND PUSH1 0x4 DUP2 LT ISZERO PUSH2 0x2DC JUMPI SWAP2 PUSH1 0x20 SWAP2 PUSH2 0x29E PUSH32 0x8B1B269ED471A640FD80B1F65B929A812A4C36183F7807568B77B08925BDEE4D SWAP5 ISZERO PUSH2 0x1ED3 JUMP JUMPDEST PUSH2 0x2A9 DUP6 ISZERO ISZERO PUSH2 0x2075 JUMP JUMPDEST AND SWAP3 DUP4 DUP6 MSTORE PUSH1 0xB DUP3 MSTORE PUSH1 0x40 DUP6 KECCAK256 PUSH2 0x2C1 DUP3 DUP3 SLOAD PUSH2 0x1F59 JUMP JUMPDEST SWAP1 SSTORE PUSH2 0x2CF DUP2 PUSH1 0x9 SLOAD PUSH2 0x1F59 JUMP JUMPDEST PUSH1 0x9 SSTORE PUSH1 0x40 MLOAD SWAP1 DUP2 MSTORE LOG2 DUP1 RETURN JUMPDEST PUSH4 0x4E487B71 PUSH1 0xE0 SHL DUP6 MSTORE PUSH1 0x21 PUSH1 0x4 MSTORE PUSH1 0x24 DUP6 REVERT JUMPDEST POP CALLVALUE PUSH2 0x1DB JUMPI DUP1 PUSH1 0x3 NOT CALLDATASIZE ADD SLT PUSH2 0x1DB JUMPI PUSH1 0x40 MLOAD PUSH32 0x0 PUSH1 0x3 DUP2 LT ISZERO PUSH2 0x336 JUMPI PUSH1 0x20 SWAP3 POP DUP2 MSTORE RETURN JUMPDEST PUSH4 0x4E487B71 PUSH1 0xE0 SHL DUP4 MSTORE PUSH1 0x21 PUSH1 0x4 MSTORE PUSH1 0x24 DUP4 REVERT JUMPDEST POP CALLVALUE PUSH2 0x1DB JUMPI PUSH1 0x20 CALLDATASIZE PUSH1 0x3 NOT ADD SLT PUSH2 0x1DB JUMPI PUSH2 0x364 PUSH2 0x1C80 JUMP JUMPDEST PUSH2 0x36C PUSH2 0x20B8 JUMP JUMPDEST PUSH1 0x1 PUSH1 0x1 PUSH1 0xA0 SHL SUB SWAP1 DUP2 AND SWAP1 DUP2 ISZERO PUSH2 0x3C1 JUMPI PUSH1 0x0 SLOAD DUP3 PUSH12 0xFFFFFFFFFFFFFFFFFFFFFFFF PUSH1 0xA0 SHL DUP3 AND OR PUSH1 0x0 SSTORE AND PUSH32 0x8BE0079C531659141344CD1FD0A4F28419497F9722A3DAAFE3B4186F6B6457E0 PUSH1 0x0 DUP1 LOG3 DUP1 RETURN JUMPDEST PUSH1 0x40 MLOAD PUSH4 0x1E4FBDF7 PUSH1 0xE0 SHL DUP2 MSTORE PUSH1 0x4 DUP2 ADD DUP5 SWAP1 MSTORE PUSH1 0x24 SWAP1 REVERT JUMPDEST POP CALLVALUE PUSH2 0x1DB JUMPI PUSH1 0x20 CALLDATASIZE PUSH1 0x3 NOT ADD SLT PUSH2 0x1DB JUMPI PUSH1 0x20 SWAP1 PUSH1 0x40 SWAP1 PUSH1 0x1 PUSH1 0x1 PUSH1 0xA0 SHL SUB PUSH2 0x402 PUSH2 0x1C80 JUMP JUMPDEST AND DUP2 MSTORE PUSH1 0xA DUP4 MSTORE KECCAK256 SLOAD PUSH1 0x40 MLOAD SWAP1 DUP2 MSTORE RETURN JUMPDEST POP CALLVALUE PUSH2 0x1DB JUMPI DUP1 PUSH1 0x3 NOT CALLDATASIZE ADD SLT PUSH2 0x1DB JUMPI PUSH1 0x20 PUSH1 0xFF PUSH1 0x6 SLOAD AND PUSH1 0x40 MLOAD SWAP1 ISZERO ISZERO DUP2 MSTORE RETURN JUMPDEST POP CALLVALUE PUSH2 0x1DB JUMPI DUP1 PUSH1 0x3 NOT CALLDATASIZE ADD SLT PUSH2 0x1DB JUMPI PUSH1 0x40 MLOAD PUSH32 0x0 PUSH1 0x1 PUSH1 0x1 PUSH1 0xA0 SHL SUB AND DUP2 MSTORE PUSH1 0x20 SWAP1 RETURN JUMPDEST POP CALLVALUE PUSH2 0x1DB JUMPI DUP1 PUSH1 0x3 NOT CALLDATASIZE ADD SLT PUSH2 0x1DB JUMPI PUSH1 0x20 PUSH1 0x40 MLOAD PUSH32 0x0 DUP2 MSTORE RETURN JUMPDEST POP CALLVALUE PUSH2 0x1DB JUMPI DUP1 PUSH1 0x3 NOT CALLDATASIZE ADD SLT PUSH2 0x1DB JUMPI PUSH1 0x40 MLOAD PUSH1 0xE SLOAD PUSH1 0x0 DUP3 PUSH2 0x4D9 DUP4 PUSH2 0x1C9B JUMP JUMPDEST SWAP2 DUP3 DUP3 MSTORE PUSH1 0x20 SWAP4 PUSH1 0x1 SWAP1 DUP6 PUSH1 0x1 DUP3 AND SWAP2 DUP3 PUSH1 0x0 EQ PUSH2 0x56B JUMPI POP POP PUSH1 0x1 EQ PUSH2 0x520 JUMPI JUMPDEST POP PUSH2 0x508 SWAP3 POP SUB DUP4 PUSH2 0x1CFF JUMP JUMPDEST PUSH2 0x51C PUSH1 0x40 MLOAD SWAP3 DUP3 DUP5 SWAP4 DUP5 MSTORE DUP4 ADD SWAP1 PUSH2 0x1E86 JUMP JUMPDEST SUB SWAP1 RETURN JUMPDEST DUP5 SWAP2 POP PUSH1 0xE PUSH1 0x0 MSTORE PUSH1 0x0 DUP1 MLOAD PUSH1 0x20 PUSH2 0x20E5 DUP4 CODECOPY DUP2 MLOAD SWAP2 MSTORE SWAP1 PUSH1 0x0 SWAP2 JUMPDEST DUP6 DUP4 LT PUSH2 0x553 JUMPI POP POP PUSH2 0x508 SWAP4 POP DUP3 ADD ADD DUP6 PUSH2 0x4FB JUMP JUMPDEST DUP1 SLOAD DUP4 DUP10 ADD DUP6 ADD MSTORE DUP8 SWAP5 POP DUP7 SWAP4 SWAP1 SWAP3 ADD SWAP2 DUP2 ADD PUSH2 0x53C JUMP JUMPDEST PUSH1 0xFF NOT AND DUP6 DUP3 ADD MSTORE PUSH2 0x508 SWAP6 ISZERO ISZERO PUSH1 0x5 SHL DUP6 ADD ADD SWAP3 POP DUP8 SWAP2 POP PUSH2 0x4FB SWAP1 POP JUMP JUMPDEST POP CALLVALUE PUSH2 0x1DB JUMPI DUP1 PUSH1 0x3 NOT CALLDATASIZE ADD SLT PUSH2 0x1DB JUMPI PUSH1 0x40 MLOAD PUSH1 0x4 SLOAD PUSH1 0x0 DUP3 PUSH2 0x5AE DUP4 PUSH2 0x1C9B JUMP JUMPDEST SWAP2 DUP3 DUP3 MSTORE PUSH1 0x20 SWAP4 PUSH1 0x1 SWAP1 DUP6 PUSH1 0x1 DUP3 AND SWAP2 DUP3 PUSH1 0x0 EQ PUSH2 0x56B JUMPI POP POP PUSH1 0x1 EQ PUSH2 0x5DC JUMPI POP PUSH2 0x508 SWAP3 POP SUB DUP4 PUSH2 0x1CFF JUMP JUMPDEST DUP5 SWAP2 POP PUSH1 0x4 PUSH1 0x0 MSTORE PUSH32 0x8A35ACFBC15FF81A39AE7D344FD709F28E8600B4AA8C65C6B64BFE7FE36BD19B SWAP1 PUSH1 0x0 SWAP2 JUMPDEST DUP6 DUP4 LT PUSH2 0x621 JUMPI POP POP PUSH2 0x508 SWAP4 POP DUP3 ADD ADD DUP6 PUSH2 0x4FB JUMP JUMPDEST DUP1 SLOAD DUP4 DUP10 ADD DUP6 ADD MSTORE DUP8 SWAP5 POP DUP7 SWAP4 SWAP1 SWAP3 ADD SWAP2 DUP2 ADD PUSH2 0x60A JUMP JUMPDEST POP CALLVALUE PUSH2 0x1DB JUMPI DUP1 PUSH1 0x3 NOT CALLDATASIZE ADD SLT PUSH2 0x1DB JUMPI PUSH1 0x20 PUSH1 0x9 SLOAD PUSH1 0x40 MLOAD SWAP1 DUP2 MSTORE RETURN JUMPDEST POP CALLVALUE PUSH2 0x1DB JUMPI DUP1 PUSH1 0x3 NOT CALLDATASIZE ADD SLT PUSH2 0x1DB JUMPI PUSH1 0x40 MLOAD PUSH1 0x3 SLOAD PUSH1 0x0 DUP3 PUSH2 0x67A DUP4 PUSH2 0x1C9B JUMP JUMPDEST SWAP2 DUP3 DUP3 MSTORE PUSH1 0x20 SWAP4 PUSH1 0x1 SWAP1 DUP6 PUSH1 0x1 DUP3 AND SWAP2 DUP3 PUSH1 0x0 EQ PUSH2 0x56B JUMPI POP POP PUSH1 0x1 EQ PUSH2 0x6A8 JUMPI POP PUSH2 0x508 SWAP3 POP SUB DUP4 PUSH2 0x1CFF JUMP JUMPDEST DUP5 SWAP2 POP PUSH1 0x3 PUSH1 0x0 MSTORE PUSH32 0xC2575A0E9E593C00F959F8C92F12DB2869C3395A3B0502D05E2516446F71F85B SWAP1 PUSH1 0x0 SWAP2 JUMPDEST DUP6 DUP4 LT PUSH2 0x6ED JUMPI POP POP PUSH2 0x508 SWAP4 POP DUP3 ADD ADD DUP6 PUSH2 0x4FB JUMP JUMPDEST DUP1 SLOAD DUP4 DUP10 ADD DUP6 ADD MSTORE DUP8 SWAP5 POP DUP7 SWAP4 SWAP1 SWAP3 ADD SWAP2 DUP2 ADD PUSH2 0x6D6 JUMP JUMPDEST POP CALLVALUE PUSH2 0x1DB JUMPI DUP1 PUSH1 0x3 NOT CALLDATASIZE ADD SLT PUSH2 0x1DB JUMPI SLOAD PUSH1 0x40 MLOAD PUSH1 0x1 PUSH1 0x1 PUSH1 0xA0 SHL SUB SWAP1 SWAP2 AND DUP2 MSTORE PUSH1 0x20 SWAP1 RETURN JUMPDEST POP CALLVALUE PUSH2 0x1DB JUMPI PUSH1 0x20 CALLDATASIZE PUSH1 0x3 NOT ADD SLT PUSH2 0x1DB JUMPI PUSH1 0x20 SWAP1 PUSH1 0x40 SWAP1 PUSH1 0x1 PUSH1 0x1 PUSH1 0xA0 SHL SUB PUSH2 0x754 PUSH2 0x1C80 JUMP JUMPDEST AND DUP2 MSTORE PUSH1 0xB DUP4 MSTORE KECCAK256 SLOAD PUSH1 0x40 MLOAD SWAP1 DUP2 MSTORE RETURN JUMPDEST POP CALLVALUE PUSH2 0x1DB JUMPI DUP1 PUSH1 0x3 NOT CALLDATASIZE ADD SLT PUSH2 0x1DB JUMPI PUSH1 0x20 PUSH1 0xFF PUSH1 0x6 SLOAD PUSH1 0x8 SHR AND PUSH1 0x40 MLOAD SWAP1 ISZERO ISZERO DUP2 MSTORE RETURN JUMPDEST POP CALLVALUE PUSH2 0x1DB JUMPI PUSH1 0x40 CALLDATASIZE PUSH1 0x3 NOT ADD SLT PUSH2 0x1DB JUMPI PUSH2 0x7A5 PUSH2 0x1C80 JUMP JUMPDEST PUSH1 0x24 CALLDATALOAD SWAP1 PUSH1 0x1 PUSH1 0x1 PUSH1 0xA0 SHL SUB SWAP1 PUSH2 0x7DF CALLER PUSH32 0x0 DUP5 AND EQ PUSH2 0x1FF1 JUMP JUMPDEST PUSH2 0x80A PUSH32 0x0 TIMESTAMP LT PUSH2 0x2035 JUMP JUMPDEST PUSH1 0xFF PUSH1 0x6 SLOAD PUSH1 0x10 SHR AND PUSH1 0x4 DUP2 LT ISZERO PUSH2 0x2DC JUMPI SWAP2 PUSH1 0x20 SWAP2 PUSH2 0x84B PUSH32 0x9BBB607F9FD45DBD95A8E54A66A3B0B2ED37477C49C5D10415DC5CFB84261ECD SWAP5 ISZERO PUSH2 0x1ED3 JUMP JUMPDEST PUSH2 0x856 DUP6 ISZERO ISZERO PUSH2 0x2075 JUMP JUMPDEST AND SWAP3 DUP4 DUP6 MSTORE PUSH1 0xA DUP3 MSTORE PUSH1 0x40 DUP6 KECCAK256 PUSH2 0x86E DUP3 DUP3 SLOAD PUSH2 0x1F59 JUMP JUMPDEST SWAP1 SSTORE PUSH2 0x87C DUP2 PUSH1 0x8 SLOAD PUSH2 0x1F59 JUMP JUMPDEST PUSH1 0x8 SSTORE PUSH1 0x40 MLOAD SWAP1 DUP2 MSTORE LOG2 DUP1 RETURN JUMPDEST POP CALLVALUE PUSH2 0x1DB JUMPI DUP1 PUSH1 0x3 NOT CALLDATASIZE ADD SLT PUSH2 0x1DB JUMPI PUSH1 0x20 PUSH1 0x7 SLOAD PUSH1 0x40 MLOAD SWAP1 DUP2 MSTORE RETURN JUMPDEST POP CALLVALUE PUSH2 0x1DB JUMPI DUP1 PUSH1 0x3 NOT CALLDATASIZE ADD SLT PUSH2 0x1DB JUMPI PUSH1 0x40 MLOAD SWAP1 DUP1 DUP3 PUSH1 0x5 SLOAD SWAP2 PUSH2 0x8CB DUP4 PUSH2 0x1C9B JUMP JUMPDEST SWAP3 DUP4 DUP4 MSTORE PUSH1 0x20 SWAP5 PUSH1 0x1 SWAP2 DUP7 PUSH1 0x1 DUP3 AND SWAP2 DUP3 PUSH1 0x0 EQ PUSH2 0x955 JUMPI POP POP PUSH1 0x1 EQ PUSH2 0x8FB JUMPI JUMPDEST POP POP PUSH2 0x508 SWAP3 POP SUB DUP4 PUSH2 0x1CFF JUMP JUMPDEST SWAP1 DUP6 SWAP3 POP PUSH1 0x5 DUP3 MSTORE PUSH32 0x36B6384B5ECA791C62761152D0C79BB0604C104A5FB6F4EB0703F3154BB3DB0 JUMPDEST DUP6 DUP4 LT PUSH2 0x93D JUMPI POP POP PUSH2 0x508 SWAP4 POP DUP3 ADD ADD CODESIZE DUP1 PUSH2 0x8ED JUMP JUMPDEST DUP1 SLOAD DUP4 DUP10 ADD DUP6 ADD MSTORE DUP8 SWAP5 POP DUP7 SWAP4 SWAP1 SWAP3 ADD SWAP2 DUP2 ADD PUSH2 0x925 JUMP JUMPDEST SWAP3 POP SWAP4 POP POP PUSH2 0x508 SWAP5 SWAP2 POP PUSH1 0xFF NOT AND DUP3 DUP5 ADD MSTORE ISZERO ISZERO PUSH1 0x5 SHL DUP3 ADD ADD CODESIZE DUP1 PUSH2 0x8ED JUMP JUMPDEST POP CALLVALUE PUSH2 0x1DB JUMPI DUP1 PUSH1 0x3 NOT CALLDATASIZE ADD SLT PUSH2 0x1DB JUMPI PUSH1 0x1 PUSH1 0x1 PUSH1 0xA0 SHL SUB SWAP1 PUSH32 0x0 DUP3 AND CALLER SUB PUSH2 0xB57 JUMPI PUSH1 0x6 SLOAD SWAP2 PUSH1 0xFF DUP4 PUSH1 0x10 SHR AND SWAP3 PUSH1 0x4 DUP5 LT ISZERO PUSH2 0x336 JUMPI PUSH1 0x1 DUP5 SUB PUSH2 0xB12 JUMPI PUSH1 0x7 SLOAD PUSH3 0x93A80 DUP2 ADD DUP1 SWAP2 GT PUSH2 0xAFE JUMPI TIMESTAMP LT PUSH2 0xAC3 JUMPI PUSH3 0x30001 PUSH1 0xFF SWAP2 PUSH3 0xFF00FF NOT AND OR SWAP2 DUP3 PUSH1 0x6 SSTORE PUSH32 0x0 AND SWAP2 PUSH1 0x10 SHR AND SWAP3 PUSH1 0x4 DUP5 LT ISZERO PUSH2 0x336 JUMPI DUP3 SWAP4 DUP3 EXTCODESIZE ISZERO PUSH2 0xABE JUMPI PUSH1 0x40 MLOAD PUSH4 0x1D8E2047 PUSH1 0xE0 SHL DUP2 MSTORE PUSH1 0xFF SWAP3 DUP4 AND PUSH1 0x4 DUP3 ADD MSTORE SWAP2 AND PUSH1 0x24 DUP3 ADD MSTORE SWAP1 DUP3 SWAP1 DUP3 SWAP1 PUSH1 0x44 SWAP1 DUP3 SWAP1 DUP5 SWAP1 GAS CALL DUP1 ISZERO PUSH2 0xAB3 JUMPI PUSH2 0xA9F JUMPI JUMPDEST POP PUSH32 0x110EEFE47FB2DF2A2F3149D618851E6AB16E70A4E6F3872B7C260BD48EEC14FE PUSH1 0x20 PUSH1 0x40 MLOAD TIMESTAMP DUP2 MSTORE LOG1 DUP1 RETURN JUMPDEST PUSH2 0xAA8 SWAP1 PUSH2 0x1CD5 JUMP JUMPDEST PUSH2 0x1DB JUMPI DUP1 CODESIZE PUSH2 0xA71 JUMP JUMPDEST PUSH1 0x40 MLOAD RETURNDATASIZE DUP5 DUP3 RETURNDATACOPY RETURNDATASIZE SWAP1 REVERT JUMPDEST POP POP POP REVERT JUMPDEST PUSH1 0x40 MLOAD PUSH3 0x461BCD PUSH1 0xE5 SHL DUP2 MSTORE PUSH1 0x20 PUSH1 0x4 DUP3 ADD MSTORE PUSH1 0x13 PUSH1 0x24 DUP3 ADD MSTORE PUSH19 0x151A5B595BDD5D081B9BDD081C995858DA1959 PUSH1 0x6A SHL PUSH1 0x44 DUP3 ADD MSTORE PUSH1 0x64 SWAP1 REVERT JUMPDEST PUSH4 0x4E487B71 PUSH1 0xE0 SHL DUP5 MSTORE PUSH1 0x11 PUSH1 0x4 MSTORE PUSH1 0x24 DUP5 REVERT JUMPDEST PUSH1 0x40 MLOAD PUSH3 0x461BCD PUSH1 0xE5 SHL DUP2 MSTORE PUSH1 0x20 PUSH1 0x4 DUP3 ADD MSTORE PUSH1 0x1F PUSH1 0x24 DUP3 ADD MSTORE PUSH32 0x43616E206F6E6C792063616E63656C207768696C65207265736F6C76696E6700 PUSH1 0x44 DUP3 ADD MSTORE PUSH1 0x64 SWAP1 REVERT JUMPDEST PUSH1 0x40 MLOAD PUSH3 0x461BCD PUSH1 0xE5 SHL DUP2 MSTORE PUSH1 0x20 PUSH1 0x4 DUP3 ADD MSTORE PUSH1 0x17 PUSH1 0x24 DUP3 ADD MSTORE PUSH32 0x4F6E6C792063726561746F722063616E2063616E63656C000000000000000000 PUSH1 0x44 DUP3 ADD MSTORE PUSH1 0x64 SWAP1 REVERT JUMPDEST POP CALLVALUE PUSH2 0x1DB JUMPI PUSH1 0x20 CALLDATASIZE PUSH1 0x3 NOT ADD SLT PUSH2 0x1DB JUMPI PUSH1 0x20 SWAP1 PUSH1 0xFF SWAP1 PUSH1 0x40 SWAP1 PUSH1 0x1 PUSH1 0x1 PUSH1 0xA0 SHL SUB PUSH2 0xBC7 PUSH2 0x1C80 JUMP JUMPDEST AND DUP2 MSTORE PUSH1 0xC DUP5 MSTORE KECCAK256 SLOAD AND PUSH1 0x40 MLOAD SWAP1 ISZERO ISZERO DUP2 MSTORE RETURN JUMPDEST POP CALLVALUE PUSH2 0x1DB JUMPI DUP1 PUSH1 0x3 NOT CALLDATASIZE ADD SLT PUSH2 0x1DB JUMPI PUSH1 0x20 PUSH1 0x8 SLOAD PUSH1 0x40 MLOAD SWAP1 DUP2 MSTORE RETURN JUMPDEST POP CALLVALUE PUSH2 0x1DB JUMPI DUP1 PUSH1 0x3 NOT CALLDATASIZE ADD SLT PUSH2 0x1DB JUMPI PUSH2 0xC12 PUSH2 0x20B8 JUMP JUMPDEST PUSH1 0x0 DUP1 SLOAD PUSH1 0x1 PUSH1 0x1 PUSH1 0xA0 SHL SUB NOT DUP2 AND DUP3 SSTORE PUSH1 0x1 PUSH1 0x1 PUSH1 0xA0 SHL SUB AND PUSH32 0x8BE0079C531659141344CD1FD0A4F28419497F9722A3DAAFE3B4186F6B6457E0 DUP3 DUP1 LOG3 DUP1 RETURN JUMPDEST POP CALLVALUE PUSH2 0x1DB JUMPI DUP1 PUSH1 0x3 NOT CALLDATASIZE ADD SLT PUSH2 0x1DB JUMPI PUSH1 0x6 SLOAD PUSH1 0x8 SLOAD PUSH1 0x9 SLOAD SWAP1 PUSH1 0xD SLOAD SWAP3 PUSH2 0xC7A PUSH2 0x1D21 JUMP JUMPDEST SWAP4 PUSH2 0xC83 PUSH2 0x1DE7 JUMP JUMPDEST SWAP4 PUSH1 0x40 MLOAD SWAP4 PUSH1 0x0 SWAP6 PUSH1 0x3 SLOAD SWAP6 PUSH2 0xC98 DUP8 PUSH2 0x1C9B JUMP JUMPDEST DUP1 DUP3 MSTORE DUP2 PUSH1 0x20 SWAP10 PUSH1 0x1 SWAP10 DUP12 DUP12 DUP3 AND SWAP2 DUP3 PUSH1 0x0 EQ PUSH2 0xF82 JUMPI POP POP PUSH1 0x1 EQ PUSH2 0xF24 JUMPI JUMPDEST PUSH2 0xCC5 SWAP3 POP SUB DUP3 PUSH2 0x1CFF JUMP JUMPDEST PUSH1 0x40 MLOAD SWAP2 PUSH1 0x0 DUP4 PUSH1 0x4 SLOAD SWAP2 PUSH2 0xCD9 DUP4 PUSH2 0x1C9B JUMP JUMPDEST SWAP3 DUP4 DUP4 MSTORE DUP13 DUP13 DUP3 AND SWAP2 DUP3 PUSH1 0x0 EQ PUSH2 0xF07 JUMPI POP POP PUSH1 0x1 EQ PUSH2 0xEA9 JUMPI JUMPDEST PUSH2 0xD00 SWAP3 POP SUB DUP5 PUSH2 0x1CFF JUMP JUMPDEST PUSH1 0x40 MLOAD DUP1 SWAP9 PUSH1 0x0 SWAP1 PUSH1 0xE SLOAD SWAP1 PUSH2 0xD15 DUP3 PUSH2 0x1C9B JUMP JUMPDEST SWAP2 DUP3 DUP6 MSTORE DUP14 DUP3 DUP3 AND SWAP2 DUP3 PUSH1 0x0 EQ PUSH2 0xE8D JUMPI POP POP PUSH1 0x1 EQ PUSH2 0xE42 JUMPI JUMPDEST POP POP SUB PUSH2 0xD3D SWAP1 DUP10 PUSH2 0x1CFF JUMP JUMPDEST PUSH1 0x40 MLOAD PUSH32 0x0 PUSH1 0x1 PUSH1 0x1 PUSH1 0xA0 SHL SUB AND DUP2 MSTORE PUSH2 0x1A0 SWAP10 DUP2 ADD DUP11 SWAP1 MSTORE SWAP10 DUP11 SWAP10 PUSH2 0xD85 SWAP2 SWAP1 DUP12 ADD SWAP1 PUSH2 0x1E86 JUMP JUMPDEST DUP10 DUP2 SUB PUSH1 0x40 DUP12 ADD MSTORE PUSH2 0xD96 SWAP2 PUSH2 0x1E86 JUMP JUMPDEST DUP9 DUP2 SUB PUSH1 0x60 DUP11 ADD MSTORE PUSH2 0xDA7 SWAP2 PUSH2 0x1E86 JUMP JUMPDEST DUP8 DUP2 SUB PUSH1 0x80 DUP10 ADD MSTORE PUSH2 0xDB8 SWAP2 PUSH2 0x1E86 JUMP JUMPDEST SWAP4 PUSH32 0x0 PUSH1 0xA0 DUP9 ADD MSTORE PUSH32 0x0 PUSH1 0xC0 DUP9 ADD MSTORE PUSH1 0xFF DUP2 AND ISZERO ISZERO PUSH1 0xE0 DUP9 ADD MSTORE PUSH1 0x8 SHR PUSH1 0xFF AND ISZERO ISZERO PUSH2 0x100 DUP8 ADD MSTORE PUSH2 0x120 DUP7 ADD MSTORE PUSH2 0x140 DUP6 ADD MSTORE PUSH2 0x160 DUP5 ADD MSTORE DUP3 DUP2 SUB PUSH2 0x180 DUP5 ADD MSTORE PUSH2 0x51C SWAP2 PUSH2 0x1E86 JUMP JUMPDEST SWAP1 DUP13 SWAP3 POP PUSH1 0xE PUSH1 0x0 MSTORE PUSH1 0x0 DUP1 MLOAD PUSH1 0x20 PUSH2 0x20E5 DUP4 CODECOPY DUP2 MLOAD SWAP2 MSTORE SWAP2 PUSH1 0x0 SWAP3 JUMPDEST DUP3 DUP5 LT PUSH2 0xE73 JUMPI POP POP POP DUP3 ADD ADD DUP13 DUP1 PUSH2 0xD30 JUMP JUMPDEST DUP5 SWAP3 SWAP6 DUP3 SWAP6 DUP6 DUP4 SLOAD SWAP3 ADD ADD MSTORE ADD SWAP2 ADD SWAP1 SWAP3 DUP13 SWAP3 DUP13 SWAP5 PUSH2 0xE5F JUMP JUMPDEST SWAP3 POP SWAP4 POP POP PUSH1 0xFF NOT AND DUP3 DUP5 ADD MSTORE ISZERO ISZERO PUSH1 0x5 SHL DUP3 ADD ADD DUP13 DUP1 PUSH2 0xD30 JUMP JUMPDEST POP POP PUSH1 0x4 PUSH1 0x0 MSTORE DUP4 DUP11 PUSH32 0x8A35ACFBC15FF81A39AE7D344FD709F28E8600B4AA8C65C6B64BFE7FE36BD19B DUP12 PUSH1 0x0 SWAP2 JUMPDEST DUP6 DUP4 LT PUSH2 0xEEE JUMPI POP POP PUSH2 0xD00 SWAP4 POP DUP3 ADD ADD PUSH2 0xCF4 JUMP JUMPDEST DUP1 SWAP2 SWAP3 SWAP5 POP SLOAD DUP4 DUP6 DUP11 ADD ADD MSTORE ADD SWAP2 ADD DUP12 SWAP1 DUP12 DUP8 SWAP4 PUSH2 0xED8 JUMP JUMPDEST PUSH1 0xFF NOT AND DUP5 DUP3 ADD MSTORE PUSH2 0xD00 SWAP5 ISZERO ISZERO PUSH1 0x5 SHL DUP5 ADD ADD SWAP2 POP PUSH2 0xCF4 SWAP1 POP JUMP JUMPDEST POP POP PUSH1 0x3 PUSH1 0x0 MSTORE DUP2 DUP10 PUSH32 0xC2575A0E9E593C00F959F8C92F12DB2869C3395A3B0502D05E2516446F71F85B DUP11 PUSH1 0x0 SWAP2 JUMPDEST DUP6 DUP4 LT PUSH2 0xF69 JUMPI POP POP PUSH2 0xCC5 SWAP4 POP DUP3 ADD ADD PUSH2 0xCB9 JUMP JUMPDEST DUP1 SWAP2 SWAP3 SWAP5 POP SLOAD DUP4 DUP6 DUP9 ADD ADD MSTORE ADD SWAP2 ADD DUP11 SWAP1 DUP11 DUP6 SWAP4 PUSH2 0xF53 JUMP JUMPDEST PUSH1 0xFF NOT AND DUP5 DUP3 ADD MSTORE PUSH2 0xCC5 SWAP5 ISZERO ISZERO PUSH1 0x5 SHL DUP5 ADD ADD SWAP2 POP PUSH2 0xCB9 SWAP1 POP JUMP JUMPDEST POP CALLVALUE PUSH2 0x1DB JUMPI DUP1 PUSH1 0x3 NOT CALLDATASIZE ADD SLT PUSH2 0x1DB JUMPI PUSH2 0x51C PUSH2 0xFBB PUSH2 0x1DE7 JUMP JUMPDEST PUSH1 0x40 MLOAD SWAP2 DUP3 SWAP2 PUSH1 0x20 DUP4 MSTORE PUSH1 0x20 DUP4 ADD SWAP1 PUSH2 0x1E86 JUMP JUMPDEST POP CALLVALUE PUSH2 0x1DB JUMPI DUP1 PUSH1 0x3 NOT CALLDATASIZE ADD SLT PUSH2 0x1DB JUMPI PUSH32 0x9B779B17422D0DF92223018B32B4D1FA46E071723D6817E2486D003BECC55F00 SWAP1 PUSH1 0x2 DUP3 SLOAD EQ PUSH2 0x12D1 JUMPI PUSH1 0x2 DUP3 SSTORE PUSH1 0x6 SLOAD SWAP2 PUSH1 0xFF DUP4 AND ISZERO PUSH2 0x1295 JUMPI CALLER DUP3 MSTORE PUSH1 0x20 SWAP3 PUSH1 0xC DUP5 MSTORE PUSH1 0xFF PUSH1 0x40 DUP5 KECCAK256 SLOAD AND PUSH2 0x125E JUMPI PUSH1 0xFF DUP2 PUSH1 0x10 SHR AND PUSH1 0x4 DUP2 LT ISZERO PUSH2 0x124A JUMPI PUSH1 0x3 SUB PUSH2 0x1199 JUMPI POP CALLER DUP3 MSTORE PUSH1 0xA DUP4 MSTORE PUSH2 0x1068 PUSH1 0x40 DUP4 KECCAK256 SLOAD PUSH1 0xB DUP6 MSTORE PUSH1 0x40 DUP5 KECCAK256 SLOAD SWAP1 PUSH2 0x1F59 JUMP JUMPDEST PUSH2 0x1073 DUP2 ISZERO ISZERO PUSH2 0x1FB2 JUMP JUMPDEST CALLER DUP1 DUP5 MSTORE PUSH1 0xC DUP6 MSTORE PUSH1 0x40 DUP1 DUP6 KECCAK256 DUP1 SLOAD PUSH1 0xFF NOT AND PUSH1 0x1 OR SWAP1 SSTORE MLOAD PUSH4 0xA9059CBB PUSH1 0xE0 SHL DUP2 MSTORE PUSH1 0x4 DUP2 ADD SWAP2 SWAP1 SWAP2 MSTORE PUSH1 0x24 DUP2 ADD DUP3 SWAP1 MSTORE DUP5 DUP2 PUSH1 0x44 DUP2 DUP8 PUSH32 0x0 PUSH1 0x1 PUSH1 0x1 PUSH1 0xA0 SHL SUB AND GAS CALL SWAP1 DUP2 ISZERO PUSH2 0x118E JUMPI DUP5 SWAP2 PUSH2 0x1154 JUMPI JUMPDEST POP ISZERO PUSH2 0x111D JUMPI PUSH32 0x1A31E733A172AFCF46074B3106C17F0C298E226442682A03C1E99CE256139EC2 PUSH1 0x1 SWAP4 SWAP5 PUSH1 0x40 MLOAD SWAP3 DUP4 MSTORE CALLER SWAP3 LOG2 SSTORE DUP1 RETURN JUMPDEST PUSH1 0x40 MLOAD PUSH3 0x461BCD PUSH1 0xE5 SHL DUP2 MSTORE PUSH1 0x4 DUP2 ADD DUP6 SWAP1 MSTORE PUSH1 0xF PUSH1 0x24 DUP3 ADD MSTORE PUSH15 0x151C985B9CD9995C8819985A5B1959 PUSH1 0x8A SHL PUSH1 0x44 DUP3 ADD MSTORE PUSH1 0x64 SWAP1 REVERT JUMPDEST SWAP1 POP DUP5 DUP2 DUP2 RETURNDATASIZE DUP4 GT PUSH2 0x1187 JUMPI JUMPDEST PUSH2 0x116B DUP2 DUP4 PUSH2 0x1CFF JUMP JUMPDEST DUP2 ADD SUB SLT PUSH2 0x1183 JUMPI MLOAD DUP1 ISZERO ISZERO DUP2 SUB PUSH2 0x1183 JUMPI CODESIZE PUSH2 0x10E5 JUMP JUMPDEST DUP4 DUP1 REVERT JUMPDEST POP RETURNDATASIZE PUSH2 0x1161 JUMP JUMPDEST PUSH1 0x40 MLOAD RETURNDATASIZE DUP7 DUP3 RETURNDATACOPY RETURNDATASIZE SWAP1 REVERT JUMPDEST PUSH1 0x8 SHR PUSH1 0xFF AND ISZERO PUSH2 0x11FF JUMPI PUSH1 0x8 SLOAD DUP1 PUSH2 0x11C9 JUMPI POP CALLER DUP3 MSTORE PUSH1 0xB DUP4 MSTORE PUSH1 0x40 DUP3 KECCAK256 SLOAD PUSH2 0x11C4 DUP2 ISZERO ISZERO PUSH2 0x1FB2 JUMP JUMPDEST PUSH2 0x1073 JUMP JUMPDEST PUSH2 0x11C4 SWAP1 CALLER DUP5 MSTORE PUSH1 0xA DUP6 MSTORE PUSH2 0x11F9 PUSH1 0x40 DUP6 KECCAK256 SLOAD SWAP2 PUSH2 0x11E8 DUP4 ISZERO ISZERO PUSH2 0x1F66 JUMP JUMPDEST PUSH2 0x11F4 PUSH1 0x9 SLOAD DUP5 PUSH2 0x1F10 JUMP JUMPDEST PUSH2 0x1F39 JUMP JUMPDEST SWAP1 PUSH2 0x1F59 JUMP JUMPDEST PUSH1 0x9 SLOAD DUP1 PUSH2 0x121F JUMPI POP CALLER DUP3 MSTORE PUSH1 0xA DUP4 MSTORE PUSH1 0x40 DUP3 KECCAK256 SLOAD PUSH2 0x11C4 DUP2 ISZERO ISZERO PUSH2 0x1FB2 JUMP JUMPDEST PUSH2 0x11C4 SWAP1 CALLER DUP5 MSTORE PUSH1 0xB DUP6 MSTORE PUSH2 0x11F9 PUSH1 0x40 DUP6 KECCAK256 SLOAD SWAP2 PUSH2 0x123E DUP4 ISZERO ISZERO PUSH2 0x1F66 JUMP JUMPDEST PUSH2 0x11F4 PUSH1 0x8 SLOAD DUP5 PUSH2 0x1F10 JUMP JUMPDEST PUSH4 0x4E487B71 PUSH1 0xE0 SHL DUP5 MSTORE PUSH1 0x21 PUSH1 0x4 MSTORE PUSH1 0x24 DUP5 REVERT JUMPDEST PUSH1 0x40 MLOAD PUSH3 0x461BCD PUSH1 0xE5 SHL DUP2 MSTORE PUSH1 0x4 DUP2 ADD DUP6 SWAP1 MSTORE PUSH1 0xF PUSH1 0x24 DUP3 ADD MSTORE PUSH15 0x105B1C9958591E4818DB185A5B5959 PUSH1 0x8A SHL PUSH1 0x44 DUP3 ADD MSTORE PUSH1 0x64 SWAP1 REVERT JUMPDEST PUSH1 0x40 MLOAD PUSH3 0x461BCD PUSH1 0xE5 SHL DUP2 MSTORE PUSH1 0x20 PUSH1 0x4 DUP3 ADD MSTORE PUSH1 0x14 PUSH1 0x24 DUP3 ADD MSTORE PUSH20 0x10995D081B9BDD081C995CDBDB1D9959081E595D PUSH1 0x62 SHL PUSH1 0x44 DUP3 ADD MSTORE PUSH1 0x64 SWAP1 REVERT JUMPDEST PUSH1 0x40 MLOAD PUSH4 0x3EE5AEB5 PUSH1 0xE0 SHL DUP2 MSTORE PUSH1 0x4 SWAP1 REVERT JUMPDEST POP CALLVALUE PUSH2 0x1DB JUMPI DUP1 PUSH1 0x3 NOT CALLDATASIZE ADD SLT PUSH2 0x1DB JUMPI PUSH2 0x51C PUSH2 0xFBB PUSH2 0x1D21 JUMP JUMPDEST POP CALLVALUE PUSH2 0x1DB JUMPI DUP1 PUSH1 0x3 NOT CALLDATASIZE ADD SLT PUSH2 0x1DB JUMPI PUSH1 0x20 PUSH1 0xD SLOAD PUSH1 0x40 MLOAD SWAP1 DUP2 MSTORE RETURN JUMPDEST POP CALLVALUE PUSH2 0x1DB JUMPI PUSH1 0x20 CALLDATASIZE PUSH1 0x3 NOT ADD SLT PUSH2 0x1DB JUMPI PUSH1 0x40 SWAP1 PUSH2 0x133A PUSH2 0x1C80 JUMP JUMPDEST PUSH1 0x1 PUSH1 0x1 PUSH1 0xA0 SHL SUB AND DUP2 MSTORE PUSH1 0xA PUSH1 0x20 SWAP1 DUP2 MSTORE DUP3 DUP3 KECCAK256 SLOAD PUSH1 0xB SWAP1 SWAP2 MSTORE DUP3 DUP3 KECCAK256 SLOAD DUP3 SWAP2 DUP3 SWAP1 DUP1 ISZERO ISZERO DUP1 PUSH2 0x13FD JUMPI JUMPDEST PUSH2 0x13C8 JUMPI JUMPDEST POP DUP2 ISZERO ISZERO DUP1 PUSH2 0x13BD JUMPI JUMPDEST PUSH2 0x1388 JUMPI JUMPDEST POP POP DUP3 MLOAD SWAP2 DUP3 MSTORE PUSH1 0x20 DUP3 ADD MSTORE RETURN JUMPDEST PUSH1 0x8 SLOAD PUSH2 0x13AE SWAP4 POP SWAP1 DUP2 ISZERO PUSH2 0x13B5 JUMPI POP PUSH2 0x13A5 PUSH2 0x11F9 SWAP2 DUP4 PUSH2 0x1F10 JUMP JUMPDEST PUSH1 0x9 SLOAD SWAP1 PUSH2 0x1F39 JUMP JUMPDEST CODESIZE DUP1 PUSH2 0x137A JUMP JUMPDEST SWAP1 POP SWAP1 PUSH2 0x1F59 JUMP JUMPDEST POP PUSH1 0x9 SLOAD ISZERO ISZERO PUSH2 0x1375 JUMP JUMPDEST PUSH1 0x9 SLOAD SWAP2 SWAP5 POP PUSH2 0x13EE SWAP2 DUP1 ISZERO PUSH2 0x13F5 JUMPI PUSH2 0x13E5 PUSH2 0x11F9 SWAP2 DUP4 PUSH2 0x1F10 JUMP JUMPDEST PUSH1 0x8 SLOAD SWAP1 PUSH2 0x1F39 JUMP JUMPDEST SWAP3 CODESIZE PUSH2 0x136B JUMP JUMPDEST POP DUP5 SWAP1 PUSH2 0x1F59 JUMP JUMPDEST POP PUSH1 0x8 SLOAD ISZERO ISZERO PUSH2 0x1366 JUMP JUMPDEST POP CALLVALUE PUSH2 0x1DB JUMPI PUSH1 0x20 CALLDATASIZE PUSH1 0x3 NOT ADD SLT PUSH2 0x1DB JUMPI PUSH1 0x40 SWAP1 PUSH1 0x1 PUSH1 0x1 PUSH1 0xA0 SHL SUB PUSH2 0x142D PUSH2 0x1C80 JUMP JUMPDEST AND DUP2 MSTORE PUSH1 0xA PUSH1 0x20 MSTORE DUP2 DUP1 DUP3 KECCAK256 SLOAD SWAP2 PUSH1 0xB PUSH1 0x20 MSTORE KECCAK256 SLOAD DUP3 MLOAD SWAP2 DUP3 MSTORE PUSH1 0x20 DUP3 ADD MSTORE RETURN JUMPDEST POP CALLVALUE PUSH2 0x1DB JUMPI DUP1 PUSH1 0x3 NOT CALLDATASIZE ADD SLT PUSH2 0x1DB JUMPI PUSH1 0x1 PUSH1 0x1 PUSH1 0xA0 SHL SUB SWAP1 PUSH32 0x0 DUP3 AND CALLER SUB PUSH2 0x1643 JUMPI PUSH32 0x0 TIMESTAMP LT PUSH2 0x15FE JUMPI PUSH1 0x6 SLOAD PUSH1 0xFF DUP2 PUSH1 0x10 SHR AND SWAP1 PUSH1 0x4 DUP3 LT ISZERO PUSH2 0x336 JUMPI PUSH3 0x10000 PUSH1 0xFF SWAP2 PUSH2 0x14DD DUP5 ISZERO PUSH2 0x1ED3 JUMP JUMPDEST PUSH3 0xFF0000 NOT AND OR SWAP4 DUP5 PUSH1 0x6 SSTORE TIMESTAMP PUSH1 0x7 SSTORE PUSH32 0x0 AND SWAP4 PUSH1 0x10 SHR AND SWAP1 PUSH1 0x4 DUP3 LT ISZERO PUSH2 0x336 JUMPI DUP4 EXTCODESIZE ISZERO PUSH2 0x15FA JUMPI PUSH1 0x40 MLOAD PUSH4 0x1D8E2047 PUSH1 0xE0 SHL DUP2 MSTORE PUSH1 0xFF SWAP2 DUP3 AND PUSH1 0x4 DUP3 ADD MSTORE SWAP2 AND PUSH1 0x24 DUP3 ADD MSTORE DUP2 DUP2 PUSH1 0x44 DUP2 DUP4 DUP8 GAS CALL DUP1 ISZERO PUSH2 0xAB3 JUMPI SWAP1 DUP3 SWAP2 PUSH2 0x15E6 JUMPI JUMPDEST POP POP PUSH32 0x0 SWAP2 PUSH1 0x3 DUP4 LT ISZERO PUSH2 0x15D2 JUMPI DUP2 SWAP3 DUP2 EXTCODESIZE ISZERO PUSH2 0x15CE JUMPI PUSH1 0xFF PUSH1 0x24 DUP5 SWAP3 DUP4 PUSH1 0x40 MLOAD SWAP6 DUP7 SWAP5 DUP6 SWAP4 PUSH4 0x12ED5937 PUSH1 0xE3 SHL DUP6 MSTORE AND PUSH1 0x4 DUP5 ADD MSTORE GAS CALL DUP1 ISZERO PUSH2 0xAB3 JUMPI PUSH2 0x15BE JUMPI POP RETURN JUMPDEST PUSH2 0x15C7 SWAP1 PUSH2 0x1CD5 JUMP JUMPDEST PUSH2 0x1DB JUMPI DUP1 RETURN JUMPDEST POP POP REVERT JUMPDEST PUSH4 0x4E487B71 PUSH1 0xE0 SHL DUP3 MSTORE PUSH1 0x21 PUSH1 0x4 MSTORE PUSH1 0x24 DUP3 REVERT JUMPDEST PUSH2 0x15EF SWAP1 PUSH2 0x1CD5 JUMP JUMPDEST PUSH2 0x1DB JUMPI DUP1 CODESIZE PUSH2 0x155A JUMP JUMPDEST DUP3 DUP1 REVERT JUMPDEST PUSH1 0x40 MLOAD PUSH3 0x461BCD PUSH1 0xE5 SHL DUP2 MSTORE PUSH1 0x20 PUSH1 0x4 DUP3 ADD MSTORE PUSH1 0x1E PUSH1 0x24 DUP3 ADD MSTORE PUSH32 0x43616E6E6F74207265736F6C7665206265666F726520656E6420646174650000 PUSH1 0x44 DUP3 ADD MSTORE PUSH1 0x64 SWAP1 REVERT JUMPDEST PUSH1 0x40 MLOAD PUSH3 0x461BCD PUSH1 0xE5 SHL DUP2 MSTORE PUSH1 0x20 PUSH1 0x4 DUP3 ADD MSTORE PUSH1 0x18 PUSH1 0x24 DUP3 ADD MSTORE PUSH32 0x4F6E6C792063726561746F722063616E207265736F6C76650000000000000000 PUSH1 0x44 DUP3 ADD MSTORE PUSH1 0x64 SWAP1 REVERT JUMPDEST POP CALLVALUE PUSH2 0x1DB JUMPI PUSH1 0x20 CALLDATASIZE PUSH1 0x3 NOT ADD SLT PUSH2 0x1DB JUMPI PUSH1 0x4 CALLDATALOAD PUSH8 0xFFFFFFFFFFFFFFFF DUP1 DUP3 GT PUSH2 0x15FA JUMPI CALLDATASIZE PUSH1 0x23 DUP4 ADD SLT ISZERO PUSH2 0x15FA JUMPI DUP2 PUSH1 0x4 ADD CALLDATALOAD DUP2 DUP2 GT PUSH2 0x1183 JUMPI DUP3 ADD PUSH1 0x24 DUP2 ADD CALLDATASIZE DUP2 GT PUSH2 0x1B86 JUMPI PUSH1 0x1 PUSH1 0x1 PUSH1 0xA0 SHL SUB SWAP2 PUSH32 0x0 DUP4 AND CALLER SUB PUSH2 0x1B8A JUMPI DUP5 PUSH1 0xE0 SWAP2 SUB SLT PUSH2 0x1B86 JUMPI PUSH1 0x24 DUP5 ADD CALLDATALOAD SWAP4 DUP3 DUP6 AND DUP1 SWAP6 SUB PUSH2 0x1B82 JUMPI PUSH2 0x1729 PUSH1 0x44 DUP3 ADD PUSH2 0x1EC6 JUMP JUMPDEST SWAP5 PUSH2 0x1736 PUSH1 0x64 DUP4 ADD PUSH2 0x1EC6 JUMP JUMPDEST SWAP1 PUSH1 0xE4 DUP4 ADD CALLDATALOAD DUP7 DUP2 GT PUSH2 0x1B7E JUMPI DUP4 ADD DUP5 PUSH1 0x43 DUP3 ADD SLT ISZERO PUSH2 0x1B7E JUMPI PUSH1 0x24 DUP2 ADD CALLDATALOAD DUP8 DUP2 GT PUSH2 0x1B6A JUMPI SWAP1 DUP10 SWAP2 PUSH1 0x40 MLOAD SWAP7 PUSH2 0x1777 PUSH1 0x20 PUSH1 0x1F NOT PUSH1 0x1F DUP6 ADD AND ADD DUP10 PUSH2 0x1CFF JUMP JUMPDEST DUP2 DUP9 MSTORE PUSH1 0x44 DUP3 DUP5 ADD ADD GT PUSH2 0x15FA JUMPI DUP1 PUSH1 0x44 PUSH1 0x20 SWAP4 ADD DUP4 DUP10 ADD CALLDATACOPY DUP7 ADD ADD MSTORE ADDRESS SUB PUSH2 0x1B2C JUMPI PUSH1 0x6 SLOAD SWAP5 PUSH1 0x4 PUSH1 0xFF DUP8 PUSH1 0x10 SHR AND LT ISZERO PUSH2 0x1B18 JUMPI PUSH1 0x1 PUSH1 0xFF DUP8 PUSH1 0x10 SHR AND SUB PUSH2 0x1AD3 JUMPI PUSH1 0xFF NOT DUP7 AND PUSH1 0x1 OR PUSH1 0x6 SSTORE PUSH1 0xC4 DUP4 ADD CALLDATALOAD PUSH1 0xD SSTORE DUP4 MLOAD SWAP1 DUP2 GT PUSH2 0x1ABF JUMPI PUSH2 0x17E2 PUSH1 0xE SLOAD PUSH2 0x1C9B JUMP JUMPDEST PUSH1 0x1F DUP2 GT PUSH2 0x1A58 JUMPI JUMPDEST POP DUP1 PUSH1 0x20 PUSH1 0x1F DUP3 GT PUSH1 0x1 EQ PUSH2 0x19E7 JUMPI DUP10 SWAP2 PUSH2 0x19DC JUMPI JUMPDEST POP DUP2 PUSH1 0x1 SHL SWAP2 PUSH1 0x0 NOT SWAP1 PUSH1 0x3 SHL SHR NOT AND OR PUSH1 0xE SSTORE JUMPDEST ISZERO PUSH2 0x1968 JUMPI POP POP PUSH3 0x30000 PUSH3 0xFF0000 NOT PUSH1 0x6 SLOAD AND OR PUSH1 0x6 SSTORE PUSH32 0x110EEFE47FB2DF2A2F3149D618851E6AB16E70A4E6F3872B7C260BD48EEC14FE PUSH1 0x20 PUSH1 0x40 MLOAD TIMESTAMP DUP2 MSTORE LOG1 JUMPDEST PUSH1 0xFF PUSH1 0x6 SLOAD PUSH1 0x10 SHR AND SWAP1 PUSH1 0x4 DUP3 LT ISZERO PUSH2 0x2DC JUMPI SWAP1 DUP2 DUP6 SWAP3 PUSH32 0x0 AND EXTCODESIZE ISZERO PUSH2 0x15FA JUMPI PUSH1 0x40 MLOAD PUSH4 0x1D8E2047 PUSH1 0xE0 SHL DUP2 MSTORE PUSH1 0xFF PUSH1 0x10 SWAP6 SWAP1 SWAP6 SHR DUP6 AND PUSH1 0x4 DUP3 ADD MSTORE SWAP2 SWAP1 SWAP4 AND PUSH1 0x24 DUP3 ADD MSTORE SWAP2 DUP3 SWAP1 PUSH1 0x44 SWAP1 DUP3 SWAP1 DUP5 SWAP1 PUSH32 0x0 AND GAS CALL DUP1 ISZERO PUSH2 0x195D JUMPI PUSH2 0x1927 JUMPI JUMPDEST POP PUSH1 0x20 PUSH32 0xAD24B3D82D5622FB9874775664B448323C0CD92415340FD16BB0DCDD9223D919 SWAP2 PUSH1 0x40 MLOAD SWAP1 ISZERO ISZERO DUP2 MSTORE LOG1 DUP1 RETURN JUMPDEST PUSH32 0xAD24B3D82D5622FB9874775664B448323C0CD92415340FD16BB0DCDD9223D919 SWAP2 SWAP3 PUSH2 0x1955 PUSH1 0x20 SWAP3 PUSH2 0x1CD5 JUMP JUMPDEST SWAP3 SWAP2 POP PUSH2 0x18F6 JUMP JUMPDEST PUSH1 0x40 MLOAD RETURNDATASIZE DUP6 DUP3 RETURNDATACOPY RETURNDATASIZE SWAP1 REVERT JUMPDEST PUSH32 0x901EF2B1D58E0424D4371C33A6D269CADF61C7F9C58F6F5347A6A157476BA581 SWAP2 PUSH2 0x19D4 DUP7 ISZERO ISZERO SWAP2 PUSH3 0x20000 PUSH1 0x6 SLOAD PUSH2 0xFF00 DUP6 PUSH1 0x8 SHL AND SWAP1 PUSH3 0xFFFF00 NOT AND OR OR PUSH1 0x6 SSTORE PUSH1 0xC4 PUSH1 0x40 MLOAD SWAP5 DUP6 SWAP5 DUP6 MSTORE TIMESTAMP PUSH1 0x20 DUP7 ADD MSTORE ADD CALLDATALOAD PUSH1 0x40 DUP5 ADD MSTORE PUSH1 0x80 PUSH1 0x60 DUP5 ADD MSTORE PUSH1 0x80 DUP4 ADD SWAP1 PUSH2 0x1E86 JUMP JUMPDEST SUB SWAP1 LOG1 PUSH2 0x1859 JUMP JUMPDEST SWAP1 POP DUP5 ADD MLOAD CODESIZE PUSH2 0x1801 JUMP JUMPDEST SWAP2 POP PUSH1 0xE DUP10 MSTORE PUSH1 0x0 DUP1 MLOAD PUSH1 0x20 PUSH2 0x20E5 DUP4 CODECOPY DUP2 MLOAD SWAP2 MSTORE DUP10 SWAP3 JUMPDEST PUSH1 0x1F NOT DUP4 AND DUP5 LT PUSH2 0x1A40 JUMPI PUSH1 0x1 SWAP4 POP DUP3 PUSH1 0x1F NOT DUP2 AND LT PUSH2 0x1A27 JUMPI JUMPDEST POP POP DUP2 SHL ADD PUSH1 0xE SSTORE PUSH2 0x1816 JUMP JUMPDEST DUP7 ADD MLOAD PUSH1 0x0 NOT PUSH1 0xF8 DUP5 PUSH1 0x3 SHL AND SHR NOT AND SWAP1 SSTORE CODESIZE DUP1 PUSH2 0x1A1A JUMP JUMPDEST DUP7 DUP2 ADD MLOAD DUP3 SSTORE PUSH1 0x20 SWAP4 DUP5 ADD SWAP4 PUSH1 0x1 SWAP1 SWAP3 ADD SWAP2 ADD PUSH2 0x19FF JUMP JUMPDEST PUSH1 0xE DUP10 MSTORE PUSH1 0x1F DUP3 ADD PUSH1 0x5 SHR PUSH1 0x0 DUP1 MLOAD PUSH1 0x20 PUSH2 0x20E5 DUP4 CODECOPY DUP2 MLOAD SWAP2 MSTORE ADD PUSH1 0x20 DUP4 LT PUSH2 0x1AAA JUMPI JUMPDEST PUSH1 0x1F DUP3 ADD PUSH1 0x5 SHR PUSH1 0x0 DUP1 MLOAD PUSH1 0x20 PUSH2 0x20E5 DUP4 CODECOPY DUP2 MLOAD SWAP2 MSTORE ADD DUP2 LT PUSH2 0x1A9F JUMPI POP PUSH2 0x17EB JUMP JUMPDEST DUP10 DUP2 SSTORE PUSH1 0x1 ADD PUSH2 0x1A7C JUMP JUMPDEST POP PUSH1 0x0 DUP1 MLOAD PUSH1 0x20 PUSH2 0x20E5 DUP4 CODECOPY DUP2 MLOAD SWAP2 MSTORE PUSH2 0x1A7C JUMP JUMPDEST PUSH4 0x4E487B71 PUSH1 0xE0 SHL DUP9 MSTORE PUSH1 0x41 PUSH1 0x4 MSTORE PUSH1 0x24 DUP9 REVERT JUMPDEST PUSH1 0x40 MLOAD PUSH3 0x461BCD PUSH1 0xE5 SHL DUP2 MSTORE PUSH1 0x20 PUSH1 0x4 DUP3 ADD MSTORE PUSH1 0x17 PUSH1 0x24 DUP3 ADD MSTORE PUSH32 0x4E6F74206177616974696E67207265736F6C7574696F6E000000000000000000 PUSH1 0x44 DUP3 ADD MSTORE PUSH1 0x64 SWAP1 REVERT JUMPDEST PUSH4 0x4E487B71 PUSH1 0xE0 SHL DUP9 MSTORE PUSH1 0x21 PUSH1 0x4 MSTORE PUSH1 0x24 DUP9 REVERT JUMPDEST PUSH1 0x40 MLOAD PUSH3 0x461BCD PUSH1 0xE5 SHL DUP2 MSTORE PUSH1 0x20 PUSH1 0x4 DUP3 ADD MSTORE PUSH1 0x16 PUSH1 0x24 DUP3 ADD MSTORE PUSH22 0x14995CDC1BDB9CD948199BDC881DDC9BDB99C818995D PUSH1 0x52 SHL PUSH1 0x44 DUP3 ADD MSTORE PUSH1 0x64 SWAP1 REVERT JUMPDEST PUSH4 0x4E487B71 PUSH1 0xE0 SHL DUP11 MSTORE PUSH1 0x41 PUSH1 0x4 MSTORE PUSH1 0x24 DUP11 REVERT JUMPDEST DUP9 DUP1 REVERT JUMPDEST DUP6 DUP1 REVERT JUMPDEST DUP5 DUP1 REVERT JUMPDEST PUSH1 0x40 MLOAD PUSH3 0x461BCD PUSH1 0xE5 SHL DUP2 MSTORE PUSH1 0x20 PUSH1 0x4 DUP3 ADD MSTORE PUSH1 0x19 PUSH1 0x24 DUP3 ADD MSTORE PUSH32 0x4F6E6C7920666163746F72792063616E20646973706174636800000000000000 PUSH1 0x44 DUP3 ADD MSTORE PUSH1 0x64 SWAP1 REVERT JUMPDEST POP CALLVALUE PUSH2 0x1DB JUMPI DUP1 PUSH1 0x3 NOT CALLDATASIZE ADD SLT PUSH2 0x1DB JUMPI PUSH1 0xFF PUSH1 0x6 SLOAD PUSH1 0x10 SHR AND PUSH1 0x40 MLOAD SWAP1 PUSH1 0x4 DUP2 LT ISZERO PUSH2 0x336 JUMPI PUSH1 0x20 SWAP3 POP DUP2 MSTORE RETURN JUMPDEST POP CALLVALUE PUSH2 0x1DB JUMPI DUP1 PUSH1 0x3 NOT CALLDATASIZE ADD SLT PUSH2 0x1DB JUMPI PUSH1 0x20 PUSH1 0x40 MLOAD PUSH32 0x0 DUP2 MSTORE RETURN JUMPDEST SWAP1 POP CALLVALUE PUSH2 0x1C7C JUMPI DUP2 PUSH1 0x3 NOT CALLDATASIZE ADD SLT PUSH2 0x1C7C JUMPI PUSH32 0x0 PUSH1 0x1 PUSH1 0x1 PUSH1 0xA0 SHL SUB AND DUP2 MSTORE PUSH1 0x20 SWAP1 RETURN JUMPDEST POP DUP1 REVERT JUMPDEST PUSH1 0x4 CALLDATALOAD SWAP1 PUSH1 0x1 PUSH1 0x1 PUSH1 0xA0 SHL SUB DUP3 AND DUP3 SUB PUSH2 0x1C96 JUMPI JUMP JUMPDEST PUSH1 0x0 DUP1 REVERT JUMPDEST SWAP1 PUSH1 0x1 DUP3 DUP2 SHR SWAP3 AND DUP1 ISZERO PUSH2 0x1CCB JUMPI JUMPDEST PUSH1 0x20 DUP4 LT EQ PUSH2 0x1CB5 JUMPI JUMP JUMPDEST PUSH4 0x4E487B71 PUSH1 0xE0 SHL PUSH1 0x0 MSTORE PUSH1 0x22 PUSH1 0x4 MSTORE PUSH1 0x24 PUSH1 0x0 REVERT JUMPDEST SWAP2 PUSH1 0x7F AND SWAP2 PUSH2 0x1CAA JUMP JUMPDEST PUSH8 0xFFFFFFFFFFFFFFFF DUP2 GT PUSH2 0x1CE9 JUMPI PUSH1 0x40 MSTORE JUMP JUMPDEST PUSH4 0x4E487B71 PUSH1 0xE0 SHL PUSH1 0x0 MSTORE PUSH1 0x41 PUSH1 0x4 MSTORE PUSH1 0x24 PUSH1 0x0 REVERT JUMPDEST SWAP1 PUSH1 0x1F DUP1 NOT SWAP2 ADD AND DUP2 ADD SWAP1 DUP2 LT PUSH8 0xFFFFFFFFFFFFFFFF DUP3 GT OR PUSH2 0x1CE9 JUMPI PUSH1 0x40 MSTORE JUMP JUMPDEST PUSH1 0x40 MLOAD SWAP1 PUSH1 0x0 DUP3 PUSH1 0x1 SWAP2 PUSH1 0x1 SLOAD PUSH2 0x1D37 DUP2 PUSH2 0x1C9B JUMP JUMPDEST DUP1 DUP5 MSTORE SWAP4 PUSH1 0x20 SWAP2 PUSH1 0x1 DUP2 AND SWAP1 DUP2 ISZERO PUSH2 0x1DC3 JUMPI POP PUSH1 0x1 EQ PUSH2 0x1D62 JUMPI JUMPDEST POP POP PUSH2 0x1D60 SWAP3 POP SUB DUP4 PUSH2 0x1CFF JUMP JUMPDEST JUMP JUMPDEST SWAP2 POP SWAP3 PUSH1 0x1 PUSH1 0x0 MSTORE PUSH32 0xB10E2D527612073B26EECDFD717E6A320CF44B4AFAC2B0732D9FCBE2B7FA0CF6 SWAP4 PUSH1 0x0 SWAP3 JUMPDEST DUP3 DUP5 LT PUSH2 0x1DAB JUMPI POP PUSH2 0x1D60 SWAP5 POP POP POP DUP2 ADD PUSH1 0x20 ADD CODESIZE DUP1 PUSH2 0x1D52 JUMP JUMPDEST DUP6 SLOAD DUP9 DUP6 ADD DUP4 ADD MSTORE SWAP5 DUP6 ADD SWAP5 DUP8 SWAP5 POP SWAP3 DUP2 ADD SWAP3 PUSH2 0x1D90 JUMP JUMPDEST SWAP2 POP POP PUSH1 0x20 SWAP3 POP PUSH2 0x1D60 SWAP5 SWAP2 POP PUSH1 0xFF NOT AND DUP3 DUP5 ADD MSTORE ISZERO ISZERO PUSH1 0x5 SHL DUP3 ADD ADD CODESIZE DUP1 PUSH2 0x1D52 JUMP JUMPDEST PUSH1 0x40 MLOAD SWAP1 PUSH1 0x0 DUP3 PUSH1 0x2 SLOAD SWAP2 PUSH2 0x1DFB DUP4 PUSH2 0x1C9B JUMP JUMPDEST DUP1 DUP4 MSTORE SWAP3 PUSH1 0x20 SWAP1 PUSH1 0x1 SWAP1 DUP2 DUP2 AND SWAP1 DUP2 ISZERO PUSH2 0x1DC3 JUMPI POP PUSH1 0x1 EQ PUSH2 0x1E25 JUMPI POP POP PUSH2 0x1D60 SWAP3 POP SUB DUP4 PUSH2 0x1CFF JUMP JUMPDEST SWAP2 POP SWAP3 PUSH1 0x2 PUSH1 0x0 MSTORE PUSH32 0x405787FA12A823E0F2B7631CC41B3BA8828B3321CA811111FA75CD3AA3BB5ACE SWAP4 PUSH1 0x0 SWAP3 JUMPDEST DUP3 DUP5 LT PUSH2 0x1E6E JUMPI POP PUSH2 0x1D60 SWAP5 POP POP POP DUP2 ADD PUSH1 0x20 ADD CODESIZE DUP1 PUSH2 0x1D52 JUMP JUMPDEST DUP6 SLOAD DUP9 DUP6 ADD DUP4 ADD MSTORE SWAP5 DUP6 ADD SWAP5 DUP8 SWAP5 POP SWAP3 DUP2 ADD SWAP3 PUSH2 0x1E53 JUMP JUMPDEST SWAP2 SWAP1 DUP3 MLOAD SWAP3 DUP4 DUP3 MSTORE PUSH1 0x0 JUMPDEST DUP5 DUP2 LT PUSH2 0x1EB2 JUMPI POP POP DUP3 PUSH1 0x0 PUSH1 0x20 DUP1 SWAP5 SWAP6 DUP5 ADD ADD MSTORE PUSH1 0x1F DUP1 NOT SWAP2 ADD AND ADD ADD SWAP1 JUMP JUMPDEST PUSH1 0x20 DUP2 DUP4 ADD DUP2 ADD MLOAD DUP5 DUP4 ADD DUP3 ADD MSTORE ADD PUSH2 0x1E91 JUMP JUMPDEST CALLDATALOAD SWAP1 DUP2 ISZERO ISZERO DUP3 SUB PUSH2 0x1C96 JUMPI JUMP JUMPDEST ISZERO PUSH2 0x1EDA JUMPI JUMP JUMPDEST PUSH1 0x40 MLOAD PUSH3 0x461BCD PUSH1 0xE5 SHL DUP2 MSTORE PUSH1 0x20 PUSH1 0x4 DUP3 ADD MSTORE PUSH1 0xE PUSH1 0x24 DUP3 ADD MSTORE PUSH14 0x426574206E6F7420616374697665 PUSH1 0x90 SHL PUSH1 0x44 DUP3 ADD MSTORE PUSH1 0x64 SWAP1 REVERT JUMPDEST DUP2 DUP2 MUL SWAP3 SWAP2 DUP2 ISZERO SWAP2 DUP5 DIV EQ OR ISZERO PUSH2 0x1F23 JUMPI JUMP JUMPDEST PUSH4 0x4E487B71 PUSH1 0xE0 SHL PUSH1 0x0 MSTORE PUSH1 0x11 PUSH1 0x4 MSTORE PUSH1 0x24 PUSH1 0x0 REVERT JUMPDEST DUP2 ISZERO PUSH2 0x1F43 JUMPI DIV SWAP1 JUMP JUMPDEST PUSH4 0x4E487B71 PUSH1 0xE0 SHL PUSH1 0x0 MSTORE PUSH1 0x12 PUSH1 0x4 MSTORE PUSH1 0x24 PUSH1 0x0 REVERT JUMPDEST SWAP2 SWAP1 DUP3 ADD DUP1 SWAP3 GT PUSH2 0x1F23 JUMPI JUMP JUMPDEST ISZERO PUSH2 0x1F6D JUMPI JUMP JUMPDEST PUSH1 0x40 MLOAD PUSH3 0x461BCD PUSH1 0xE5 SHL DUP2 MSTORE PUSH1 0x20 PUSH1 0x4 DUP3 ADD MSTORE PUSH1 0x17 PUSH1 0x24 DUP3 ADD MSTORE PUSH32 0x4E6F2077696E6E696E672062657420746F20636C61696D000000000000000000 PUSH1 0x44 DUP3 ADD MSTORE PUSH1 0x64 SWAP1 REVERT JUMPDEST ISZERO PUSH2 0x1FB9 JUMPI JUMP JUMPDEST PUSH1 0x40 MLOAD PUSH3 0x461BCD PUSH1 0xE5 SHL DUP2 MSTORE PUSH1 0x20 PUSH1 0x4 DUP3 ADD MSTORE PUSH1 0x10 PUSH1 0x24 DUP3 ADD MSTORE PUSH16 0x139BC818995D081D1BC81C99599D5B99 PUSH1 0x82 SHL PUSH1 0x44 DUP3 ADD MSTORE PUSH1 0x64 SWAP1 REVERT JUMPDEST ISZERO PUSH2 0x1FF8 JUMPI JUMP JUMPDEST PUSH1 0x40 MLOAD PUSH3 0x461BCD PUSH1 0xE5 SHL DUP2 MSTORE PUSH1 0x20 PUSH1 0x4 DUP3 ADD MSTORE PUSH1 0x15 PUSH1 0x24 DUP3 ADD MSTORE PUSH21 0x13DB9B1E48199858DD1BDC9E4818D85B8818D85B1B PUSH1 0x5A SHL PUSH1 0x44 DUP3 ADD MSTORE PUSH1 0x64 SWAP1 REVERT JUMPDEST ISZERO PUSH2 0x203C JUMPI JUMP JUMPDEST PUSH1 0x40 MLOAD PUSH3 0x461BCD PUSH1 0xE5 SHL DUP2 MSTORE PUSH1 0x20 PUSH1 0x4 DUP3 ADD MSTORE PUSH1 0x11 PUSH1 0x24 DUP3 ADD MSTORE PUSH17 0x10995D1D1A5B99C81A185CC8195B991959 PUSH1 0x7A SHL PUSH1 0x44 DUP3 ADD MSTORE PUSH1 0x64 SWAP1 REVERT JUMPDEST ISZERO PUSH2 0x207C JUMPI JUMP JUMPDEST PUSH1 0x40 MLOAD PUSH3 0x461BCD PUSH1 0xE5 SHL DUP2 MSTORE PUSH1 0x20 PUSH1 0x4 DUP3 ADD MSTORE PUSH1 0x14 PUSH1 0x24 DUP3 ADD MSTORE PUSH20 0x4D75737420626574206D6F7265207468616E203 PUSH1 0x64 SHL PUSH1 0x44 DUP3 ADD MSTORE PUSH1 0x64 SWAP1 REVERT JUMPDEST PUSH1 0x0 SLOAD PUSH1 0x1 PUSH1 0x1 PUSH1 0xA0 SHL SUB AND CALLER SUB PUSH2 0x20CC JUMPI JUMP JUMPDEST PUSH1 0x40 MLOAD PUSH4 0x118CDAA7 PUSH1 0xE0 SHL DUP2 MSTORE CALLER PUSH1 0x4 DUP3 ADD MSTORE PUSH1 0x24 SWAP1 REVERT INVALID 0xBB PUSH28 0x4A454DC3493923482F07822329ED19E8244EFF582CC204F8554C3620 0xC3 REVERT LOG2 PUSH5 0x6970667358 0x22 SLT KECCAK256 0xD4 CALLDATASIZE EXTCODECOPY BYTE 0xA7 0xC1 0xC3 MSIZE SWAP16 MUL 0x25 SWAP12 PUSH3 0x58B794 0x25 0xBC SLT 0xAE 0xD4 PUSH20 0x4B22C455D0B3DA905F2C64736F6C634300081600 CALLER BLOCKHASH JUMPI DUP8 STATICCALL SLT 0xA8 0x23 0xE0 CALLCODE 0xB7 PUSH4 0x1CC41B3B 0xA8 DUP3 DUP12 CALLER 0x21 0xCA DUP2 GT GT STATICCALL PUSH22 0xCD3AA3BB5ACEB10E2D527612073B26EECDFD717E6A32 0xC DELEGATECALL 0x4B 0x4A STATICCALL 0xC2 0xB0 PUSH20 0x2D9FCBE2B7FA0CF6000000000000000000000000 "},"methodIdentifiers":{"betOnSideAViaFactory(address,uint256)":"845e45f9","betOnSideBViaFactory(address,uint256)":"f7dda472","betsOnSideA(address)":"e2529773","betsOnSideB(address)":"881e4cca","calculatePotentialWinnings(address)":"3caef381","cancelBet()":"7b6d79f1","claim()":"4e71d92d","creationDate()":"05b34410","creator()":"02d05d3f","endDate()":"c24a0f8b","factory()":"c45a0155","getInfo()":"5a9b0b89","getUserBets(address)":"2d56657d","hasClaimed(address)":"73b2e80e","isResolved()":"dbb3f537","isSideAWinner()":"85a26fe6","owner()":"8da5cb5b","renounceOwnership()":"715018a6","resolutionCriteria()":"519a1d84","resolutionData()":"7ff41970","resolutionRequestedAt()":"831ad6db","resolutionType()":"f7ad7920","resolve()":"2810e1d6","resolvedPrice()":"3d5d526a","setResolution(bytes)":"21701a15","sideAName()":"8eb1a4ad","sideBName()":"a355f897","status()":"200d2ed2","title()":"4a79d50c","token()":"fc0c546a","totalSideA()":"72834e5b","totalSideB()":"958f03b7","transferOwnership(address)":"f2fde38b","winnerValue()":"bb978c5b"}}}}}