{
  "_format": "hh-sol-artifact-1",
  "contractName": "BetCOFI",
  "sourceName": "contracts/BetCOFI.sol",
  "abi": [
    {
      "inputs": [
        {
          "internalType": "address",
          "name": "_creator",
          "type": "address"
        },
        {
          "internalType": "string",
          "name": "_title",
          "type": "string"
        },
        {
          "internalType": "string",
          "name": "_resolutionCriteria",
          "type": "string"
        },
        {
          "internalType": "string",
          "name": "_sideAName",
          "type": "string"
        },
        {
          "internalType": "string",
          "name": "_sideBName",
          "type": "string"
        },
        {
          "internalType": "uint256",
          "name": "_endDate",
          "type": "uint256"
        },
        {
          "internalType": "address",
          "name": "_token",
          "type": "address"
        },
        {
          "internalType": "address",
          "name": "_factory",
          "type": "address"
        },
        {
          "internalType": "enum BetCOFI.ResolutionType",
          "name": "_resolutionType",
          "type": "uint8"
        },
        {
          "internalType": "bytes",
          "name": "_resolutionData",
          "type": "bytes"
        }
      ],
      "stateMutability": "nonpayable",
      "type": "constructor"
    },
    {
      "inputs": [
        {
          "internalType": "address",
          "name": "owner",
          "type": "address"
        }
      ],
      "name": "OwnableInvalidOwner",
      "type": "error"
    },
    {
      "inputs": [
        {
          "internalType": "address",
          "name": "account",
          "type": "address"
        }
      ],
      "name": "OwnableUnauthorizedAccount",
      "type": "error"
    },
    {
      "inputs": [],
      "name": "ReentrancyGuardReentrantCall",
      "type": "error"
    },
    {
      "anonymous": false,
      "inputs": [
        {
          "indexed": true,
          "internalType": "address",
          "name": "bettor",
          "type": "address"
        },
        {
          "indexed": false,
          "internalType": "uint256",
          "name": "amount",
          "type": "uint256"
        }
      ],
      "name": "BetPlacedOnA",
      "type": "event"
    },
    {
      "anonymous": false,
      "inputs": [
        {
          "indexed": true,
          "internalType": "address",
          "name": "bettor",
          "type": "address"
        },
        {
          "indexed": false,
          "internalType": "uint256",
          "name": "amount",
          "type": "uint256"
        }
      ],
      "name": "BetPlacedOnB",
      "type": "event"
    },
    {
      "anonymous": false,
      "inputs": [
        {
          "indexed": false,
          "internalType": "bool",
          "name": "sideAWins",
          "type": "bool"
        },
        {
          "indexed": false,
          "internalType": "uint256",
          "name": "timestamp",
          "type": "uint256"
        },
        {
          "indexed": false,
          "internalType": "uint256",
          "name": "priceValue",
          "type": "uint256"
        },
        {
          "indexed": false,
          "internalType": "string",
          "name": "winnerValue",
          "type": "string"
        }
      ],
      "name": "BetResolved",
      "type": "event"
    },
    {
      "anonymous": false,
      "inputs": [
        {
          "indexed": false,
          "internalType": "uint256",
          "name": "timestamp",
          "type": "uint256"
        }
      ],
      "name": "BetUndetermined",
      "type": "event"
    },
    {
      "anonymous": false,
      "inputs": [
        {
          "indexed": true,
          "internalType": "address",
          "name": "previousOwner",
          "type": "address"
        },
        {
          "indexed": true,
          "internalType": "address",
          "name": "newOwner",
          "type": "address"
        }
      ],
      "name": "OwnershipTransferred",
      "type": "event"
    },
    {
      "anonymous": false,
      "inputs": [
        {
          "indexed": false,
          "internalType": "bool",
          "name": "sideAWins",
          "type": "bool"
        }
      ],
      "name": "ResolutionReceived",
      "type": "event"
    },
    {
      "anonymous": false,
      "inputs": [
        {
          "indexed": true,
          "internalType": "address",
          "name": "winner",
          "type": "address"
        },
        {
          "indexed": false,
          "internalType": "uint256",
          "name": "amount",
          "type": "uint256"
        }
      ],
      "name": "WinningsClaimed",
      "type": "event"
    },
    {
      "inputs": [
        {
          "internalType": "address",
          "name": "bettor",
          "type": "address"
        },
        {
          "internalType": "uint256",
          "name": "amount",
          "type": "uint256"
        }
      ],
      "name": "betOnSideAViaFactory",
      "outputs": [],
      "stateMutability": "nonpayable",
      "type": "function"
    },
    {
      "inputs": [
        {
          "internalType": "address",
          "name": "bettor",
          "type": "address"
        },
        {
          "internalType": "uint256",
          "name": "amount",
          "type": "uint256"
        }
      ],
      "name": "betOnSideBViaFactory",
      "outputs": [],
      "stateMutability": "nonpayable",
      "type": "function"
    },
    {
      "inputs": [
        {
          "internalType": "address",
          "name": "",
          "type": "address"
        }
      ],
      "name": "betsOnSideA",
      "outputs": [
        {
          "internalType": "uint256",
          "name": "",
          "type": "uint256"
        }
      ],
      "stateMutability": "view",
      "type": "function"
    },
    {
      "inputs": [
        {
          "internalType": "address",
          "name": "",
          "type": "address"
        }
      ],
      "name": "betsOnSideB",
      "outputs": [
        {
          "internalType": "uint256",
          "name": "",
          "type": "uint256"
        }
      ],
      "stateMutability": "view",
      "type": "function"
    },
    {
      "inputs": [
        {
          "internalType": "address",
          "name": "user",
          "type": "address"
        }
      ],
      "name": "calculatePotentialWinnings",
      "outputs": [
        {
          "internalType": "uint256",
          "name": "ifSideAWins",
          "type": "uint256"
        },
        {
          "internalType": "uint256",
          "name": "ifSideBWins",
          "type": "uint256"
        }
      ],
      "stateMutability": "view",
      "type": "function"
    },
    {
      "inputs": [],
      "name": "cancelBet",
      "outputs": [],
      "stateMutability": "nonpayable",
      "type": "function"
    },
    {
      "inputs": [],
      "name": "claim",
      "outputs": [],
      "stateMutability": "nonpayable",
      "type": "function"
    },
    {
      "inputs": [],
      "name": "creationDate",
      "outputs": [
        {
          "internalType": "uint256",
          "name": "",
          "type": "uint256"
        }
      ],
      "stateMutability": "view",
      "type": "function"
    },
    {
      "inputs": [],
      "name": "creator",
      "outputs": [
        {
          "internalType": "address",
          "name": "",
          "type": "address"
        }
      ],
      "stateMutability": "view",
      "type": "function"
    },
    {
      "inputs": [],
      "name": "endDate",
      "outputs": [
        {
          "internalType": "uint256",
          "name": "",
          "type": "uint256"
        }
      ],
      "stateMutability": "view",
      "type": "function"
    },
    {
      "inputs": [],
      "name": "factory",
      "outputs": [
        {
          "internalType": "address",
          "name": "",
          "type": "address"
        }
      ],
      "stateMutability": "view",
      "type": "function"
    },
    {
      "inputs": [],
      "name": "getInfo",
      "outputs": [
        {
          "internalType": "address",
          "name": "_creator",
          "type": "address"
        },
        {
          "internalType": "string",
          "name": "_title",
          "type": "string"
        },
        {
          "internalType": "string",
          "name": "_resolutionCriteria",
          "type": "string"
        },
        {
          "internalType": "string",
          "name": "_sideAName",
          "type": "string"
        },
        {
          "internalType": "string",
          "name": "_sideBName",
          "type": "string"
        },
        {
          "internalType": "uint256",
          "name": "_creationDate",
          "type": "uint256"
        },
        {
          "internalType": "uint256",
          "name": "_endDate",
          "type": "uint256"
        },
        {
          "internalType": "bool",
          "name": "_isResolved",
          "type": "bool"
        },
        {
          "internalType": "bool",
          "name": "_isSideAWinner",
          "type": "bool"
        },
        {
          "internalType": "uint256",
          "name": "_totalSideA",
          "type": "uint256"
        },
        {
          "internalType": "uint256",
          "name": "_totalSideB",
          "type": "uint256"
        },
        {
          "internalType": "uint256",
          "name": "_resolvedPrice",
          "type": "uint256"
        },
        {
          "internalType": "string",
          "name": "_winnerValue",
          "type": "string"
        }
      ],
      "stateMutability": "view",
      "type": "function"
    },
    {
      "inputs": [
        {
          "internalType": "address",
          "name": "user",
          "type": "address"
        }
      ],
      "name": "getUserBets",
      "outputs": [
        {
          "internalType": "uint256",
          "name": "onSideA",
          "type": "uint256"
        },
        {
          "internalType": "uint256",
          "name": "onSideB",
          "type": "uint256"
        }
      ],
      "stateMutability": "view",
      "type": "function"
    },
    {
      "inputs": [
        {
          "internalType": "address",
          "name": "",
          "type": "address"
        }
      ],
      "name": "hasClaimed",
      "outputs": [
        {
          "internalType": "bool",
          "name": "",
          "type": "bool"
        }
      ],
      "stateMutability": "view",
      "type": "function"
    },
    {
      "inputs": [],
      "name": "isResolved",
      "outputs": [
        {
          "internalType": "bool",
          "name": "",
          "type": "bool"
        }
      ],
      "stateMutability": "view",
      "type": "function"
    },
    {
      "inputs": [],
      "name": "isSideAWinner",
      "outputs": [
        {
          "internalType": "bool",
          "name": "",
          "type": "bool"
        }
      ],
      "stateMutability": "view",
      "type": "function"
    },
    {
      "inputs": [],
      "name": "owner",
      "outputs": [
        {
          "internalType": "address",
          "name": "",
          "type": "address"
        }
      ],
      "stateMutability": "view",
      "type": "function"
    },
    {
      "inputs": [],
      "name": "renounceOwnership",
      "outputs": [],
      "stateMutability": "nonpayable",
      "type": "function"
    },
    {
      "inputs": [],
      "name": "resolutionCriteria",
      "outputs": [
        {
          "internalType": "string",
          "name": "",
          "type": "string"
        }
      ],
      "stateMutability": "view",
      "type": "function"
    },
    {
      "inputs": [],
      "name": "resolutionData",
      "outputs": [
        {
          "internalType": "bytes",
          "name": "",
          "type": "bytes"
        }
      ],
      "stateMutability": "view",
      "type": "function"
    },
    {
      "inputs": [],
      "name": "resolutionRequestedAt",
      "outputs": [
        {
          "internalType": "uint256",
          "name": "",
          "type": "uint256"
        }
      ],
      "stateMutability": "view",
      "type": "function"
    },
    {
      "inputs": [],
      "name": "resolutionType",
      "outputs": [
        {
          "internalType": "enum BetCOFI.ResolutionType",
          "name": "",
          "type": "uint8"
        }
      ],
      "stateMutability": "view",
      "type": "function"
    },
    {
      "inputs": [],
      "name": "resolve",
      "outputs": [],
      "stateMutability": "nonpayable",
      "type": "function"
    },
    {
      "inputs": [],
      "name": "resolvedPrice",
      "outputs": [
        {
          "internalType": "uint256",
          "name": "",
          "type": "uint256"
        }
      ],
      "stateMutability": "view",
      "type": "function"
    },
    {
      "inputs": [
        {
          "internalType": "bytes",
          "name": "_message",
          "type": "bytes"
        }
      ],
      "name": "setResolution",
      "outputs": [],
      "stateMutability": "nonpayable",
      "type": "function"
    },
    {
      "inputs": [],
      "name": "sideAName",
      "outputs": [
        {
          "internalType": "string",
          "name": "",
          "type": "string"
        }
      ],
      "stateMutability": "view",
      "type": "function"
    },
    {
      "inputs": [],
      "name": "sideBName",
      "outputs": [
        {
          "internalType": "string",
          "name": "",
          "type": "string"
        }
      ],
      "stateMutability": "view",
      "type": "function"
    },
    {
      "inputs": [],
      "name": "status",
      "outputs": [
        {
          "internalType": "enum BetCOFI.BetStatus",
          "name": "",
          "type": "uint8"
        }
      ],
      "stateMutability": "view",
      "type": "function"
    },
    {
      "inputs": [],
      "name": "title",
      "outputs": [
        {
          "internalType": "string",
          "name": "",
          "type": "string"
        }
      ],
      "stateMutability": "view",
      "type": "function"
    },
    {
      "inputs": [],
      "name": "token",
      "outputs": [
        {
          "internalType": "contract IERC20",
          "name": "",
          "type": "address"
        }
      ],
      "stateMutability": "view",
      "type": "function"
    },
    {
      "inputs": [],
      "name": "totalSideA",
      "outputs": [
        {
          "internalType": "uint256",
          "name": "",
          "type": "uint256"
        }
      ],
      "stateMutability": "view",
      "type": "function"
    },
    {
      "inputs": [],
      "name": "totalSideB",
      "outputs": [
        {
          "internalType": "uint256",
          "name": "",
          "type": "uint256"
        }
      ],
      "stateMutability": "view",
      "type": "function"
    },
    {
      "inputs": [
        {
          "internalType": "address",
          "name": "newOwner",
          "type": "address"
        }
      ],
      "name": "transferOwnership",
      "outputs": [],
      "stateMutability": "nonpayable",
      "type": "function"
    },
    {
      "inputs": [],
      "name": "winnerValue",
      "outputs": [
        {
          "internalType": "string",
          "name": "",
          "type": "string"
        }
      ],
      "stateMutability": "view",
      "type": "function"
    }
  ],
  "bytecode": "0x6101406040523462000a255762002cb7803803806200001e8162000a2a565b9283398101906101408183031262000a25576200003b8162000a50565b60208201519091906001600160401b03811162000a2557836200006091830162000ac6565b60408201519093906001600160401b03811162000a2557816200008591840162000ac6565b60608301519093906001600160401b03811162000a255782620000aa91850162000ac6565b60808401516001600160401b03811162000a255783620000cc91860162000ac6565b9060a0850151620000e060c0870162000a50565b92620000ef60e0880162000a50565b92610100988989015197600389101562000a25576101208a810151909a6001600160401b03821162000a2557019080601f8301121562000a25578151620001399260200162000a65565b60017f9b779b17422d0df92223018b32b4d1fa46e071723d6817e2486d003becc55f00559a6001600160a01b0397868916801562000a0c57600080546001600160a01b03198116831782556040519291908c16907f8be0079c531659141344cd1fd0a4f28419497f9722a3daafe3b4186f6b6457e09080a389821615620009ca57508888161562000985578151156200094057835115620008fb57845115620008b6576080528051906001600160401b0382116200055457620001fe60015462000ae6565b601f811162000874575b50602090601f8311600114620007f7576200023d9291600091836200049d575b50508160011b916000199060031b1c19161790565b6001555b8051906001600160401b03821162000554576200026060025462000ae6565b601f8111620007b5575b50602090601f831160011462000738576200029e9291600091836200049d5750508160011b916000199060031b1c19161790565b6002555b8051906001600160401b0382116200055457620002c160035462000ae6565b601f8111620006e5575b50602090601f83116001146200065757620002ff9291600091836200049d5750508160011b916000199060031b1c19161790565b6003555b8051906001600160401b03821162000554576200032260045462000ae6565b601f8111620005f8575b50602090601f83116001146200056a57620003609291600091836200049d5750508160011b916000199060031b1c19161790565b6004555b4260a05260c05260e052168352815282516001600160401b038111620005545760059062000393825462000ae6565b601f811162000514575b50602094601f8211600114620004a957620003d49293949582916000926200049d5750508160011b916000199060031b1c19161790565b90555b62ff000019600654166006556040519061213a928362000b3d843960805183818161099301528181610d420152818161146a0152611c4d015260a051838181610dbb0152611c16015260c05183818161023701528181610493015281816107e401528181610de10152611493015260e05183818161020b0152818161044c015281816107b801528181610a02015281816114ef015281816116dc0152818161187201526118c90152518281816101ac01526110ad015251818181610306015261155e0152f35b01519050388062000228565b601f198216958360005260206000209160005b888110620004fb57508360019596979810620004e1575b505050811b019055620003d7565b015160001960f88460031b161c19169055388080620004d3565b91926020600181928685015181550194019201620004bc565b6200054290836000526020600020601f8401851c8101916020851062000549575b601f01851c019062000b23565b386200039d565b909150819062000535565b634e487b7160e01b600052604160045260246000fd5b6004600090815292917f8a35acfbc15ff81a39ae7d344fd709f28e8600b4aa8c65c6b64bfe7fe36bd19b915b601f1984168510620005dc576001945083601f19811610620005c2575b505050811b0160045562000364565b015160001960f88460031b161c19169055388080620005b3565b8181015183556020948501946001909301929091019062000596565b600460005262000645907f8a35acfbc15ff81a39ae7d344fd709f28e8600b4aa8c65c6b64bfe7fe36bd19b601f850160051c810191602086106200064c575b601f0160051c019062000b23565b386200032c565b909150819062000637565b6003600090815292917fc2575a0e9e593c00f959f8c92f12db2869c3395a3b0502d05e2516446f71f85b915b601f1984168510620006c9576001945083601f19811610620006af575b505050811b0160035562000303565b015160001960f88460031b161c19169055388080620006a0565b8181015183556020948501946001909301929091019062000683565b600360005262000731907fc2575a0e9e593c00f959f8c92f12db2869c3395a3b0502d05e2516446f71f85b601f850160051c810191602086106200064c57601f0160051c019062000b23565b38620002cb565b60026000908152929160008051602062002c77833981519152915b601f198416851062000799576001945083601f198116106200077f575b505050811b01600255620002a2565b015160001960f88460031b161c1916905538808062000770565b8181015183556020948501946001909301929091019062000753565b6002600052620007f09060008051602062002c77833981519152601f850160051c810191602086106200064c57601f0160051c019062000b23565b386200026a565b60016000908152929160008051602062002c97833981519152915b601f198416851062000858576001945083601f198116106200083e575b505050811b0160015562000241565b015160001960f88460031b161c191690553880806200082f565b8181015183556020948501946001909301929091019062000812565b6001600052620008af9060008051602062002c97833981519152601f850160051c810191602086106200064c57601f0160051c019062000b23565b3862000208565b60405162461bcd60e51b815260206004820152601b60248201527f536964652042206e616d652063616e6e6f7420626520656d70747900000000006044820152606490fd5b60405162461bcd60e51b815260206004820152601b60248201527f536964652041206e616d652063616e6e6f7420626520656d70747900000000006044820152606490fd5b60405162461bcd60e51b815260206004820152601560248201527f5469746c652063616e6e6f7420626520656d70747900000000000000000000006044820152606490fd5b60405162461bcd60e51b815260206004820152601560248201527f496e76616c696420746f6b656e206164647265737300000000000000000000006044820152606490fd5b62461bcd60e51b815260206004820152601760248201527f496e76616c69642063726561746f7220616464726573730000000000000000006044820152606490fd5b604051631e4fbdf760e01b815260006004820152602490fd5b600080fd5b6040519190601f01601f191682016001600160401b038111838210176200055457604052565b51906001600160a01b038216820362000a2557565b9192916001600160401b038211620005545760209062000a8e601f8401601f1916830162000a2a565b948386528382011162000a255760005b83811062000ab457505050602060009184010152565b81810151868201840152820162000a9e565b9080601f8301121562000a2557815162000ae39260200162000a65565b90565b90600182811c9216801562000b18575b602083101462000b0257565b634e487b7160e01b600052602260045260246000fd5b91607f169162000af6565b81811062000b2f575050565b6000815560010162000b2356fe608080604052600436101561001357600080fd5b600090813560e01c90816302d05d3f14611c395750806305b3441014611bfe578063200d2ed214611bcf57806321701a15146116885780632810e1d61461144e5780632d56657d146114085780633caef3811461131d5780633d5d526a146112ff5780634a79d50c146112e35780634e71d92d14610fcf578063519a1d8414610f9f5780635a9b0b8914610c53578063715018a614610bf957806372834e5b14610bdb57806373b2e80e14610b9c5780637b6d79f1146109775780637ff41970146108a7578063831ad6db14610889578063845e45f91461078b57806385a26fe614610765578063881e4cca1461072c5780638da5cb5b146107055780638eb1a4ad14610657578063958f03b714610639578063a355f8971461058b578063bb978c5b146104b6578063c24a0f8b1461047b578063c45a015514610436578063dbb3f53714610413578063e2529773146103da578063f2fde38b1461034a578063f7ad7920146102f0578063f7dda472146101de5763fc0c546a1461019757600080fd5b346101db57806003193601126101db576040517f00000000000000000000000000000000000000000000000000000000000000006001600160a01b03168152602090f35b80fd5b50346101db5760403660031901126101db576101f8611c80565b602435906001600160a01b0390610232337f0000000000000000000000000000000000000000000000000000000000000000841614611ff1565b61025d7f00000000000000000000000000000000000000000000000000000000000000004210612035565b60ff60065460101c1660048110156102dc579160209161029e7f8b1b269ed471a640fd80b1f65b929a812a4c36183f7807568b77b08925bdee4d9415611ed3565b6102a9851515612075565b1692838552600b8252604085206102c1828254611f59565b90556102cf81600954611f59565b600955604051908152a280f35b634e487b7160e01b85526021600452602485fd5b50346101db57806003193601126101db576040517f0000000000000000000000000000000000000000000000000000000000000000600381101561033657602092508152f35b634e487b7160e01b83526021600452602483fd5b50346101db5760203660031901126101db57610364611c80565b61036c6120b8565b6001600160a01b039081169081156103c157600054826bffffffffffffffffffffffff60a01b821617600055167f8be0079c531659141344cd1fd0a4f28419497f9722a3daafe3b4186f6b6457e0600080a380f35b604051631e4fbdf760e01b815260048101849052602490fd5b50346101db5760203660031901126101db576020906040906001600160a01b03610402611c80565b168152600a83522054604051908152f35b50346101db57806003193601126101db57602060ff600654166040519015158152f35b50346101db57806003193601126101db576040517f00000000000000000000000000000000000000000000000000000000000000006001600160a01b03168152602090f35b50346101db57806003193601126101db5760206040517f00000000000000000000000000000000000000000000000000000000000000008152f35b50346101db57806003193601126101db57604051600e546000826104d983611c9b565b918282526020936001908560018216918260001461056b575050600114610520575b5061050892500383611cff565b61051c604051928284938452830190611e86565b0390f35b849150600e6000526000805160206120e5833981519152906000915b8583106105535750506105089350820101856104fb565b8054838901850152879450869390920191810161053c565b60ff19168582015261050895151560051b85010192508791506104fb9050565b50346101db57806003193601126101db576040516004546000826105ae83611c9b565b918282526020936001908560018216918260001461056b5750506001146105dc575061050892500383611cff565b84915060046000527f8a35acfbc15ff81a39ae7d344fd709f28e8600b4aa8c65c6b64bfe7fe36bd19b906000915b8583106106215750506105089350820101856104fb565b8054838901850152879450869390920191810161060a565b50346101db57806003193601126101db576020600954604051908152f35b50346101db57806003193601126101db5760405160035460008261067a83611c9b565b918282526020936001908560018216918260001461056b5750506001146106a8575061050892500383611cff565b84915060036000527fc2575a0e9e593c00f959f8c92f12db2869c3395a3b0502d05e2516446f71f85b906000915b8583106106ed5750506105089350820101856104fb565b805483890185015287945086939092019181016106d6565b50346101db57806003193601126101db57546040516001600160a01b039091168152602090f35b50346101db5760203660031901126101db576020906040906001600160a01b03610754611c80565b168152600b83522054604051908152f35b50346101db57806003193601126101db57602060ff60065460081c166040519015158152f35b50346101db5760403660031901126101db576107a5611c80565b602435906001600160a01b03906107df337f0000000000000000000000000000000000000000000000000000000000000000841614611ff1565b61080a7f00000000000000000000000000000000000000000000000000000000000000004210612035565b60ff60065460101c1660048110156102dc579160209161084b7f9bbb607f9fd45dbd95a8e54a66a3b0b2ed37477c49c5d10415dc5cfb84261ecd9415611ed3565b610856851515612075565b1692838552600a82526040852061086e828254611f59565b905561087c81600854611f59565b600855604051908152a280f35b50346101db57806003193601126101db576020600754604051908152f35b50346101db57806003193601126101db57604051908082600554916108cb83611c9b565b92838352602094600191866001821691826000146109555750506001146108fb575b505061050892500383611cff565b90859250600582527f036b6384b5eca791c62761152d0c79bb0604c104a5fb6f4eb0703f3154bb3db05b85831061093d575050610508935082010138806108ed565b80548389018501528794508693909201918101610925565b925093505061050894915060ff191682840152151560051b82010138806108ed565b50346101db57806003193601126101db576001600160a01b03907f000000000000000000000000000000000000000000000000000000000000000082163303610b57576006549160ff8360101c169260048410156103365760018403610b125760075462093a808101809111610afe574210610ac3576203000160ff9162ff00ff19161791826006557f0000000000000000000000000000000000000000000000000000000000000000169160101c16926004841015610336578293823b15610abe57604051631d8e204760e01b815260ff9283166004820152911660248201529082908290604490829084905af18015610ab357610a9f575b507f110eefe47fb2df2a2f3149d618851e6ab16e70a4e6f3872b7c260bd48eec14fe6020604051428152a180f35b610aa890611cd5565b6101db578038610a71565b6040513d84823e3d90fd5b505050fd5b60405162461bcd60e51b8152602060048201526013602482015272151a5b595bdd5d081b9bdd081c995858da1959606a1b6044820152606490fd5b634e487b7160e01b84526011600452602484fd5b60405162461bcd60e51b815260206004820152601f60248201527f43616e206f6e6c792063616e63656c207768696c65207265736f6c76696e67006044820152606490fd5b60405162461bcd60e51b815260206004820152601760248201527f4f6e6c792063726561746f722063616e2063616e63656c0000000000000000006044820152606490fd5b50346101db5760203660031901126101db5760209060ff906040906001600160a01b03610bc7611c80565b168152600c84522054166040519015158152f35b50346101db57806003193601126101db576020600854604051908152f35b50346101db57806003193601126101db57610c126120b8565b600080546001600160a01b0319811682556001600160a01b03167f8be0079c531659141344cd1fd0a4f28419497f9722a3daafe3b4186f6b6457e08280a380f35b50346101db57806003193601126101db5760065460085460095490600d5492610c7a611d21565b93610c83611de7565b936040519360009560035495610c9887611c9b565b808252816020996001998b8b82169182600014610f82575050600114610f24575b610cc592500382611cff565b6040519160008360045491610cd983611c9b565b928383528c8c82169182600014610f07575050600114610ea9575b610d0092500384611cff565b6040518098600090600e5490610d1582611c9b565b918285528d8282169182600014610e8d575050600114610e42575b505003610d3d9089611cff565b6040517f00000000000000000000000000000000000000000000000000000000000000006001600160a01b031681526101a09981018a9052998a99610d8591908b0190611e86565b89810360408b0152610d9691611e86565b88810360608a0152610da791611e86565b8781036080890152610db891611e86565b937f000000000000000000000000000000000000000000000000000000000000000060a08801527f000000000000000000000000000000000000000000000000000000000000000060c088015260ff8116151560e088015260081c60ff16151561010087015261012086015261014085015261016084015282810361018084015261051c91611e86565b908c9250600e6000526000805160206120e5833981519152916000925b828410610e73575050508201018c80610d30565b84929582958583549201015201910190928c928c94610e5f565b925093505060ff191682840152151560051b8201018c80610d30565b50506004600052838a7f8a35acfbc15ff81a39ae7d344fd709f28e8600b4aa8c65c6b64bfe7fe36bd19b8b6000915b858310610eee575050610d009350820101610cf4565b80919294505483858a0101520191018b908b8793610ed8565b60ff191684820152610d0094151560051b8401019150610cf49050565b5050600360005281897fc2575a0e9e593c00f959f8c92f12db2869c3395a3b0502d05e2516446f71f85b8a6000915b858310610f69575050610cc59350820101610cb9565b8091929450548385880101520191018a908a8593610f53565b60ff191684820152610cc594151560051b8401019150610cb99050565b50346101db57806003193601126101db5761051c610fbb611de7565b604051918291602083526020830190611e86565b50346101db57806003193601126101db577f9b779b17422d0df92223018b32b4d1fa46e071723d6817e2486d003becc55f009060028254146112d157600282556006549160ff83161561129557338252602092600c845260ff60408420541661125e5760ff8160101c16600481101561124a576003036111995750338252600a83526110686040832054600b8552604084205490611f59565b611073811515611fb2565b33808452600c85526040808520805460ff191660011790555163a9059cbb60e01b81526004810191909152602481018290528481604481877f00000000000000000000000000000000000000000000000000000000000000006001600160a01b03165af190811561118e578491611154575b501561111d577f1a31e733a172afcf46074b3106c17f0c298e226442682a03c1e99ce256139ec2600193946040519283523392a25580f35b60405162461bcd60e51b815260048101859052600f60248201526e151c985b9cd9995c8819985a5b1959608a1b6044820152606490fd5b90508481813d8311611187575b61116b8183611cff565b810103126111835751801515810361118357386110e5565b8380fd5b503d611161565b6040513d86823e3d90fd5b60081c60ff16156111ff57600854806111c95750338252600b835260408220546111c4811515611fb2565b611073565b6111c490338452600a85526111f96040852054916111e8831515611f66565b6111f460095484611f10565b611f39565b90611f59565b6009548061121f5750338252600a835260408220546111c4811515611fb2565b6111c490338452600b85526111f960408520549161123e831515611f66565b6111f460085484611f10565b634e487b7160e01b84526021600452602484fd5b60405162461bcd60e51b815260048101859052600f60248201526e105b1c9958591e4818db185a5b5959608a1b6044820152606490fd5b60405162461bcd60e51b815260206004820152601460248201527310995d081b9bdd081c995cdbdb1d9959081e595d60621b6044820152606490fd5b604051633ee5aeb560e01b8152600490fd5b50346101db57806003193601126101db5761051c610fbb611d21565b50346101db57806003193601126101db576020600d54604051908152f35b50346101db5760203660031901126101db5760409061133a611c80565b6001600160a01b03168152600a602090815282822054600b9091528282205482918290801515806113fd575b6113c8575b50811515806113bd575b611388575b505082519182526020820152f35b6008546113ae93509081156113b557506113a56111f99183611f10565b60095490611f39565b388061137a565b905090611f59565b506009541515611375565b6009549194506113ee9180156113f5576113e56111f99183611f10565b60085490611f39565b923861136b565b508490611f59565b506008541515611366565b50346101db5760203660031901126101db576040906001600160a01b0361142d611c80565b168152600a602052818082205491600b602052205482519182526020820152f35b50346101db57806003193601126101db576001600160a01b03907f000000000000000000000000000000000000000000000000000000000000000082163303611643577f000000000000000000000000000000000000000000000000000000000000000042106115fe5760065460ff8160101c16906004821015610336576201000060ff916114dd8415611ed3565b62ff00001916179384600655426007557f0000000000000000000000000000000000000000000000000000000000000000169360101c1690600482101561033657833b156115fa57604051631d8e204760e01b815260ff918216600482015291166024820152818160448183875af18015610ab3579082916115e6575b50507f00000000000000000000000000000000000000000000000000000000000000009160038310156115d2578192813b156115ce5760ff602484928360405195869485936312ed593760e31b85521660048401525af18015610ab3576115be5750f35b6115c790611cd5565b6101db5780f35b5050fd5b634e487b7160e01b82526021600452602482fd5b6115ef90611cd5565b6101db57803861155a565b8280fd5b60405162461bcd60e51b815260206004820152601e60248201527f43616e6e6f74207265736f6c7665206265666f726520656e64206461746500006044820152606490fd5b60405162461bcd60e51b815260206004820152601860248201527f4f6e6c792063726561746f722063616e207265736f6c766500000000000000006044820152606490fd5b50346101db5760203660031901126101db5760043567ffffffffffffffff8082116115fa57366023830112156115fa57816004013581811161118357820160248101368111611b86576001600160a01b03917f000000000000000000000000000000000000000000000000000000000000000083163303611b8a578460e0910312611b8657602484013593828516809503611b825761172960448201611ec6565b9461173660648301611ec6565b9060e4830135868111611b7e57830184604382011215611b7e576024810135878111611b6a57908991604051966117776020601f19601f8501160189611cff565b818852604482840101116115fa578060446020930183890137860101523003611b2c5760065494600460ff8760101c161015611b1857600160ff8760101c1603611ad35760ff19861660011760065560c4830135600d558351908111611abf576117e2600e54611c9b565b601f8111611a58575b50806020601f82116001146119e75789916119dc575b508160011b916000199060031b1c191617600e555b156119685750506203000062ff00001960065416176006557f110eefe47fb2df2a2f3149d618851e6ab16e70a4e6f3872b7c260bd48eec14fe6020604051428152a15b60ff60065460101c169060048210156102dc57908185927f0000000000000000000000000000000000000000000000000000000000000000163b156115fa57604051631d8e204760e01b815260ff60109590951c85166004820152919093166024820152918290604490829084907f0000000000000000000000000000000000000000000000000000000000000000165af1801561195d57611927575b5060207fad24b3d82d5622fb9874775664b448323c0cd92415340fd16bb0dcdd9223d919916040519015158152a180f35b7fad24b3d82d5622fb9874775664b448323c0cd92415340fd16bb0dcdd9223d9199192611955602092611cd5565b9291506118f6565b6040513d85823e3d90fd5b7f901ef2b1d58e0424d4371c33a6d269cadf61c7f9c58f6f5347a6a157476ba581916119d4861515916202000060065461ff008560081b169062ffff001916171760065560c4604051948594855242602086015201356040840152608060608401526080830190611e86565b0390a1611859565b905084015138611801565b9150600e89526000805160206120e583398151915289925b601f1983168410611a40576001935082601f19811610611a27575b5050811b01600e55611816565b86015160001960f88460031b161c191690553880611a1a565b868101518255602093840193600190920191016119ff565b600e8952601f820160051c6000805160206120e58339815191520160208310611aaa575b601f820160051c6000805160206120e5833981519152018110611a9f57506117eb565b898155600101611a7c565b506000805160206120e5833981519152611a7c565b634e487b7160e01b88526041600452602488fd5b60405162461bcd60e51b815260206004820152601760248201527f4e6f74206177616974696e67207265736f6c7574696f6e0000000000000000006044820152606490fd5b634e487b7160e01b88526021600452602488fd5b60405162461bcd60e51b815260206004820152601660248201527514995cdc1bdb9cd948199bdc881ddc9bdb99c818995d60521b6044820152606490fd5b634e487b7160e01b8a52604160045260248afd5b8880fd5b8580fd5b8480fd5b60405162461bcd60e51b815260206004820152601960248201527f4f6e6c7920666163746f72792063616e206469737061746368000000000000006044820152606490fd5b50346101db57806003193601126101db5760ff60065460101c1660405190600481101561033657602092508152f35b50346101db57806003193601126101db5760206040517f00000000000000000000000000000000000000000000000000000000000000008152f35b905034611c7c5781600319360112611c7c577f00000000000000000000000000000000000000000000000000000000000000006001600160a01b03168152602090f35b5080fd5b600435906001600160a01b0382168203611c9657565b600080fd5b90600182811c92168015611ccb575b6020831014611cb557565b634e487b7160e01b600052602260045260246000fd5b91607f1691611caa565b67ffffffffffffffff8111611ce957604052565b634e487b7160e01b600052604160045260246000fd5b90601f8019910116810190811067ffffffffffffffff821117611ce957604052565b60405190600082600191600154611d3781611c9b565b8084529360209160018116908115611dc35750600114611d62575b5050611d6092500383611cff565b565b91509260016000527fb10e2d527612073b26eecdfd717e6a320cf44b4afac2b0732d9fcbe2b7fa0cf6936000925b828410611dab5750611d609450505081016020013880611d52565b85548885018301529485019487945092810192611d90565b91505060209250611d6094915060ff191682840152151560051b8201013880611d52565b6040519060008260025491611dfb83611c9b565b80835292602090600190818116908115611dc35750600114611e25575050611d6092500383611cff565b91509260026000527f405787fa12a823e0f2b7631cc41b3ba8828b3321ca811111fa75cd3aa3bb5ace936000925b828410611e6e5750611d609450505081016020013880611d52565b85548885018301529485019487945092810192611e53565b919082519283825260005b848110611eb2575050826000602080949584010152601f8019910116010190565b602081830181015184830182015201611e91565b35908115158203611c9657565b15611eda57565b60405162461bcd60e51b815260206004820152600e60248201526d426574206e6f742061637469766560901b6044820152606490fd5b81810292918115918404141715611f2357565b634e487b7160e01b600052601160045260246000fd5b8115611f43570490565b634e487b7160e01b600052601260045260246000fd5b91908201809211611f2357565b15611f6d57565b60405162461bcd60e51b815260206004820152601760248201527f4e6f2077696e6e696e672062657420746f20636c61696d0000000000000000006044820152606490fd5b15611fb957565b60405162461bcd60e51b815260206004820152601060248201526f139bc818995d081d1bc81c99599d5b9960821b6044820152606490fd5b15611ff857565b60405162461bcd60e51b815260206004820152601560248201527413db9b1e48199858dd1bdc9e4818d85b8818d85b1b605a1b6044820152606490fd5b1561203c57565b60405162461bcd60e51b815260206004820152601160248201527010995d1d1a5b99c81a185cc8195b991959607a1b6044820152606490fd5b1561207c57565b60405162461bcd60e51b815260206004820152601460248201527304d75737420626574206d6f7265207468616e20360641b6044820152606490fd5b6000546001600160a01b031633036120cc57565b60405163118cdaa760e01b8152336004820152602490fdfebb7b4a454dc3493923482f07822329ed19e8244eff582cc204f8554c3620c3fda2646970667358221220129d9fe9b06266dfee018e132c35aa9b5c32e0eb3cf6c65c82fbe2cc636545fe64736f6c63430008160033405787fa12a823e0f2b7631cc41b3ba8828b3321ca811111fa75cd3aa3bb5aceb10e2d527612073b26eecdfd717e6a320cf44b4afac2b0732d9fcbe2b7fa0cf6",
  "linkReferences": {},
  "deployedLinkReferences": {}
}