{
  "_format": "hh-sol-artifact-1",
  "contractName": "WorkCOFI",
  "sourceName": "contracts/WorkCOFI.sol",
  "abi": [
    {
      "inputs": [
        {
          "internalType": "address",
          "name": "_creator",
          "type": "address"
        },
        {
          "internalType": "string",
          "name": "_title",
          "type": "string"
        },
        {
          "internalType": "string",
          "name": "_descriptionPublic",
          "type": "string"
        },
        {
          "internalType": "uint256",
          "name": "_endDate",
          "type": "uint256"
        },
        {
          "internalType": "address",
          "name": "_token",
          "type": "address"
        },
        {
          "internalType": "address",
          "name": "_factory",
          "type": "address"
        },
        {
          "internalType": "uint8",
          "name": "_requiredApprovals",
          "type": "uint8"
        },
        {
          "internalType": "bool",
          "name": "_isPrivate",
          "type": "bool"
        }
      ],
      "stateMutability": "nonpayable",
      "type": "constructor"
    },
    {
      "inputs": [
        {
          "internalType": "address",
          "name": "owner",
          "type": "address"
        }
      ],
      "name": "OwnableInvalidOwner",
      "type": "error"
    },
    {
      "inputs": [
        {
          "internalType": "address",
          "name": "account",
          "type": "address"
        }
      ],
      "name": "OwnableUnauthorizedAccount",
      "type": "error"
    },
    {
      "inputs": [],
      "name": "ReentrancyGuardReentrantCall",
      "type": "error"
    },
    {
      "anonymous": false,
      "inputs": [
        {
          "indexed": false,
          "internalType": "uint256",
          "name": "oldAmount",
          "type": "uint256"
        },
        {
          "indexed": false,
          "internalType": "uint256",
          "name": "newAmount",
          "type": "uint256"
        }
      ],
      "name": "BountyIncreased",
      "type": "event"
    },
    {
      "anonymous": false,
      "inputs": [
        {
          "indexed": true,
          "internalType": "address",
          "name": "previousOwner",
          "type": "address"
        },
        {
          "indexed": true,
          "internalType": "address",
          "name": "newOwner",
          "type": "address"
        }
      ],
      "name": "OwnershipTransferred",
      "type": "event"
    },
    {
      "anonymous": false,
      "inputs": [
        {
          "indexed": false,
          "internalType": "bool",
          "name": "approved",
          "type": "bool"
        },
        {
          "indexed": false,
          "internalType": "string",
          "name": "summary",
          "type": "string"
        }
      ],
      "name": "ResolutionReceived",
      "type": "event"
    },
    {
      "anonymous": false,
      "inputs": [
        {
          "indexed": true,
          "internalType": "address",
          "name": "workAddress",
          "type": "address"
        }
      ],
      "name": "ValidationRequested",
      "type": "event"
    },
    {
      "anonymous": false,
      "inputs": [
        {
          "indexed": true,
          "internalType": "address",
          "name": "executor",
          "type": "address"
        },
        {
          "indexed": false,
          "internalType": "uint256",
          "name": "amount",
          "type": "uint256"
        },
        {
          "indexed": false,
          "internalType": "string",
          "name": "summary",
          "type": "string"
        }
      ],
      "name": "WorkApproved",
      "type": "event"
    },
    {
      "anonymous": false,
      "inputs": [
        {
          "indexed": true,
          "internalType": "address",
          "name": "creator",
          "type": "address"
        }
      ],
      "name": "WorkCancelled",
      "type": "event"
    },
    {
      "anonymous": false,
      "inputs": [
        {
          "indexed": true,
          "internalType": "address",
          "name": "executor",
          "type": "address"
        }
      ],
      "name": "WorkClaimed",
      "type": "event"
    },
    {
      "anonymous": false,
      "inputs": [
        {
          "indexed": true,
          "internalType": "address",
          "name": "creator",
          "type": "address"
        },
        {
          "indexed": false,
          "internalType": "string",
          "name": "title",
          "type": "string"
        },
        {
          "indexed": false,
          "internalType": "uint256",
          "name": "bounty",
          "type": "uint256"
        }
      ],
      "name": "WorkCreated",
      "type": "event"
    },
    {
      "anonymous": false,
      "inputs": [
        {
          "indexed": true,
          "internalType": "address",
          "name": "executor",
          "type": "address"
        },
        {
          "indexed": false,
          "internalType": "string",
          "name": "deliveryUrl",
          "type": "string"
        }
      ],
      "name": "WorkDelivered",
      "type": "event"
    },
    {
      "anonymous": false,
      "inputs": [
        {
          "indexed": true,
          "internalType": "address",
          "name": "creator",
          "type": "address"
        },
        {
          "indexed": false,
          "internalType": "uint256",
          "name": "amount",
          "type": "uint256"
        },
        {
          "indexed": false,
          "internalType": "string",
          "name": "summary",
          "type": "string"
        }
      ],
      "name": "WorkRejected",
      "type": "event"
    },
    {
      "inputs": [],
      "name": "autoRelease",
      "outputs": [],
      "stateMutability": "nonpayable",
      "type": "function"
    },
    {
      "inputs": [],
      "name": "cancel",
      "outputs": [],
      "stateMutability": "nonpayable",
      "type": "function"
    },
    {
      "inputs": [],
      "name": "creationDate",
      "outputs": [
        {
          "internalType": "uint256",
          "name": "",
          "type": "uint256"
        }
      ],
      "stateMutability": "view",
      "type": "function"
    },
    {
      "inputs": [],
      "name": "creator",
      "outputs": [
        {
          "internalType": "address",
          "name": "",
          "type": "address"
        }
      ],
      "stateMutability": "view",
      "type": "function"
    },
    {
      "inputs": [
        {
          "internalType": "string",
          "name": "_deliveryUrl",
          "type": "string"
        }
      ],
      "name": "deliver",
      "outputs": [],
      "stateMutability": "nonpayable",
      "type": "function"
    },
    {
      "inputs": [],
      "name": "deliveryUrl",
      "outputs": [
        {
          "internalType": "string",
          "name": "",
          "type": "string"
        }
      ],
      "stateMutability": "view",
      "type": "function"
    },
    {
      "inputs": [
        {
          "internalType": "uint256",
          "name": "amount",
          "type": "uint256"
        }
      ],
      "name": "depositInitial",
      "outputs": [],
      "stateMutability": "nonpayable",
      "type": "function"
    },
    {
      "inputs": [],
      "name": "descriptionPublic",
      "outputs": [
        {
          "internalType": "string",
          "name": "",
          "type": "string"
        }
      ],
      "stateMutability": "view",
      "type": "function"
    },
    {
      "inputs": [],
      "name": "endDate",
      "outputs": [
        {
          "internalType": "uint256",
          "name": "",
          "type": "uint256"
        }
      ],
      "stateMutability": "view",
      "type": "function"
    },
    {
      "inputs": [],
      "name": "executor",
      "outputs": [
        {
          "internalType": "address",
          "name": "",
          "type": "address"
        }
      ],
      "stateMutability": "view",
      "type": "function"
    },
    {
      "inputs": [],
      "name": "factory",
      "outputs": [
        {
          "internalType": "address",
          "name": "",
          "type": "address"
        }
      ],
      "stateMutability": "view",
      "type": "function"
    },
    {
      "inputs": [],
      "name": "getInfo",
      "outputs": [
        {
          "internalType": "address",
          "name": "_creator",
          "type": "address"
        },
        {
          "internalType": "string",
          "name": "_title",
          "type": "string"
        },
        {
          "internalType": "string",
          "name": "_descriptionPublic",
          "type": "string"
        },
        {
          "internalType": "string",
          "name": "_deliveryUrl",
          "type": "string"
        },
        {
          "internalType": "uint256",
          "name": "_creationDate",
          "type": "uint256"
        },
        {
          "internalType": "uint256",
          "name": "_endDate",
          "type": "uint256"
        },
        {
          "internalType": "uint256",
          "name": "_totalBounty",
          "type": "uint256"
        },
        {
          "internalType": "uint8",
          "name": "_requiredApprovals",
          "type": "uint8"
        },
        {
          "internalType": "bool",
          "name": "_isPrivate",
          "type": "bool"
        },
        {
          "internalType": "enum WorkCOFI.WorkStatus",
          "name": "_status",
          "type": "uint8"
        },
        {
          "internalType": "address",
          "name": "_executor",
          "type": "address"
        },
        {
          "internalType": "bool",
          "name": "_isApproved",
          "type": "bool"
        },
        {
          "internalType": "string",
          "name": "_validationSummary",
          "type": "string"
        }
      ],
      "stateMutability": "view",
      "type": "function"
    },
    {
      "inputs": [],
      "name": "getStatus",
      "outputs": [
        {
          "internalType": "enum WorkCOFI.WorkStatus",
          "name": "",
          "type": "uint8"
        }
      ],
      "stateMutability": "view",
      "type": "function"
    },
    {
      "inputs": [
        {
          "internalType": "uint256",
          "name": "amount",
          "type": "uint256"
        }
      ],
      "name": "increaseBounty",
      "outputs": [],
      "stateMutability": "nonpayable",
      "type": "function"
    },
    {
      "inputs": [],
      "name": "isApproved",
      "outputs": [
        {
          "internalType": "bool",
          "name": "",
          "type": "bool"
        }
      ],
      "stateMutability": "view",
      "type": "function"
    },
    {
      "inputs": [],
      "name": "isPrivate",
      "outputs": [
        {
          "internalType": "bool",
          "name": "",
          "type": "bool"
        }
      ],
      "stateMutability": "view",
      "type": "function"
    },
    {
      "inputs": [],
      "name": "owner",
      "outputs": [
        {
          "internalType": "address",
          "name": "",
          "type": "address"
        }
      ],
      "stateMutability": "view",
      "type": "function"
    },
    {
      "inputs": [],
      "name": "renounceOwnership",
      "outputs": [],
      "stateMutability": "nonpayable",
      "type": "function"
    },
    {
      "inputs": [],
      "name": "requestValidation",
      "outputs": [],
      "stateMutability": "nonpayable",
      "type": "function"
    },
    {
      "inputs": [],
      "name": "requiredApprovals",
      "outputs": [
        {
          "internalType": "uint8",
          "name": "",
          "type": "uint8"
        }
      ],
      "stateMutability": "view",
      "type": "function"
    },
    {
      "inputs": [
        {
          "internalType": "bytes",
          "name": "_message",
          "type": "bytes"
        }
      ],
      "name": "setResolution",
      "outputs": [],
      "stateMutability": "nonpayable",
      "type": "function"
    },
    {
      "inputs": [],
      "name": "status",
      "outputs": [
        {
          "internalType": "enum WorkCOFI.WorkStatus",
          "name": "",
          "type": "uint8"
        }
      ],
      "stateMutability": "view",
      "type": "function"
    },
    {
      "inputs": [],
      "name": "submittedAt",
      "outputs": [
        {
          "internalType": "uint256",
          "name": "",
          "type": "uint256"
        }
      ],
      "stateMutability": "view",
      "type": "function"
    },
    {
      "inputs": [],
      "name": "title",
      "outputs": [
        {
          "internalType": "string",
          "name": "",
          "type": "string"
        }
      ],
      "stateMutability": "view",
      "type": "function"
    },
    {
      "inputs": [],
      "name": "token",
      "outputs": [
        {
          "internalType": "contract IERC20",
          "name": "",
          "type": "address"
        }
      ],
      "stateMutability": "view",
      "type": "function"
    },
    {
      "inputs": [],
      "name": "totalBounty",
      "outputs": [
        {
          "internalType": "uint256",
          "name": "",
          "type": "uint256"
        }
      ],
      "stateMutability": "view",
      "type": "function"
    },
    {
      "inputs": [
        {
          "internalType": "address",
          "name": "newOwner",
          "type": "address"
        }
      ],
      "name": "transferOwnership",
      "outputs": [],
      "stateMutability": "nonpayable",
      "type": "function"
    },
    {
      "inputs": [],
      "name": "validationRequestedAt",
      "outputs": [
        {
          "internalType": "uint256",
          "name": "",
          "type": "uint256"
        }
      ],
      "stateMutability": "view",
      "type": "function"
    },
    {
      "inputs": [],
      "name": "validationSummary",
      "outputs": [
        {
          "internalType": "string",
          "name": "",
          "type": "string"
        }
      ],
      "stateMutability": "view",
      "type": "function"
    }
  ],
  "bytecode": "0x60406101208152346200064457620027d19081380380620000208162000649565b938439820161010092838183031262000644576200003e8162000685565b6020828101519093906001600160401b0390818111620006445782620000669186016200069a565b9186850151908282116200064457620000819186016200069a565b94606085015191620000966080870162000685565b620000a460a0880162000685565b9460c08801519760ff8916809903620006445760e0015198891515809a03620006445760017f9b779b17422d0df92223018b32b4d1fa46e071723d6817e2486d003becc55f00819055926001600160a01b038881169182156200062c57600080546001600160a01b03198116851782558f5191949084167f8be0079c531659141344cd1fd0a4f28419497f9722a3daafe3b4186f6b6457e08680a3828c1615620005f7575016988915620005c2578351156200058f5760038b10158062000583575b156200054d57428811156200051857608052825185811162000504578454938585811c95168015620004f9575b88861014620004e5578190601f9586811162000492575b5088908683116001146200042e57849262000422575b5050600019600383901b1c191690851b1784555b81519485116200040e576002548481811c9116801562000403575b87821014620003ef57838111620003a6575b50859285116001146200033d57939450849291908362000331575b50501b916000199060031b1c1916176002555b4260a05260c05260e052845260ff19600354161760035560ff60055491169061ffff191617600555516120c491826200070d83396080518281816102af0152818161069801528181610ca201528181610e8b015281816110db015281816112ae015281816118000152611aa2015260a0518281816112fb0152611a4e015260c051828181610606015281816108bd0152611321015260e05182818161039001528181610594015281816107170152818161097701528181610ee601528181611060015281816114360152818161166d01526116c701525181818161017401528181610353015281816106da01528181610d1f015281816115cb015261183e0152f35b0151925038806200021c565b6002815285812093958591601f198316915b888383106200038b575050501062000371575b505050811b016002556200022f565b015160001960f88460031b161c1916905538808062000362565b8587015188559096019594850194879350908101906200034f565b600282528682208480880160051c820192898910620003e5575b0160051c019085905b828110620003d957505062000201565b838155018590620003c9565b92508192620003c0565b634e487b7160e01b82526022600452602482fd5b90607f1690620001ef565b634e487b7160e01b81526041600452602490fd5b015190503880620001c0565b8785528985208894509190601f198416865b8c8282106200047b575050841162000461575b505050811b018455620001d4565b015160001960f88460031b161c1916905538808062000453565b8385015186558b9790950194938401930162000440565b9091508684528884208680850160051c8201928b8610620004db575b918991869594930160051c01915b828110620004cc575050620001aa565b868155859450899101620004bc565b92508192620004ae565b634e487b7160e01b83526022600452602483fd5b94607f169462000193565b634e487b7160e01b82526041600452602482fd5b8c5162461bcd60e51b815260048101889052600e60248201526d466563686120696e76616c69646160901b6044820152606490fd5b8c5162461bcd60e51b815260048101889052600f60248201526e556d6272616c20696e76616c69646f60881b6044820152606490fd5b5060058b111562000166565b8c5162461bcd60e51b815260048101889052600c60248201526b546974756c6f20766163696f60a01b6044820152606490fd5b8c5162461bcd60e51b815260048101889052600e60248201526d546f6b656e20696e76616c69646f60901b6044820152606490fd5b62461bcd60e51b815260048101899052601060248201526f43726561746f7220696e76616c69646f60801b6044820152606490fd5b8d51631e4fbdf760e01b815260006004820152602490fd5b600080fd5b6040519190601f01601f191682016001600160401b038111838210176200066f57604052565b634e487b7160e01b600052604160045260246000fd5b51906001600160a01b03821682036200064457565b919080601f84011215620006445782516001600160401b0381116200066f57602090620006d0601f8201601f1916830162000649565b92818452828287010111620006445760005b818110620006f857508260009394955001015290565b8581018301518482018401528201620006e256fe60806040818152600436101561001457600080fd5b600091823560e01c90816302d05d3f14611a8e575080630420a22414611a7157806305b3441014611a375780631ca1079914611a19578063200d2ed21461138f57806321701a15146113fa57806328f371aa146113d75780634a79d50c146113ba5780634e69d5601461138f5780635a9b0b8914611245578063715018a6146111eb578063784a6900146110375780637f16ff9e1461101a57806383c0967514610e6b578063854287a814610c745780638da5cb5b14610c4d57806391098ee41461085e57806399c1aadc1461083d578063a36693b114610629578063c24a0f8b146105ef578063c34c08e5146105c3578063c45a015514610580578063d5987a381461054c578063ea8a1af01461029c578063f07c7dc31461027e578063f19d96eb14610260578063f2fde38b146101ca578063faff660e146101a75763fc0c546a1461016157600080fd5b346101a357816003193601126101a357517f00000000000000000000000000000000000000000000000000000000000000006001600160a01b03168152602090f35b5080fd5b50346101a357816003193601126101a35760209060ff6005541690519015158152f35b50346101a35760203660031901126101a3576001600160a01b03600435818116929083900361025c576101fb611ff2565b82156102455750600054826bffffffffffffffffffffffff60a01b821617600055167f8be0079c531659141344cd1fd0a4f28419497f9722a3daafe3b4186f6b6457e0600080a380f35b51631e4fbdf760e01b815260048101849052602490fd5b8380fd5b50346101a357816003193601126101a3576020906004549051908152f35b50346101a357816003193601126101a3576020906008549051908152f35b50346101a357816003193601126101a3577f00000000000000000000000000000000000000000000000000000000000000006001600160a01b0381811692906102e6338514611fb4565b6102ee61201e565b6005549260ff8460081c1693600685101561053857846104e857828160101c166104af5761ff0019166105001760055560048054845163a9059cbb60e01b81526001600160a01b039093169183019190915260248201526020818060448101038189867f0000000000000000000000000000000000000000000000000000000000000000165af19081156104a5579061038e918791610476575b50611f13565b7f0000000000000000000000000000000000000000000000000000000000000000169160ff60055460081c166006811015610462579083929186943b1561045e578251631d8e204760e01b815260ff9283166004820152911660248201529183908390604490829084905af19081156104555750610441575b50807febbecbf8e22c4af8caff6c302d6a9e3afb6e5aba9c78a382543a69e851209c1b91a2600160008051602061206f8339815191525580f35b61044a90611b0b565b6101a3578138610407565b513d84823e3d90fd5b8480fd5b634e487b7160e01b86526021600452602486fd5b610498915060203d60201161049e575b6104908183611b35565b810190611efb565b38610388565b503d610486565b83513d88823e3d90fd5b835162461bcd60e51b81526020600482015260126024820152712cb0903430bc903ab71032b532b1baba37b960711b6044820152606490fd5b835162461bcd60e51b815260206004820152602360248201527f536f6c6f2073652070756564652063616e63656c61722073692065737461204f6044820152622822a760e91b6064820152608490fd5b634e487b7160e01b87526021600452602487fd5b50346101a357816003193601126101a35761057c90610569611d49565b9051918291602083526020830190611de8565b0390f35b50346101a357816003193601126101a357517f00000000000000000000000000000000000000000000000000000000000000006001600160a01b03168152602090f35b50346101a357816003193601126101a357600554905160109190911c6001600160a01b03168152602090f35b50346101a357816003193601126101a357602090517f00000000000000000000000000000000000000000000000000000000000000008152f35b5090346107b657806003193601126107b65761064361201e565b6005549160ff8360081c169260068410156108295761066460028514611ebc565b6008546203f48081018091116108155742106107da5761ff0019166104001760055560048054825163a9059cbb60e01b81527f00000000000000000000000000000000000000000000000000000000000000006001600160a01b03908116938201939093526024810191909152602081604481877f000000000000000000000000000000000000000000000000000000000000000087165af19081156107cd57906107159185916104765750611f13565b7f0000000000000000000000000000000000000000000000000000000000000000169060ff60055460081c169360068510156107b9578394833b1561045e578251631d8e204760e01b815260ff9283166004820152911660248201529183908390604490829084905af190811561045557506107a2575b50600160008051602061206f8339815191525580f35b6107ab90611b0b565b6107b657803861078c565b80fd5b634e487b7160e01b84526021600452602484fd5b50505051903d90823e3d90fd5b815162461bcd60e51b815260206004820152601460248201527354696d656f7574206e6f20616c63616e7a61646f60601b6044820152606490fd5b634e487b7160e01b84526011600452602484fd5b634e487b7160e01b83526021600452602483fd5b50346101a357816003193601126101a35760209060ff600354169051908152f35b50346101a357602080600319360112610c495767ffffffffffffffff9060043582811161045e57610893903690600401611e4b565b93909261089e61201e565b60059081549060ff8260081c169160069283811015610c3557610c01577f0000000000000000000000000000000000000000000000000000000000000000421015610bca578715610b9a5762010000600160b01b0319163360101b62010000600160b01b03161783558611610b86576109178154611ad1565b601f8111610b25575b508686601f8111600114610aa5578061094e928a91610a9a575b508160011b916000199060031b1c19161790565b81555b4260075581549060ff8260081c169181831015610a865761ff00191661010017928390557f00000000000000000000000000000000000000000000000000000000000000006001600160a01b03169260081c60ff1690811015610a725790829188933b1561025c578451631d8e204760e01b815260ff9283166004820152911660248201529082908290604490829084905af18015610a685790869291610a51575b50507fac470955c2d1b04bf1a1bc9e3aecbc595816126af46dde4a7a11839384db743393818351948086528501528284013784818584010152813394601f80199101168101030190a2600160008051602061206f8339815191525580f35b610a5c919250611b0b565b61045e578385386109f3565b83513d84823e3d90fd5b634e487b7160e01b88526021600452602488fd5b634e487b7160e01b89526021600452602489fd5b90508701353861093a565b508188527ff652222313e28459528d920b65115c16c04f3efc82aaedc97be59f3f377c0d3f9087601f1981168a5b88828210610b0c57505010610af2575b5050600186811b018155610951565b860135600019600389901b60f8161c191690553880610ae3565b8a8501358655600190950194938401938b935001610ad3565b816000527ff652222313e28459528d920b65115c16c04f3efc82aaedc97be59f3f377c0d3f601f8801841c810191868910610b7c575b601f01841c01905b818110610b705750610920565b60008155600101610b63565b9091508190610b5b565b634e487b7160e01b87526041600452602487fd5b845162461bcd60e51b815260048101879052600960248201526855524c20766163696160b81b6044820152606490fd5b845162461bcd60e51b815260048101879052601060248201526f436f6e747261746f2076656e6369646f60801b6044820152606490fd5b845162461bcd60e51b815260048101879052600d60248201526c4e6f20646973706f6e69626c6560981b6044820152606490fd5b634e487b7160e01b8a52602160045260248afd5b8280fd5b50346101a357816003193601126101a357905490516001600160a01b039091168152602090f35b5090346107b657602091826003193601126101a357600435610c9461201e565b6001600160a01b03610cc9337f0000000000000000000000000000000000000000000000000000000000000000831614611fb4565b60ff60055460081c166006811015610e57578015908115610e4c575b5015610dfc57848491610cf9841515611f54565b60648551809481936323b872dd60e01b83523360048401523060248401528760448401527f0000000000000000000000000000000000000000000000000000000000000000165af19081156107cd578491610ddf575b5015610da8577fe292d9413bbf8109ebc64ca5578582baebe6ab565efae2f604cf9bbd2638ecdf9293610d856004549283611f91565b90816004558351928352820152a1600160008051602061206f8339815191525580f35b815162461bcd60e51b815260048101859052601060248201526f5472616e736665722066616c6c69646160801b6044820152606490fd5b610df69150853d871161049e576104908183611b35565b38610d4f565b825162461bcd60e51b815260048101869052602360248201527f4e6f2073652070756564652061756d656e74617220656e20657374652065737460448201526261646f60e81b6064820152608490fd5b600191501438610ce5565b634e487b7160e01b85526021600452602485fd5b5090346107b657806003193601126107b6576001600160a01b03610eb2337f0000000000000000000000000000000000000000000000000000000000000000831614611fb4565b6005549260ff8460081c169360068510156107b95760018503610fe35761020060ff9161ff001916179283600555426008557f0000000000000000000000000000000000000000000000000000000000000000169260081c1660068110156107b9578394833b1561045e578251631d8e204760e01b815260ff918216600482015291166024820152838160448183875af18015610fd957908491610fc5575b5050813b15610fc1578280926024835180958193639f029a7160e01b83523060048401525af19081156104555750610fad575b50307f240c264a21c2718c9fc2e96638b07d52c28470ec9d4d069d670cee203e35936a8280a280f35b610fb690611b0b565b6107b6578038610f84565b5050fd5b610fce90611b0b565b610fc1578238610f51565b82513d86823e3d90fd5b815162461bcd60e51b815260206004820152601060248201526f2730b2309038bab2903b30b634b230b960811b6044820152606490fd5b50346101a357816003193601126101a35761057c90610569611caa565b50346101a3576020906020600319360112610c49576001600160a01b0361109a600435611087337f0000000000000000000000000000000000000000000000000000000000000000851614611e7e565b611092811515611f54565b600454611f91565b806004558251928084528594600180546110b381611ad1565b80948801526060906001811690816000146111a05750600114611125575b60208701859052887f000000000000000000000000000000000000000000000000000000000000000087167fc350ac134280a527f410caad1fa322557288c7c758738c97239e0de487798ecb898b038aa280f35b6001895293965087937fb10e2d527612073b26eecdfd717e6a320cf44b4afac2b0732d9fcbe2b7fa0cf65b84861061118d5750505050908301606001939050817fc350ac134280a527f410caad1fa322557288c7c758738c97239e0de487798ecb84386110d1565b8054888701830152948301948201611150565b60ff19166060808a019190915294151560051b880190940197508593507fc350ac134280a527f410caad1fa322557288c7c758738c97239e0de487798ecb92508691503890506110d1565b82346107b657806003193601126107b657611204611ff2565b600080546001600160a01b0319811682556001600160a01b03167f8be0079c531659141344cd1fd0a4f28419497f9722a3daafe3b4186f6b6457e08280a380f35b50346101a357816003193601126101a3576112de9061057c60045460ff600354169260055460018060a01b0360ff6009541691611280611c0b565b966112f861128c611caa565b956112ea611298611d49565b916112a1611b57565b988151809e819e6101a08b7f0000000000000000000000000000000000000000000000000000000000000000168452806020850152830190611de8565b92818403910152611de8565b908a820360608c0152611de8565b957f000000000000000000000000000000000000000000000000000000000000000060808a01527f000000000000000000000000000000000000000000000000000000000000000060a08a015260c089015260e088015260ff8116151561010088015261136f610120880160ff8360081c16611e28565b60101c166101408601521515610160850152838203610180850152611de8565b50346101a357816003193601126101a3576020906113b860ff60055460081c1691518092611e28565bf35b50346101a357816003193601126101a35761057c90610569611c0b565b50346101a357816003193601126101a35760209060ff6009541690519015158152f35b50346101a35760203660031901126101a35767ffffffffffffffff60043581811161025c5761142d903690600401611e4b565b909290611464337f00000000000000000000000000000000000000000000000000000000000000006001600160a01b031614611e7e565b60ff60055460081c169060068210156104625761148360028314611ebc565b840192606085850312611a155784356001600160a01b03811690819003611a115760208601358015159003611a115783860135828111611a0d5786019085601f83011215611a0d578135918383116119f9578890601f19938751986114f0602087601f850116018b611b35565b818a5260208284010111610c4957806020809301838b01378801015230036119be5760ff196009541660ff6020880135151516176009558451918211610b865761153b600a54611ad1565b601f8111611953575b50602090601f83116001146118e7575090806115749288916118dc57508160011b916000199060031b1c19161790565b600a555b6020840135156117d7576005805461ff001916610300179081905560048054845163a9059cbb60e01b815260109390931c6001600160a01b031691830191909152602482015260208180604481010381897f00000000000000000000000000000000000000000000000000000000000000006001600160a01b03165af19081156104a55786916117b8575b50156117855760018060a01b0360055460101c167faad24d8919447735c8907ef8cb19a9a5dd8574f3aec5d471a0f7c540f3836fbf60045484519081528460208201528061165386820188611de8565b0390a25b60ff60055460081c1660068110156104625785907f00000000000000000000000000000000000000000000000000000000000000006001600160a01b03163b156101a3578351631d8e204760e01b815260ff93841660048201529216602483015281604481836001600160a01b037f0000000000000000000000000000000000000000000000000000000000000000165af1801561177b5761173d575b5091611737602092847fc0064232451bbe55312283d0089335d92c1969fd74c200d794b58a485909e6479551948594013515158452806020850152830190611de8565b0390a180f35b6020927fc0064232451bbe55312283d0089335d92c1969fd74c200d794b58a485909e64794929561177061173793611b0b565b9592945092506116f4565b82513d87823e3d90fd5b815162461bcd60e51b815260206004820152600c60248201526b5061676f2066616c6c69646f60a01b6044820152606490fd5b6117d1915060203d60201161049e576104908183611b35565b38611603565b6005805461ff00191661040017905560048054835163a9059cbb60e01b81526001600160a01b037f0000000000000000000000000000000000000000000000000000000000000000908116938201939093526024810191909152602081806044810103818a7f00000000000000000000000000000000000000000000000000000000000000006001600160a01b03165af19081156118d257906118809188916104765750611f13565b6004548351908152602081018490526001600160a01b03909116907f3a517193a06765ea79d9cb63f96b9d44c526404623f094614bc45a2de3e9dd3b90806118ca81870188611de8565b0390a2611657565b84513d89823e3d90fd5b90508501513861093a565b821690600a885260008051602061204f83398151915291885b81811061193b57509083600194939210611922575b5050811b01600a55611578565b86015160001960f88460031b161c191690553880611915565b9192602060018192868b015181550194019201611900565b600a8852601f830160051c60008051602061204f8339815191520190602084106119a8575b601f0160051c60008051602061204f83398151915201905b81811061199d5750611544565b888155600101611990565b60008051602061204f8339815191529150611978565b835162461bcd60e51b815260206004820152601460248201527352657370756573746120696e636f72726563746160601b6044820152606490fd5b634e487b7160e01b89526041600452602489fd5b8780fd5b8680fd5b8580fd5b50346101a357816003193601126101a3576020906007549051908152f35b50346101a357816003193601126101a357602090517f00000000000000000000000000000000000000000000000000000000000000008152f35b50346101a357816003193601126101a35761057c90610569611b57565b8390346101a357816003193601126101a3577f00000000000000000000000000000000000000000000000000000000000000006001600160a01b03168152602090f35b90600182811c92168015611b01575b6020831014611aeb57565b634e487b7160e01b600052602260045260246000fd5b91607f1691611ae0565b67ffffffffffffffff8111611b1f57604052565b634e487b7160e01b600052604160045260246000fd5b90601f8019910116810190811067ffffffffffffffff821117611b1f57604052565b60405190600082600a5491611b6b83611ad1565b80835292602090600190818116908115611be75750600114611b98575b5050611b9692500383611b35565b565b915092600a60005260008051602061204f833981519152936000925b828410611bcf5750611b969450505081016020013880611b88565b85548885018301529485019487945092810192611bb4565b91505060209250611b9694915060ff191682840152151560051b8201013880611b88565b60405190600082600191600154611c2181611ad1565b8084529360209160018116908115611be75750600114611c49575050611b9692500383611b35565b91509260016000527fb10e2d527612073b26eecdfd717e6a320cf44b4afac2b0732d9fcbe2b7fa0cf6936000925b828410611c925750611b969450505081016020013880611b88565b85548885018301529485019487945092810192611c77565b6040519060008260025491611cbe83611ad1565b80835292602090600190818116908115611be75750600114611ce8575050611b9692500383611b35565b91509260026000527f405787fa12a823e0f2b7631cc41b3ba8828b3321ca811111fa75cd3aa3bb5ace936000925b828410611d315750611b969450505081016020013880611b88565b85548885018301529485019487945092810192611d16565b6040519060008260065491611d5d83611ad1565b80835292602090600190818116908115611be75750600114611d87575050611b9692500383611b35565b91509260066000527ff652222313e28459528d920b65115c16c04f3efc82aaedc97be59f3f377c0d3f936000925b828410611dd05750611b969450505081016020013880611b88565b85548885018301529485019487945092810192611db5565b919082519283825260005b848110611e14575050826000602080949584010152601f8019910116010190565b602081830181015184830182015201611df3565b906006821015611e355752565b634e487b7160e01b600052602160045260246000fd5b9181601f84011215611e795782359167ffffffffffffffff8311611e795760208381860195010111611e7957565b600080fd5b15611e8557565b60405162461bcd60e51b815260206004820152600f60248201526e536f6c6f206c6120666163746f727960881b6044820152606490fd5b15611ec357565b60405162461bcd60e51b815260206004820152601060248201526f27379032b7103b30b634b230b1b4b7b760811b6044820152606490fd5b90816020910312611e7957518015158103611e795790565b15611f1a57565b60405162461bcd60e51b81526020600482015260126024820152714465766f6c7563696f6e2066616c6c69646160701b6044820152606490fd5b15611f5b57565b60405162461bcd60e51b815260206004820152600e60248201526d4d6f6e746f20696e76616c69646f60901b6044820152606490fd5b91908201809211611f9e57565b634e487b7160e01b600052601160045260246000fd5b15611fbb57565b60405162461bcd60e51b815260206004820152600f60248201526e29b7b6379032b61031b932b0b237b960891b6044820152606490fd5b6000546001600160a01b0316330361200657565b60405163118cdaa760e01b8152336004820152602490fd5b60008051602061206f833981519152600281541461203c5760029055565b604051633ee5aeb560e01b8152600490fdfec65a7bb8d6351c1cf70c95a316cc6a92839c986682d98bc35f958f4883f9d2a89b779b17422d0df92223018b32b4d1fa46e071723d6817e2486d003becc55f00a264697066735822122040e051db620b2da1db0cc9572083b84032f329a45ef06a4a4e971bb52d0f262664736f6c63430008160033",
  "linkReferences": {},
  "deployedLinkReferences": {}
}