{
  "_format": "hh-sol-artifact-1",
  "contractName": "CivicoCOFI",
  "sourceName": "contracts/CivicoCOFI.sol",
  "abi": [
    {
      "inputs": [
        {
          "internalType": "address",
          "name": "_creator",
          "type": "address"
        },
        {
          "internalType": "string",
          "name": "_title",
          "type": "string"
        },
        {
          "internalType": "string",
          "name": "_description",
          "type": "string"
        },
        {
          "internalType": "address",
          "name": "_destinationAddress",
          "type": "address"
        },
        {
          "internalType": "uint256",
          "name": "_endDate",
          "type": "uint256"
        },
        {
          "internalType": "address",
          "name": "_token",
          "type": "address"
        },
        {
          "internalType": "bool",
          "name": "_isPrivate",
          "type": "bool"
        }
      ],
      "stateMutability": "nonpayable",
      "type": "constructor"
    },
    {
      "inputs": [
        {
          "internalType": "address",
          "name": "owner",
          "type": "address"
        }
      ],
      "name": "OwnableInvalidOwner",
      "type": "error"
    },
    {
      "inputs": [
        {
          "internalType": "address",
          "name": "account",
          "type": "address"
        }
      ],
      "name": "OwnableUnauthorizedAccount",
      "type": "error"
    },
    {
      "inputs": [],
      "name": "ReentrancyGuardReentrantCall",
      "type": "error"
    },
    {
      "anonymous": false,
      "inputs": [
        {
          "indexed": true,
          "internalType": "address",
          "name": "previousOwner",
          "type": "address"
        },
        {
          "indexed": true,
          "internalType": "address",
          "name": "newOwner",
          "type": "address"
        }
      ],
      "name": "OwnershipTransferred",
      "type": "event"
    },
    {
      "anonymous": false,
      "inputs": [
        {
          "indexed": true,
          "internalType": "address",
          "name": "destination",
          "type": "address"
        },
        {
          "indexed": false,
          "internalType": "uint256",
          "name": "amount",
          "type": "uint256"
        }
      ],
      "name": "ProposalApproved",
      "type": "event"
    },
    {
      "anonymous": false,
      "inputs": [
        {
          "indexed": true,
          "internalType": "address",
          "name": "creator",
          "type": "address"
        }
      ],
      "name": "ProposalCancelled",
      "type": "event"
    },
    {
      "anonymous": false,
      "inputs": [
        {
          "indexed": true,
          "internalType": "address",
          "name": "creator",
          "type": "address"
        },
        {
          "indexed": false,
          "internalType": "string",
          "name": "title",
          "type": "string"
        },
        {
          "indexed": false,
          "internalType": "uint256",
          "name": "funds",
          "type": "uint256"
        },
        {
          "indexed": false,
          "internalType": "uint256",
          "name": "endDate",
          "type": "uint256"
        }
      ],
      "name": "ProposalCreated",
      "type": "event"
    },
    {
      "anonymous": false,
      "inputs": [
        {
          "indexed": true,
          "internalType": "address",
          "name": "creator",
          "type": "address"
        },
        {
          "indexed": false,
          "internalType": "uint256",
          "name": "amount",
          "type": "uint256"
        }
      ],
      "name": "ProposalRejected",
      "type": "event"
    },
    {
      "anonymous": false,
      "inputs": [
        {
          "indexed": true,
          "internalType": "address",
          "name": "voter",
          "type": "address"
        },
        {
          "indexed": false,
          "internalType": "bool",
          "name": "inFavor",
          "type": "bool"
        }
      ],
      "name": "VoteCast",
      "type": "event"
    },
    {
      "inputs": [],
      "name": "cancel",
      "outputs": [],
      "stateMutability": "nonpayable",
      "type": "function"
    },
    {
      "inputs": [],
      "name": "creationDate",
      "outputs": [
        {
          "internalType": "uint256",
          "name": "",
          "type": "uint256"
        }
      ],
      "stateMutability": "view",
      "type": "function"
    },
    {
      "inputs": [],
      "name": "creator",
      "outputs": [
        {
          "internalType": "address",
          "name": "",
          "type": "address"
        }
      ],
      "stateMutability": "view",
      "type": "function"
    },
    {
      "inputs": [
        {
          "internalType": "uint256",
          "name": "amount",
          "type": "uint256"
        }
      ],
      "name": "depositInitial",
      "outputs": [],
      "stateMutability": "nonpayable",
      "type": "function"
    },
    {
      "inputs": [],
      "name": "description",
      "outputs": [
        {
          "internalType": "string",
          "name": "",
          "type": "string"
        }
      ],
      "stateMutability": "view",
      "type": "function"
    },
    {
      "inputs": [],
      "name": "destinationAddress",
      "outputs": [
        {
          "internalType": "address",
          "name": "",
          "type": "address"
        }
      ],
      "stateMutability": "view",
      "type": "function"
    },
    {
      "inputs": [],
      "name": "endDate",
      "outputs": [
        {
          "internalType": "uint256",
          "name": "",
          "type": "uint256"
        }
      ],
      "stateMutability": "view",
      "type": "function"
    },
    {
      "inputs": [],
      "name": "execute",
      "outputs": [],
      "stateMutability": "nonpayable",
      "type": "function"
    },
    {
      "inputs": [],
      "name": "getInfo",
      "outputs": [
        {
          "internalType": "address",
          "name": "_creator",
          "type": "address"
        },
        {
          "internalType": "string",
          "name": "_title",
          "type": "string"
        },
        {
          "internalType": "string",
          "name": "_description",
          "type": "string"
        },
        {
          "internalType": "address",
          "name": "_destinationAddress",
          "type": "address"
        },
        {
          "internalType": "uint256",
          "name": "_creationDate",
          "type": "uint256"
        },
        {
          "internalType": "uint256",
          "name": "_endDate",
          "type": "uint256"
        },
        {
          "internalType": "uint256",
          "name": "_totalFunds",
          "type": "uint256"
        },
        {
          "internalType": "bool",
          "name": "_isPrivate",
          "type": "bool"
        },
        {
          "internalType": "enum CivicoCOFI.ProposalStatus",
          "name": "_status",
          "type": "uint8"
        },
        {
          "internalType": "uint256",
          "name": "_votesYes",
          "type": "uint256"
        },
        {
          "internalType": "uint256",
          "name": "_votesNo",
          "type": "uint256"
        }
      ],
      "stateMutability": "view",
      "type": "function"
    },
    {
      "inputs": [
        {
          "internalType": "address",
          "name": "voter",
          "type": "address"
        }
      ],
      "name": "getVoteOf",
      "outputs": [
        {
          "internalType": "bool",
          "name": "voted",
          "type": "bool"
        },
        {
          "internalType": "bool",
          "name": "inFavor",
          "type": "bool"
        }
      ],
      "stateMutability": "view",
      "type": "function"
    },
    {
      "inputs": [
        {
          "internalType": "address",
          "name": "",
          "type": "address"
        }
      ],
      "name": "hasVoted",
      "outputs": [
        {
          "internalType": "bool",
          "name": "",
          "type": "bool"
        }
      ],
      "stateMutability": "view",
      "type": "function"
    },
    {
      "inputs": [],
      "name": "isPrivate",
      "outputs": [
        {
          "internalType": "bool",
          "name": "",
          "type": "bool"
        }
      ],
      "stateMutability": "view",
      "type": "function"
    },
    {
      "inputs": [],
      "name": "owner",
      "outputs": [
        {
          "internalType": "address",
          "name": "",
          "type": "address"
        }
      ],
      "stateMutability": "view",
      "type": "function"
    },
    {
      "inputs": [],
      "name": "renounceOwnership",
      "outputs": [],
      "stateMutability": "nonpayable",
      "type": "function"
    },
    {
      "inputs": [],
      "name": "status",
      "outputs": [
        {
          "internalType": "enum CivicoCOFI.ProposalStatus",
          "name": "",
          "type": "uint8"
        }
      ],
      "stateMutability": "view",
      "type": "function"
    },
    {
      "inputs": [],
      "name": "title",
      "outputs": [
        {
          "internalType": "string",
          "name": "",
          "type": "string"
        }
      ],
      "stateMutability": "view",
      "type": "function"
    },
    {
      "inputs": [],
      "name": "token",
      "outputs": [
        {
          "internalType": "contract IERC20",
          "name": "",
          "type": "address"
        }
      ],
      "stateMutability": "view",
      "type": "function"
    },
    {
      "inputs": [],
      "name": "totalFunds",
      "outputs": [
        {
          "internalType": "uint256",
          "name": "",
          "type": "uint256"
        }
      ],
      "stateMutability": "view",
      "type": "function"
    },
    {
      "inputs": [
        {
          "internalType": "address",
          "name": "newOwner",
          "type": "address"
        }
      ],
      "name": "transferOwnership",
      "outputs": [],
      "stateMutability": "nonpayable",
      "type": "function"
    },
    {
      "inputs": [
        {
          "internalType": "bool",
          "name": "inFavor",
          "type": "bool"
        }
      ],
      "name": "vote",
      "outputs": [],
      "stateMutability": "nonpayable",
      "type": "function"
    },
    {
      "inputs": [
        {
          "internalType": "address",
          "name": "",
          "type": "address"
        }
      ],
      "name": "voteChoice",
      "outputs": [
        {
          "internalType": "bool",
          "name": "",
          "type": "bool"
        }
      ],
      "stateMutability": "view",
      "type": "function"
    },
    {
      "inputs": [],
      "name": "votesNo",
      "outputs": [
        {
          "internalType": "uint256",
          "name": "",
          "type": "uint256"
        }
      ],
      "stateMutability": "view",
      "type": "function"
    },
    {
      "inputs": [],
      "name": "votesYes",
      "outputs": [
        {
          "internalType": "uint256",
          "name": "",
          "type": "uint256"
        }
      ],
      "stateMutability": "view",
      "type": "function"
    }
  ],
  "bytecode": "0x6040610120815234620005ae57620019b090813803806200002081620005b3565b93843982019160e081840312620005ae576200003c81620005ef565b92602091828101519260018060401b0393848111620005ae57836200006391840162000604565b928583015190858211620005ae576200007e91840162000604565b936200008d60608401620005ef565b9260808101519460c0620000a460a08401620005ef565b92015196871515809803620005ae5760017f9b779b17422d0df92223018b32b4d1fa46e071723d6817e2486d003becc55f008190556001600160a01b039a9093818c16919082156200059657600080546001600160a01b031981168517825590938e929183167f8be0079c531659141344cd1fd0a4f28419497f9722a3daafe3b4186f6b6457e08680a3169b8c1562000561578816156200052a57835115620004f75742891115620004c2576080528251858111620004ae578454938585811c95168015620004a3575b888610146200048f578190601f958681116200043c575b508890868311600114620003d8578492620003cc575b5050600019600383901b1c191690851b1784555b8151948511620003b8576002548481811c91168015620003ad575b87821014620003995783811162000350575b5085928511600114620002e7579394508492919083620002db575b50501b916000199060031b1c1916176002555b60a0524260c05260e05261010092835260ff60045491169061ffff19161760045551611339918262000677833960805182818161027f0152818161030801528181610662015281816108db0152818161096801528181610c250152610f9c015260a0518281816104f801528181610a0c01528181610a760152610c61015260c051828181610c880152610f65015260e05182818161053f0152818161063c0152818161087101528181610cae0152610d3c01525181818161013501528181610345015281816109a50152610ab40152f35b015192503880620001f7565b6002815285812093958591601f198316915b888383106200033557505050106200031b575b505050811b016002556200020a565b015160001960f88460031b161c191690553880806200030c565b858701518855909601959485019487935090810190620002f9565b600282528682208480880160051c8201928989106200038f575b0160051c019085905b82811062000383575050620001dc565b83815501859062000373565b925081926200036a565b634e487b7160e01b82526022600452602482fd5b90607f1690620001ca565b634e487b7160e01b81526041600452602490fd5b0151905038806200019b565b8785528985208894509190601f198416865b8c8282106200042557505084116200040b575b505050811b018455620001af565b015160001960f88460031b161c19169055388080620003fd565b8385015186558b97909501949384019301620003ea565b9091508684528884208680850160051c8201928b861062000485575b918991869594930160051c01915b8281106200047657505062000185565b86815585945089910162000466565b9250819262000458565b634e487b7160e01b83526022600452602483fd5b94607f16946200016e565b634e487b7160e01b82526041600452602482fd5b8a5162461bcd60e51b815260048101889052600e60248201526d466563686120696e76616c69646160901b6044820152606490fd5b8a5162461bcd60e51b815260048101889052600c60248201526b546974756c6f20766163696f60a01b6044820152606490fd5b8a5162461bcd60e51b815260048101889052601060248201526f44657374696e6f20696e76616c69646f60801b6044820152606490fd5b8b5162461bcd60e51b815260048101899052600e60248201526d546f6b656e20696e76616c69646f60901b6044820152606490fd5b8b51631e4fbdf760e01b815260006004820152602490fd5b600080fd5b6040519190601f01601f191682016001600160401b03811183821017620005d957604052565b634e487b7160e01b600052604160045260246000fd5b51906001600160a01b0382168203620005ae57565b919080601f84011215620005ae5782516001600160401b038111620005d9576020906200063a601f8201601f19168301620005b3565b92818452828287010111620005ae5760005b8181106200066257508260009394955001015290565b85810183015184820184015282016200064c56fe608060408181526004918236101561001657600080fd5b600092833560e01c91826302d05d3f14610f885750816305b3441014610f4d57816309eef43e14610f0e578163200d2ed214610ee35781632ab1303714610ec45781634a79d50c14610ea65781634b9f5c9814610d035781635a9b0b8914610bd15781636146195414610840578163715018a6146107e65781637284e416146107b1578163784a6900146105c85781638d0fc05a146105a95781638da5cb5b14610581578163968ed60014610562578163c24a0f8b14610527578163ca325469146104e3578163cd90b92b146104a4578163da38ab4b14610454578163ea8a1af014610221578163f2fde38b1461018e578163faff660e14610168575063fc0c546a1461012257600080fd5b34610164578160031936011261016457517f00000000000000000000000000000000000000000000000000000000000000006001600160a01b03168152602090f35b5080fd5b82843461018b578060031936011261018b575060ff602092541690519015158152f35b80fd5b9190503461021d57602036600319011261021d576001600160a01b03823581811693919290849003610219576101c26112d7565b831561020357505082546001600160a01b0319811683178455167f8be0079c531659141344cd1fd0a4f28419497f9722a3daafe3b4186f6b6457e08380a380f35b51631e4fbdf760e01b8152908101849052602490fd5b8480fd5b8280fd5b90503461021d578260031936011261021d5761023b6112d7565b610243611295565b805460ff8160081c1682811015610441576104075760075415806103fd575b156103cb5761ff00191661030017815560035490816102f2575b837f00000000000000000000000000000000000000000000000000000000000000006001600160a01b03167f4538f80e606dc112c529fe1c118bb3d8f3d492a812f776b70e409a0b185386578280a260017f9b779b17422d0df92223018b32b4d1fa46e071723d6817e2486d003becc55f005580f35b825163a9059cbb60e01b81526001600160a01b037f0000000000000000000000000000000000000000000000000000000000000000169181019182526020828101939093529190829081906040010381867f00000000000000000000000000000000000000000000000000000000000000006001600160a01b03165af19081156103bf5761038892508391610390575b50611254565b38808061027c565b6103b2915060203d6020116103b8575b6103aa8183611028565b810190611237565b38610382565b503d6103a0565b505051903d90823e3d90fd5b506020606492519162461bcd60e51b8352820152600c60248201526b59612068617920766f746f7360a01b6044820152fd5b5060085415610262565b506020606492519162461bcd60e51b8352820152601460248201527327379039b290383ab2b2329031b0b731b2b630b960611b6044820152fd5b634e487b7160e01b855260218352602485fd5b8391503461016457602036600319011261016457356001600160a01b03811690819003610164578152600560205260ff828181842054169260066020522054168251911515825215156020820152f35b90503461021d57602036600319011261021d57356001600160a01b0381169081900361021d57818360ff92602095526006855220541690519015158152f35b505034610164578160031936011261016457517f00000000000000000000000000000000000000000000000000000000000000006001600160a01b03168152602090f35b505034610164578160031936011261016457602090517f00000000000000000000000000000000000000000000000000000000000000008152f35b5050346101645781600319360112610164576020906003549051908152f35b505034610164578160031936011261016457905490516001600160a01b039091168152602090f35b5050346101645781600319360112610164576020906007549051908152f35b9190503461021d5760209160206003193601126107ad57803590811561077957506105f59060035461122a565b90816003558051916060835284936001906001549161061383610fee565b9283606088015260809060018116908160001461072e57506001146106b3575b602087018590527f000000000000000000000000000000000000000000000000000000000000000086880152887f00000000000000000000000000000000000000000000000000000000000000006001600160a01b03167fe7890a17099f7377119f9bcc610136034f38d99a26a59ec393bd3f871d244c1f898b038aa280f35b6001895293965087937fb10e2d527612073b26eecdfd717e6a320cf44b4afac2b0732d9fcbe2b7fa0cf65b84861061071b57505050509083016080019390507fe7890a17099f7377119f9bcc610136034f38d99a26a59ec393bd3f871d244c1f388080610633565b80548887018301529483019482016106de565b60ff19166080808a019190915294151560051b880190940197507fe7890a17099f7377119f9bcc610136034f38d99a26a59ec393bd3f871d244c1f9350389250829150819050610633565b606490602084519162461bcd60e51b8352820152600e60248201526d4d6f6e746f20696e76616c69646f60901b6044820152fd5b8380fd5b5050346101645781600319360112610164576107e2906107cf611126565b90519182916020835260208301906111c5565b0390f35b833461018b578060031936011261018b576107ff6112d7565b80546001600160a01b03198116825581906001600160a01b03167f8be0079c531659141344cd1fd0a4f28419497f9722a3daafe3b4186f6b6457e08280a380f35b90503461021d578260031936011261021d5761085a611295565b805460ff8160081c168281101561044157610b9f577f00000000000000000000000000000000000000000000000000000000000000004210610b6957600754600854906108a7828261122a565b15918215610b5e575b5050156109ec5750805461ff0019166102001781556003549081610952575b505060035490519081527f00000000000000000000000000000000000000000000000000000000000000006001600160a01b0316907f937f69916016a33c0d3ac75fb654df7b750c59d613698b51905ac7517bed70b290602090a25b60017f9b779b17422d0df92223018b32b4d1fa46e071723d6817e2486d003becc55f005580f35b825163a9059cbb60e01b81526001600160a01b037f0000000000000000000000000000000000000000000000000000000000000000169181019182526020828101939093529190829081906040010381867f00000000000000000000000000000000000000000000000000000000000000006001600160a01b03165af180156103bf576109e59184916103905750611254565b38806108cf565b61ff00191661010017815560035480610a60575b505060035490519081527f00000000000000000000000000000000000000000000000000000000000000006001600160a01b0316907f47732d8506a667686431b9968694f9904047b42ff04d0c356f6a4f01e13752a190602090a261092b565b825163a9059cbb60e01b81526001600160a01b037f000000000000000000000000000000000000000000000000000000000000000016838201908152602081810193909352909190829081906040010381877f00000000000000000000000000000000000000000000000000000000000000006001600160a01b03165af1908115610b51578491610b32575b5015610af85780610a00565b6020606492519162461bcd60e51b835282015260156024820152745472616e73666572656e6369612066616c6c69646160581b6044820152fd5b610b4b915060203d6020116103b8576103aa8183611028565b38610aec565b50505051903d90823e3d90fd5b1015905038806108b0565b506020606492519162461bcd60e51b8352820152601060248201526f506c617a6f206e6f2076656e6369646f60801b6044820152fd5b506020606492519162461bcd60e51b8352820152600c60248201526b596120656a6563757461646f60a01b6044820152fd5b9050823461018b578060031936011261018b5750610c51906003549054600754610cf360085492610c00611060565b94610c5e610c0c611126565b988051998a998a9961016080602060018060a01b039d8e7f000000000000000000000000000000000000000000000000000000000000000016815201528c01906111c5565b918a8303908b01526111c5565b957f00000000000000000000000000000000000000000000000000000000000000001660608801527f000000000000000000000000000000000000000000000000000000000000000060808801527f000000000000000000000000000000000000000000000000000000000000000060a088015260c087015260ff8116151560e087015260ff61010087019160081c16610fcb565b6101208401526101408301520390f35b9190503461021d57602090816003193601126107ad57823580151593848203610ea25760ff815460081c1681811015610e8f57610e5b577f0000000000000000000000000000000000000000000000000000000000000000421015610e25573386526005845260ff8387205416610df55750907fa32151c21b193dcf3d43d553597e960d429ef6cafad3492ee4790e41be1ce52092913386526005835281862060ff1990600182825416179055600684528287209081541660ff8716179055600014610de257610dd4600754611205565b6007555b519283523392a280f35b610ded600854611205565b600855610dd8565b825162461bcd60e51b8152908101849052600a602482015269596120766f746173746560b01b6044820152606490fd5b825162461bcd60e51b8152908101849052601060248201526f566f746163696f6e206365727261646160801b6044820152606490fd5b825162461bcd60e51b8152908101849052600e60248201526d27379032b7103b37ba30b1b4b7b760911b6044820152606490fd5b634e487b7160e01b875260218252602487fd5b8580fd5b5050346101645781600319360112610164576107e2906107cf611060565b5050346101645781600319360112610164576020906008549051908152f35b82843461018b578060031936011261018b5750610f0c60ff6020935460081c1691518092610fcb565bf35b90503461021d57602036600319011261021d57356001600160a01b0381169081900361021d57818360ff92602095526005855220541690519015158152f35b505034610164578160031936011261016457602090517f00000000000000000000000000000000000000000000000000000000000000008152f35b8490346101645781600319360112610164577f00000000000000000000000000000000000000000000000000000000000000006001600160a01b03168152602090f35b906004821015610fd85752565b634e487b7160e01b600052602160045260246000fd5b90600182811c9216801561101e575b602083101461100857565b634e487b7160e01b600052602260045260246000fd5b91607f1691610ffd565b90601f8019910116810190811067ffffffffffffffff82111761104a57604052565b634e487b7160e01b600052604160045260246000fd5b6040519060008260019160015461107681610fee565b808452936020916001811690811561110257506001146110a1575b505061109f92500383611028565b565b91509260016000527fb10e2d527612073b26eecdfd717e6a320cf44b4afac2b0732d9fcbe2b7fa0cf6936000925b8284106110ea575061109f9450505081016020013880611091565b855488850183015294850194879450928101926110cf565b9150506020925061109f94915060ff191682840152151560051b8201013880611091565b604051906000826002549161113a83610fee565b80835292602090600190818116908115611102575060011461116457505061109f92500383611028565b91509260026000527f405787fa12a823e0f2b7631cc41b3ba8828b3321ca811111fa75cd3aa3bb5ace936000925b8284106111ad575061109f9450505081016020013880611091565b85548885018301529485019487945092810192611192565b919082519283825260005b8481106111f1575050826000602080949584010152601f8019910116010190565b6020818301810151848301820152016111d0565b60001981146112145760010190565b634e487b7160e01b600052601160045260246000fd5b9190820180921161121457565b9081602091031261124f5751801515810361124f5790565b600080fd5b1561125b57565b60405162461bcd60e51b81526020600482015260126024820152714465766f6c7563696f6e2066616c6c69646160701b6044820152606490fd5b7f9b779b17422d0df92223018b32b4d1fa46e071723d6817e2486d003becc55f0060028154146112c55760029055565b604051633ee5aeb560e01b8152600490fd5b6000546001600160a01b031633036112eb57565b60405163118cdaa760e01b8152336004820152602490fdfea264697066735822122008cca81ea1ed5c114b29dcdadbddce5f8dbff954d730b196893e4ab48230f39b64736f6c63430008160033",
  "linkReferences": {},
  "deployedLinkReferences": {}
}