{
  "_format": "hh-sol-artifact-1",
  "contractName": "BetFactoryCOFI",
  "sourceName": "contracts/BetFactoryCOFI.sol",
  "abi": [
    {
      "inputs": [
        {
          "internalType": "address",
          "name": "_usdcToken",
          "type": "address"
        }
      ],
      "stateMutability": "nonpayable",
      "type": "constructor"
    },
    {
      "inputs": [
        {
          "internalType": "address",
          "name": "owner",
          "type": "address"
        }
      ],
      "name": "OwnableInvalidOwner",
      "type": "error"
    },
    {
      "inputs": [
        {
          "internalType": "address",
          "name": "account",
          "type": "address"
        }
      ],
      "name": "OwnableUnauthorizedAccount",
      "type": "error"
    },
    {
      "anonymous": false,
      "inputs": [
        {
          "indexed": true,
          "internalType": "address",
          "name": "betAddress",
          "type": "address"
        },
        {
          "indexed": true,
          "internalType": "address",
          "name": "creator",
          "type": "address"
        },
        {
          "indexed": false,
          "internalType": "string",
          "name": "title",
          "type": "string"
        },
        {
          "indexed": false,
          "internalType": "uint256",
          "name": "endDate",
          "type": "uint256"
        }
      ],
      "name": "BetCreated",
      "type": "event"
    },
    {
      "anonymous": false,
      "inputs": [
        {
          "indexed": true,
          "internalType": "address",
          "name": "betAddress",
          "type": "address"
        },
        {
          "indexed": true,
          "internalType": "address",
          "name": "bettor",
          "type": "address"
        },
        {
          "indexed": false,
          "internalType": "bool",
          "name": "onSideA",
          "type": "bool"
        },
        {
          "indexed": false,
          "internalType": "uint256",
          "name": "amount",
          "type": "uint256"
        }
      ],
      "name": "BetPlaced",
      "type": "event"
    },
    {
      "anonymous": false,
      "inputs": [
        {
          "indexed": true,
          "internalType": "address",
          "name": "betContract",
          "type": "address"
        },
        {
          "indexed": false,
          "internalType": "uint8",
          "name": "oldStatus",
          "type": "uint8"
        },
        {
          "indexed": false,
          "internalType": "uint8",
          "name": "newStatus",
          "type": "uint8"
        }
      ],
      "name": "BetStatusChanged",
      "type": "event"
    },
    {
      "anonymous": false,
      "inputs": [
        {
          "indexed": true,
          "internalType": "address",
          "name": "oldReceiver",
          "type": "address"
        },
        {
          "indexed": true,
          "internalType": "address",
          "name": "newReceiver",
          "type": "address"
        }
      ],
      "name": "BridgeReceiverUpdated",
      "type": "event"
    },
    {
      "anonymous": false,
      "inputs": [
        {
          "indexed": true,
          "internalType": "address",
          "name": "creator",
          "type": "address"
        },
        {
          "indexed": false,
          "internalType": "bool",
          "name": "approved",
          "type": "bool"
        }
      ],
      "name": "CreatorApprovalUpdated",
      "type": "event"
    },
    {
      "anonymous": false,
      "inputs": [
        {
          "indexed": true,
          "internalType": "address",
          "name": "betContract",
          "type": "address"
        },
        {
          "indexed": false,
          "internalType": "uint32",
          "name": "sourceChainId",
          "type": "uint32"
        }
      ],
      "name": "OracleResolutionReceived",
      "type": "event"
    },
    {
      "anonymous": false,
      "inputs": [
        {
          "indexed": true,
          "internalType": "address",
          "name": "previousOwner",
          "type": "address"
        },
        {
          "indexed": true,
          "internalType": "address",
          "name": "newOwner",
          "type": "address"
        }
      ],
      "name": "OwnershipTransferred",
      "type": "event"
    },
    {
      "anonymous": false,
      "inputs": [
        {
          "indexed": true,
          "internalType": "address",
          "name": "betContract",
          "type": "address"
        },
        {
          "indexed": true,
          "internalType": "address",
          "name": "creator",
          "type": "address"
        },
        {
          "indexed": false,
          "internalType": "uint8",
          "name": "resolutionType",
          "type": "uint8"
        },
        {
          "indexed": false,
          "internalType": "string",
          "name": "title",
          "type": "string"
        },
        {
          "indexed": false,
          "internalType": "string",
          "name": "sideAName",
          "type": "string"
        },
        {
          "indexed": false,
          "internalType": "string",
          "name": "sideBName",
          "type": "string"
        },
        {
          "indexed": false,
          "internalType": "bytes",
          "name": "resolutionData",
          "type": "bytes"
        },
        {
          "indexed": false,
          "internalType": "uint256",
          "name": "timestamp",
          "type": "uint256"
        }
      ],
      "name": "ResolutionRequested",
      "type": "event"
    },
    {
      "inputs": [
        {
          "internalType": "uint256",
          "name": "",
          "type": "uint256"
        }
      ],
      "name": "activeBets",
      "outputs": [
        {
          "internalType": "address",
          "name": "",
          "type": "address"
        }
      ],
      "stateMutability": "view",
      "type": "function"
    },
    {
      "inputs": [
        {
          "internalType": "uint256",
          "name": "",
          "type": "uint256"
        }
      ],
      "name": "allBets",
      "outputs": [
        {
          "internalType": "address",
          "name": "",
          "type": "address"
        }
      ],
      "stateMutability": "view",
      "type": "function"
    },
    {
      "inputs": [
        {
          "internalType": "address",
          "name": "",
          "type": "address"
        }
      ],
      "name": "approvedCreators",
      "outputs": [
        {
          "internalType": "bool",
          "name": "",
          "type": "bool"
        }
      ],
      "stateMutability": "view",
      "type": "function"
    },
    {
      "inputs": [],
      "name": "bridgeReceiver",
      "outputs": [
        {
          "internalType": "address",
          "name": "",
          "type": "address"
        }
      ],
      "stateMutability": "view",
      "type": "function"
    },
    {
      "inputs": [
        {
          "internalType": "address",
          "name": "_creator",
          "type": "address"
        }
      ],
      "name": "canCreateBet",
      "outputs": [
        {
          "internalType": "bool",
          "name": "",
          "type": "bool"
        }
      ],
      "stateMutability": "view",
      "type": "function"
    },
    {
      "inputs": [
        {
          "internalType": "string",
          "name": "title",
          "type": "string"
        },
        {
          "internalType": "string",
          "name": "resolutionCriteria",
          "type": "string"
        },
        {
          "internalType": "string",
          "name": "sideAName",
          "type": "string"
        },
        {
          "internalType": "string",
          "name": "sideBName",
          "type": "string"
        },
        {
          "internalType": "uint256",
          "name": "endDate",
          "type": "uint256"
        },
        {
          "internalType": "uint8",
          "name": "resolutionType",
          "type": "uint8"
        },
        {
          "internalType": "bytes",
          "name": "resolutionData",
          "type": "bytes"
        }
      ],
      "name": "createBet",
      "outputs": [
        {
          "internalType": "address",
          "name": "",
          "type": "address"
        }
      ],
      "stateMutability": "nonpayable",
      "type": "function"
    },
    {
      "inputs": [
        {
          "internalType": "address",
          "name": "",
          "type": "address"
        }
      ],
      "name": "deployedBets",
      "outputs": [
        {
          "internalType": "bool",
          "name": "",
          "type": "bool"
        }
      ],
      "stateMutability": "view",
      "type": "function"
    },
    {
      "inputs": [
        {
          "internalType": "uint8",
          "name": "_resolutionType",
          "type": "uint8"
        }
      ],
      "name": "forwardResolutionRequest",
      "outputs": [],
      "stateMutability": "nonpayable",
      "type": "function"
    },
    {
      "inputs": [],
      "name": "getActiveBets",
      "outputs": [
        {
          "internalType": "address[]",
          "name": "",
          "type": "address[]"
        }
      ],
      "stateMutability": "view",
      "type": "function"
    },
    {
      "inputs": [],
      "name": "getActiveBetsCount",
      "outputs": [
        {
          "internalType": "uint256",
          "name": "",
          "type": "uint256"
        }
      ],
      "stateMutability": "view",
      "type": "function"
    },
    {
      "inputs": [],
      "name": "getAllBets",
      "outputs": [
        {
          "internalType": "address[]",
          "name": "",
          "type": "address[]"
        }
      ],
      "stateMutability": "view",
      "type": "function"
    },
    {
      "inputs": [],
      "name": "getBetCount",
      "outputs": [
        {
          "internalType": "uint256",
          "name": "",
          "type": "uint256"
        }
      ],
      "stateMutability": "view",
      "type": "function"
    },
    {
      "inputs": [
        {
          "internalType": "uint8",
          "name": "status",
          "type": "uint8"
        }
      ],
      "name": "getBetsByStatus",
      "outputs": [
        {
          "internalType": "address[]",
          "name": "",
          "type": "address[]"
        }
      ],
      "stateMutability": "view",
      "type": "function"
    },
    {
      "inputs": [],
      "name": "getResolvedBets",
      "outputs": [
        {
          "internalType": "address[]",
          "name": "",
          "type": "address[]"
        }
      ],
      "stateMutability": "view",
      "type": "function"
    },
    {
      "inputs": [],
      "name": "getResolvingBets",
      "outputs": [
        {
          "internalType": "address[]",
          "name": "",
          "type": "address[]"
        }
      ],
      "stateMutability": "view",
      "type": "function"
    },
    {
      "inputs": [],
      "name": "getUndeterminedBets",
      "outputs": [
        {
          "internalType": "address[]",
          "name": "",
          "type": "address[]"
        }
      ],
      "stateMutability": "view",
      "type": "function"
    },
    {
      "inputs": [
        {
          "internalType": "address",
          "name": "b",
          "type": "address"
        }
      ],
      "name": "isLegitBet",
      "outputs": [
        {
          "internalType": "bool",
          "name": "",
          "type": "bool"
        }
      ],
      "stateMutability": "view",
      "type": "function"
    },
    {
      "inputs": [
        {
          "internalType": "uint8",
          "name": "_oldStatus",
          "type": "uint8"
        },
        {
          "internalType": "uint8",
          "name": "_newStatus",
          "type": "uint8"
        }
      ],
      "name": "notifyStatusChange",
      "outputs": [],
      "stateMutability": "nonpayable",
      "type": "function"
    },
    {
      "inputs": [],
      "name": "owner",
      "outputs": [
        {
          "internalType": "address",
          "name": "",
          "type": "address"
        }
      ],
      "stateMutability": "view",
      "type": "function"
    },
    {
      "inputs": [
        {
          "internalType": "address",
          "name": "betAddress",
          "type": "address"
        },
        {
          "internalType": "bool",
          "name": "onSideA",
          "type": "bool"
        },
        {
          "internalType": "uint256",
          "name": "amount",
          "type": "uint256"
        }
      ],
      "name": "placeBet",
      "outputs": [],
      "stateMutability": "nonpayable",
      "type": "function"
    },
    {
      "inputs": [
        {
          "internalType": "uint32",
          "name": "_sourceChainId",
          "type": "uint32"
        },
        {
          "internalType": "address",
          "name": "",
          "type": "address"
        },
        {
          "internalType": "bytes",
          "name": "_message",
          "type": "bytes"
        }
      ],
      "name": "processBridgeMessage",
      "outputs": [],
      "stateMutability": "nonpayable",
      "type": "function"
    },
    {
      "inputs": [],
      "name": "renounceOwnership",
      "outputs": [],
      "stateMutability": "nonpayable",
      "type": "function"
    },
    {
      "inputs": [
        {
          "internalType": "uint256",
          "name": "",
          "type": "uint256"
        }
      ],
      "name": "resolvedBets",
      "outputs": [
        {
          "internalType": "address",
          "name": "",
          "type": "address"
        }
      ],
      "stateMutability": "view",
      "type": "function"
    },
    {
      "inputs": [
        {
          "internalType": "uint256",
          "name": "",
          "type": "uint256"
        }
      ],
      "name": "resolvingBets",
      "outputs": [
        {
          "internalType": "address",
          "name": "",
          "type": "address"
        }
      ],
      "stateMutability": "view",
      "type": "function"
    },
    {
      "inputs": [
        {
          "internalType": "address",
          "name": "_bridgeReceiver",
          "type": "address"
        }
      ],
      "name": "setBridgeReceiver",
      "outputs": [],
      "stateMutability": "nonpayable",
      "type": "function"
    },
    {
      "inputs": [
        {
          "internalType": "address",
          "name": "_creator",
          "type": "address"
        },
        {
          "internalType": "bool",
          "name": "_approved",
          "type": "bool"
        }
      ],
      "name": "setCreatorApproval",
      "outputs": [],
      "stateMutability": "nonpayable",
      "type": "function"
    },
    {
      "inputs": [
        {
          "internalType": "address",
          "name": "newOwner",
          "type": "address"
        }
      ],
      "name": "transferOwnership",
      "outputs": [],
      "stateMutability": "nonpayable",
      "type": "function"
    },
    {
      "inputs": [
        {
          "internalType": "uint256",
          "name": "",
          "type": "uint256"
        }
      ],
      "name": "undeterminedBets",
      "outputs": [
        {
          "internalType": "address",
          "name": "",
          "type": "address"
        }
      ],
      "stateMutability": "view",
      "type": "function"
    },
    {
      "inputs": [],
      "name": "usdcToken",
      "outputs": [
        {
          "internalType": "address",
          "name": "",
          "type": "address"
        }
      ],
      "stateMutability": "view",
      "type": "function"
    }
  ],
  "bytecode": "0x60a03461012157601f6200499838819003918201601f19168301916001600160401b038311848410176101265780849260209460405283398101031261012157516001600160a01b03808216808303610121573315610108576000543360018060a01b0319821617600055604051923391167f8be0079c531659141344cd1fd0a4f28419497f9722a3daafe3b4186f6b6457e0600080a3156100c6575060805260405161485b90816200013d823960805181818161036e01528181610e9901526115980152f35b62461bcd60e51b815260206004820152601460248201527f496e76616c6964205553444320616464726573730000000000000000000000006044820152606490fd5b604051631e4fbdf760e01b815260006004820152602490fd5b600080fd5b634e487b7160e01b600052604160045260246000fdfe608060408181526004803610156200001657600080fd5b600092833560e01c9081630a20897214620015ea57508063107d67c214620015c757806311eac85514620015815780631644af8814620015285780631d8e204714620013305780632c136c341462000dda5780633591ca4114620012d75780635523246714620012975780636532e2c31462001274578063700eae7314620011df578063715018a61462001181578063749598eb1462001122578063766486371462000e1c57806376aa5f0e1462000dda5780638da5cb5b1462000db0578063976ac9b81462000aa7578063a489d26714620008c9578063a6c8260f146200089b578063ada730201462000878578063af768ee3146200081b578063b93dab0b14620007fa578063d044e81f146200073c578063db01ea8c14620006df578063df7ebae314620006ac578063e0ced0e1146200064f578063ea0d5bb514620005ca578063ed53afa314620005a5578063f2b3742114620002155763f2fde38b146200018057600080fd5b346200021157602036600319011262000211576200019d62001698565b90620001a862001af3565b6001600160a01b03918216928315620001fb575050600054826001600160601b0360a01b821617600055167f8be0079c531659141344cd1fd0a4f28419497f9722a3daafe3b4186f6b6457e0600080a380f35b51631e4fbdf760e01b8152908101849052602490fd5b8280fd5b509034620002115760e0366003190112620002115767ffffffffffffffff82358181116200059d576200024c90369085016200172a565b936024803583811162000211576200026890369087016200172a565b92604435818111620005a1576200028390369088016200172a565b936064358281116200059d576200029e90369089016200172a565b916084359560a4359360ff8516809503620005985760c4358381116200059457620002cd9036908c016200172a565b9160028611620005525760038610156200054057895194612cb7808701958611878710176200052e57926200034d620003ae95938f8e6200035c95620003306200033e938d9c9a8d62001b6f9039610140338c528060208d01528b019062001a47565b91898303908a015262001a47565b90868203606088015262001a47565b90848203608086015262001a47565b918960a082015260018060a01b0396877f00000000000000000000000000000000000000000000000000000000000000001660c08301523060e083015261010082015261012081840391015262001a47565b039084f0801562000524571694600254600160401b908181101562000510576001810180600255811015620004fc57908693929160026000527f405787fa12a823e0f2b7631cc41b3ba8828b3321ca811111fa75cd3aa3bb5ace01946001600160601b0360a01b9589878254161790558881526003602052848120600160ff1982541617905560055494859160096020522055831015620004e9576001830180600555831015620004d65750506020958592837fa0e09974d118264cff0d028384e1669025a2ae53f51a900a53b37ed8f632b69b9360056000527f036b6384b5eca791c62761152d0c79bb0604c104a5fb6f4eb0703f3154bb3db00191825416179055620004c58551918683528683019062001a47565b93878201528033940390a351908152f35b603290634e487b7160e01b600052526000fd5b604190634e487b7160e01b600052526000fd5b83603284634e487b7160e01b600052526000fd5b83604184634e487b7160e01b600052526000fd5b85513d85823e3d90fd5b634e487b7160e01b8a5260418d52888afd5b634e487b7160e01b885260218b528688fd5b895162461bcd60e51b81526020818d01526017818901527f496e76616c6964207265736f6c7574696f6e20747970650000000000000000006044820152606490fd5b8780fd5b600080fd5b8480fd5b8380fd5b505034620005c65781600319360112620005c6576020906005549051908152f35b5080fd5b509034620002115780600319360112620002115760207f022f105edb13003ae9b7abdabb9ea0c23acc72407ec6854987dee707d52c3ab2916200060c62001698565b9062000617620016af565b916200062262001af3565b6001600160a01b0316808752948352808620805460ff191692151560ff811693909317905551908152a280f35b503462000211576020366003190112620002115735600254811015620002115760026000527f405787fa12a823e0f2b7631cc41b3ba8828b3321ca811111fa75cd3aa3bb5ace015490516001600160a01b03909116815260209150f35b505034620005c65781600319360112620005c657620006db90620006cf620018ea565b90519182918262001611565b0390f35b503462000211576020366003190112620002115735600654811015620002115760066000527ff652222313e28459528d920b65115c16c04f3efc82aaedc97be59f3f377c0d3f015490516001600160a01b03909116815260209150f35b50346200021157602036600319011262000211576200075a62001698565b906200076562001af3565b6001600160a01b03918216928315620007b7575050600154826001600160601b0360a01b821617600155167fa8803d9e6a41a59e9581926a91f2dfbebeb38d9dec8366511c6d5906f4df91fd8380a380f35b906020606492519162461bcd60e51b8352820152601760248201527f496e76616c6964206272696467652072656365697665720000000000000000006044820152fd5b505034620005c65781600319360112620005c6576020906002549051908152f35b503462000211576020366003190112620002115735600554811015620002115760056000527f036b6384b5eca791c62761152d0c79bb0604c104a5fb6f4eb0703f3154bb3db0015490516001600160a01b03909116815260209150f35b505034620005c65781600319360112620005c657620006db90620006cf6200186f565b505034620005c6576020366003190112620005c657620006db90620006cf620008c362001687565b62001a6e565b50903462000211576060366003190112620002115781359063ffffffff8216809203620005a1576001600160a01b0392602490813585811603620005985767ffffffffffffffff60443581811162000594573660238201121562000594578083013582811162000a66578101908482019136831162000aa3578860015416330362000a6a57818791031262000a66578481013597881680980362000a6657604481013592831162000a665762000982920184016200172a565b858752600360205260ff84882054161562000a2d5790869291863b15620005a1578391620009c9602092875195869485946321701a1560e01b865285015283019062001a47565b038183895af1801562000a235762000a0b575b50507ff48e5601fdd68324e52189ade6b4c91601505aed58bceb325b802d82ddc5ba889160209151908152a280f35b62000a1690620016bf565b620005a1578338620009dc565b83513d84823e3d90fd5b506014606492602085519362461bcd60e51b855284015282015273155b9adb9bdddb8818995d0818dbdb9d1c9858dd60621b6044820152fd5b8880fd5b865162461bcd60e51b81526020818701526014818801527327b7363c90313934b233b2903932b1b2b4bb32b960611b6044820152606490fd5b8980fd5b5034620002115760209081600319360112620005a15762000ac762001687565b923385526003835262000ae060ff828720541662001965565b80516302d05d3f60e01b81529280848481335afa93841562000da657869462000d5c575b50815163129e754360e21b815286818581335afa90811562000d5257879162000d34575b508251638eb1a4ad60e01b81529187838681335afa92831562000d2a57889362000d0a575b50835163a355f89760e01b81529688888781335afa97881562000cd757899862000ce1575b5088855180976307ff419760e41b825281335afa95861562000cd757899662000c31575b50847f7ed76a1d21ec00e23d69cc38e2a66af666a11ca0497abfcc47f427d98abdf9ab969462000be962000c069560c060ff9c9662000bf79662000c159b519e8f911690528d015260c08c019062001a47565b918a8303908b015262001a47565b90878203606089015262001a47565b90858203608087015262001a47565b4260a08501526001600160a01b0390921692339281900390a380f35b929495509296903d808a853e62000c498185620016ea565b830192818185031262000aa35780519067ffffffffffffffff821162000cd357019583601f8801121562000aa35760ff9862000be962000c159760c08562000cc062000c06998d62000bf7997f7ed76a1d21ec00e23d69cc38e2a66af666a11ca0497abfcc47f427d98abdf9ab9f519101620019cc565b9b50969c50509550509491509462000b96565b8a80fd5b85513d8b823e3d90fd5b62000d029198503d808b833e62000cf98183620016ea565b81019062001a08565b963862000b72565b62000d229193503d808a833e62000cf98183620016ea565b913862000b4d565b84513d8a823e3d90fd5b62000d4b91503d8089833e62000cf98183620016ea565b3862000b28565b83513d89823e3d90fd5b9080945081813d831162000d9e575b62000d778183620016ea565b8101031262000d9a57516001600160a01b038116810362000d9a57923862000b04565b8580fd5b503d62000d6b565b82513d88823e3d90fd5b505034620005c65781600319360112620005c657905490516001600160a01b039091168152602090f35b505034620005c6576020366003190112620005c65760209160ff9082906001600160a01b0362000e0962001698565b1681526003855220541690519015158152f35b503462000211576060366003190112620002115762000e3a62001698565b62000e44620016af565b9260443560018060a01b03809316938487526020936003855260ff848920541615620010df5782156200109c5784889160648651809481936323b872dd60e01b835233888401528b60248401528860448401527f0000000000000000000000000000000000000000000000000000000000000000165af190811562000d2a5788916200105f575b501562001025578690861562000f7157853b15620005c657835163845e45f960e01b81523391810191825260208201849052908290829081906040010381838a5af1801562000f675762000f4f575b50507fd59b563bb2b80ce65f5745a10c201715e77c2155cd1409a912757188d66454d0925b825195151586528501523393a380f35b62000f5a90620016bf565b62000d9a57853862000f1a565b84513d84823e3d90fd5b9085949293943b1562001022578451637beed23960e11b815233928101928352602083018590529182908190604001038183895af18015620010185762000fde575b50907fd59b563bb2b80ce65f5745a10c201715e77c2155cd1409a912757188d66454d0929162000f3f565b956200100e7fd59b563bb2b80ce65f5745a10c201715e77c2155cd1409a912757188d66454d094939297620016bf565b9590919262000fb3565b84513d89823e3d90fd5b80fd5b825162461bcd60e51b815290810184905260146024820152731554d110c81d1c985b9cd9995c8819985a5b195960621b6044820152606490fd5b90508481813d831162001094575b620010798183620016ea565b81010312620005945751801515810362000594573862000ecb565b503d6200106d565b835162461bcd60e51b8152808301869052601d60248201527f416d6f756e74206d7573742062652067726561746572207468616e20300000006044820152606490fd5b835162461bcd60e51b8152808301869052601960248201527f426574206e6f742066726f6d207468697320666163746f7279000000000000006044820152606490fd5b50829034620005c6576020366003190112620005c6576020926200114562001698565b83546001600160a01b0391821694911684149283156200116b575b858484519015158152f35b60ff935082948252855220541681848062001160565b833462001022578060031936011262001022576200119e62001af3565b80546001600160a01b03198116825581906001600160a01b03167f8be0079c531659141344cd1fd0a4f28419497f9722a3daafe3b4186f6b6457e08280a380f35b82843462001022578060031936011262001022578151918291600254808552602080950194600283527f405787fa12a823e0f2b7631cc41b3ba8828b3321ca811111fa75cd3aa3bb5ace92905b8282106200125357620006db868662001248828b0383620016ea565b519182918262001611565b83546001600160a01b0316875295860195600193840193909101906200122c565b505034620005c65781600319360112620005c657620006db90620006cf620017f4565b503462000211576020366003190112620002115760209260ff918391906001600160a01b03620012c662001698565b168252855220541690519015158152f35b503462000211576020366003190112620002115735600854811015620002115760086020935260018060a01b03907ff3f7a9fe364faab93b216da50a3214154f22a0a2b415b23a84c8169e8b636ee30154169051908152f35b50919034620005c65780600319360112620005c6576200134f62001687565b9060249182359060ff82168092036200059d5760ff9033865260036020526200137d82858820541662001965565b1692858410156200149357620013938462001b20565b338652600960205283862054815460001991908281019081116200151657808203620014b6575b505081548015620014a4570190620013d3828262001658565b81549060018060a01b039060031b1b1916905555858210156200149357620013fb8262001b20565b9081549633875260096020528785882055600160401b881015620014825750506200145486620014729260017f3b1e15094802f233de40fa53d8147da5af571de7d66c88e22778d05f8430291e97989901815562001658565b81546001600160a01b0360039290921b91821b19163390911b179055565b815193845260208401523392a280f35b634e487b7160e01b87526041905285fd5b634e487b7160e01b85526021865284fd5b634e487b7160e01b8852603189528388fd5b620014c2908462001658565b905460039190911b1c6001600160a01b03166200150381620014e5848762001658565b90919060018060a01b038084549260031b9316831b921b1916179055565b88526009602052858820553880620013ba565b634e487b7160e01b895260118a528489fd5b503462000211576020366003190112620002115735600754811015620002115760076020935260018060a01b03907fa66cc928b5edb82af9bd49922954155ab7b0942694bea4ce44661d9a8736c6880154169051908152f35b505034620005c65781600319360112620005c657517f00000000000000000000000000000000000000000000000000000000000000006001600160a01b03168152602090f35b505034620005c65781600319360112620005c657620006db90620006cf62001777565b849034620005c65781600319360112620005c6576001546001600160a01b03168152602090f35b602090602060408183019282815285518094520193019160005b8281106200163a575050505090565b83516001600160a01b0316855293810193928101926001016200162b565b8054821015620016715760005260206000200190600090565b634e487b7160e01b600052603260045260246000fd5b6004359060ff821682036200059857565b600435906001600160a01b03821682036200059857565b6024359081151582036200059857565b67ffffffffffffffff8111620016d457604052565b634e487b7160e01b600052604160045260246000fd5b90601f8019910116810190811067ffffffffffffffff821117620016d457604052565b67ffffffffffffffff8111620016d457601f01601f191660200190565b81601f82011215620005985780359062001744826200170d565b92620017546040519485620016ea565b828452602083830101116200059857816000926020809301838601378301015290565b6040519060085480835282602091602082019060086000527ff3f7a9fe364faab93b216da50a3214154f22a0a2b415b23a84c8169e8b636ee3936000905b828210620017d057505050620017ce92500383620016ea565b565b85546001600160a01b031684526001958601958895509381019390910190620017b5565b6040519060075480835282602091602082019060076000527fa66cc928b5edb82af9bd49922954155ab7b0942694bea4ce44661d9a8736c688936000905b8282106200184b57505050620017ce92500383620016ea565b85546001600160a01b03168452600195860195889550938101939091019062001832565b6040519060055480835282602091602082019060056000527f036b6384b5eca791c62761152d0c79bb0604c104a5fb6f4eb0703f3154bb3db0936000905b828210620018c657505050620017ce92500383620016ea565b85546001600160a01b031684526001958601958895509381019390910190620018ad565b6040519060065480835282602091602082019060066000527ff652222313e28459528d920b65115c16c04f3efc82aaedc97be59f3f377c0d3f936000905b8282106200194157505050620017ce92500383620016ea565b85546001600160a01b03168452600195860195889550938101939091019062001928565b156200196d57565b60405162461bcd60e51b8152602060048201526012602482015271139bdd08184819195c1b1bde59590818995d60721b6044820152606490fd5b60005b838110620019bb5750506000910152565b8181015183820152602001620019aa565b90929192620019db816200170d565b91620019eb6040519384620016ea565b82948284528282011162000598576020620017ce930190620019a7565b602081830312620005985780519067ffffffffffffffff82116200059857019080601f830112156200059857815162001a4492602001620019cc565b90565b9060209162001a6281518092818552858086019101620019a7565b601f01601f1916010190565b60ff16801562001ae8576001811462001add576002811462001ad25760031462001ac85760405162461bcd60e51b815260206004820152600e60248201526d496e76616c69642073746174757360901b6044820152606490fd5b62001a4462001777565b5062001a44620017f4565b5062001a44620018ea565b5062001a446200186f565b6000546001600160a01b0316330362001b0857565b60405163118cdaa760e01b8152336004820152602490fd5b600481101562001b5857801562001b52576001811462001b4c5760021462001b4757600890565b600790565b50600690565b50600590565b634e487b7160e01b600052602160045260246000fdfe6101406040523462000a255762002cb7803803806200001e8162000a2a565b9283398101906101408183031262000a25576200003b8162000a50565b60208201519091906001600160401b03811162000a2557836200006091830162000ac6565b60408201519093906001600160401b03811162000a2557816200008591840162000ac6565b60608301519093906001600160401b03811162000a255782620000aa91850162000ac6565b60808401516001600160401b03811162000a255783620000cc91860162000ac6565b9060a0850151620000e060c0870162000a50565b92620000ef60e0880162000a50565b92610100988989015197600389101562000a25576101208a810151909a6001600160401b03821162000a2557019080601f8301121562000a25578151620001399260200162000a65565b60017f9b779b17422d0df92223018b32b4d1fa46e071723d6817e2486d003becc55f00559a6001600160a01b0397868916801562000a0c57600080546001600160a01b03198116831782556040519291908c16907f8be0079c531659141344cd1fd0a4f28419497f9722a3daafe3b4186f6b6457e09080a389821615620009ca57508888161562000985578151156200094057835115620008fb57845115620008b6576080528051906001600160401b0382116200055457620001fe60015462000ae6565b601f811162000874575b50602090601f8311600114620007f7576200023d9291600091836200049d575b50508160011b916000199060031b1c19161790565b6001555b8051906001600160401b03821162000554576200026060025462000ae6565b601f8111620007b5575b50602090601f831160011462000738576200029e9291600091836200049d5750508160011b916000199060031b1c19161790565b6002555b8051906001600160401b0382116200055457620002c160035462000ae6565b601f8111620006e5575b50602090601f83116001146200065757620002ff9291600091836200049d5750508160011b916000199060031b1c19161790565b6003555b8051906001600160401b03821162000554576200032260045462000ae6565b601f8111620005f8575b50602090601f83116001146200056a57620003609291600091836200049d5750508160011b916000199060031b1c19161790565b6004555b4260a05260c05260e052168352815282516001600160401b038111620005545760059062000393825462000ae6565b601f811162000514575b50602094601f8211600114620004a957620003d49293949582916000926200049d5750508160011b916000199060031b1c19161790565b90555b62ff000019600654166006556040519061213a928362000b3d843960805183818161099301528181610d420152818161146a0152611c4d015260a051838181610dbb0152611c16015260c05183818161023701528181610493015281816107e401528181610de10152611493015260e05183818161020b0152818161044c015281816107b801528181610a02015281816114ef015281816116dc0152818161187201526118c90152518281816101ac01526110ad015251818181610306015261155e0152f35b01519050388062000228565b601f198216958360005260206000209160005b888110620004fb57508360019596979810620004e1575b505050811b019055620003d7565b015160001960f88460031b161c19169055388080620004d3565b91926020600181928685015181550194019201620004bc565b6200054290836000526020600020601f8401851c8101916020851062000549575b601f01851c019062000b23565b386200039d565b909150819062000535565b634e487b7160e01b600052604160045260246000fd5b6004600090815292917f8a35acfbc15ff81a39ae7d344fd709f28e8600b4aa8c65c6b64bfe7fe36bd19b915b601f1984168510620005dc576001945083601f19811610620005c2575b505050811b0160045562000364565b015160001960f88460031b161c19169055388080620005b3565b8181015183556020948501946001909301929091019062000596565b600460005262000645907f8a35acfbc15ff81a39ae7d344fd709f28e8600b4aa8c65c6b64bfe7fe36bd19b601f850160051c810191602086106200064c575b601f0160051c019062000b23565b386200032c565b909150819062000637565b6003600090815292917fc2575a0e9e593c00f959f8c92f12db2869c3395a3b0502d05e2516446f71f85b915b601f1984168510620006c9576001945083601f19811610620006af575b505050811b0160035562000303565b015160001960f88460031b161c19169055388080620006a0565b8181015183556020948501946001909301929091019062000683565b600360005262000731907fc2575a0e9e593c00f959f8c92f12db2869c3395a3b0502d05e2516446f71f85b601f850160051c810191602086106200064c57601f0160051c019062000b23565b38620002cb565b60026000908152929160008051602062002c77833981519152915b601f198416851062000799576001945083601f198116106200077f575b505050811b01600255620002a2565b015160001960f88460031b161c1916905538808062000770565b8181015183556020948501946001909301929091019062000753565b6002600052620007f09060008051602062002c77833981519152601f850160051c810191602086106200064c57601f0160051c019062000b23565b386200026a565b60016000908152929160008051602062002c97833981519152915b601f198416851062000858576001945083601f198116106200083e575b505050811b0160015562000241565b015160001960f88460031b161c191690553880806200082f565b8181015183556020948501946001909301929091019062000812565b6001600052620008af9060008051602062002c97833981519152601f850160051c810191602086106200064c57601f0160051c019062000b23565b3862000208565b60405162461bcd60e51b815260206004820152601b60248201527f536964652042206e616d652063616e6e6f7420626520656d70747900000000006044820152606490fd5b60405162461bcd60e51b815260206004820152601b60248201527f536964652041206e616d652063616e6e6f7420626520656d70747900000000006044820152606490fd5b60405162461bcd60e51b815260206004820152601560248201527f5469746c652063616e6e6f7420626520656d70747900000000000000000000006044820152606490fd5b60405162461bcd60e51b815260206004820152601560248201527f496e76616c696420746f6b656e206164647265737300000000000000000000006044820152606490fd5b62461bcd60e51b815260206004820152601760248201527f496e76616c69642063726561746f7220616464726573730000000000000000006044820152606490fd5b604051631e4fbdf760e01b815260006004820152602490fd5b600080fd5b6040519190601f01601f191682016001600160401b038111838210176200055457604052565b51906001600160a01b038216820362000a2557565b9192916001600160401b038211620005545760209062000a8e601f8401601f1916830162000a2a565b948386528382011162000a255760005b83811062000ab457505050602060009184010152565b81810151868201840152820162000a9e565b9080601f8301121562000a2557815162000ae39260200162000a65565b90565b90600182811c9216801562000b18575b602083101462000b0257565b634e487b7160e01b600052602260045260246000fd5b91607f169162000af6565b81811062000b2f575050565b6000815560010162000b2356fe608080604052600436101561001357600080fd5b600090813560e01c90816302d05d3f14611c395750806305b3441014611bfe578063200d2ed214611bcf57806321701a15146116885780632810e1d61461144e5780632d56657d146114085780633caef3811461131d5780633d5d526a146112ff5780634a79d50c146112e35780634e71d92d14610fcf578063519a1d8414610f9f5780635a9b0b8914610c53578063715018a614610bf957806372834e5b14610bdb57806373b2e80e14610b9c5780637b6d79f1146109775780637ff41970146108a7578063831ad6db14610889578063845e45f91461078b57806385a26fe614610765578063881e4cca1461072c5780638da5cb5b146107055780638eb1a4ad14610657578063958f03b714610639578063a355f8971461058b578063bb978c5b146104b6578063c24a0f8b1461047b578063c45a015514610436578063dbb3f53714610413578063e2529773146103da578063f2fde38b1461034a578063f7ad7920146102f0578063f7dda472146101de5763fc0c546a1461019757600080fd5b346101db57806003193601126101db576040517f00000000000000000000000000000000000000000000000000000000000000006001600160a01b03168152602090f35b80fd5b50346101db5760403660031901126101db576101f8611c80565b602435906001600160a01b0390610232337f0000000000000000000000000000000000000000000000000000000000000000841614611ff1565b61025d7f00000000000000000000000000000000000000000000000000000000000000004210612035565b60ff60065460101c1660048110156102dc579160209161029e7f8b1b269ed471a640fd80b1f65b929a812a4c36183f7807568b77b08925bdee4d9415611ed3565b6102a9851515612075565b1692838552600b8252604085206102c1828254611f59565b90556102cf81600954611f59565b600955604051908152a280f35b634e487b7160e01b85526021600452602485fd5b50346101db57806003193601126101db576040517f0000000000000000000000000000000000000000000000000000000000000000600381101561033657602092508152f35b634e487b7160e01b83526021600452602483fd5b50346101db5760203660031901126101db57610364611c80565b61036c6120b8565b6001600160a01b039081169081156103c157600054826bffffffffffffffffffffffff60a01b821617600055167f8be0079c531659141344cd1fd0a4f28419497f9722a3daafe3b4186f6b6457e0600080a380f35b604051631e4fbdf760e01b815260048101849052602490fd5b50346101db5760203660031901126101db576020906040906001600160a01b03610402611c80565b168152600a83522054604051908152f35b50346101db57806003193601126101db57602060ff600654166040519015158152f35b50346101db57806003193601126101db576040517f00000000000000000000000000000000000000000000000000000000000000006001600160a01b03168152602090f35b50346101db57806003193601126101db5760206040517f00000000000000000000000000000000000000000000000000000000000000008152f35b50346101db57806003193601126101db57604051600e546000826104d983611c9b565b918282526020936001908560018216918260001461056b575050600114610520575b5061050892500383611cff565b61051c604051928284938452830190611e86565b0390f35b849150600e6000526000805160206120e5833981519152906000915b8583106105535750506105089350820101856104fb565b8054838901850152879450869390920191810161053c565b60ff19168582015261050895151560051b85010192508791506104fb9050565b50346101db57806003193601126101db576040516004546000826105ae83611c9b565b918282526020936001908560018216918260001461056b5750506001146105dc575061050892500383611cff565b84915060046000527f8a35acfbc15ff81a39ae7d344fd709f28e8600b4aa8c65c6b64bfe7fe36bd19b906000915b8583106106215750506105089350820101856104fb565b8054838901850152879450869390920191810161060a565b50346101db57806003193601126101db576020600954604051908152f35b50346101db57806003193601126101db5760405160035460008261067a83611c9b565b918282526020936001908560018216918260001461056b5750506001146106a8575061050892500383611cff565b84915060036000527fc2575a0e9e593c00f959f8c92f12db2869c3395a3b0502d05e2516446f71f85b906000915b8583106106ed5750506105089350820101856104fb565b805483890185015287945086939092019181016106d6565b50346101db57806003193601126101db57546040516001600160a01b039091168152602090f35b50346101db5760203660031901126101db576020906040906001600160a01b03610754611c80565b168152600b83522054604051908152f35b50346101db57806003193601126101db57602060ff60065460081c166040519015158152f35b50346101db5760403660031901126101db576107a5611c80565b602435906001600160a01b03906107df337f0000000000000000000000000000000000000000000000000000000000000000841614611ff1565b61080a7f00000000000000000000000000000000000000000000000000000000000000004210612035565b60ff60065460101c1660048110156102dc579160209161084b7f9bbb607f9fd45dbd95a8e54a66a3b0b2ed37477c49c5d10415dc5cfb84261ecd9415611ed3565b610856851515612075565b1692838552600a82526040852061086e828254611f59565b905561087c81600854611f59565b600855604051908152a280f35b50346101db57806003193601126101db576020600754604051908152f35b50346101db57806003193601126101db57604051908082600554916108cb83611c9b565b92838352602094600191866001821691826000146109555750506001146108fb575b505061050892500383611cff565b90859250600582527f036b6384b5eca791c62761152d0c79bb0604c104a5fb6f4eb0703f3154bb3db05b85831061093d575050610508935082010138806108ed565b80548389018501528794508693909201918101610925565b925093505061050894915060ff191682840152151560051b82010138806108ed565b50346101db57806003193601126101db576001600160a01b03907f000000000000000000000000000000000000000000000000000000000000000082163303610b57576006549160ff8360101c169260048410156103365760018403610b125760075462093a808101809111610afe574210610ac3576203000160ff9162ff00ff19161791826006557f0000000000000000000000000000000000000000000000000000000000000000169160101c16926004841015610336578293823b15610abe57604051631d8e204760e01b815260ff9283166004820152911660248201529082908290604490829084905af18015610ab357610a9f575b507f110eefe47fb2df2a2f3149d618851e6ab16e70a4e6f3872b7c260bd48eec14fe6020604051428152a180f35b610aa890611cd5565b6101db578038610a71565b6040513d84823e3d90fd5b505050fd5b60405162461bcd60e51b8152602060048201526013602482015272151a5b595bdd5d081b9bdd081c995858da1959606a1b6044820152606490fd5b634e487b7160e01b84526011600452602484fd5b60405162461bcd60e51b815260206004820152601f60248201527f43616e206f6e6c792063616e63656c207768696c65207265736f6c76696e67006044820152606490fd5b60405162461bcd60e51b815260206004820152601760248201527f4f6e6c792063726561746f722063616e2063616e63656c0000000000000000006044820152606490fd5b50346101db5760203660031901126101db5760209060ff906040906001600160a01b03610bc7611c80565b168152600c84522054166040519015158152f35b50346101db57806003193601126101db576020600854604051908152f35b50346101db57806003193601126101db57610c126120b8565b600080546001600160a01b0319811682556001600160a01b03167f8be0079c531659141344cd1fd0a4f28419497f9722a3daafe3b4186f6b6457e08280a380f35b50346101db57806003193601126101db5760065460085460095490600d5492610c7a611d21565b93610c83611de7565b936040519360009560035495610c9887611c9b565b808252816020996001998b8b82169182600014610f82575050600114610f24575b610cc592500382611cff565b6040519160008360045491610cd983611c9b565b928383528c8c82169182600014610f07575050600114610ea9575b610d0092500384611cff565b6040518098600090600e5490610d1582611c9b565b918285528d8282169182600014610e8d575050600114610e42575b505003610d3d9089611cff565b6040517f00000000000000000000000000000000000000000000000000000000000000006001600160a01b031681526101a09981018a9052998a99610d8591908b0190611e86565b89810360408b0152610d9691611e86565b88810360608a0152610da791611e86565b8781036080890152610db891611e86565b937f000000000000000000000000000000000000000000000000000000000000000060a08801527f000000000000000000000000000000000000000000000000000000000000000060c088015260ff8116151560e088015260081c60ff16151561010087015261012086015261014085015261016084015282810361018084015261051c91611e86565b908c9250600e6000526000805160206120e5833981519152916000925b828410610e73575050508201018c80610d30565b84929582958583549201015201910190928c928c94610e5f565b925093505060ff191682840152151560051b8201018c80610d30565b50506004600052838a7f8a35acfbc15ff81a39ae7d344fd709f28e8600b4aa8c65c6b64bfe7fe36bd19b8b6000915b858310610eee575050610d009350820101610cf4565b80919294505483858a0101520191018b908b8793610ed8565b60ff191684820152610d0094151560051b8401019150610cf49050565b5050600360005281897fc2575a0e9e593c00f959f8c92f12db2869c3395a3b0502d05e2516446f71f85b8a6000915b858310610f69575050610cc59350820101610cb9565b8091929450548385880101520191018a908a8593610f53565b60ff191684820152610cc594151560051b8401019150610cb99050565b50346101db57806003193601126101db5761051c610fbb611de7565b604051918291602083526020830190611e86565b50346101db57806003193601126101db577f9b779b17422d0df92223018b32b4d1fa46e071723d6817e2486d003becc55f009060028254146112d157600282556006549160ff83161561129557338252602092600c845260ff60408420541661125e5760ff8160101c16600481101561124a576003036111995750338252600a83526110686040832054600b8552604084205490611f59565b611073811515611fb2565b33808452600c85526040808520805460ff191660011790555163a9059cbb60e01b81526004810191909152602481018290528481604481877f00000000000000000000000000000000000000000000000000000000000000006001600160a01b03165af190811561118e578491611154575b501561111d577f1a31e733a172afcf46074b3106c17f0c298e226442682a03c1e99ce256139ec2600193946040519283523392a25580f35b60405162461bcd60e51b815260048101859052600f60248201526e151c985b9cd9995c8819985a5b1959608a1b6044820152606490fd5b90508481813d8311611187575b61116b8183611cff565b810103126111835751801515810361118357386110e5565b8380fd5b503d611161565b6040513d86823e3d90fd5b60081c60ff16156111ff57600854806111c95750338252600b835260408220546111c4811515611fb2565b611073565b6111c490338452600a85526111f96040852054916111e8831515611f66565b6111f460095484611f10565b611f39565b90611f59565b6009548061121f5750338252600a835260408220546111c4811515611fb2565b6111c490338452600b85526111f960408520549161123e831515611f66565b6111f460085484611f10565b634e487b7160e01b84526021600452602484fd5b60405162461bcd60e51b815260048101859052600f60248201526e105b1c9958591e4818db185a5b5959608a1b6044820152606490fd5b60405162461bcd60e51b815260206004820152601460248201527310995d081b9bdd081c995cdbdb1d9959081e595d60621b6044820152606490fd5b604051633ee5aeb560e01b8152600490fd5b50346101db57806003193601126101db5761051c610fbb611d21565b50346101db57806003193601126101db576020600d54604051908152f35b50346101db5760203660031901126101db5760409061133a611c80565b6001600160a01b03168152600a602090815282822054600b9091528282205482918290801515806113fd575b6113c8575b50811515806113bd575b611388575b505082519182526020820152f35b6008546113ae93509081156113b557506113a56111f99183611f10565b60095490611f39565b388061137a565b905090611f59565b506009541515611375565b6009549194506113ee9180156113f5576113e56111f99183611f10565b60085490611f39565b923861136b565b508490611f59565b506008541515611366565b50346101db5760203660031901126101db576040906001600160a01b0361142d611c80565b168152600a602052818082205491600b602052205482519182526020820152f35b50346101db57806003193601126101db576001600160a01b03907f000000000000000000000000000000000000000000000000000000000000000082163303611643577f000000000000000000000000000000000000000000000000000000000000000042106115fe5760065460ff8160101c16906004821015610336576201000060ff916114dd8415611ed3565b62ff00001916179384600655426007557f0000000000000000000000000000000000000000000000000000000000000000169360101c1690600482101561033657833b156115fa57604051631d8e204760e01b815260ff918216600482015291166024820152818160448183875af18015610ab3579082916115e6575b50507f00000000000000000000000000000000000000000000000000000000000000009160038310156115d2578192813b156115ce5760ff602484928360405195869485936312ed593760e31b85521660048401525af18015610ab3576115be5750f35b6115c790611cd5565b6101db5780f35b5050fd5b634e487b7160e01b82526021600452602482fd5b6115ef90611cd5565b6101db57803861155a565b8280fd5b60405162461bcd60e51b815260206004820152601e60248201527f43616e6e6f74207265736f6c7665206265666f726520656e64206461746500006044820152606490fd5b60405162461bcd60e51b815260206004820152601860248201527f4f6e6c792063726561746f722063616e207265736f6c766500000000000000006044820152606490fd5b50346101db5760203660031901126101db5760043567ffffffffffffffff8082116115fa57366023830112156115fa57816004013581811161118357820160248101368111611b86576001600160a01b03917f000000000000000000000000000000000000000000000000000000000000000083163303611b8a578460e0910312611b8657602484013593828516809503611b825761172960448201611ec6565b9461173660648301611ec6565b9060e4830135868111611b7e57830184604382011215611b7e576024810135878111611b6a57908991604051966117776020601f19601f8501160189611cff565b818852604482840101116115fa578060446020930183890137860101523003611b2c5760065494600460ff8760101c161015611b1857600160ff8760101c1603611ad35760ff19861660011760065560c4830135600d558351908111611abf576117e2600e54611c9b565b601f8111611a58575b50806020601f82116001146119e75789916119dc575b508160011b916000199060031b1c191617600e555b156119685750506203000062ff00001960065416176006557f110eefe47fb2df2a2f3149d618851e6ab16e70a4e6f3872b7c260bd48eec14fe6020604051428152a15b60ff60065460101c169060048210156102dc57908185927f0000000000000000000000000000000000000000000000000000000000000000163b156115fa57604051631d8e204760e01b815260ff60109590951c85166004820152919093166024820152918290604490829084907f0000000000000000000000000000000000000000000000000000000000000000165af1801561195d57611927575b5060207fad24b3d82d5622fb9874775664b448323c0cd92415340fd16bb0dcdd9223d919916040519015158152a180f35b7fad24b3d82d5622fb9874775664b448323c0cd92415340fd16bb0dcdd9223d9199192611955602092611cd5565b9291506118f6565b6040513d85823e3d90fd5b7f901ef2b1d58e0424d4371c33a6d269cadf61c7f9c58f6f5347a6a157476ba581916119d4861515916202000060065461ff008560081b169062ffff001916171760065560c4604051948594855242602086015201356040840152608060608401526080830190611e86565b0390a1611859565b905084015138611801565b9150600e89526000805160206120e583398151915289925b601f1983168410611a40576001935082601f19811610611a27575b5050811b01600e55611816565b86015160001960f88460031b161c191690553880611a1a565b868101518255602093840193600190920191016119ff565b600e8952601f820160051c6000805160206120e58339815191520160208310611aaa575b601f820160051c6000805160206120e5833981519152018110611a9f57506117eb565b898155600101611a7c565b506000805160206120e5833981519152611a7c565b634e487b7160e01b88526041600452602488fd5b60405162461bcd60e51b815260206004820152601760248201527f4e6f74206177616974696e67207265736f6c7574696f6e0000000000000000006044820152606490fd5b634e487b7160e01b88526021600452602488fd5b60405162461bcd60e51b815260206004820152601660248201527514995cdc1bdb9cd948199bdc881ddc9bdb99c818995d60521b6044820152606490fd5b634e487b7160e01b8a52604160045260248afd5b8880fd5b8580fd5b8480fd5b60405162461bcd60e51b815260206004820152601960248201527f4f6e6c7920666163746f72792063616e206469737061746368000000000000006044820152606490fd5b50346101db57806003193601126101db5760ff60065460101c1660405190600481101561033657602092508152f35b50346101db57806003193601126101db5760206040517f00000000000000000000000000000000000000000000000000000000000000008152f35b905034611c7c5781600319360112611c7c577f00000000000000000000000000000000000000000000000000000000000000006001600160a01b03168152602090f35b5080fd5b600435906001600160a01b0382168203611c9657565b600080fd5b90600182811c92168015611ccb575b6020831014611cb557565b634e487b7160e01b600052602260045260246000fd5b91607f1691611caa565b67ffffffffffffffff8111611ce957604052565b634e487b7160e01b600052604160045260246000fd5b90601f8019910116810190811067ffffffffffffffff821117611ce957604052565b60405190600082600191600154611d3781611c9b565b8084529360209160018116908115611dc35750600114611d62575b5050611d6092500383611cff565b565b91509260016000527fb10e2d527612073b26eecdfd717e6a320cf44b4afac2b0732d9fcbe2b7fa0cf6936000925b828410611dab5750611d609450505081016020013880611d52565b85548885018301529485019487945092810192611d90565b91505060209250611d6094915060ff191682840152151560051b8201013880611d52565b6040519060008260025491611dfb83611c9b565b80835292602090600190818116908115611dc35750600114611e25575050611d6092500383611cff565b91509260026000527f405787fa12a823e0f2b7631cc41b3ba8828b3321ca811111fa75cd3aa3bb5ace936000925b828410611e6e5750611d609450505081016020013880611d52565b85548885018301529485019487945092810192611e53565b919082519283825260005b848110611eb2575050826000602080949584010152601f8019910116010190565b602081830181015184830182015201611e91565b35908115158203611c9657565b15611eda57565b60405162461bcd60e51b815260206004820152600e60248201526d426574206e6f742061637469766560901b6044820152606490fd5b81810292918115918404141715611f2357565b634e487b7160e01b600052601160045260246000fd5b8115611f43570490565b634e487b7160e01b600052601260045260246000fd5b91908201809211611f2357565b15611f6d57565b60405162461bcd60e51b815260206004820152601760248201527f4e6f2077696e6e696e672062657420746f20636c61696d0000000000000000006044820152606490fd5b15611fb957565b60405162461bcd60e51b815260206004820152601060248201526f139bc818995d081d1bc81c99599d5b9960821b6044820152606490fd5b15611ff857565b60405162461bcd60e51b815260206004820152601560248201527413db9b1e48199858dd1bdc9e4818d85b8818d85b1b605a1b6044820152606490fd5b1561203c57565b60405162461bcd60e51b815260206004820152601160248201527010995d1d1a5b99c81a185cc8195b991959607a1b6044820152606490fd5b1561207c57565b60405162461bcd60e51b815260206004820152601460248201527304d75737420626574206d6f7265207468616e20360641b6044820152606490fd5b6000546001600160a01b031633036120cc57565b60405163118cdaa760e01b8152336004820152602490fdfebb7b4a454dc3493923482f07822329ed19e8244eff582cc204f8554c3620c3fda2646970667358221220129d9fe9b06266dfee018e132c35aa9b5c32e0eb3cf6c65c82fbe2cc636545fe64736f6c63430008160033405787fa12a823e0f2b7631cc41b3ba8828b3321ca811111fa75cd3aa3bb5aceb10e2d527612073b26eecdfd717e6a320cf44b4afac2b0732d9fcbe2b7fa0cf6a2646970667358221220ddd6695f20f43cc3cc46b5520857a151023763cba6c3d591e5e540611e0d678764736f6c63430008160033",
  "linkReferences": {},
  "deployedLinkReferences": {}
}